{
  "_format": "hh-sol-artifact-1",
  "contractName": "AgroasysEscrow",
  "sourceName": "src/AgroasysEscrow.sol",
  "abi": [
    {
      "inputs": [
        {
          "internalType": "address",
          "name": "_usdcToken",
          "type": "address"
        },
        {
          "internalType": "address",
          "name": "_oracleAddress",
          "type": "address"
        },
        {
          "internalType": "address",
          "name": "_treasuryAddress",
          "type": "address"
        },
        {
          "internalType": "address",
          "name": "_relayerAddress",
          "type": "address"
        },
        {
          "internalType": "address[]",
          "name": "_admins",
          "type": "address[]"
        },
        {
          "internalType": "uint256",
          "name": "_requiredApprovals",
          "type": "uint256"
        }
      ],
      "stateMutability": "nonpayable",
      "type": "constructor"
    },
    {
      "inputs": [],
      "name": "ECDSAInvalidSignature",
      "type": "error"
    },
    {
      "inputs": [
        {
          "internalType": "uint256",
          "name": "length",
          "type": "uint256"
        }
      ],
      "name": "ECDSAInvalidSignatureLength",
      "type": "error"
    },
    {
      "inputs": [
        {
          "internalType": "bytes32",
          "name": "s",
          "type": "bytes32"
        }
      ],
      "name": "ECDSAInvalidSignatureS",
      "type": "error"
    },
    {
      "inputs": [],
      "name": "EnforcedPause",
      "type": "error"
    },
    {
      "inputs": [],
      "name": "ExpectedPause",
      "type": "error"
    },
    {
      "inputs": [],
      "name": "ReentrancyGuardReentrantCall",
      "type": "error"
    },
    {
      "inputs": [
        {
          "internalType": "address",
          "name": "token",
          "type": "address"
        }
      ],
      "name": "SafeERC20FailedOperation",
      "type": "error"
    },
    {
      "anonymous": false,
      "inputs": [
        {
          "indexed": true,
          "internalType": "uint256",
          "name": "proposalId",
          "type": "uint256"
        },
        {
          "indexed": true,
          "internalType": "address",
          "name": "approver",
          "type": "address"
        },
        {
          "indexed": false,
          "internalType": "uint256",
          "name": "approvalCount",
          "type": "uint256"
        },
        {
          "indexed": false,
          "internalType": "uint256",
          "name": "requiredApprovals",
          "type": "uint256"
        }
      ],
      "name": "AdminAddApproved",
      "type": "event"
    },
    {
      "anonymous": false,
      "inputs": [
        {
          "indexed": true,
          "internalType": "uint256",
          "name": "proposalId",
          "type": "uint256"
        },
        {
          "indexed": true,
          "internalType": "address",
          "name": "cancelledBy",
          "type": "address"
        }
      ],
      "name": "AdminAddProposalExpiredCancelled",
      "type": "event"
    },
    {
      "anonymous": false,
      "inputs": [
        {
          "indexed": true,
          "internalType": "uint256",
          "name": "proposalId",
          "type": "uint256"
        },
        {
          "indexed": true,
          "internalType": "address",
          "name": "proposer",
          "type": "address"
        },
        {
          "indexed": true,
          "internalType": "address",
          "name": "newAdmin",
          "type": "address"
        },
        {
          "indexed": false,
          "internalType": "uint256",
          "name": "eta",
          "type": "uint256"
        }
      ],
      "name": "AdminAddProposed",
      "type": "event"
    },
    {
      "anonymous": false,
      "inputs": [
        {
          "indexed": true,
          "internalType": "address",
          "name": "newAdmin",
          "type": "address"
        }
      ],
      "name": "AdminAdded",
      "type": "event"
    },
    {
      "anonymous": false,
      "inputs": [
        {
          "indexed": true,
          "internalType": "uint256",
          "name": "tradeId",
          "type": "uint256"
        },
        {
          "indexed": false,
          "internalType": "uint256",
          "name": "arrivalTimestamp",
          "type": "uint256"
        }
      ],
      "name": "ArrivalConfirmed",
      "type": "event"
    },
    {
      "anonymous": false,
      "inputs": [
        {
          "indexed": true,
          "internalType": "address",
          "name": "user",
          "type": "address"
        },
        {
          "indexed": true,
          "internalType": "bytes32",
          "name": "action",
          "type": "bytes32"
        },
        {
          "indexed": false,
          "internalType": "uint256",
          "name": "nonce",
          "type": "uint256"
        },
        {
          "indexed": true,
          "internalType": "address",
          "name": "relayer",
          "type": "address"
        },
        {
          "indexed": false,
          "internalType": "uint256",
          "name": "deadline",
          "type": "uint256"
        }
      ],
      "name": "AuthorizationConsumed",
      "type": "event"
    },
    {
      "anonymous": false,
      "inputs": [
        {
          "indexed": true,
          "internalType": "uint256",
          "name": "tradeId",
          "type": "uint256"
        },
        {
          "indexed": true,
          "internalType": "address",
          "name": "buyer",
          "type": "address"
        },
        {
          "indexed": false,
          "internalType": "uint256",
          "name": "amount",
          "type": "uint256"
        },
        {
          "indexed": false,
          "internalType": "enum AgroasysEscrow.ClaimType",
          "name": "claimType",
          "type": "uint8"
        },
        {
          "indexed": true,
          "internalType": "address",
          "name": "triggeredBy",
          "type": "address"
        }
      ],
      "name": "BuyerRefundTransferred",
      "type": "event"
    },
    {
      "anonymous": false,
      "inputs": [
        {
          "indexed": true,
          "internalType": "uint256",
          "name": "tradeId",
          "type": "uint256"
        },
        {
          "indexed": true,
          "internalType": "address",
          "name": "recipient",
          "type": "address"
        },
        {
          "indexed": false,
          "internalType": "uint256",
          "name": "amount",
          "type": "uint256"
        },
        {
          "indexed": false,
          "internalType": "enum AgroasysEscrow.ClaimType",
          "name": "claimType",
          "type": "uint8"
        }
      ],
      "name": "ClaimableAccrued",
      "type": "event"
    },
    {
      "anonymous": false,
      "inputs": [
        {
          "indexed": true,
          "internalType": "address",
          "name": "triggeredBy",
          "type": "address"
        }
      ],
      "name": "ClaimsPaused",
      "type": "event"
    },
    {
      "anonymous": false,
      "inputs": [
        {
          "indexed": true,
          "internalType": "address",
          "name": "triggeredBy",
          "type": "address"
        }
      ],
      "name": "ClaimsUnpaused",
      "type": "event"
    },
    {
      "anonymous": false,
      "inputs": [
        {
          "indexed": true,
          "internalType": "uint256",
          "name": "proposalId",
          "type": "uint256"
        },
        {
          "indexed": true,
          "internalType": "address",
          "name": "approver",
          "type": "address"
        },
        {
          "indexed": false,
          "internalType": "uint256",
          "name": "approvalCount",
          "type": "uint256"
        },
        {
          "indexed": false,
          "internalType": "uint256",
          "name": "requiredApprovals",
          "type": "uint256"
        }
      ],
      "name": "DisputeApproved",
      "type": "event"
    },
    {
      "anonymous": false,
      "inputs": [
        {
          "indexed": true,
          "internalType": "uint256",
          "name": "proposalId",
          "type": "uint256"
        },
        {
          "indexed": true,
          "internalType": "uint256",
          "name": "tradeId",
          "type": "uint256"
        },
        {
          "indexed": false,
          "internalType": "enum AgroasysEscrow.DisputeStatus",
          "name": "disputeStatus",
          "type": "uint8"
        }
      ],
      "name": "DisputeFinalized",
      "type": "event"
    },
    {
      "anonymous": false,
      "inputs": [
        {
          "indexed": true,
          "internalType": "uint256",
          "name": "tradeId",
          "type": "uint256"
        }
      ],
      "name": "DisputeOpenedByBuyer",
      "type": "event"
    },
    {
      "anonymous": false,
      "inputs": [
        {
          "indexed": true,
          "internalType": "uint256",
          "name": "tradeId",
          "type": "uint256"
        },
        {
          "indexed": true,
          "internalType": "uint256",
          "name": "proposalId",
          "type": "uint256"
        },
        {
          "indexed": true,
          "internalType": "address",
          "name": "recipient",
          "type": "address"
        },
        {
          "indexed": false,
          "internalType": "uint256",
          "name": "amount",
          "type": "uint256"
        },
        {
          "indexed": false,
          "internalType": "enum AgroasysEscrow.DisputeStatus",
          "name": "payoutType",
          "type": "uint8"
        }
      ],
      "name": "DisputePayout",
      "type": "event"
    },
    {
      "anonymous": false,
      "inputs": [
        {
          "indexed": true,
          "internalType": "uint256",
          "name": "proposalId",
          "type": "uint256"
        },
        {
          "indexed": true,
          "internalType": "uint256",
          "name": "tradeId",
          "type": "uint256"
        },
        {
          "indexed": true,
          "internalType": "address",
          "name": "cancelledBy",
          "type": "address"
        }
      ],
      "name": "DisputeProposalExpiredCancelled",
      "type": "event"
    },
    {
      "anonymous": false,
      "inputs": [
        {
          "indexed": true,
          "internalType": "uint256",
          "name": "proposalId",
          "type": "uint256"
        },
        {
          "indexed": true,
          "internalType": "uint256",
          "name": "tradeId",
          "type": "uint256"
        },
        {
          "indexed": false,
          "internalType": "enum AgroasysEscrow.DisputeStatus",
          "name": "disputeStatus",
          "type": "uint8"
        },
        {
          "indexed": true,
          "internalType": "address",
          "name": "proposer",
          "type": "address"
        }
      ],
      "name": "DisputeSolutionProposed",
      "type": "event"
    },
    {
      "anonymous": false,
      "inputs": [
        {
          "indexed": true,
          "internalType": "uint256",
          "name": "tradeId",
          "type": "uint256"
        },
        {
          "indexed": true,
          "internalType": "address",
          "name": "supplier",
          "type": "address"
        },
        {
          "indexed": false,
          "internalType": "uint256",
          "name": "supplierSecondTranche",
          "type": "uint256"
        }
      ],
      "name": "FinalTrancheReleased",
      "type": "event"
    },
    {
      "anonymous": false,
      "inputs": [
        {
          "indexed": true,
          "internalType": "uint256",
          "name": "tradeId",
          "type": "uint256"
        },
        {
          "indexed": true,
          "internalType": "address",
          "name": "supplier",
          "type": "address"
        },
        {
          "indexed": false,
          "internalType": "uint256",
          "name": "supplierFirstTranche",
          "type": "uint256"
        },
        {
          "indexed": true,
          "internalType": "address",
          "name": "treasury",
          "type": "address"
        },
        {
          "indexed": false,
          "internalType": "uint256",
          "name": "logisticsAmount",
          "type": "uint256"
        }
      ],
      "name": "FundsReleasedStage1",
      "type": "event"
    },
    {
      "anonymous": false,
      "inputs": [
        {
          "indexed": true,
          "internalType": "uint256",
          "name": "tradeId",
          "type": "uint256"
        },
        {
          "indexed": true,
          "internalType": "address",
          "name": "buyer",
          "type": "address"
        },
        {
          "indexed": true,
          "internalType": "bytes32",
          "name": "usdcAuthorizationNonce",
          "type": "bytes32"
        },
        {
          "indexed": false,
          "internalType": "uint256",
          "name": "amount",
          "type": "uint256"
        }
      ],
      "name": "GaslessTradeFunded",
      "type": "event"
    },
    {
      "anonymous": false,
      "inputs": [
        {
          "indexed": true,
          "internalType": "uint256",
          "name": "tradeId",
          "type": "uint256"
        },
        {
          "indexed": true,
          "internalType": "address",
          "name": "buyer",
          "type": "address"
        },
        {
          "indexed": false,
          "internalType": "uint256",
          "name": "refundedAmount",
          "type": "uint256"
        }
      ],
      "name": "InTransitTimeoutRefunded",
      "type": "event"
    },
    {
      "anonymous": false,
      "inputs": [
        {
          "indexed": true,
          "internalType": "uint256",
          "name": "tradeId",
          "type": "uint256"
        },
        {
          "indexed": false,
          "internalType": "uint256",
          "name": "acceptedAt",
          "type": "uint256"
        }
      ],
      "name": "InspectionAcceptedForFinalRelease",
      "type": "event"
    },
    {
      "anonymous": false,
      "inputs": [
        {
          "indexed": true,
          "internalType": "uint256",
          "name": "tradeId",
          "type": "uint256"
        },
        {
          "indexed": false,
          "internalType": "uint256",
          "name": "inspectionAvailableAt",
          "type": "uint256"
        },
        {
          "indexed": false,
          "internalType": "uint256",
          "name": "inspectionWindowSeconds",
          "type": "uint256"
        },
        {
          "indexed": false,
          "internalType": "uint256",
          "name": "noticeDeadline",
          "type": "uint256"
        }
      ],
      "name": "InspectionAvailable",
      "type": "event"
    },
    {
      "anonymous": false,
      "inputs": [
        {
          "indexed": true,
          "internalType": "address",
          "name": "by",
          "type": "address"
        },
        {
          "indexed": true,
          "internalType": "address",
          "name": "previousOracle",
          "type": "address"
        }
      ],
      "name": "OracleDisabledEmergency",
      "type": "event"
    },
    {
      "anonymous": false,
      "inputs": [
        {
          "indexed": true,
          "internalType": "uint256",
          "name": "proposalId",
          "type": "uint256"
        },
        {
          "indexed": true,
          "internalType": "address",
          "name": "approver",
          "type": "address"
        },
        {
          "indexed": false,
          "internalType": "uint256",
          "name": "approvalCount",
          "type": "uint256"
        },
        {
          "indexed": false,
          "internalType": "uint256",
          "name": "requiredApprovals",
          "type": "uint256"
        }
      ],
      "name": "OracleUpdateApproved",
      "type": "event"
    },
    {
      "anonymous": false,
      "inputs": [
        {
          "indexed": true,
          "internalType": "uint256",
          "name": "proposalId",
          "type": "uint256"
        },
        {
          "indexed": true,
          "internalType": "address",
          "name": "cancelledBy",
          "type": "address"
        }
      ],
      "name": "OracleUpdateProposalExpiredCancelled",
      "type": "event"
    },
    {
      "anonymous": false,
      "inputs": [
        {
          "indexed": true,
          "internalType": "uint256",
          "name": "proposalId",
          "type": "uint256"
        },
        {
          "indexed": true,
          "internalType": "address",
          "name": "proposer",
          "type": "address"
        },
        {
          "indexed": true,
          "internalType": "address",
          "name": "newOracle",
          "type": "address"
        },
        {
          "indexed": false,
          "internalType": "uint256",
          "name": "eta",
          "type": "uint256"
        },
        {
          "indexed": false,
          "internalType": "bool",
          "name": "emergencyFastTrack",
          "type": "bool"
        }
      ],
      "name": "OracleUpdateProposed",
      "type": "event"
    },
    {
      "anonymous": false,
      "inputs": [
        {
          "indexed": true,
          "internalType": "address",
          "name": "oldOracle",
          "type": "address"
        },
        {
          "indexed": true,
          "internalType": "address",
          "name": "newOracle",
          "type": "address"
        }
      ],
      "name": "OracleUpdated",
      "type": "event"
    },
    {
      "anonymous": false,
      "inputs": [
        {
          "indexed": false,
          "internalType": "address",
          "name": "account",
          "type": "address"
        }
      ],
      "name": "Paused",
      "type": "event"
    },
    {
      "anonymous": false,
      "inputs": [
        {
          "indexed": true,
          "internalType": "uint256",
          "name": "tradeId",
          "type": "uint256"
        },
        {
          "indexed": true,
          "internalType": "address",
          "name": "treasury",
          "type": "address"
        },
        {
          "indexed": false,
          "internalType": "uint256",
          "name": "platformFeesAmount",
          "type": "uint256"
        },
        {
          "indexed": false,
          "internalType": "uint256",
          "name": "platformFeeNetAmount",
          "type": "uint256"
        },
        {
          "indexed": false,
          "internalType": "uint256",
          "name": "settlementSupportFeeAmount",
          "type": "uint256"
        }
      ],
      "name": "PlatformFeesPaidStage1",
      "type": "event"
    },
    {
      "anonymous": false,
      "inputs": [
        {
          "indexed": true,
          "internalType": "address",
          "name": "relayer",
          "type": "address"
        },
        {
          "indexed": true,
          "internalType": "address",
          "name": "user",
          "type": "address"
        },
        {
          "indexed": true,
          "internalType": "bytes32",
          "name": "action",
          "type": "bytes32"
        },
        {
          "indexed": false,
          "internalType": "uint256",
          "name": "tradeId",
          "type": "uint256"
        }
      ],
      "name": "RelayedActionExecuted",
      "type": "event"
    },
    {
      "anonymous": false,
      "inputs": [
        {
          "indexed": true,
          "internalType": "address",
          "name": "relayer",
          "type": "address"
        },
        {
          "indexed": false,
          "internalType": "bool",
          "name": "allowed",
          "type": "bool"
        },
        {
          "indexed": true,
          "internalType": "address",
          "name": "updatedBy",
          "type": "address"
        }
      ],
      "name": "RelayerUpdated",
      "type": "event"
    },
    {
      "anonymous": false,
      "inputs": [
        {
          "indexed": true,
          "internalType": "uint256",
          "name": "tradeId",
          "type": "uint256"
        },
        {
          "indexed": true,
          "internalType": "address",
          "name": "supplier",
          "type": "address"
        },
        {
          "indexed": false,
          "internalType": "uint256",
          "name": "amount",
          "type": "uint256"
        },
        {
          "indexed": false,
          "internalType": "enum AgroasysEscrow.ClaimType",
          "name": "claimType",
          "type": "uint8"
        },
        {
          "indexed": true,
          "internalType": "address",
          "name": "triggeredBy",
          "type": "address"
        }
      ],
      "name": "SupplierPayoutTransferred",
      "type": "event"
    },
    {
      "anonymous": false,
      "inputs": [
        {
          "indexed": true,
          "internalType": "uint256",
          "name": "tradeId",
          "type": "uint256"
        },
        {
          "indexed": true,
          "internalType": "address",
          "name": "buyer",
          "type": "address"
        },
        {
          "indexed": false,
          "internalType": "uint256",
          "name": "refundedAmount",
          "type": "uint256"
        }
      ],
      "name": "TradeCancelledAfterLockTimeout",
      "type": "event"
    },
    {
      "anonymous": false,
      "inputs": [
        {
          "indexed": true,
          "internalType": "uint256",
          "name": "tradeId",
          "type": "uint256"
        },
        {
          "indexed": true,
          "internalType": "address",
          "name": "buyer",
          "type": "address"
        },
        {
          "indexed": true,
          "internalType": "address",
          "name": "supplier",
          "type": "address"
        },
        {
          "indexed": false,
          "internalType": "uint256",
          "name": "totalAmount",
          "type": "uint256"
        },
        {
          "indexed": false,
          "internalType": "uint256",
          "name": "logisticsAmount",
          "type": "uint256"
        },
        {
          "indexed": false,
          "internalType": "uint256",
          "name": "platformFeesAmount",
          "type": "uint256"
        },
        {
          "indexed": false,
          "internalType": "uint256",
          "name": "supplierFirstTranche",
          "type": "uint256"
        },
        {
          "indexed": false,
          "internalType": "uint256",
          "name": "supplierSecondTranche",
          "type": "uint256"
        },
        {
          "indexed": false,
          "internalType": "bytes32",
          "name": "ricardianHash",
          "type": "bytes32"
        }
      ],
      "name": "TradeLocked",
      "type": "event"
    },
    {
      "anonymous": false,
      "inputs": [
        {
          "indexed": true,
          "internalType": "address",
          "name": "treasuryIdentity",
          "type": "address"
        },
        {
          "indexed": true,
          "internalType": "address",
          "name": "payoutReceiver",
          "type": "address"
        },
        {
          "indexed": false,
          "internalType": "uint256",
          "name": "amount",
          "type": "uint256"
        },
        {
          "indexed": false,
          "internalType": "address",
          "name": "triggeredBy",
          "type": "address"
        }
      ],
      "name": "TreasuryClaimed",
      "type": "event"
    },
    {
      "anonymous": false,
      "inputs": [
        {
          "indexed": true,
          "internalType": "uint256",
          "name": "proposalId",
          "type": "uint256"
        },
        {
          "indexed": true,
          "internalType": "address",
          "name": "approver",
          "type": "address"
        },
        {
          "indexed": false,
          "internalType": "uint256",
          "name": "approvalCount",
          "type": "uint256"
        },
        {
          "indexed": false,
          "internalType": "uint256",
          "name": "requiredApprovals",
          "type": "uint256"
        }
      ],
      "name": "TreasuryPayoutAddressUpdateApproved",
      "type": "event"
    },
    {
      "anonymous": false,
      "inputs": [
        {
          "indexed": true,
          "internalType": "uint256",
          "name": "proposalId",
          "type": "uint256"
        },
        {
          "indexed": true,
          "internalType": "address",
          "name": "cancelledBy",
          "type": "address"
        }
      ],
      "name": "TreasuryPayoutAddressUpdateProposalExpiredCancelled",
      "type": "event"
    },
    {
      "anonymous": false,
      "inputs": [
        {
          "indexed": true,
          "internalType": "uint256",
          "name": "proposalId",
          "type": "uint256"
        },
        {
          "indexed": true,
          "internalType": "address",
          "name": "proposer",
          "type": "address"
        },
        {
          "indexed": true,
          "internalType": "address",
          "name": "newPayoutReceiver",
          "type": "address"
        },
        {
          "indexed": false,
          "internalType": "uint256",
          "name": "eta",
          "type": "uint256"
        }
      ],
      "name": "TreasuryPayoutAddressUpdateProposed",
      "type": "event"
    },
    {
      "anonymous": false,
      "inputs": [
        {
          "indexed": true,
          "internalType": "address",
          "name": "oldPayoutReceiver",
          "type": "address"
        },
        {
          "indexed": true,
          "internalType": "address",
          "name": "newPayoutReceiver",
          "type": "address"
        }
      ],
      "name": "TreasuryPayoutAddressUpdated",
      "type": "event"
    },
    {
      "anonymous": false,
      "inputs": [
        {
          "indexed": true,
          "internalType": "address",
          "name": "approver",
          "type": "address"
        },
        {
          "indexed": false,
          "internalType": "uint256",
          "name": "approvalCount",
          "type": "uint256"
        },
        {
          "indexed": false,
          "internalType": "uint256",
          "name": "requiredApprovals",
          "type": "uint256"
        }
      ],
      "name": "UnpauseApproved",
      "type": "event"
    },
    {
      "anonymous": false,
      "inputs": [
        {
          "indexed": true,
          "internalType": "address",
          "name": "cancelledBy",
          "type": "address"
        }
      ],
      "name": "UnpauseProposalCancelled",
      "type": "event"
    },
    {
      "anonymous": false,
      "inputs": [
        {
          "indexed": true,
          "internalType": "address",
          "name": "proposer",
          "type": "address"
        }
      ],
      "name": "UnpauseProposed",
      "type": "event"
    },
    {
      "anonymous": false,
      "inputs": [
        {
          "indexed": false,
          "internalType": "address",
          "name": "account",
          "type": "address"
        }
      ],
      "name": "Unpaused",
      "type": "event"
    },
    {
      "inputs": [],
      "name": "ACTION_CANCEL_LOCKED_TIMEOUT",
      "outputs": [
        {
          "internalType": "bytes32",
          "name": "",
          "type": "bytes32"
        }
      ],
      "stateMutability": "view",
      "type": "function"
    },
    {
      "inputs": [],
      "name": "ACTION_CREATE_TRADE",
      "outputs": [
        {
          "internalType": "bytes32",
          "name": "",
          "type": "bytes32"
        }
      ],
      "stateMutability": "view",
      "type": "function"
    },
    {
      "inputs": [],
      "name": "ACTION_FINALIZE_AFTER_DISPUTE_WINDOW",
      "outputs": [
        {
          "internalType": "bytes32",
          "name": "",
          "type": "bytes32"
        }
      ],
      "stateMutability": "view",
      "type": "function"
    },
    {
      "inputs": [],
      "name": "ACTION_OPEN_DISPUTE",
      "outputs": [
        {
          "internalType": "bytes32",
          "name": "",
          "type": "bytes32"
        }
      ],
      "stateMutability": "view",
      "type": "function"
    },
    {
      "inputs": [],
      "name": "ACTION_REFUND_IN_TRANSIT_TIMEOUT",
      "outputs": [
        {
          "internalType": "bytes32",
          "name": "",
          "type": "bytes32"
        }
      ],
      "stateMutability": "view",
      "type": "function"
    },
    {
      "inputs": [],
      "name": "DISPUTE_PROPOSAL_TTL",
      "outputs": [
        {
          "internalType": "uint256",
          "name": "",
          "type": "uint256"
        }
      ],
      "stateMutability": "view",
      "type": "function"
    },
    {
      "inputs": [],
      "name": "GOVERNANCE_PROPOSAL_TTL",
      "outputs": [
        {
          "internalType": "uint256",
          "name": "",
          "type": "uint256"
        }
      ],
      "stateMutability": "view",
      "type": "function"
    },
    {
      "inputs": [],
      "name": "IN_TRANSIT_TIMEOUT",
      "outputs": [
        {
          "internalType": "uint256",
          "name": "",
          "type": "uint256"
        }
      ],
      "stateMutability": "view",
      "type": "function"
    },
    {
      "inputs": [],
      "name": "LOCK_TIMEOUT",
      "outputs": [
        {
          "internalType": "uint256",
          "name": "",
          "type": "uint256"
        }
      ],
      "stateMutability": "view",
      "type": "function"
    },
    {
      "inputs": [],
      "name": "PACKAGED_LOCAL_INSPECTION_WINDOW",
      "outputs": [
        {
          "internalType": "uint256",
          "name": "",
          "type": "uint256"
        }
      ],
      "stateMutability": "view",
      "type": "function"
    },
    {
      "inputs": [],
      "name": "STANDARD_INSPECTION_WINDOW",
      "outputs": [
        {
          "internalType": "uint256",
          "name": "",
          "type": "uint256"
        }
      ],
      "stateMutability": "view",
      "type": "function"
    },
    {
      "inputs": [],
      "name": "adminAddCounter",
      "outputs": [
        {
          "internalType": "uint256",
          "name": "",
          "type": "uint256"
        }
      ],
      "stateMutability": "view",
      "type": "function"
    },
    {
      "inputs": [
        {
          "internalType": "uint256",
          "name": "",
          "type": "uint256"
        },
        {
          "internalType": "address",
          "name": "",
          "type": "address"
        }
      ],
      "name": "adminAddHasApproved",
      "outputs": [
        {
          "internalType": "bool",
          "name": "",
          "type": "bool"
        }
      ],
      "stateMutability": "view",
      "type": "function"
    },
    {
      "inputs": [
        {
          "internalType": "uint256",
          "name": "",
          "type": "uint256"
        }
      ],
      "name": "adminAddProposalCancelled",
      "outputs": [
        {
          "internalType": "bool",
          "name": "",
          "type": "bool"
        }
      ],
      "stateMutability": "view",
      "type": "function"
    },
    {
      "inputs": [
        {
          "internalType": "uint256",
          "name": "",
          "type": "uint256"
        }
      ],
      "name": "adminAddProposalExpiresAt",
      "outputs": [
        {
          "internalType": "uint256",
          "name": "",
          "type": "uint256"
        }
      ],
      "stateMutability": "view",
      "type": "function"
    },
    {
      "inputs": [
        {
          "internalType": "uint256",
          "name": "",
          "type": "uint256"
        }
      ],
      "name": "adminAddProposals",
      "outputs": [
        {
          "internalType": "address",
          "name": "newAdmin",
          "type": "address"
        },
        {
          "internalType": "uint256",
          "name": "approvalCount",
          "type": "uint256"
        },
        {
          "internalType": "bool",
          "name": "executed",
          "type": "bool"
        },
        {
          "internalType": "uint256",
          "name": "createdAt",
          "type": "uint256"
        },
        {
          "internalType": "uint256",
          "name": "eta",
          "type": "uint256"
        },
        {
          "internalType": "address",
          "name": "proposer",
          "type": "address"
        }
      ],
      "stateMutability": "view",
      "type": "function"
    },
    {
      "inputs": [
        {
          "internalType": "uint256",
          "name": "",
          "type": "uint256"
        }
      ],
      "name": "admins",
      "outputs": [
        {
          "internalType": "address",
          "name": "",
          "type": "address"
        }
      ],
      "stateMutability": "view",
      "type": "function"
    },
    {
      "inputs": [
        {
          "internalType": "uint256",
          "name": "_proposalId",
          "type": "uint256"
        }
      ],
      "name": "approveAddAdmin",
      "outputs": [],
      "stateMutability": "nonpayable",
      "type": "function"
    },
    {
      "inputs": [
        {
          "internalType": "uint256",
          "name": "_proposalId",
          "type": "uint256"
        }
      ],
      "name": "approveDisputeSolution",
      "outputs": [],
      "stateMutability": "nonpayable",
      "type": "function"
    },
    {
      "inputs": [
        {
          "internalType": "uint256",
          "name": "_proposalId",
          "type": "uint256"
        }
      ],
      "name": "approveOracleUpdate",
      "outputs": [],
      "stateMutability": "nonpayable",
      "type": "function"
    },
    {
      "inputs": [
        {
          "internalType": "uint256",
          "name": "_proposalId",
          "type": "uint256"
        }
      ],
      "name": "approveTreasuryPayoutAddressUpdate",
      "outputs": [],
      "stateMutability": "nonpayable",
      "type": "function"
    },
    {
      "inputs": [],
      "name": "approveUnpause",
      "outputs": [],
      "stateMutability": "nonpayable",
      "type": "function"
    },
    {
      "inputs": [
        {
          "internalType": "address",
          "name": "",
          "type": "address"
        }
      ],
      "name": "authorizationNonces",
      "outputs": [
        {
          "internalType": "uint256",
          "name": "",
          "type": "uint256"
        }
      ],
      "stateMutability": "view",
      "type": "function"
    },
    {
      "inputs": [
        {
          "internalType": "uint256",
          "name": "_tradeId",
          "type": "uint256"
        }
      ],
      "name": "buyerRefundableAmount",
      "outputs": [
        {
          "internalType": "uint256",
          "name": "",
          "type": "uint256"
        }
      ],
      "stateMutability": "view",
      "type": "function"
    },
    {
      "inputs": [
        {
          "internalType": "uint256",
          "name": "_proposalId",
          "type": "uint256"
        }
      ],
      "name": "cancelExpiredAddAdminProposal",
      "outputs": [],
      "stateMutability": "nonpayable",
      "type": "function"
    },
    {
      "inputs": [
        {
          "internalType": "uint256",
          "name": "_proposalId",
          "type": "uint256"
        }
      ],
      "name": "cancelExpiredDisputeProposal",
      "outputs": [],
      "stateMutability": "nonpayable",
      "type": "function"
    },
    {
      "inputs": [
        {
          "internalType": "uint256",
          "name": "_proposalId",
          "type": "uint256"
        }
      ],
      "name": "cancelExpiredOracleUpdateProposal",
      "outputs": [],
      "stateMutability": "nonpayable",
      "type": "function"
    },
    {
      "inputs": [
        {
          "internalType": "uint256",
          "name": "_proposalId",
          "type": "uint256"
        }
      ],
      "name": "cancelExpiredTreasuryPayoutAddressUpdateProposal",
      "outputs": [],
      "stateMutability": "nonpayable",
      "type": "function"
    },
    {
      "inputs": [
        {
          "internalType": "uint256",
          "name": "_tradeId",
          "type": "uint256"
        },
        {
          "internalType": "uint256",
          "name": "_authorizationNonce",
          "type": "uint256"
        },
        {
          "internalType": "uint256",
          "name": "_authorizationDeadline",
          "type": "uint256"
        },
        {
          "internalType": "bytes",
          "name": "_authorizationSignature",
          "type": "bytes"
        }
      ],
      "name": "cancelLockedTradeAfterTimeoutWithAuthorization",
      "outputs": [],
      "stateMutability": "nonpayable",
      "type": "function"
    },
    {
      "inputs": [],
      "name": "cancelUnpauseProposal",
      "outputs": [],
      "stateMutability": "nonpayable",
      "type": "function"
    },
    {
      "inputs": [],
      "name": "claimTreasury",
      "outputs": [],
      "stateMutability": "nonpayable",
      "type": "function"
    },
    {
      "inputs": [
        {
          "internalType": "address",
          "name": "",
          "type": "address"
        }
      ],
      "name": "claimableUsdc",
      "outputs": [
        {
          "internalType": "uint256",
          "name": "",
          "type": "uint256"
        }
      ],
      "stateMutability": "view",
      "type": "function"
    },
    {
      "inputs": [],
      "name": "claimsPaused",
      "outputs": [
        {
          "internalType": "bool",
          "name": "",
          "type": "bool"
        }
      ],
      "stateMutability": "view",
      "type": "function"
    },
    {
      "inputs": [
        {
          "internalType": "uint256",
          "name": "_tradeId",
          "type": "uint256"
        }
      ],
      "name": "confirmArrival",
      "outputs": [],
      "stateMutability": "nonpayable",
      "type": "function"
    },
    {
      "inputs": [
        {
          "internalType": "uint256",
          "name": "_tradeId",
          "type": "uint256"
        },
        {
          "internalType": "uint256",
          "name": "_windowSeconds",
          "type": "uint256"
        }
      ],
      "name": "confirmInspectionAvailable",
      "outputs": [],
      "stateMutability": "nonpayable",
      "type": "function"
    },
    {
      "inputs": [
        {
          "internalType": "address",
          "name": "_buyer",
          "type": "address"
        },
        {
          "internalType": "address",
          "name": "_supplier",
          "type": "address"
        },
        {
          "internalType": "uint256",
          "name": "_totalAmount",
          "type": "uint256"
        },
        {
          "internalType": "uint256",
          "name": "_logisticsAmount",
          "type": "uint256"
        },
        {
          "internalType": "uint256",
          "name": "_platformFeesAmount",
          "type": "uint256"
        },
        {
          "internalType": "uint256",
          "name": "_supplierFirstTranche",
          "type": "uint256"
        },
        {
          "internalType": "uint256",
          "name": "_supplierSecondTranche",
          "type": "uint256"
        },
        {
          "internalType": "bytes32",
          "name": "_ricardianHash",
          "type": "bytes32"
        },
        {
          "internalType": "uint256",
          "name": "_authorizationNonce",
          "type": "uint256"
        },
        {
          "internalType": "uint256",
          "name": "_authorizationDeadline",
          "type": "uint256"
        },
        {
          "internalType": "bytes",
          "name": "_authorizationSignature",
          "type": "bytes"
        },
        {
          "components": [
            {
              "internalType": "uint256",
              "name": "validAfter",
              "type": "uint256"
            },
            {
              "internalType": "uint256",
              "name": "validBefore",
              "type": "uint256"
            },
            {
              "internalType": "bytes32",
              "name": "nonce",
              "type": "bytes32"
            },
            {
              "internalType": "uint8",
              "name": "v",
              "type": "uint8"
            },
            {
              "internalType": "bytes32",
              "name": "r",
              "type": "bytes32"
            },
            {
              "internalType": "bytes32",
              "name": "s",
              "type": "bytes32"
            }
          ],
          "internalType": "struct AgroasysEscrow.UsdcAuthorization",
          "name": "_usdcAuthorization",
          "type": "tuple"
        }
      ],
      "name": "createTradeWithAuthorization",
      "outputs": [
        {
          "internalType": "uint256",
          "name": "",
          "type": "uint256"
        }
      ],
      "stateMutability": "nonpayable",
      "type": "function"
    },
    {
      "inputs": [],
      "name": "disableOracleEmergency",
      "outputs": [],
      "stateMutability": "nonpayable",
      "type": "function"
    },
    {
      "inputs": [],
      "name": "disputeCounter",
      "outputs": [
        {
          "internalType": "uint256",
          "name": "",
          "type": "uint256"
        }
      ],
      "stateMutability": "view",
      "type": "function"
    },
    {
      "inputs": [
        {
          "internalType": "uint256",
          "name": "",
          "type": "uint256"
        },
        {
          "internalType": "address",
          "name": "",
          "type": "address"
        }
      ],
      "name": "disputeHasApproved",
      "outputs": [
        {
          "internalType": "bool",
          "name": "",
          "type": "bool"
        }
      ],
      "stateMutability": "view",
      "type": "function"
    },
    {
      "inputs": [
        {
          "internalType": "uint256",
          "name": "",
          "type": "uint256"
        }
      ],
      "name": "disputeProposalCancelled",
      "outputs": [
        {
          "internalType": "bool",
          "name": "",
          "type": "bool"
        }
      ],
      "stateMutability": "view",
      "type": "function"
    },
    {
      "inputs": [
        {
          "internalType": "uint256",
          "name": "",
          "type": "uint256"
        }
      ],
      "name": "disputeProposalExpiresAt",
      "outputs": [
        {
          "internalType": "uint256",
          "name": "",
          "type": "uint256"
        }
      ],
      "stateMutability": "view",
      "type": "function"
    },
    {
      "inputs": [
        {
          "internalType": "uint256",
          "name": "",
          "type": "uint256"
        }
      ],
      "name": "disputeProposals",
      "outputs": [
        {
          "internalType": "uint256",
          "name": "tradeId",
          "type": "uint256"
        },
        {
          "internalType": "enum AgroasysEscrow.DisputeStatus",
          "name": "disputeStatus",
          "type": "uint8"
        },
        {
          "internalType": "uint256",
          "name": "approvalCount",
          "type": "uint256"
        },
        {
          "internalType": "bool",
          "name": "executed",
          "type": "bool"
        },
        {
          "internalType": "uint256",
          "name": "createdAt",
          "type": "uint256"
        },
        {
          "internalType": "address",
          "name": "proposer",
          "type": "address"
        }
      ],
      "stateMutability": "view",
      "type": "function"
    },
    {
      "inputs": [
        {
          "internalType": "uint256",
          "name": "_proposalId",
          "type": "uint256"
        }
      ],
      "name": "executeAddAdmin",
      "outputs": [],
      "stateMutability": "nonpayable",
      "type": "function"
    },
    {
      "inputs": [
        {
          "internalType": "uint256",
          "name": "_proposalId",
          "type": "uint256"
        }
      ],
      "name": "executeOracleUpdate",
      "outputs": [],
      "stateMutability": "nonpayable",
      "type": "function"
    },
    {
      "inputs": [
        {
          "internalType": "uint256",
          "name": "_proposalId",
          "type": "uint256"
        }
      ],
      "name": "executeTreasuryPayoutAddressUpdate",
      "outputs": [],
      "stateMutability": "nonpayable",
      "type": "function"
    },
    {
      "inputs": [
        {
          "internalType": "uint256",
          "name": "_tradeId",
          "type": "uint256"
        }
      ],
      "name": "finalizeAfterDisputeWindow",
      "outputs": [],
      "stateMutability": "nonpayable",
      "type": "function"
    },
    {
      "inputs": [
        {
          "internalType": "uint256",
          "name": "_tradeId",
          "type": "uint256"
        },
        {
          "internalType": "uint256",
          "name": "_authorizationNonce",
          "type": "uint256"
        },
        {
          "internalType": "uint256",
          "name": "_authorizationDeadline",
          "type": "uint256"
        },
        {
          "internalType": "bytes",
          "name": "_authorizationSignature",
          "type": "bytes"
        }
      ],
      "name": "finalizeAfterDisputeWindowWithAuthorization",
      "outputs": [],
      "stateMutability": "nonpayable",
      "type": "function"
    },
    {
      "inputs": [
        {
          "internalType": "uint256",
          "name": "_tradeId",
          "type": "uint256"
        }
      ],
      "name": "finalizeAfterInspectionAcceptance",
      "outputs": [],
      "stateMutability": "nonpayable",
      "type": "function"
    },
    {
      "inputs": [
        {
          "internalType": "address",
          "name": "user",
          "type": "address"
        }
      ],
      "name": "getAuthorizationNonce",
      "outputs": [
        {
          "internalType": "uint256",
          "name": "",
          "type": "uint256"
        }
      ],
      "stateMutability": "view",
      "type": "function"
    },
    {
      "inputs": [],
      "name": "getNextTradeId",
      "outputs": [
        {
          "internalType": "uint256",
          "name": "",
          "type": "uint256"
        }
      ],
      "stateMutability": "view",
      "type": "function"
    },
    {
      "inputs": [],
      "name": "governanceApprovals",
      "outputs": [
        {
          "internalType": "uint256",
          "name": "",
          "type": "uint256"
        }
      ],
      "stateMutability": "view",
      "type": "function"
    },
    {
      "inputs": [],
      "name": "governanceTimelock",
      "outputs": [
        {
          "internalType": "uint256",
          "name": "",
          "type": "uint256"
        }
      ],
      "stateMutability": "view",
      "type": "function"
    },
    {
      "inputs": [],
      "name": "hasActiveUnpauseProposal",
      "outputs": [
        {
          "internalType": "bool",
          "name": "",
          "type": "bool"
        }
      ],
      "stateMutability": "view",
      "type": "function"
    },
    {
      "inputs": [],
      "name": "hasPendingTreasuryPayoutAddressUpdateProposal",
      "outputs": [
        {
          "internalType": "bool",
          "name": "",
          "type": "bool"
        }
      ],
      "stateMutability": "view",
      "type": "function"
    },
    {
      "inputs": [
        {
          "internalType": "uint256",
          "name": "",
          "type": "uint256"
        }
      ],
      "name": "inTransitSince",
      "outputs": [
        {
          "internalType": "uint256",
          "name": "",
          "type": "uint256"
        }
      ],
      "stateMutability": "view",
      "type": "function"
    },
    {
      "inputs": [
        {
          "internalType": "uint256",
          "name": "_tradeId",
          "type": "uint256"
        }
      ],
      "name": "inspectionDeadline",
      "outputs": [
        {
          "internalType": "uint256",
          "name": "",
          "type": "uint256"
        }
      ],
      "stateMutability": "view",
      "type": "function"
    },
    {
      "inputs": [
        {
          "internalType": "uint256",
          "name": "",
          "type": "uint256"
        }
      ],
      "name": "inspectionWindowSeconds",
      "outputs": [
        {
          "internalType": "uint256",
          "name": "",
          "type": "uint256"
        }
      ],
      "stateMutability": "view",
      "type": "function"
    },
    {
      "inputs": [
        {
          "internalType": "address",
          "name": "",
          "type": "address"
        }
      ],
      "name": "isAdmin",
      "outputs": [
        {
          "internalType": "bool",
          "name": "",
          "type": "bool"
        }
      ],
      "stateMutability": "view",
      "type": "function"
    },
    {
      "inputs": [
        {
          "internalType": "address",
          "name": "",
          "type": "address"
        }
      ],
      "name": "isRelayer",
      "outputs": [
        {
          "internalType": "bool",
          "name": "",
          "type": "bool"
        }
      ],
      "stateMutability": "view",
      "type": "function"
    },
    {
      "inputs": [
        {
          "internalType": "uint256",
          "name": "_tradeId",
          "type": "uint256"
        }
      ],
      "name": "nonRefundableFeeAmount",
      "outputs": [
        {
          "internalType": "uint256",
          "name": "",
          "type": "uint256"
        }
      ],
      "stateMutability": "view",
      "type": "function"
    },
    {
      "inputs": [
        {
          "internalType": "uint256",
          "name": "_tradeId",
          "type": "uint256"
        },
        {
          "internalType": "uint256",
          "name": "_authorizationNonce",
          "type": "uint256"
        },
        {
          "internalType": "uint256",
          "name": "_authorizationDeadline",
          "type": "uint256"
        },
        {
          "internalType": "bytes",
          "name": "_authorizationSignature",
          "type": "bytes"
        }
      ],
      "name": "openDisputeWithAuthorization",
      "outputs": [],
      "stateMutability": "nonpayable",
      "type": "function"
    },
    {
      "inputs": [],
      "name": "oracleActive",
      "outputs": [
        {
          "internalType": "bool",
          "name": "",
          "type": "bool"
        }
      ],
      "stateMutability": "view",
      "type": "function"
    },
    {
      "inputs": [],
      "name": "oracleAddress",
      "outputs": [
        {
          "internalType": "address",
          "name": "",
          "type": "address"
        }
      ],
      "stateMutability": "view",
      "type": "function"
    },
    {
      "inputs": [],
      "name": "oracleUpdateCounter",
      "outputs": [
        {
          "internalType": "uint256",
          "name": "",
          "type": "uint256"
        }
      ],
      "stateMutability": "view",
      "type": "function"
    },
    {
      "inputs": [
        {
          "internalType": "uint256",
          "name": "",
          "type": "uint256"
        },
        {
          "internalType": "address",
          "name": "",
          "type": "address"
        }
      ],
      "name": "oracleUpdateHasApproved",
      "outputs": [
        {
          "internalType": "bool",
          "name": "",
          "type": "bool"
        }
      ],
      "stateMutability": "view",
      "type": "function"
    },
    {
      "inputs": [
        {
          "internalType": "uint256",
          "name": "",
          "type": "uint256"
        }
      ],
      "name": "oracleUpdateProposalCancelled",
      "outputs": [
        {
          "internalType": "bool",
          "name": "",
          "type": "bool"
        }
      ],
      "stateMutability": "view",
      "type": "function"
    },
    {
      "inputs": [
        {
          "internalType": "uint256",
          "name": "",
          "type": "uint256"
        }
      ],
      "name": "oracleUpdateProposalExpiresAt",
      "outputs": [
        {
          "internalType": "uint256",
          "name": "",
          "type": "uint256"
        }
      ],
      "stateMutability": "view",
      "type": "function"
    },
    {
      "inputs": [
        {
          "internalType": "uint256",
          "name": "",
          "type": "uint256"
        }
      ],
      "name": "oracleUpdateProposals",
      "outputs": [
        {
          "internalType": "address",
          "name": "newOracle",
          "type": "address"
        },
        {
          "internalType": "uint256",
          "name": "approvalCount",
          "type": "uint256"
        },
        {
          "internalType": "bool",
          "name": "executed",
          "type": "bool"
        },
        {
          "internalType": "uint256",
          "name": "createdAt",
          "type": "uint256"
        },
        {
          "internalType": "uint256",
          "name": "eta",
          "type": "uint256"
        },
        {
          "internalType": "address",
          "name": "proposer",
          "type": "address"
        },
        {
          "internalType": "bool",
          "name": "emergencyFastTrack",
          "type": "bool"
        }
      ],
      "stateMutability": "view",
      "type": "function"
    },
    {
      "inputs": [],
      "name": "pause",
      "outputs": [],
      "stateMutability": "nonpayable",
      "type": "function"
    },
    {
      "inputs": [],
      "name": "pauseClaims",
      "outputs": [],
      "stateMutability": "nonpayable",
      "type": "function"
    },
    {
      "inputs": [],
      "name": "paused",
      "outputs": [
        {
          "internalType": "bool",
          "name": "",
          "type": "bool"
        }
      ],
      "stateMutability": "view",
      "type": "function"
    },
    {
      "inputs": [
        {
          "internalType": "address",
          "name": "_newAdmin",
          "type": "address"
        }
      ],
      "name": "proposeAddAdmin",
      "outputs": [
        {
          "internalType": "uint256",
          "name": "",
          "type": "uint256"
        }
      ],
      "stateMutability": "nonpayable",
      "type": "function"
    },
    {
      "inputs": [
        {
          "internalType": "uint256",
          "name": "_tradeId",
          "type": "uint256"
        },
        {
          "internalType": "enum AgroasysEscrow.DisputeStatus",
          "name": "_disputeStatus",
          "type": "uint8"
        }
      ],
      "name": "proposeDisputeSolution",
      "outputs": [
        {
          "internalType": "uint256",
          "name": "",
          "type": "uint256"
        }
      ],
      "stateMutability": "nonpayable",
      "type": "function"
    },
    {
      "inputs": [
        {
          "internalType": "address",
          "name": "_newOracle",
          "type": "address"
        }
      ],
      "name": "proposeOracleUpdate",
      "outputs": [
        {
          "internalType": "uint256",
          "name": "",
          "type": "uint256"
        }
      ],
      "stateMutability": "nonpayable",
      "type": "function"
    },
    {
      "inputs": [
        {
          "internalType": "address",
          "name": "_newPayoutReceiver",
          "type": "address"
        }
      ],
      "name": "proposeTreasuryPayoutAddressUpdate",
      "outputs": [
        {
          "internalType": "uint256",
          "name": "",
          "type": "uint256"
        }
      ],
      "stateMutability": "nonpayable",
      "type": "function"
    },
    {
      "inputs": [],
      "name": "proposeUnpause",
      "outputs": [
        {
          "internalType": "bool",
          "name": "",
          "type": "bool"
        }
      ],
      "stateMutability": "nonpayable",
      "type": "function"
    },
    {
      "inputs": [
        {
          "internalType": "uint256",
          "name": "_tradeId",
          "type": "uint256"
        },
        {
          "internalType": "uint256",
          "name": "_authorizationNonce",
          "type": "uint256"
        },
        {
          "internalType": "uint256",
          "name": "_authorizationDeadline",
          "type": "uint256"
        },
        {
          "internalType": "bytes",
          "name": "_authorizationSignature",
          "type": "bytes"
        }
      ],
      "name": "refundInTransitAfterTimeoutWithAuthorization",
      "outputs": [],
      "stateMutability": "nonpayable",
      "type": "function"
    },
    {
      "inputs": [
        {
          "internalType": "uint256",
          "name": "_tradeId",
          "type": "uint256"
        }
      ],
      "name": "releaseFundsStage1",
      "outputs": [],
      "stateMutability": "nonpayable",
      "type": "function"
    },
    {
      "inputs": [],
      "name": "requiredApprovals",
      "outputs": [
        {
          "internalType": "uint256",
          "name": "",
          "type": "uint256"
        }
      ],
      "stateMutability": "view",
      "type": "function"
    },
    {
      "inputs": [
        {
          "internalType": "address",
          "name": "relayer",
          "type": "address"
        },
        {
          "internalType": "bool",
          "name": "allowed",
          "type": "bool"
        }
      ],
      "name": "setRelayer",
      "outputs": [],
      "stateMutability": "nonpayable",
      "type": "function"
    },
    {
      "inputs": [],
      "name": "totalClaimableUsdc",
      "outputs": [
        {
          "internalType": "uint256",
          "name": "",
          "type": "uint256"
        }
      ],
      "stateMutability": "view",
      "type": "function"
    },
    {
      "inputs": [
        {
          "internalType": "uint256",
          "name": "",
          "type": "uint256"
        }
      ],
      "name": "tradeActiveDisputeProposalId",
      "outputs": [
        {
          "internalType": "uint256",
          "name": "",
          "type": "uint256"
        }
      ],
      "stateMutability": "view",
      "type": "function"
    },
    {
      "inputs": [],
      "name": "tradeCounter",
      "outputs": [
        {
          "internalType": "uint256",
          "name": "",
          "type": "uint256"
        }
      ],
      "stateMutability": "view",
      "type": "function"
    },
    {
      "inputs": [
        {
          "internalType": "uint256",
          "name": "",
          "type": "uint256"
        }
      ],
      "name": "tradeHasActiveDisputeProposal",
      "outputs": [
        {
          "internalType": "bool",
          "name": "",
          "type": "bool"
        }
      ],
      "stateMutability": "view",
      "type": "function"
    },
    {
      "inputs": [
        {
          "internalType": "uint256",
          "name": "",
          "type": "uint256"
        }
      ],
      "name": "trades",
      "outputs": [
        {
          "internalType": "uint256",
          "name": "tradeId",
          "type": "uint256"
        },
        {
          "internalType": "bytes32",
          "name": "ricardianHash",
          "type": "bytes32"
        },
        {
          "internalType": "enum AgroasysEscrow.TradeStatus",
          "name": "status",
          "type": "uint8"
        },
        {
          "internalType": "address",
          "name": "buyerAddress",
          "type": "address"
        },
        {
          "internalType": "address",
          "name": "supplierAddress",
          "type": "address"
        },
        {
          "internalType": "uint256",
          "name": "totalAmountLocked",
          "type": "uint256"
        },
        {
          "internalType": "uint256",
          "name": "logisticsAmount",
          "type": "uint256"
        },
        {
          "internalType": "uint256",
          "name": "platformFeesAmount",
          "type": "uint256"
        },
        {
          "internalType": "uint256",
          "name": "supplierFirstTranche",
          "type": "uint256"
        },
        {
          "internalType": "uint256",
          "name": "supplierSecondTranche",
          "type": "uint256"
        },
        {
          "internalType": "uint256",
          "name": "createdAt",
          "type": "uint256"
        },
        {
          "internalType": "uint256",
          "name": "arrivalTimestamp",
          "type": "uint256"
        }
      ],
      "stateMutability": "view",
      "type": "function"
    },
    {
      "inputs": [],
      "name": "treasuryAddress",
      "outputs": [
        {
          "internalType": "address",
          "name": "",
          "type": "address"
        }
      ],
      "stateMutability": "view",
      "type": "function"
    },
    {
      "inputs": [],
      "name": "treasuryPayoutAddress",
      "outputs": [
        {
          "internalType": "address",
          "name": "",
          "type": "address"
        }
      ],
      "stateMutability": "view",
      "type": "function"
    },
    {
      "inputs": [],
      "name": "treasuryPayoutAddressUpdateCounter",
      "outputs": [
        {
          "internalType": "uint256",
          "name": "",
          "type": "uint256"
        }
      ],
      "stateMutability": "view",
      "type": "function"
    },
    {
      "inputs": [
        {
          "internalType": "uint256",
          "name": "",
          "type": "uint256"
        },
        {
          "internalType": "address",
          "name": "",
          "type": "address"
        }
      ],
      "name": "treasuryPayoutAddressUpdateHasApproved",
      "outputs": [
        {
          "internalType": "bool",
          "name": "",
          "type": "bool"
        }
      ],
      "stateMutability": "view",
      "type": "function"
    },
    {
      "inputs": [
        {
          "internalType": "uint256",
          "name": "",
          "type": "uint256"
        }
      ],
      "name": "treasuryPayoutAddressUpdateProposalCancelled",
      "outputs": [
        {
          "internalType": "bool",
          "name": "",
          "type": "bool"
        }
      ],
      "stateMutability": "view",
      "type": "function"
    },
    {
      "inputs": [
        {
          "internalType": "uint256",
          "name": "",
          "type": "uint256"
        }
      ],
      "name": "treasuryPayoutAddressUpdateProposalExpiresAt",
      "outputs": [
        {
          "internalType": "uint256",
          "name": "",
          "type": "uint256"
        }
      ],
      "stateMutability": "view",
      "type": "function"
    },
    {
      "inputs": [
        {
          "internalType": "uint256",
          "name": "",
          "type": "uint256"
        }
      ],
      "name": "treasuryPayoutAddressUpdateProposals",
      "outputs": [
        {
          "internalType": "address",
          "name": "newPayoutReceiver",
          "type": "address"
        },
        {
          "internalType": "uint256",
          "name": "approvalCount",
          "type": "uint256"
        },
        {
          "internalType": "bool",
          "name": "executed",
          "type": "bool"
        },
        {
          "internalType": "uint256",
          "name": "createdAt",
          "type": "uint256"
        },
        {
          "internalType": "uint256",
          "name": "eta",
          "type": "uint256"
        },
        {
          "internalType": "address",
          "name": "proposer",
          "type": "address"
        }
      ],
      "stateMutability": "view",
      "type": "function"
    },
    {
      "inputs": [],
      "name": "unpauseClaims",
      "outputs": [],
      "stateMutability": "nonpayable",
      "type": "function"
    },
    {
      "inputs": [
        {
          "internalType": "address",
          "name": "",
          "type": "address"
        }
      ],
      "name": "unpauseHasApproved",
      "outputs": [
        {
          "internalType": "bool",
          "name": "",
          "type": "bool"
        }
      ],
      "stateMutability": "view",
      "type": "function"
    },
    {
      "inputs": [],
      "name": "unpauseProposal",
      "outputs": [
        {
          "internalType": "uint256",
          "name": "approvalCount",
          "type": "uint256"
        },
        {
          "internalType": "bool",
          "name": "executed",
          "type": "bool"
        },
        {
          "internalType": "uint256",
          "name": "createdAt",
          "type": "uint256"
        },
        {
          "internalType": "address",
          "name": "proposer",
          "type": "address"
        }
      ],
      "stateMutability": "view",
      "type": "function"
    },
    {
      "inputs": [],
      "name": "usdcToken",
      "outputs": [
        {
          "internalType": "contract IERC20",
          "name": "",
          "type": "address"
        }
      ],
      "stateMutability": "view",
      "type": "function"
    }
  ],
  "bytecode": "0x60a0806040523461056c57616429803803809161001c8285610587565b833981019060c08183031261056c57610034816105aa565b610040602083016105aa565b9161004d604082016105aa565b610059606083016105aa565b60808301519092906001600160401b03811161056c5781019580601f8801121561056c578651966001600160401b038811610571578760051b90604051986100a4602084018b610587565b89526020808a019282010192831161056c57602001905b8282106105545750505060a0015160017f9b779b17422d0df92223018b32b4d1fa46e071723d6817e2486d003becc55f00556001600160a01b0390931693841561051f576001600160a01b03169081156104e9576001600160a01b03169182156104b1576001600160a01b031693841561047a576002841061043557838651106103fc57601080546001600160a01b0319908116929092179055600d8054821692909217909155600e8054821683179055600f805490911690911790556000828152601360205260408120805460ff191660011790556014919091555b82518110156102d657600581901b8301602001516000906001600160a01b031680156102a557808252601260205260ff60408320541661026e576011546801000000000000000081101561025a576001810180601155811015610246577f31ecc21a745e3968a04e9570e4425bc18fa8019c68028196b546d1669c200c680180546001600160a01b031916821790558152601260205260409020805460ff1916600190811790915501610198565b634e487b7160e01b83526032600452602483fd5b634e487b7160e01b83526041600452602483fd5b60405162461bcd60e51b815260206004820152600f60248201526e323ab83634b1b0ba329030b236b4b760891b6044820152606490fd5b60405162461bcd60e51b81526020600482015260096024820152683130b21030b236b4b760b91b6044820152606490fd5b5062015180601d55600f805460ff60a81b1916600160a81b17905560408051906103009082610587565b600e81526d4167726f61737973457363726f7760901b602090910152604080517f60b5ba687a3fb28c60c02b55848ec4ac87ec13f39917c0f415531752131bff419161034c9082610587565b600181526020810190603160f81b82525190206040519060208201927f8b73c3c69bb8fe3d512ecc4cf759cc79239f7b179b0ffacaa9a75d522b39400f8452604083015260608201524660808201523060a082015260a081526103b060c082610587565b51902060805260405190600182527f6da1699b033f54d95156eaa43377f43bf3c32288bbf7355f3de946b8ced3203260203393a3604051615e6a90816105bf8239608051816158550152f35b60405162461bcd60e51b81526020600482015260116024820152706e6f7420656e6f7567682061646d696e7360781b6044820152606490fd5b60405162461bcd60e51b815260206004820152601f60248201527f726571756972656420617070726f76616c73206d757374206265203e3d2032006044820152606490fd5b60405162461bcd60e51b815260206004820152600f60248201526e34b73b30b634b2103932b630bcb2b960891b6044820152606490fd5b60405162461bcd60e51b815260206004820152601060248201526f696e76616c696420747265617375727960801b6044820152606490fd5b60405162461bcd60e51b815260206004820152600e60248201526d696e76616c6964206f7261636c6560901b6044820152606490fd5b60405162461bcd60e51b815260206004820152600d60248201526c34b73b30b634b2103a37b5b2b760991b6044820152606490fd5b60208091610561846105aa565b8152019101906100bb565b600080fd5b634e487b7160e01b600052604160045260246000fd5b601f909101601f19168101906001600160401b0382119082101761057157604052565b51906001600160a01b038216820361056c5756fe608080604052600436101561001357600080fd5b600090813560e01c9081623bdc741461452d575080630d6043c6146141365780630f3314e71461408a57806311eac8551461406157806314bfd6d01461401d57806318c2740414613f995780631c44d41114613ed85780631e6c598e14613e155780631fa7e78114612ab057806320e32a5314613deb57806323db9a1714613dcd57806324d7806c14613d8e57806326ff5e1c14613d535780632715048c14613c875780632a3ecca114613c3e5780632a4591ba14613bff5780632b72349e146139ef5780632fd7d5ef146139b957806331c657751461399b5780633d8f6806146138f85780634a2ae305146138d25780634be93571146137035780634f84e8c8146136d9578063524f8456146136ba578063541d55481461367b57806355d2ac86146136425780635ab8621e146136135780635c04d8ca146135f55780635c975abb146135d35780636247a378146134845780636405a40514613466578063660d15b514610d445780636726b9db146132a957806368d69b61146123205780636de2a4f0146131df578063710bb979146131b5578063720417c51461317a578063749511b114612ff65780637526b0ea1461232057806376d622ce14612f2b57806376ebb7e014612f0157806377d8f09d14612dc55780637d36f4d314612da75780637e8c2f1014612d6957806380eda0fd14612b3a57806381b2ce3114612ae957806381de274c14612ab05780638354415d146129e85780638456cb591461294057806386f23a351461291a5780638a3ead53146128df5780638d18535b146127695780638d2304ee1461273f57806396f84c091461271057806399c1aadc14611b945780639a1fdd79146126f25780639c23b1be146126b7578063a09776041461266e578063a10519d014612478578063a11bcc6514612348578063a143b00414612325578063a375d80714612320578063a48448fe146122a5578063a5f9dcf014611ff1578063a63187d114611f76578063a89ae4ba14611f4d578063a94c8f3d14611ed2578063a9f4bd6514611e89578063ae7784d714611d21578063b2b1073214611d03578063b9bcaf2114611bd0578063c0e8f6a714611bb2578063c194bb4e14611b94578063c4c6ff6a14611488578063c5f956af1461145f578063c5fa4a9814611413578063cc792e0d146113f0578063cd8ce3be146112bc578063d6d81fa314611001578063d80d0e5614610f22578063daa0785614610dee578063dc88100e14610daa578063e51f7aee14610d80578063e57a7e3514610d62578063ea4aa01614610d44578063ec9d151714610bb4578063ecd8dc3a14610ad9578063ede25b9d146109b5578063ee5798ae14610986578063f565776d14610684578063f5ecef571461065b578063fae8a3d614610504578063fcb0aa02146104db578063fda769e7146104ac578063ff0c4ee51461047d5763ff2eda091461044057600080fd5b3461047a578060031936011261047a5760206040517f642bc978b352e60185507106148c2e8af9b88eeaeec91883eebdc673e6add83f8152f35b80fd5b503461047a57602036600319011261047a5760ff60406020926004358152600684522054166040519015158152f35b503461047a57602036600319011261047a5760ff60406020926004358152602b84522054166040519015158152f35b503461047a57602036600319011261047a57604060209160043581528280522054604051908152f35b503461047a578060031936011261047a57338152601260205261052d60ff6040832054166148e5565b61053a60ff825416614d11565b61054b60ff600f5460a81c16614b31565b60ff601c541661064e575b6040516080810181811067ffffffffffffffff82111761063a5760405260018152816020820152426040820152606033910152600160175560ff196018541660185542601955336001600160601b0360a01b601a541617601a55338152601b60205260408120600160ff19825416179055600160ff19601c541617601c55604051907f0c098089b7550dc564f1a038c8820df7c94ad41baa6be122a568c720c323ce3c339180a26014546001825260208201527ff250c8cac0e5a06311da43d7d136f294ff38fe995468d5352d5b795bec30020a60403392a2602060405160018152f35b634e487b7160e01b83526041600452602483fd5b610656615685565b610556565b503461047a578060031936011261047a57600f546040516001600160a01b039091168152602090f35b503461047a57604036600319011261047a5760043560243560028110156109825733835260126020526106bd60ff6040852054166148e5565b6106c5615135565b6106d26002548310614b6f565b81835260016020526106f9600360ff6002604087200154166106f38161472b565b14614a6a565b818352600660205260ff6040842054166108a1575b600a549161071b83614ae8565b600a5560405161072a8161477c565b81815260208101838152604082016001815260608301878152608084019142835260a0850193338552888a52600460205260408a2095518655600186019051600281101561088d57916005959493916107a79360ff80198354169116179055516002870155511515600386019060ff801983541691151516179055565b51600484015560018060a01b0390511691019060018060a01b03166001600160601b0360a01b82541617905582845260056020526040842060018060a01b0333166000526020526040600020600160ff19825416179055808452600660205260408420600160ff19825416179055808452600760205282604085205562093a80420180421161087957604085856020975260088752205561084b6040518093614880565b827f169133ad218243916e40f5d940b11e6662965ad0b9436428ec3ec92af6593fbb853394a4604051908152f35b634e487b7160e01b85526011600452602485fd5b634e487b7160e01b8b52602160045260248bfd5b818352600760205260408320548084526008602052604084205442118061096b575b1561092d57808452600960205260408420600160ff1982541617905582845260066020526040842060ff19815416905582845260076020528360408120558233917f7d0d8277552faa3f645755b68537c6cdbbd2b3415f4fc4ec554d62d4824311d18680a461070e565b60405162461bcd60e51b81526020600482015260166024820152756163746976652070726f706f73616c2065786973747360501b6044820152606490fd5b50808452600960205260ff604085205416156108c3565b8280fd5b503461047a57602036600319011261047a5760ff60406020926004358152602184522054166040519015158152f35b503461047a57602036600319011261047a5760043533825260126020526109e260ff6040842054166148e5565b6109ef602254821061491e565b808252601e6020526040822090610a0b6003830154151561495f565b60016002830191825490610a2260ff8316156149ab565b8086526021602052610a3b60ff604088205416156149ea565b855260208052610a516040862054421115614a2b565b610a62828501546014541115614fe6565b610a726004850154421015615029565b60ff1916179055600d805482546001600160a01b031982166001600160a01b0391821617909255600f805460ff60a81b1916600160a81b1790559154811691167f078c3b417dadf69374a59793b829c52001247130433427049317bde56607b1b78380a380f35b503461047a57604036600319011261047a57610af361474b565b60243580151591828203610bb0573384526012602052610b1960ff6040862054166148e5565b6001600160a01b0316908115610b7957610b4a908285526013602052604085209060ff801983541691151516179055565b6040519182527f6da1699b033f54d95156eaa43377f43bf3c32288bbf7355f3de946b8ced3203260203393a380f35b60405162461bcd60e51b815260206004820152600f60248201526e34b73b30b634b2103932b630bcb2b960891b6044820152606490fd5b8380fd5b503461047a57602036600319011261047a576004353382526012602052610be160ff6040842054166148e5565b610bee602754821061491e565b80825260236020526040822090610c0a6003830154151561495f565b60028201805491610c1e60ff8416156149ab565b8085526026602052610c3760ff604087205416156149ea565b84526025602052610c4e6040852054421115614a2b565b610c6060018401546014541115614fe6565b610c706004840154421015615029565b82546001600160a01b031691600190610c8a841515614e21565b8386526012602052610ca360ff60408820541615614e5d565b60ff191617905560115468010000000000000000811015610d3057806001610cce92016011556146fa565b815460039190911b92831b6001600160a01b039384901b19909116179055815481168352601260205260408320805460ff191660011790559054167f44d6d25963f097ad14f29f06854a01f575648a1ef82f30e562ccd3889717e3398280a280f35b634e487b7160e01b84526041600452602484fd5b503461047a578060031936011261047a576020600254604051908152f35b503461047a578060031936011261047a576020602254604051908152f35b503461047a57602036600319011261047a5760406020916004358152600c83522054604051908152f35b503461047a578060031936011261047a57608060175460ff6018541660195460018060a01b03601a5416916040519384521515602084015260408301526060820152f35b503461047a57602036600319011261047a576004353382526012602052610e1b60ff6040842054166148e5565b610e28602754821061491e565b8082526023602052600160408320610e456003820154151561495f565b610e5660ff600283015416156149ab565b8284526026602052610e6f60ff604086205416156149ea565b8284526025602052610e876040852054421115614a2b565b828452602460205260408420828060a01b033316600052602052610eb360ff6040600020541615614aa9565b828452602460205260408420828060a01b03331660005260205260406000208260ff198254161790550190610ee88254614ae8565b80925560145460405192835260208301527fb8cacf822d821b4e79cb750d1368c77e7e7ec2aee16f886327cd7c756f47c22360403393a380f35b503461047a57602036600319011261047a576004353382526012602052610f4f60ff6040842054166148e5565b610f5c602c54821061491e565b8082526028602052610f8760ff600260408520610f7e6003820154151561495f565b015416156149ab565b808252602b602052610fa060ff60408420541615614bf9565b808252602a602052610fb760408320544211614c39565b808252602b60205260408220600160ff1982541617905560ff19602d5416602d5533907f3aa666fca861a2efe08793b4b6df7e2f3b72b5137df4acdf56dacd603242d65e8380a380f35b503461047a57602036600319011261047a5761101b61474b565b338252601260205261103360ff6040842054166148e5565b6001600160a01b0316801561128657600d546001600160a01b03168114611253576110646011546014541115614e99565b6022549061107182614ae8565b602255600f5460a81c60ff161580156112415742905b60405160e0810181811067ffffffffffffffff82111761122d5760058792879260405286815260208101600181526040820185815261112c606084019142835260808501938a8552604060a0870199338b5260c08801998c8b528152601e602052209560018060a01b039060018060a01b03905116166001600160601b0360a01b875416178655516001860155511515600285019060ff801983541691151516179055565b51600383015551600482015592519201805491516001600160a81b03199092166001600160a01b03939093169290921790151560a01b60ff60a01b16179055838552601f6020908152604080872033600090815292529020805460ff191660011790554262093a808101908110611219576040868660209852878052205560405191825284820152827faff168a4e1fa91858b5fc1c223cee9cc0eaeaddb0b29c18df1630e08305bd80260403393a4601454604051906001825283820152817ff39407f640014cb0220c4f7b0a6cc6acee38a440a8add233fa88e8c98b95b25c60403393a3604051908152f35b634e487b7160e01b86526011600452602486fd5b634e487b7160e01b87526041600452602487fd5b61124d601d5442614d04565b90611087565b60405162461bcd60e51b815260206004820152600b60248201526a73616d65206f7261636c6560a81b6044820152606490fd5b60405162461bcd60e51b815260206004820152600e60248201526d696e76616c6964206f7261636c6560901b6044820152606490fd5b503461047a57602036600319011261047a5760043533825260126020526112e960ff6040842054166148e5565b6112f6602c54821061491e565b808252602860205260408220906113126003830154151561495f565b6001600283019182549061132960ff8316156149ab565b808652602b60205261134260ff604088205416156149ea565b8552602a6020526113596040862054421115614a2b565b61136a828501546014541115614fe6565b61137a6004850154421015615029565b61138d828060a01b03855416151561488d565b60ff1990811691909117909155602d80549091169055600f805482546001600160a01b031982166001600160a01b03918216179092559154811691167f4dc5527be93f8b21f9376931190711db811d1e6d980ca325ee2520d65069df748380a380f35b503461047a578060031936011261047a57602060ff601c54166040519015158152f35b503461047a57604036600319011261047a57604061142f614766565b9160043581526024602052209060018060a01b0316600052602052602060ff604060002054166040519015158152f35b503461047a578060031936011261047a57600e546040516001600160a01b039091168152602090f35b503461047a5761022036600319011261047a576114a361474b565b906114ac614766565b60843591906044359060643560e43560c43560a43561010435610124356101443567ffffffffffffffff8111611b90576114ea9036906004016147d0565b9660c036610163190112611b9057338a52601260205260ff60408b2054168015611b7a575b61151890614c7c565b611520615135565b61152861506c565b8515611b35576001600160a01b0316968715611afc57308814611ab75761155c85611557866115578f8c614d04565b614d04565b8903611a7d5783151580611a74575b15611a38578a61158f86866115886115838383614d04565b615aea565b9384615cb0565b90811580611a2f575b6119fc575b50156119ac576115ae82848e61575e565b60405190602082019c7fab191139f84e7620737836d9002d499dbe8293085697773dfa2574e82decb7fc8e52600160a01b60019003169c828e6040819501528a60608201528b60808201528960a08201528d60c08201528660e0820152876101008201528861012082015285610140820152846101608201526101608152611638610180826147ae565b51902061164490615843565b9061164e916158f7565b61165791615933565b61166d916001600160a01b0391909116146151e8565b60018201808311611998578b8a52600360205260408a205561168e896159a5565b9060405192835260208301528a7f6ac709e2093c74d3ce56616ef76760c53ae0bf401457fb868a84e66636d3678360403394a4600254976116ce89614ae8565b600255604051610180810181811067ffffffffffffffff8211176119845793838383600a8f9a968f9a968f918f9a8f918f8f9d7f9896188f7299b6607b47eaa190d500bf89abbfa1bb2ce6d410f88b043e371b679f9460c09f8f938f8f988b8b94604092835280865260208601938452610160610140848801978489526060810197885260808101998a5260a081019a8b5260c081019b8c5260e081019c8d5261010081019d8e5261012081019e8f52019d8e429052019d8e5281526001602052209c518d555160018d015560028c0191516117a98161472b565b6117b28161472b565b825491516001600160a81b031990921660ff9190911617600891821b610100600160a81b031617909155905160038b0180546001600160a01b0319166001600160a01b0392909216919091179055905160048a015590516005890155905160068801559051600787015590519085015551600984015551910155604080518c815260208101969096528501526060840152608083015260a0820152a46010546101a43592906001600160a01b03166101c43560ff81169081900361098257813b15610982578291610124839260405194859384926377aadf6360e11b84528c60048501523060248501528960448501526101643560648501526101843560848501528a60a485015260c48401526101e43560e4840152610204356101048401525af1801561197957611964575b6020857f642bc978b352e60185507106148c2e8af9b88eeaeec91883eebdc673e6add83f888781847fa7c444d067108b7e8aee4afd13309e15a3e74a87a3d07d172c5c50945c37baaa878b604051908152a4604051838152600080516020615df5833981519152853392a46001600080516020615e1583398151915255604051908152f35b61196f8280926147ae565b61047a57806118df565b6040513d84823e3d90fd5b634e487b7160e01b8a52604160045260248afd5b634e487b7160e01b8a52601160045260248afd5b60405162461bcd60e51b815260206004820152602260248201527f696e76616c6964206c61756e636820736574746c656d656e74207363686564756044820152616c6560f01b6064820152608490fd5b600019810191508111611a1b5785858d611a1593615cb0565b3861159d565b634e487b7160e01b8b52601160045260248bfd5b50801515611598565b60405162461bcd60e51b815260206004820152601460248201527307472616e63686573206d757374206265203e20360641b6044820152606490fd5b5084151561156b565b60405162461bcd60e51b81526020600482015260126024820152710c4e4cac2d6c8deeedc40dad2e6dac2e8c6d60731b6044820152606490fd5b60405162461bcd60e51b815260206004820152601960248201527f737570706c6965722063616e6e6f7420626520657363726f77000000000000006044820152606490fd5b60405162461bcd60e51b81526020600482015260116024820152701cdd5c1c1b1a595c881c995c5d5a5c9959607a1b6044820152606490fd5b60405162461bcd60e51b815260206004820152601760248201527f72696361726469616e20686173682072657175697265640000000000000000006044820152606490fd5b50338a52601360205260408a205460ff1661150f565b8980fd5b503461047a578060031936011261047a576020601454604051908152f35b503461047a578060031936011261047a576020604051621275008152f35b503461047a57602036600319011261047a576004353382526012602052611bfd60ff6040842054166148e5565b611c0a602254821061491e565b808252601e602052600160408320611c276003820154151561495f565b611c3860ff600283015416156149ab565b8284526021602052611c5160ff604086205416156149ea565b82845260208052611c686040852054421115614a2b565b828452601f60205260408420828060a01b033316600052602052611c9460ff6040600020541615614aa9565b828452601f60205260408420828060a01b03331660005260205260406000208260ff198254161790550190611cc98254614ae8565b80925560145460405192835260208301527ff39407f640014cb0220c4f7b0a6cc6acee38a440a8add233fa88e8c98b95b25c60403393a380f35b503461047a578060031936011261047a5760206040516202a3008152f35b503461047a57602036600319011261047a57600a60043591611d4e60018060a01b03600d54163314614af7565b611d5f60ff600f5460a81c16614b31565b611d67615135565b611d6f61506c565b611d7c6002548410614b6f565b82815260016020526040812090600280830191825490611daa600160ff8416611da48161472b565b14614f9a565b5060ff19161790550142815581600052600c6020526203f48060406000205581600052600b60205260006040812055546203f480810190818111611e735760607fbff435bbe6e222466677a2ff1ac3d0f31efe4a6973c87a7b4c2e8648c07f07229184936040519182526203f48060208301526040820152a28060005260016020527f86b04a9027748794b50d55160e5a9fe6b0375cd3221e0d4776f9e053f7ef6d046020600a60406000200154604051908152a26001600080516020615e1583398151915255005b634e487b7160e01b600052601160045260246000fd5b503461047a57604036600319011261047a5760ff6040602092611eaa614766565b6004358252602985528282206001600160a01b03909116825284522054604051911615158152f35b503461047a57602036600319011261047a57604060c091600435815260046020522080549060ff60018201541690600281015460ff60038301541690611f35600484015493600560018060a01b0391015416946040519687526020870190614880565b604085015215156060840152608083015260a0820152f35b503461047a578060031936011261047a57600d546040516001600160a01b039091168152602090f35b503461047a57602036600319011261047a576004803582526028602090815260409283902080546001820154600283015460038401549584015460059094015487516001600160a01b0394851681529586019290925260ff1615159584019590955260608301939093526080820152911660a082015260c090f35b503461047a5761200036614827565b9290338552601260205260ff604086205416801561228f575b61202290614c7c565b61202a615135565b61203261506c565b61203f6002548310614b6f565b81855260016020526040852092600284019460018060a01b03865460081c169061206a84848461575e565b816120eb6120f09594936120dc6120d36003956120ce6040516020810190600080516020615dd583398151915282528660408201528960608201528d60808201528a60a08201528b60c082015260c081526120c660e0826147ae565b519020615843565b6158f7565b90929192615933565b6001600160a01b0316146151e8565b615893565b825491612105600160ff8516611da48161472b565b818552600b6020526040852054801561223657621275008101809111611219574211156121f157817f1c642f6ec09eeef2a0619a2a298b98d5b38861f8a024837627f161d669c3c1067f57f680ee8ca7390570646e9ba27d0a0f0e281e2565cbb092822584197106619695600460209660ff1916178155828852600b86528760408120556121a6600860018060a01b038354821c1695019485549085615305565b54925460405190815260089390931c6001600160a01b0316948593a3604051908152600080516020615df583398151915260203392a46001600080516020615e158339815191525580f35b60405162461bcd60e51b815260206004820152601e60248201527f696e2d7472616e7369742074696d656f7574206e6f7420656c617073656400006044820152606490fd5b60405162461bcd60e51b815260206004820152601c60248201527f696e2d7472616e7369742074696d657374616d70206e6f7420736574000000006044820152606490fd5b634e487b7160e01b88526021600452602488fd5b503385526013602052604085205460ff16612019565b503461047a57602036600319011261047a576004803582526023602090815260409283902080546001820154600283015460038401549584015460059094015487516001600160a01b0394851681529586019290925260ff1615159584019590955260608301939093526080820152911660a082015260c090f35b614862565b503461047a578060031936011261047a57602060ff602d54166040519015158152f35b503461047a57602036600319011261047a57600435338252601260205261237560ff6040842054166148e5565b612382602c54821061491e565b808252602860205260016040832061239f6003820154151561495f565b6123b060ff600283015416156149ab565b828452602b6020526123c960ff604086205416156149ea565b828452602a6020526123e16040852054421115614a2b565b828452602960205260408420828060a01b033316855260205261240b60ff60408620541615614aa9565b828452602960205260408420828060a01b0333168552602052604084208260ff19825416179055019061243e8254614ae8565b80925560145460405192835260208301527f33f3d93b68d89de9a6b65493f004ff57d76aadd2fb47a98cbf886447309cdec760403393a380f35b503461047a5761248736614827565b90929192338552601260205260ff6040862054168015612658575b6124ab90614c7c565b6124b3615135565b6124bb61506c565b6124c86002548410614b6f565b82855260016020526040852093600285019260018060a01b03845460081c16906124f384848461575e565b816120eb61255c95949361254f6120d36001956120ce8c6040516020810191600080516020615dd583398151915283528760408301528a606083015260808201528a60a08201528b60c082015260c081526120c660e0826147ae565b848060a01b0316146151e8565b612585600a82549461257c600260ff88166125768161472b565b14614bad565b01541515614f5c565b61258e82614d8b565b42116126235760037f9d6f89df1fd95e20d56ed05e08fe9519ff6a2496090b77bfb70c8f64c21c23899360ff19161780915560405191807fb145240944e8bfe8998e31f11365578b766764ed1255b8e2efcb56e741b7be188680a2825260081c6001600160a01b0316903390600080516020615df583398151915290602090a46001600080516020615e158339815191525580f35b60405162461bcd60e51b815260206004820152600d60248201526c1dda5b991bddc818db1bdcd959609a1b6044820152606490fd5b503385526013602052604085205460ff166124a2565b503461047a57604036600319011261047a5760ff604060209261268f614766565b6004358252600585528282206001600160a01b03909116825284522054604051911615158152f35b503461047a578060031936011261047a5760206040517f57f680ee8ca7390570646e9ba27d0a0f0e281e2565cbb09282258419710661968152f35b503461047a578060031936011261047a576020601d54604051908152f35b503461047a57602036600319011261047a5760ff60406020926004358152600984522054166040519015158152f35b503461047a57602036600319011261047a5760406020916004358152600883522054604051908152f35b503461047a57604036600319011261047a5760043560243561279660018060a01b03600d54163314614af7565b6127a760ff600f5460a81c16614b31565b6127af615135565b6127b761506c565b6127c46002548310614b6f565b8183526001602052604083209060028201918254906127eb600160ff8416611da48161472b565b6203f480831480156128d3575b1561288e577fbff435bbe6e222466677a2ff1ac3d0f31efe4a6973c87a7b4c2e8648c07f0722936002600a9360ff191617905501428155838552600c602052816040862055838552600b602052846040812055546128766128598383614d04565b604051938493846040919493926060820195825260208201520152565b0390a26001600080516020615e158339815191525580f35b60405162461bcd60e51b815260206004820152601d60248201527f756e737570706f7274656420696e7370656374696f6e2077696e646f770000006044820152606490fd5b506202a30083146127f8565b503461047a578060031936011261047a5760206040517fa6115baa0e39b3877020da94fe30135520d27e0cb11c198edac119231d452a578152f35b503461047a578060031936011261047a57602060ff600f5460a81c166040519015158152f35b503461047a578060031936011261047a57338152601260205261296960ff6040832054166148e5565b805460ff81166129b25760019061297e615135565b60ff19161781557f62e78cea01bee320cd4e420270b5ea74000d11b0c9f74754ebdbfc544b05a2586020604051338152a180f35b60405162461bcd60e51b815260206004820152600e60248201526d185b1c9958591e481c185d5cd95960921b6044820152606490fd5b503461047a578060031936011261047a573381526012602052612a1160ff6040832054166148e5565b600f54612a2360ff8260a81c16614b31565b60ff60a81b1916600f55805460ff811615612a6e575b50600d546001600160a01b0316337f943e0551255d58897464f9809b2b06574fdc708ade497e30276ae48effc0a7948380a380f35b600190612a79615135565b60ff19161781557f62e78cea01bee320cd4e420270b5ea74000d11b0c9f74754ebdbfc544b05a2586020604051338152a138612a39565b503461047a57602036600319011261047a576020906040906001600160a01b03612ad861474b565b168152600383522054604051908152f35b503461047a578060031936011261047a573381526012602052612b1260ff6040832054166148e5565b612b2060ff601c5416614d4a565b612b2f60ff60185416156149ab565b612b37615685565b80f35b503461047a57602036600319011261047a57612b5461474b565b3382526012602052612b6c60ff6040842054166148e5565b6001600160a01b0316612b8081151561488d565b600f546001600160a01b03168114612d2457612ba26011546014541115614e99565b60ff602d5416612cdf57602c5490612bb982614ae8565b602c55612c0a612bcb601d5442614d04565b60405190612bd88261477c565b8382526001602083015285604083015242606083015260808201523360a0820152838552602860205260408520614edb565b8183526029602090815260408085203386529091528320805460ff191660011790554262093a808101908110612ccb576040848460209652602a86522055600160ff19602d541617602d55612c61601d5442614d04565b604051908152827f7d8684ed4e806e48e1379ec407e099c58ae93067f5a839e7cdf7299438e33316853393a4601454604051906001825283820152817f33f3d93b68d89de9a6b65493f004ff57d76aadd2fb47a98cbf886447309cdec760403393a3604051908152f35b634e487b7160e01b84526011600452602484fd5b60405162461bcd60e51b815260206004820152601860248201527f70726f706f73616c20616c72656164792070656e64696e6700000000000000006044820152606490fd5b60405162461bcd60e51b815260206004820152601d60248201527f73616d65207472656173757279207061796f75742072656365697665720000006044820152606490fd5b503461047a57602036600319011261047a57612d9f6040602092600435612d936002548210614b6f565b81526001845220615655565b604051908152f35b503461047a578060031936011261047a576020600a54604051908152f35b503461047a57602036600319011261047a576004353382526012602052612df260ff6040842054166148e5565b612dfa615135565b612e07600a54821061491e565b80825260046020526040822090612e236004830154151561495f565b612e3460ff600384015416156149ab565b8083526009602052612e4d60ff60408520541615614bf9565b8083526008602052612e6460408420544211614c39565b808352600960205260408320600160ff198254161790558154808452600660205260ff60408520541680612eec575b612ec4575b50339154907f7d0d8277552faa3f645755b68537c6cdbbd2b3415f4fc4ec554d62d4824311d18480a480f35b835260066020526040832060ff19815416905581548352600760205282604081205538612e98565b50808452600760205281604085205414612e93565b503461047a57602036600319011261047a5760406020916004358152600b83522054604051908152f35b503461047a57602036600319011261047a576004353382526012602052612f5860ff6040842054166148e5565b612f65602254821061491e565b808252601e602052612f8760ff600260408520610f7e6003820154151561495f565b8082526021602052612fa060ff60408420541615614bf9565b80825260208052612fb660408320544211614c39565b808252602160205260408220805460ff1916600117905533907fd2d878f87125c1948b966a8962e09576b78186471e1a7cc90c2bd2b6f05acc9f8380a380f35b503461047a57602036600319011261047a5761301061474b565b338252601260205261302860ff6040842054166148e5565b6001600160a01b031661303c811515614e21565b808252601260205261305560ff60408420541615614e5d565b6130656011546014541115614e99565b6027549061307282614ae8565b6027556130c3613084601d5442614d04565b604051906130918261477c565b8382526001602083015285604083015242606083015260808201523360a0820152838552602360205260408520614edb565b8183526024602090815260408085203386529091528320805460ff191660011790554262093a808101908110612ccb576040846004928560209752602587528282205584815260238652200154604051908152827f959284814070c6c3a0c8b0ce10f8406a2a5cfe5cc3a7d157ad2ba850026aee64853393a4601454604051906001825283820152817fb8cacf822d821b4e79cb750d1368c77e7e7ec2aee16f886327cd7c756f47c22360403393a3604051908152f35b503461047a578060031936011261047a5760206040517f9d6f89df1fd95e20d56ed05e08fe9519ff6a2496090b77bfb70c8f64c21c23898152f35b503461047a57602036600319011261047a5760406020916004358152602583522054604051908152f35b503461047a57602036600319011261047a57600d546001600160a01b03163314808015613293575b1561325757613241575b613219615135565b61322161506c565b61322c6004356153ec565b6001600080516020615e158339815191525580f35b61325260ff600f5460a81c16614b31565b613211565b60405162461bcd60e51b815260206004820152601460248201527337b7363c9037b930b1b6329037b91030b236b4b760611b6044820152606490fd5b50338252601260205260ff604083205416613207565b503461047a57602036600319011261047a576004356132d360018060a01b03600d54163314614af7565b6132e460ff600f5460a81c16614b31565b6132ec615135565b6132f461506c565b6133016002548210614b6f565b80825260016020526040822090600282016001815461332c60ff82166133268161472b565b15614cc0565b60ff1916179055808352600b6020524260408420557fc16c7bb7ef90cd4375b18716f3bad44ab2327cbc75bdd1d2fa611ec95167a681600383019260018060a01b03845416936133836007830195865490866154dd565b600e546005830180549092916133a391906001600160a01b031687615597565b6133bf600660018060a01b03600e541694019384549087615608565b549454600e5491546040805192835260208301919091526001600160a01b03928316968793169186917faf26bf705c48ad6f6bf63104d1d8b9f94dac03ba9c3ae49b34cd094cc8c3f6f691a454623d090081101561345c57805b61344461342683836148d8565b92604051938493846040919493926060820195825260208201520152565b0390a36001600080516020615e158339815191525580f35b623d090090613419565b503461047a578060031936011261047a576020601654604051908152f35b503461047a5761349336614827565b90939291338452601260205260ff60408520541680156135bd575b6134b790614c7c565b6134bf615135565b6134c761506c565b6134d46002548410614b6f565b8284526001602052600360408520019160018060a01b03835416906134fa87848461575e565b916004826120eb7fa6115baa0e39b3877020da94fe30135520d27e0cb11c198edac119231d452a579899946120dc6120d3613578986120ce8c6040516020810191600080516020615dd583398151915283528760408301528a606083015260808201528a60a08201528b60c082015260c081526120c660e0826147ae565b613581826153ec565b546040519182526001600160a01b0316903390600080516020615df583398151915290602090a46001600080516020615e158339815191525580f35b503384526013602052604084205460ff166134ae565b503461047a578060031936011261047a5760ff60209154166040519015158152f35b503461047a578060031936011261047a576020602754604051908152f35b503461047a57602036600319011261047a5760ff60406020926004358152602684522054166040519015158152f35b503461047a57602036600319011261047a576020906040906001600160a01b0361366a61474b565b168152601583522054604051908152f35b503461047a57602036600319011261047a5760209060ff906040906001600160a01b036136a661474b565b168152601384522054166040519015158152f35b503461047a57602036600319011261047a576020612d9f600435614d8b565b503461047a57602036600319011261047a5760406020916004358152602a83522054604051908152f35b503461047a578060031936011261047a57338152601260205261372c60ff6040832054166148e5565b61373960ff825416614d11565b61374760ff601c5416614d4a565b61375660ff60185416156149ab565b338152601b60205261376f60ff60408320541615614aa9565b338152601b60205260408120600160ff19825416179055613791601754614ae8565b80601755601454906040518181528260208201527ff250c8cac0e5a06311da43d7d136f294ff38fe995468d5352d5b795bec30020a60403392a21015806137d6575080f35b6001906137f2601854916137ed60ff8416156149ab565b614fe6565b60ff19161760185560ff19601c5416601c55805461381260ff8216614d11565b60ff191681557f5db9ee0a495bf2e6ff9c91a7834c1ba4fdd244a5e8aa4e537bd38aeae4b073aa6020604051338152a16040516011548082528160208101601185526020852092855b8181106138b0575050613870925003826147ae565b815b81518110156138ab576001906001600160a01b0361389082856153d8565b51168452601b60205260408420805460ff1916905501613872565b505080f35b84546001600160a01b031683526001948501948694506020909301920161385b565b503461047a578060031936011261047a57602060ff600f5460a01c166040519015158152f35b503461047a578060031936011261047a57338152601260205261392160ff6040832054166148e5565b600f5460ff8160a01c16156139625760ff60a01b1916600f55337f58faeb75cd58dcc300b630223b434fdafecf55c21cd1aa07ce174a125ea52e8b8280a280f35b60405162461bcd60e51b815260206004820152601160248201527018db185a5b5cc81b9bdd081c185d5cd959607a1b6044820152606490fd5b503461047a578060031936011261047a576020602c54604051908152f35b503461047a57602036600319011261047a57612d9f60406020926004356139e36002548210614b6f565b81526001845220615362565b503461047a576139fe36614827565b919290338552601260205260ff6040862054168015613be9575b613a2190614c7c565b613a29615135565b613a3161506c565b613a3e6002548310614b6f565b81855260016020526040852093600285019360018060a01b03855460081c1690613a6984848461575e565b816120eb613ac59594936120dc6120d36002956120ce6040516020810190600080516020615dd583398151915282528660408201528960608201528d60808201528a60a08201528b60c082015260c081526120c660e0826147ae565b815491613ad860ff84166133268161472b565b600984015462093a80810180911161121957421115613ba457817fe54e6e873934788882b1744fc124e31c635896db16279bfdfd45fd2953619cff600492613b5e602096857f0e2cac5abaf6079f335df5966f41306619912fc862e3a81138fc8f0af5faca3699015495869160ff19161780845560018060a01b039060081c16856152a8565b5460405193845260081c6001600160a01b0316948593a3604051908152600080516020615df583398151915260203392a46001600080516020615e158339815191525580f35b60405162461bcd60e51b815260206004820152601860248201527f6c6f636b2074696d656f7574206e6f7420656c617073656400000000000000006044820152606490fd5b503385526013602052604085205460ff16613a18565b503461047a57602036600319011261047a5760209060ff906040906001600160a01b03613c2a61474b565b168152601b84522054166040519015158152f35b503461047a57604036600319011261047a5760ff6040602092613c5f614766565b6004358252601f85528282206001600160a01b03909116825284522054604051911615158152f35b503461047a57602036600319011261047a576004353382526012602052613cb460ff6040842054166148e5565b613cc1602754821061491e565b8082526023602052613ce360ff600260408520610f7e6003820154151561495f565b8082526026602052613cfc60ff60408420541615614bf9565b8082526025602052613d1360408320544211614c39565b808252602660205260408220805460ff1916600117905533907f6e5c3c82c1e75af7548eba9cd2cb4b639f5b6762fec00ca5e0d902fbad351ebc8380a380f35b503461047a578060031936011261047a5760206040517f0e2cac5abaf6079f335df5966f41306619912fc862e3a81138fc8f0af5faca368152f35b503461047a57602036600319011261047a5760209060ff906040906001600160a01b03613db961474b565b168152601284522054166040519015158152f35b503461047a578060031936011261047a5760206040516203f4808152f35b503461047a57602036600319011261047a5760406020916004358152600783522054604051908152f35b503461047a57602036600319011261047a576040610180916004358152600160205220805490600181015490600281015460ff81169060018060a01b036003840154166004840154600585015490600686015492600787015494600888015496600a60098a0154990154996040519b8c5260208c0152613e948161472b565b60408b015260081c6001600160a01b031660608a0152608089015260a088015260c087015260e0860152610100850152610120840152610140830152610160820152f35b503461047a57602036600319011261047a57600435613f0260018060a01b03600d54163314614af7565b613f1360ff600f5460a81c16614b31565b613f1b615135565b613f2361506c565b613f306002548210614b6f565b8082526001602052613f5a60408320613f54600260ff81840154166125768161472b565b8261516f565b7fd167c6447b5a0c8a6363468302e8f0e3af527e57ef18c48c15fa8a5971b0f4336020604051428152a26001600080516020615e158339815191525580f35b503461047a57602036600319011261047a57604060e0916004358152601e6020522060ff60018060a01b03825416916001810154908260028201541660038201549060056004840154930154936040519687526020870152151560408601526060850152608084015260018060a01b03811660a084015260a01c16151560c0820152f35b503461047a57602036600319011261047a576004359060115482101561047a576020614048836146fa565b905460405160039290921b1c6001600160a01b03168152f35b503461047a578060031936011261047a576010546040516001600160a01b039091168152602090f35b503461047a578060031936011261047a5733815260126020526140b360ff6040832054166148e5565b600f5460ff8160a01c166140f95760ff60a01b1916600160a01b17600f55337fb62d15b068fb54a6f9b91bc09d642314c90fe5262a9f0c4b646803af896af7928280a280f35b60405162461bcd60e51b815260206004820152601560248201527418db185a5b5cc8185b1c9958591e481c185d5cd959605a1b6044820152606490fd5b503461047a57602036600319011261047a57600435338252601260205261416360ff6040842054166148e5565b61416b615135565b61417361506c565b614180600a54821061491e565b808252600460205260026040832061419d6004820154151561495f565b6141ae60ff600383015416156149ab565b82845260096020526141c760ff604086205416156149ea565b82845260086020526141df6040852054421115614a2b565b805484526001602052614200600360ff84604088200154166106f38161472b565b8284526005602090815260408086203387529091528420546142259060ff1615614aa9565b8284526005602090815260408086203387529091528420805460ff1916600117905501805490919061425690614ae8565b8092556014548092604051818152826020820152837f14e1b3091f09f49236e90d7a9826aa647e37c8b8600adc8a5935ee0c179e2de160403393a310156142ae575b826001600080516020615e158339815191525580f35b8083526004602052604083206003810161430e8154946142d160ff8716156149ab565b84875260096020526142ea60ff604089205416156149ea565b84875260086020526143026040882054421115614a2b565b60028401541015614fe6565b81548552600160205260408520906002820194600360ff8754166143318161472b565b036144f15760019060ff1916179055600460ff198554161784558154855260066020526040852060ff19815416905581548552600760205284604081205581548552600b602052846040812055600881015493600183019160ff835416600281101561227b578061443d5750509160ff94846020937fafdf3220f58fe501f1c7cff54df532523ba92e302d4b17d7bb8c30b9e4e906b360407f367ef6da4bd64313a89876ecb2e42b4be35f68f378625be0d78dcd15eba27dd09760018060a01b03905460081c169561440586888354615241565b54998a93541695815195865261441d88870188614880565b6001600160a01b031694a46144356040518092614880565ba33880614298565b909391506001036144b35760ff94846020937fafdf3220f58fe501f1c7cff54df532523ba92e302d4b17d7bb8c30b9e4e906b360407f367ef6da4bd64313a89876ecb2e42b4be35f68f378625be0d78dcd15eba27dd097600360018060a01b0391015416956144ae86888354615480565b614405565b60405162461bcd60e51b8152602060048201526016602482015275696e76616c696420646973707574652073746174757360501b6044820152606490fd5b60405162461bcd60e51b81526020600482015260146024820152733a3930b2329036bab9ba10313290232927ad22a760611b6044820152606490fd5b9050346146f657816003193601126146f657600e546001600160a01b0316331480156146e0575b156146a5575060ff600f5460a01c166146705761456f61506c565b600e546001600160a01b031680825260156020526040822054801561462b57600f546001600160a01b0316916145a683151561488d565b835260156020528260408120556145bf816016546148d8565b6016556010546145db90829084906001600160a01b03166150a8565b7fe67c643fa26ff85bbee9ac87fc706274fc81cf4ab3711712c8822eedba5a2306604060018060a01b03600e5416928151908152336020820152a36001600080516020615e158339815191525580f35b60405162461bcd60e51b815260206004820152601a60248201527f6e6f7468696e6720747265617375727920636c61696d61626c650000000000006044820152606490fd5b60405162461bcd60e51b815260206004820152600d60248201526c18db185a5b5cc81c185d5cd959609a1b6044820152606490fd5b62461bcd60e51b815260206004820152601660248201527537b7363c903a3932b0b9bab93c9037b91030b236b4b760511b6044820152606490fd5b50338252601260205260ff604083205416614554565b5080fd5b60115481101561471557601160005260206000200190600090565b634e487b7160e01b600052603260045260246000fd5b6005111561473557565b634e487b7160e01b600052602160045260246000fd5b600435906001600160a01b038216820361476157565b600080fd5b602435906001600160a01b038216820361476157565b60c0810190811067ffffffffffffffff82111761479857604052565b634e487b7160e01b600052604160045260246000fd5b90601f8019910116810190811067ffffffffffffffff82111761479857604052565b81601f820112156147615780359067ffffffffffffffff82116147985760405192614805601f8401601f1916602001856147ae565b8284526020838301011161476157816000926020809301838601378301015290565b906080600319830112614761576004359160243591604435916064359067ffffffffffffffff82116147615761485f916004016147d0565b90565b3461476157600036600319011261476157602060405162093a808152f35b9060028210156147355752565b1561489457565b606460405162461bcd60e51b815260206004820152602060248201527f696e76616c6964207472656173757279207061796f75742072656365697665726044820152fd5b91908203918211611e7357565b156148ec57565b60405162461bcd60e51b815260206004820152600a60248201526937b7363c9030b236b4b760b11b6044820152606490fd5b1561492557565b60405162461bcd60e51b81526020600482015260126024820152711c1c9bdc1bdcd85b081b9bdd08199bdd5b9960721b6044820152606490fd5b1561496657565b60405162461bcd60e51b815260206004820152601860248201527f70726f706f73616c206e6f7420696e697469616c697a656400000000000000006044820152606490fd5b156149b257565b60405162461bcd60e51b815260206004820152601060248201526f185b1c9958591e48195e1958dd5d195960821b6044820152606490fd5b156149f157565b60405162461bcd60e51b81526020600482015260126024820152711c1c9bdc1bdcd85b0818d85b98d95b1b195960721b6044820152606490fd5b15614a3257565b60405162461bcd60e51b815260206004820152601060248201526f1c1c9bdc1bdcd85b08195e1c1a5c995960821b6044820152606490fd5b15614a7157565b60405162461bcd60e51b815260206004820152601060248201526f3a3930b232903737ba10333937bd32b760811b6044820152606490fd5b15614ab057565b60405162461bcd60e51b815260206004820152601060248201526f185b1c9958591e48185c1c1c9bdd995960821b6044820152606490fd5b6000198114611e735760010190565b15614afe57565b60405162461bcd60e51b815260206004820152600b60248201526a6f6e6c79206f7261636c6560a81b6044820152606490fd5b15614b3857565b60405162461bcd60e51b815260206004820152600f60248201526e1bdc9858db1948191a5cd8589b1959608a1b6044820152606490fd5b15614b7657565b60405162461bcd60e51b815260206004820152600f60248201526e1d1c985919481b9bdd08199bdd5b99608a1b6044820152606490fd5b15614bb457565b60405162461bcd60e51b815260206004820152601960248201527f6d757374206265204152524956414c5f434f4e4649524d4544000000000000006044820152606490fd5b15614c0057565b60405162461bcd60e51b8152602060048201526011602482015270185b1c9958591e4818d85b98d95b1b1959607a1b6044820152606490fd5b15614c4057565b60405162461bcd60e51b81526020600482015260146024820152731c1c9bdc1bdcd85b081b9bdd08195e1c1a5c995960621b6044820152606490fd5b15614c8357565b60405162461bcd60e51b815260206004820152601560248201527437b7363c903932b630bcb2b91037b91030b236b4b760591b6044820152606490fd5b15614cc757565b60405162461bcd60e51b81526020600482015260156024820152741cdd185d1d5cc81b5d5cdd081899481313d0d2d151605a1b6044820152606490fd5b91908201809211611e7357565b15614d1857565b60405162461bcd60e51b815260206004820152600a6024820152691b9bdd081c185d5cd95960b21b6044820152606490fd5b15614d5157565b60405162461bcd60e51b81526020600482015260126024820152711b9bc81858dd1a5d99481c1c9bdc1bdcd85b60721b6044820152606490fd5b614d986002548210614b6f565b806000526001602052600a604060002001548015614ddc5761485f91600052600c6020526040600020548015600014614dd657506203f48090614d04565b90614d04565b60405162461bcd60e51b815260206004820152601860248201527f696e7370656374696f6e206e6f7420617661696c61626c6500000000000000006044820152606490fd5b15614e2857565b60405162461bcd60e51b815260206004820152600d60248201526c34b73b30b634b21030b236b4b760991b6044820152606490fd5b15614e6457565b60405162461bcd60e51b815260206004820152600d60248201526c30b63932b0b23c9030b236b4b760991b6044820152606490fd5b15614ea057565b60405162461bcd60e51b8152602060048201526013602482015272696e73756666696369656e742061646d696e7360681b6044820152606490fd5b815181546001600160a01b039091166001600160a01b031990911617815560208201516001820155604082015160028201805460ff191691151560ff1691909117905590600590606081015160038401556080810151600484015560a00151910180546001600160a01b0319166001600160a01b0392909216919091179055565b15614f6357565b60405162461bcd60e51b815260206004820152600f60248201526e185c9c9a5d985b081b9bdd081cd95d608a1b6044820152606490fd5b15614fa157565b60405162461bcd60e51b815260206004820152601960248201527f737461747573206d75737420626520494e5f5452414e534954000000000000006044820152606490fd5b15614fed57565b60405162461bcd60e51b81526020600482015260146024820152736e6f7420656e6f75676820617070726f76616c7360601b6044820152606490fd5b1561503057565b60405162461bcd60e51b81526020600482015260146024820152731d1a5b595b1bd8dac81b9bdd08195b185c1cd95960621b6044820152606490fd5b6002600080516020615e158339815191525414615097576002600080516020615e1583398151915255565b633ee5aeb560e01b60005260046000fd5b60405163a9059cbb60e01b60009081526001600160a01b03909316600452602493909352919060209060448180865af190600160005114821615615113575b604052156150f25750565b635274afe760e01b60009081526001600160a01b0391909116600452602490fd5b90600181151661512b57823b15153d151616906150e7565b503d6000823e3d90fd5b60ff6000541661514157565b60405162461bcd60e51b81526020600482015260066024820152651c185d5cd95960d21b6044820152606490fd5b60028201600460ff1982541617905580600052600b602052600060408120557f525d8c9a3bdfd74e1b0f3f79ccf0ef47d77d261e27396b35539f75e5d40861066020600384016151d0600860018060a01b038354169601958654908661553a565b5493546040519081526001600160a01b0390941693a3565b156151ef57565b60405162461bcd60e51b81526020600482015260116024820152703130b21030baba3437b934bd30ba34b7b760791b6044820152606490fd5b9081526040810192919060088210156147355760200152565b91909181156152a35760105461526390839085906001600160a01b03166150a8565b7ffb71e31697d4a6aaae1d166334aa8c7428a349389bcc95579d54fb95535edf766040518061529e6006339760018060a01b03169683615228565b0390a4565b505050565b91909181156152a3576010546152ca90839085906001600160a01b03166150a8565b7ffb71e31697d4a6aaae1d166334aa8c7428a349389bcc95579d54fb95535edf766040518061529e6004339760018060a01b03169683615228565b91909181156152a35760105461532790839085906001600160a01b03166150a8565b7ffb71e31697d4a6aaae1d166334aa8c7428a349389bcc95579d54fb95535edf766040518061529e6005339760018060a01b03169683615228565b60ff6002820154166153738161472b565b80156153d0576153828161472b565b600181149081156153bb575b81156153a7575b506153a05750600090565b6008015490565b600391506153b48161472b565b1438615395565b90506153c68161472b565b600281149061538e565b506004015490565b80518210156147155760209160051b010190565b6153f96002548210614b6f565b806000526001602052604060002061541c600260ff81840154166125768161472b565b61542b600a8201541515614f5c565b61543482614d8b565b421115615446576154449161516f565b565b60405162461bcd60e51b81526020600482015260126024820152711dda5b991bddc81b9bdd08195b185c1cd95960721b6044820152606490fd5b91909181156152a3576010546154a290839085906001600160a01b03166150a8565b7feda30a0d8ec5ade5ca4d49054f410ef255c797498d31d9cc9dd928c12c87e79b6040518061529e6007339760018060a01b03169683615228565b91909181156152a3576010546154ff90839085906001600160a01b03166150a8565b7feda30a0d8ec5ade5ca4d49054f410ef255c797498d31d9cc9dd928c12c87e79b6040518061529e6000339760018060a01b03169683615228565b91909181156152a35760105461555c90839085906001600160a01b03166150a8565b7feda30a0d8ec5ade5ca4d49054f410ef255c797498d31d9cc9dd928c12c87e79b6040518061529e6003339760018060a01b03169683615228565b9082156152a35760017fb6abcb523a11175bda4306d957cda75287b3d848b084a70d85fe099f51bc7f8991818060a01b03169384600052601560205260406000206155e3828254614d04565b90556155f181601654614d04565b60165561560360405192839283615228565b0390a3565b9082156152a35760027fb6abcb523a11175bda4306d957cda75287b3d848b084a70d85fe099f51bc7f899160018060a01b03169384600052601560205260406000206155e3828254614d04565b60ff6002820154166156668161472b565b1561567f57806006600561485f93015491015490614d04565b50600090565b6040516011548082528160208101601160005260206000209260005b81811061573c5750506156b6925003826147ae565b60005b81518110156156f4576001906001600160a01b036156d782856153d8565b5116600052601b602052604060002060ff198154169055016156b9565b505060ff19601c5416601c556000601755600060185560006019556000601a55337fc79764e56dcfddc1a2135f80cf347dd741f7c7f914a134142b5d336e156d3bd0600080a2565b84546001600160a01b03168352600194850194869450602090930192016156a1565b90916001600160a01b0390911690811561580f5742116157d25760005260036020526040600020540361578d57565b60405162461bcd60e51b815260206004820152601760248201527f62616420617574686f72697a6174696f6e206e6f6e63650000000000000000006044820152606490fd5b60405162461bcd60e51b8152602060048201526015602482015274185d5d1a1bdc9a5e985d1a5bdb88195e1c1a5c9959605a1b6044820152606490fd5b60405162461bcd60e51b815260206004820152600c60248201526b34b73b30b634b2103ab9b2b960a11b6044820152606490fd5b604051602081019161190160f01b83527f0000000000000000000000000000000000000000000000000000000000000000602283015260428201526042815261588d6062826147ae565b51902090565b9291926001840191828511611e73576158c39160018060a01b0316928360005260036020526040600020556159a5565b9160405193845260208401527f6ac709e2093c74d3ce56616ef76760c53ae0bf401457fb868a84e66636d3678360403394a4565b81519190604183036159285761592192506020820151906060604084015193015160001a90615d3f565b9192909190565b505060009160029190565b9190916004811015614735578061594957509050565b6000600182036159645763f645eedf60e01b60005260046000fd5b5060028103615982578263fce698f760e01b60005260045260246000fd5b9091600360009214615992575050565b6335e2f38360e21b825260045260249150fd5b6159ae8161472b565b8015615ac5576159bd8161472b565b60018114615aa0576159ce8161472b565b60028114615a7b576159df8161472b565b60038114615a56576004906159f38161472b565b14615a325760405162461bcd60e51b81526020600482015260126024820152713ab739bab83837b93a32b21030b1ba34b7b760711b6044820152606490fd5b7fa6115baa0e39b3877020da94fe30135520d27e0cb11c198edac119231d452a5790565b507f57f680ee8ca7390570646e9ba27d0a0f0e281e2565cbb092822584197106619690565b507f0e2cac5abaf6079f335df5966f41306619912fc862e3a81138fc8f0af5faca3690565b507f9d6f89df1fd95e20d56ed05e08fe9519ff6a2496090b77bfb70c8f64c21c238990565b507f642bc978b352e60185507106148c2e8af9b88eeaeec91883eebdc673e6add83f90565b9060006000196127108409612710840291828083109203918083039214615b6557816126de1115615b5357506126de6127107fd370201bfe25c507aac96760b030935fa8ba7b30518222aea5623b61b7a6ab8f94950990828211900360ff1b910360011c170290565b634e487b71905260116020526024601cfd5b50506126de90049150565b906000600019606484096064840291828083109203918083039214615bd657816127101115615b53575061271060647fbc01a36e2eb1c432ca57a786c226809d495182a9930be0ded288ce703afb7e9194950990828211900360fc1b910360041c170290565b505061271090049150565b906000600019603284096032840291828083109203918083039214615bd657816127101115615b53575061271060327fbc01a36e2eb1c432ca57a786c226809d495182a9930be0ded288ce703afb7e9194950990828211900360fc1b910360041c170290565b9060006000196117708409611770840291828083109203918083039214615bd657816127101115615b5357506127106117707fbc01a36e2eb1c432ca57a786c226809d495182a9930be0ded288ce703afb7e9194950990828211900360fc1b910360041c170290565b909192615cbc82615b70565b90615cc683615be1565b92615cd081615c47565b90848210159687615d2a575b5086615d14575b50505083615cf2575b50505090565b615cfd929350614d04565b90623d09008201809211611e735714388080615cec565b615d20929396506148d8565b1492388080615ce3565b909650615d3785836148d8565b149538615cdc565b91907f7fffffffffffffffffffffffffffffff5d576e7357a4501ddfe92f46681b20a08411615dc8579160209360809260ff60009560405194855216868401526040830152606082015282805260015afa15615dbc576000516001600160a01b03811615615db05790600090600090565b50600090600190600090565b6040513d6000823e3d90fd5b5050506000916003919056fe1aeed6c1f2a5ee88498ce328b743baceb98beee0e74dc04aa13d1b44e5d341cfeff4a09a9216c5817ca15a500171a637ee0c8122db87aee65985697823e1beb29b779b17422d0df92223018b32b4d1fa46e071723d6817e2486d003becc55f00a2646970667358221220211bf62fa10f052b0918cd424a202c424dcde9fad07cd23a37aa0dd6e5e5a58664736f6c63430008220033",
  "linkReferences": {},
  "deployedLinkReferences": {}
}