{
  "_format": "hh-sol-artifact-1",
  "contractName": "AgroasysEscrow",
  "sourceName": "src/AgroasysEscrow.sol",
  "abi": [
    {
      "inputs": [
        {
          "internalType": "address",
          "name": "_usdcToken",
          "type": "address"
        },
        {
          "internalType": "address",
          "name": "_oracleAddress",
          "type": "address"
        },
        {
          "internalType": "address",
          "name": "_treasuryAddress",
          "type": "address"
        },
        {
          "internalType": "address[]",
          "name": "_admins",
          "type": "address[]"
        },
        {
          "internalType": "uint256",
          "name": "_requiredApprovals",
          "type": "uint256"
        }
      ],
      "stateMutability": "nonpayable",
      "type": "constructor"
    },
    {
      "inputs": [],
      "name": "ECDSAInvalidSignature",
      "type": "error"
    },
    {
      "inputs": [
        {
          "internalType": "uint256",
          "name": "length",
          "type": "uint256"
        }
      ],
      "name": "ECDSAInvalidSignatureLength",
      "type": "error"
    },
    {
      "inputs": [
        {
          "internalType": "bytes32",
          "name": "s",
          "type": "bytes32"
        }
      ],
      "name": "ECDSAInvalidSignatureS",
      "type": "error"
    },
    {
      "inputs": [],
      "name": "EnforcedPause",
      "type": "error"
    },
    {
      "inputs": [],
      "name": "ExpectedPause",
      "type": "error"
    },
    {
      "inputs": [],
      "name": "ReentrancyGuardReentrantCall",
      "type": "error"
    },
    {
      "inputs": [
        {
          "internalType": "address",
          "name": "token",
          "type": "address"
        }
      ],
      "name": "SafeERC20FailedOperation",
      "type": "error"
    },
    {
      "anonymous": false,
      "inputs": [
        {
          "indexed": true,
          "internalType": "uint256",
          "name": "proposalId",
          "type": "uint256"
        },
        {
          "indexed": true,
          "internalType": "address",
          "name": "approver",
          "type": "address"
        },
        {
          "indexed": false,
          "internalType": "uint256",
          "name": "approvalCount",
          "type": "uint256"
        },
        {
          "indexed": false,
          "internalType": "uint256",
          "name": "requiredApprovals",
          "type": "uint256"
        }
      ],
      "name": "AdminAddApproved",
      "type": "event"
    },
    {
      "anonymous": false,
      "inputs": [
        {
          "indexed": true,
          "internalType": "uint256",
          "name": "proposalId",
          "type": "uint256"
        },
        {
          "indexed": true,
          "internalType": "address",
          "name": "cancelledBy",
          "type": "address"
        }
      ],
      "name": "AdminAddProposalExpiredCancelled",
      "type": "event"
    },
    {
      "anonymous": false,
      "inputs": [
        {
          "indexed": true,
          "internalType": "uint256",
          "name": "proposalId",
          "type": "uint256"
        },
        {
          "indexed": true,
          "internalType": "address",
          "name": "proposer",
          "type": "address"
        },
        {
          "indexed": true,
          "internalType": "address",
          "name": "newAdmin",
          "type": "address"
        },
        {
          "indexed": false,
          "internalType": "uint256",
          "name": "eta",
          "type": "uint256"
        }
      ],
      "name": "AdminAddProposed",
      "type": "event"
    },
    {
      "anonymous": false,
      "inputs": [
        {
          "indexed": true,
          "internalType": "address",
          "name": "newAdmin",
          "type": "address"
        }
      ],
      "name": "AdminAdded",
      "type": "event"
    },
    {
      "anonymous": false,
      "inputs": [
        {
          "indexed": true,
          "internalType": "uint256",
          "name": "tradeId",
          "type": "uint256"
        },
        {
          "indexed": false,
          "internalType": "uint256",
          "name": "arrivalTimestamp",
          "type": "uint256"
        }
      ],
      "name": "ArrivalConfirmed",
      "type": "event"
    },
    {
      "anonymous": false,
      "inputs": [
        {
          "indexed": true,
          "internalType": "address",
          "name": "user",
          "type": "address"
        },
        {
          "indexed": true,
          "internalType": "bytes32",
          "name": "action",
          "type": "bytes32"
        },
        {
          "indexed": false,
          "internalType": "uint256",
          "name": "nonce",
          "type": "uint256"
        },
        {
          "indexed": true,
          "internalType": "address",
          "name": "relayer",
          "type": "address"
        },
        {
          "indexed": false,
          "internalType": "uint256",
          "name": "deadline",
          "type": "uint256"
        }
      ],
      "name": "AuthorizationConsumed",
      "type": "event"
    },
    {
      "anonymous": false,
      "inputs": [
        {
          "indexed": true,
          "internalType": "uint256",
          "name": "tradeId",
          "type": "uint256"
        },
        {
          "indexed": true,
          "internalType": "address",
          "name": "recipient",
          "type": "address"
        },
        {
          "indexed": false,
          "internalType": "uint256",
          "name": "amount",
          "type": "uint256"
        },
        {
          "indexed": false,
          "internalType": "enum AgroasysEscrow.ClaimType",
          "name": "claimType",
          "type": "uint8"
        }
      ],
      "name": "ClaimableAccrued",
      "type": "event"
    },
    {
      "anonymous": false,
      "inputs": [
        {
          "indexed": true,
          "internalType": "address",
          "name": "claimant",
          "type": "address"
        },
        {
          "indexed": false,
          "internalType": "uint256",
          "name": "amount",
          "type": "uint256"
        }
      ],
      "name": "Claimed",
      "type": "event"
    },
    {
      "anonymous": false,
      "inputs": [
        {
          "indexed": true,
          "internalType": "address",
          "name": "triggeredBy",
          "type": "address"
        }
      ],
      "name": "ClaimsPaused",
      "type": "event"
    },
    {
      "anonymous": false,
      "inputs": [
        {
          "indexed": true,
          "internalType": "address",
          "name": "triggeredBy",
          "type": "address"
        }
      ],
      "name": "ClaimsUnpaused",
      "type": "event"
    },
    {
      "anonymous": false,
      "inputs": [
        {
          "indexed": true,
          "internalType": "uint256",
          "name": "proposalId",
          "type": "uint256"
        },
        {
          "indexed": true,
          "internalType": "address",
          "name": "approver",
          "type": "address"
        },
        {
          "indexed": false,
          "internalType": "uint256",
          "name": "approvalCount",
          "type": "uint256"
        },
        {
          "indexed": false,
          "internalType": "uint256",
          "name": "requiredApprovals",
          "type": "uint256"
        }
      ],
      "name": "DisputeApproved",
      "type": "event"
    },
    {
      "anonymous": false,
      "inputs": [
        {
          "indexed": true,
          "internalType": "uint256",
          "name": "proposalId",
          "type": "uint256"
        },
        {
          "indexed": true,
          "internalType": "uint256",
          "name": "tradeId",
          "type": "uint256"
        },
        {
          "indexed": false,
          "internalType": "enum AgroasysEscrow.DisputeStatus",
          "name": "disputeStatus",
          "type": "uint8"
        }
      ],
      "name": "DisputeFinalized",
      "type": "event"
    },
    {
      "anonymous": false,
      "inputs": [
        {
          "indexed": true,
          "internalType": "uint256",
          "name": "tradeId",
          "type": "uint256"
        }
      ],
      "name": "DisputeOpenedByBuyer",
      "type": "event"
    },
    {
      "anonymous": false,
      "inputs": [
        {
          "indexed": true,
          "internalType": "uint256",
          "name": "tradeId",
          "type": "uint256"
        },
        {
          "indexed": true,
          "internalType": "uint256",
          "name": "proposalId",
          "type": "uint256"
        },
        {
          "indexed": true,
          "internalType": "address",
          "name": "recipient",
          "type": "address"
        },
        {
          "indexed": false,
          "internalType": "uint256",
          "name": "amount",
          "type": "uint256"
        },
        {
          "indexed": false,
          "internalType": "enum AgroasysEscrow.DisputeStatus",
          "name": "payoutType",
          "type": "uint8"
        }
      ],
      "name": "DisputePayout",
      "type": "event"
    },
    {
      "anonymous": false,
      "inputs": [
        {
          "indexed": true,
          "internalType": "uint256",
          "name": "proposalId",
          "type": "uint256"
        },
        {
          "indexed": true,
          "internalType": "uint256",
          "name": "tradeId",
          "type": "uint256"
        },
        {
          "indexed": true,
          "internalType": "address",
          "name": "cancelledBy",
          "type": "address"
        }
      ],
      "name": "DisputeProposalExpiredCancelled",
      "type": "event"
    },
    {
      "anonymous": false,
      "inputs": [
        {
          "indexed": true,
          "internalType": "uint256",
          "name": "proposalId",
          "type": "uint256"
        },
        {
          "indexed": true,
          "internalType": "uint256",
          "name": "tradeId",
          "type": "uint256"
        },
        {
          "indexed": false,
          "internalType": "enum AgroasysEscrow.DisputeStatus",
          "name": "disputeStatus",
          "type": "uint8"
        },
        {
          "indexed": true,
          "internalType": "address",
          "name": "proposer",
          "type": "address"
        }
      ],
      "name": "DisputeSolutionProposed",
      "type": "event"
    },
    {
      "anonymous": false,
      "inputs": [
        {
          "indexed": true,
          "internalType": "uint256",
          "name": "tradeId",
          "type": "uint256"
        },
        {
          "indexed": true,
          "internalType": "address",
          "name": "supplier",
          "type": "address"
        },
        {
          "indexed": false,
          "internalType": "uint256",
          "name": "supplierSecondTranche",
          "type": "uint256"
        }
      ],
      "name": "FinalTrancheReleased",
      "type": "event"
    },
    {
      "anonymous": false,
      "inputs": [
        {
          "indexed": true,
          "internalType": "uint256",
          "name": "tradeId",
          "type": "uint256"
        },
        {
          "indexed": true,
          "internalType": "address",
          "name": "supplier",
          "type": "address"
        },
        {
          "indexed": false,
          "internalType": "uint256",
          "name": "supplierFirstTranche",
          "type": "uint256"
        },
        {
          "indexed": true,
          "internalType": "address",
          "name": "treasury",
          "type": "address"
        },
        {
          "indexed": false,
          "internalType": "uint256",
          "name": "logisticsAmount",
          "type": "uint256"
        }
      ],
      "name": "FundsReleasedStage1",
      "type": "event"
    },
    {
      "anonymous": false,
      "inputs": [
        {
          "indexed": true,
          "internalType": "uint256",
          "name": "tradeId",
          "type": "uint256"
        },
        {
          "indexed": true,
          "internalType": "address",
          "name": "supplier",
          "type": "address"
        },
        {
          "indexed": false,
          "internalType": "uint256",
          "name": "supplierSecondTranche",
          "type": "uint256"
        },
        {
          "indexed": true,
          "internalType": "address",
          "name": "treasury",
          "type": "address"
        },
        {
          "indexed": false,
          "internalType": "uint256",
          "name": "platformFeesAmount",
          "type": "uint256"
        }
      ],
      "name": "FundsReleasedStage2",
      "type": "event"
    },
    {
      "anonymous": false,
      "inputs": [
        {
          "indexed": true,
          "internalType": "uint256",
          "name": "tradeId",
          "type": "uint256"
        },
        {
          "indexed": true,
          "internalType": "address",
          "name": "buyer",
          "type": "address"
        },
        {
          "indexed": true,
          "internalType": "bytes32",
          "name": "usdcAuthorizationNonce",
          "type": "bytes32"
        },
        {
          "indexed": false,
          "internalType": "uint256",
          "name": "amount",
          "type": "uint256"
        }
      ],
      "name": "GaslessTradeFunded",
      "type": "event"
    },
    {
      "anonymous": false,
      "inputs": [
        {
          "indexed": true,
          "internalType": "uint256",
          "name": "tradeId",
          "type": "uint256"
        },
        {
          "indexed": true,
          "internalType": "address",
          "name": "buyer",
          "type": "address"
        },
        {
          "indexed": false,
          "internalType": "uint256",
          "name": "refundedAmount",
          "type": "uint256"
        }
      ],
      "name": "InTransitTimeoutRefunded",
      "type": "event"
    },
    {
      "anonymous": false,
      "inputs": [
        {
          "indexed": true,
          "internalType": "address",
          "name": "by",
          "type": "address"
        },
        {
          "indexed": true,
          "internalType": "address",
          "name": "previousOracle",
          "type": "address"
        }
      ],
      "name": "OracleDisabledEmergency",
      "type": "event"
    },
    {
      "anonymous": false,
      "inputs": [
        {
          "indexed": true,
          "internalType": "uint256",
          "name": "proposalId",
          "type": "uint256"
        },
        {
          "indexed": true,
          "internalType": "address",
          "name": "approver",
          "type": "address"
        },
        {
          "indexed": false,
          "internalType": "uint256",
          "name": "approvalCount",
          "type": "uint256"
        },
        {
          "indexed": false,
          "internalType": "uint256",
          "name": "requiredApprovals",
          "type": "uint256"
        }
      ],
      "name": "OracleUpdateApproved",
      "type": "event"
    },
    {
      "anonymous": false,
      "inputs": [
        {
          "indexed": true,
          "internalType": "uint256",
          "name": "proposalId",
          "type": "uint256"
        },
        {
          "indexed": true,
          "internalType": "address",
          "name": "cancelledBy",
          "type": "address"
        }
      ],
      "name": "OracleUpdateProposalExpiredCancelled",
      "type": "event"
    },
    {
      "anonymous": false,
      "inputs": [
        {
          "indexed": true,
          "internalType": "uint256",
          "name": "proposalId",
          "type": "uint256"
        },
        {
          "indexed": true,
          "internalType": "address",
          "name": "proposer",
          "type": "address"
        },
        {
          "indexed": true,
          "internalType": "address",
          "name": "newOracle",
          "type": "address"
        },
        {
          "indexed": false,
          "internalType": "uint256",
          "name": "eta",
          "type": "uint256"
        },
        {
          "indexed": false,
          "internalType": "bool",
          "name": "emergencyFastTrack",
          "type": "bool"
        }
      ],
      "name": "OracleUpdateProposed",
      "type": "event"
    },
    {
      "anonymous": false,
      "inputs": [
        {
          "indexed": true,
          "internalType": "address",
          "name": "oldOracle",
          "type": "address"
        },
        {
          "indexed": true,
          "internalType": "address",
          "name": "newOracle",
          "type": "address"
        }
      ],
      "name": "OracleUpdated",
      "type": "event"
    },
    {
      "anonymous": false,
      "inputs": [
        {
          "indexed": false,
          "internalType": "address",
          "name": "account",
          "type": "address"
        }
      ],
      "name": "Paused",
      "type": "event"
    },
    {
      "anonymous": false,
      "inputs": [
        {
          "indexed": true,
          "internalType": "uint256",
          "name": "tradeId",
          "type": "uint256"
        },
        {
          "indexed": true,
          "internalType": "address",
          "name": "treasury",
          "type": "address"
        },
        {
          "indexed": false,
          "internalType": "uint256",
          "name": "platformFeesAmount",
          "type": "uint256"
        }
      ],
      "name": "PlatformFeesPaidStage1",
      "type": "event"
    },
    {
      "anonymous": false,
      "inputs": [
        {
          "indexed": true,
          "internalType": "address",
          "name": "relayer",
          "type": "address"
        },
        {
          "indexed": true,
          "internalType": "address",
          "name": "user",
          "type": "address"
        },
        {
          "indexed": true,
          "internalType": "bytes32",
          "name": "action",
          "type": "bytes32"
        },
        {
          "indexed": false,
          "internalType": "uint256",
          "name": "tradeId",
          "type": "uint256"
        }
      ],
      "name": "RelayedActionExecuted",
      "type": "event"
    },
    {
      "anonymous": false,
      "inputs": [
        {
          "indexed": true,
          "internalType": "uint256",
          "name": "tradeId",
          "type": "uint256"
        },
        {
          "indexed": true,
          "internalType": "address",
          "name": "supplier",
          "type": "address"
        },
        {
          "indexed": false,
          "internalType": "uint256",
          "name": "amount",
          "type": "uint256"
        },
        {
          "indexed": false,
          "internalType": "enum AgroasysEscrow.ClaimType",
          "name": "claimType",
          "type": "uint8"
        },
        {
          "indexed": true,
          "internalType": "address",
          "name": "triggeredBy",
          "type": "address"
        }
      ],
      "name": "SupplierPayoutTransferred",
      "type": "event"
    },
    {
      "anonymous": false,
      "inputs": [
        {
          "indexed": true,
          "internalType": "uint256",
          "name": "tradeId",
          "type": "uint256"
        },
        {
          "indexed": true,
          "internalType": "address",
          "name": "buyer",
          "type": "address"
        },
        {
          "indexed": false,
          "internalType": "uint256",
          "name": "refundedAmount",
          "type": "uint256"
        }
      ],
      "name": "TradeCancelledAfterLockTimeout",
      "type": "event"
    },
    {
      "anonymous": false,
      "inputs": [
        {
          "indexed": true,
          "internalType": "uint256",
          "name": "tradeId",
          "type": "uint256"
        },
        {
          "indexed": true,
          "internalType": "address",
          "name": "buyer",
          "type": "address"
        },
        {
          "indexed": true,
          "internalType": "address",
          "name": "supplier",
          "type": "address"
        },
        {
          "indexed": false,
          "internalType": "uint256",
          "name": "totalAmount",
          "type": "uint256"
        },
        {
          "indexed": false,
          "internalType": "uint256",
          "name": "logisticsAmount",
          "type": "uint256"
        },
        {
          "indexed": false,
          "internalType": "uint256",
          "name": "platformFeesAmount",
          "type": "uint256"
        },
        {
          "indexed": false,
          "internalType": "uint256",
          "name": "supplierFirstTranche",
          "type": "uint256"
        },
        {
          "indexed": false,
          "internalType": "uint256",
          "name": "supplierSecondTranche",
          "type": "uint256"
        },
        {
          "indexed": false,
          "internalType": "bytes32",
          "name": "ricardianHash",
          "type": "bytes32"
        }
      ],
      "name": "TradeLocked",
      "type": "event"
    },
    {
      "anonymous": false,
      "inputs": [
        {
          "indexed": true,
          "internalType": "address",
          "name": "treasuryIdentity",
          "type": "address"
        },
        {
          "indexed": true,
          "internalType": "address",
          "name": "payoutReceiver",
          "type": "address"
        },
        {
          "indexed": false,
          "internalType": "uint256",
          "name": "amount",
          "type": "uint256"
        },
        {
          "indexed": false,
          "internalType": "address",
          "name": "triggeredBy",
          "type": "address"
        }
      ],
      "name": "TreasuryClaimed",
      "type": "event"
    },
    {
      "anonymous": false,
      "inputs": [
        {
          "indexed": true,
          "internalType": "uint256",
          "name": "proposalId",
          "type": "uint256"
        },
        {
          "indexed": true,
          "internalType": "address",
          "name": "approver",
          "type": "address"
        },
        {
          "indexed": false,
          "internalType": "uint256",
          "name": "approvalCount",
          "type": "uint256"
        },
        {
          "indexed": false,
          "internalType": "uint256",
          "name": "requiredApprovals",
          "type": "uint256"
        }
      ],
      "name": "TreasuryPayoutAddressUpdateApproved",
      "type": "event"
    },
    {
      "anonymous": false,
      "inputs": [
        {
          "indexed": true,
          "internalType": "uint256",
          "name": "proposalId",
          "type": "uint256"
        },
        {
          "indexed": true,
          "internalType": "address",
          "name": "cancelledBy",
          "type": "address"
        }
      ],
      "name": "TreasuryPayoutAddressUpdateProposalExpiredCancelled",
      "type": "event"
    },
    {
      "anonymous": false,
      "inputs": [
        {
          "indexed": true,
          "internalType": "uint256",
          "name": "proposalId",
          "type": "uint256"
        },
        {
          "indexed": true,
          "internalType": "address",
          "name": "proposer",
          "type": "address"
        },
        {
          "indexed": true,
          "internalType": "address",
          "name": "newPayoutReceiver",
          "type": "address"
        },
        {
          "indexed": false,
          "internalType": "uint256",
          "name": "eta",
          "type": "uint256"
        }
      ],
      "name": "TreasuryPayoutAddressUpdateProposed",
      "type": "event"
    },
    {
      "anonymous": false,
      "inputs": [
        {
          "indexed": true,
          "internalType": "address",
          "name": "oldPayoutReceiver",
          "type": "address"
        },
        {
          "indexed": true,
          "internalType": "address",
          "name": "newPayoutReceiver",
          "type": "address"
        }
      ],
      "name": "TreasuryPayoutAddressUpdated",
      "type": "event"
    },
    {
      "anonymous": false,
      "inputs": [
        {
          "indexed": true,
          "internalType": "address",
          "name": "approver",
          "type": "address"
        },
        {
          "indexed": false,
          "internalType": "uint256",
          "name": "approvalCount",
          "type": "uint256"
        },
        {
          "indexed": false,
          "internalType": "uint256",
          "name": "requiredApprovals",
          "type": "uint256"
        }
      ],
      "name": "UnpauseApproved",
      "type": "event"
    },
    {
      "anonymous": false,
      "inputs": [
        {
          "indexed": true,
          "internalType": "address",
          "name": "cancelledBy",
          "type": "address"
        }
      ],
      "name": "UnpauseProposalCancelled",
      "type": "event"
    },
    {
      "anonymous": false,
      "inputs": [
        {
          "indexed": true,
          "internalType": "address",
          "name": "proposer",
          "type": "address"
        }
      ],
      "name": "UnpauseProposed",
      "type": "event"
    },
    {
      "anonymous": false,
      "inputs": [
        {
          "indexed": false,
          "internalType": "address",
          "name": "account",
          "type": "address"
        }
      ],
      "name": "Unpaused",
      "type": "event"
    },
    {
      "inputs": [],
      "name": "ACTION_CANCEL_LOCKED_TIMEOUT",
      "outputs": [
        {
          "internalType": "bytes32",
          "name": "",
          "type": "bytes32"
        }
      ],
      "stateMutability": "view",
      "type": "function"
    },
    {
      "inputs": [],
      "name": "ACTION_CREATE_TRADE",
      "outputs": [
        {
          "internalType": "bytes32",
          "name": "",
          "type": "bytes32"
        }
      ],
      "stateMutability": "view",
      "type": "function"
    },
    {
      "inputs": [],
      "name": "ACTION_FINALIZE_AFTER_DISPUTE_WINDOW",
      "outputs": [
        {
          "internalType": "bytes32",
          "name": "",
          "type": "bytes32"
        }
      ],
      "stateMutability": "view",
      "type": "function"
    },
    {
      "inputs": [],
      "name": "ACTION_OPEN_DISPUTE",
      "outputs": [
        {
          "internalType": "bytes32",
          "name": "",
          "type": "bytes32"
        }
      ],
      "stateMutability": "view",
      "type": "function"
    },
    {
      "inputs": [],
      "name": "ACTION_REFUND_IN_TRANSIT_TIMEOUT",
      "outputs": [
        {
          "internalType": "bytes32",
          "name": "",
          "type": "bytes32"
        }
      ],
      "stateMutability": "view",
      "type": "function"
    },
    {
      "inputs": [],
      "name": "DISPUTE_PROPOSAL_TTL",
      "outputs": [
        {
          "internalType": "uint256",
          "name": "",
          "type": "uint256"
        }
      ],
      "stateMutability": "view",
      "type": "function"
    },
    {
      "inputs": [],
      "name": "DISPUTE_WINDOW",
      "outputs": [
        {
          "internalType": "uint256",
          "name": "",
          "type": "uint256"
        }
      ],
      "stateMutability": "view",
      "type": "function"
    },
    {
      "inputs": [],
      "name": "GOVERNANCE_PROPOSAL_TTL",
      "outputs": [
        {
          "internalType": "uint256",
          "name": "",
          "type": "uint256"
        }
      ],
      "stateMutability": "view",
      "type": "function"
    },
    {
      "inputs": [],
      "name": "IN_TRANSIT_TIMEOUT",
      "outputs": [
        {
          "internalType": "uint256",
          "name": "",
          "type": "uint256"
        }
      ],
      "stateMutability": "view",
      "type": "function"
    },
    {
      "inputs": [],
      "name": "LOCK_TIMEOUT",
      "outputs": [
        {
          "internalType": "uint256",
          "name": "",
          "type": "uint256"
        }
      ],
      "stateMutability": "view",
      "type": "function"
    },
    {
      "inputs": [],
      "name": "adminAddCounter",
      "outputs": [
        {
          "internalType": "uint256",
          "name": "",
          "type": "uint256"
        }
      ],
      "stateMutability": "view",
      "type": "function"
    },
    {
      "inputs": [
        {
          "internalType": "uint256",
          "name": "",
          "type": "uint256"
        },
        {
          "internalType": "address",
          "name": "",
          "type": "address"
        }
      ],
      "name": "adminAddHasApproved",
      "outputs": [
        {
          "internalType": "bool",
          "name": "",
          "type": "bool"
        }
      ],
      "stateMutability": "view",
      "type": "function"
    },
    {
      "inputs": [
        {
          "internalType": "uint256",
          "name": "",
          "type": "uint256"
        }
      ],
      "name": "adminAddProposalCancelled",
      "outputs": [
        {
          "internalType": "bool",
          "name": "",
          "type": "bool"
        }
      ],
      "stateMutability": "view",
      "type": "function"
    },
    {
      "inputs": [
        {
          "internalType": "uint256",
          "name": "",
          "type": "uint256"
        }
      ],
      "name": "adminAddProposalExpiresAt",
      "outputs": [
        {
          "internalType": "uint256",
          "name": "",
          "type": "uint256"
        }
      ],
      "stateMutability": "view",
      "type": "function"
    },
    {
      "inputs": [
        {
          "internalType": "uint256",
          "name": "",
          "type": "uint256"
        }
      ],
      "name": "adminAddProposals",
      "outputs": [
        {
          "internalType": "address",
          "name": "newAdmin",
          "type": "address"
        },
        {
          "internalType": "uint256",
          "name": "approvalCount",
          "type": "uint256"
        },
        {
          "internalType": "bool",
          "name": "executed",
          "type": "bool"
        },
        {
          "internalType": "uint256",
          "name": "createdAt",
          "type": "uint256"
        },
        {
          "internalType": "uint256",
          "name": "eta",
          "type": "uint256"
        },
        {
          "internalType": "address",
          "name": "proposer",
          "type": "address"
        }
      ],
      "stateMutability": "view",
      "type": "function"
    },
    {
      "inputs": [
        {
          "internalType": "uint256",
          "name": "",
          "type": "uint256"
        }
      ],
      "name": "admins",
      "outputs": [
        {
          "internalType": "address",
          "name": "",
          "type": "address"
        }
      ],
      "stateMutability": "view",
      "type": "function"
    },
    {
      "inputs": [
        {
          "internalType": "uint256",
          "name": "_proposalId",
          "type": "uint256"
        }
      ],
      "name": "approveAddAdmin",
      "outputs": [],
      "stateMutability": "nonpayable",
      "type": "function"
    },
    {
      "inputs": [
        {
          "internalType": "uint256",
          "name": "_proposalId",
          "type": "uint256"
        }
      ],
      "name": "approveDisputeSolution",
      "outputs": [],
      "stateMutability": "nonpayable",
      "type": "function"
    },
    {
      "inputs": [
        {
          "internalType": "uint256",
          "name": "_proposalId",
          "type": "uint256"
        }
      ],
      "name": "approveOracleUpdate",
      "outputs": [],
      "stateMutability": "nonpayable",
      "type": "function"
    },
    {
      "inputs": [
        {
          "internalType": "uint256",
          "name": "_proposalId",
          "type": "uint256"
        }
      ],
      "name": "approveTreasuryPayoutAddressUpdate",
      "outputs": [],
      "stateMutability": "nonpayable",
      "type": "function"
    },
    {
      "inputs": [],
      "name": "approveUnpause",
      "outputs": [],
      "stateMutability": "nonpayable",
      "type": "function"
    },
    {
      "inputs": [
        {
          "internalType": "address",
          "name": "",
          "type": "address"
        }
      ],
      "name": "authorizationNonces",
      "outputs": [
        {
          "internalType": "uint256",
          "name": "",
          "type": "uint256"
        }
      ],
      "stateMutability": "view",
      "type": "function"
    },
    {
      "inputs": [
        {
          "internalType": "uint256",
          "name": "_proposalId",
          "type": "uint256"
        }
      ],
      "name": "cancelExpiredAddAdminProposal",
      "outputs": [],
      "stateMutability": "nonpayable",
      "type": "function"
    },
    {
      "inputs": [
        {
          "internalType": "uint256",
          "name": "_proposalId",
          "type": "uint256"
        }
      ],
      "name": "cancelExpiredDisputeProposal",
      "outputs": [],
      "stateMutability": "nonpayable",
      "type": "function"
    },
    {
      "inputs": [
        {
          "internalType": "uint256",
          "name": "_proposalId",
          "type": "uint256"
        }
      ],
      "name": "cancelExpiredOracleUpdateProposal",
      "outputs": [],
      "stateMutability": "nonpayable",
      "type": "function"
    },
    {
      "inputs": [
        {
          "internalType": "uint256",
          "name": "_proposalId",
          "type": "uint256"
        }
      ],
      "name": "cancelExpiredTreasuryPayoutAddressUpdateProposal",
      "outputs": [],
      "stateMutability": "nonpayable",
      "type": "function"
    },
    {
      "inputs": [
        {
          "internalType": "uint256",
          "name": "_tradeId",
          "type": "uint256"
        }
      ],
      "name": "cancelLockedTradeAfterTimeout",
      "outputs": [],
      "stateMutability": "nonpayable",
      "type": "function"
    },
    {
      "inputs": [
        {
          "internalType": "uint256",
          "name": "_tradeId",
          "type": "uint256"
        },
        {
          "internalType": "uint256",
          "name": "_authorizationNonce",
          "type": "uint256"
        },
        {
          "internalType": "uint256",
          "name": "_authorizationDeadline",
          "type": "uint256"
        },
        {
          "internalType": "bytes",
          "name": "_authorizationSignature",
          "type": "bytes"
        }
      ],
      "name": "cancelLockedTradeAfterTimeoutWithAuthorization",
      "outputs": [],
      "stateMutability": "nonpayable",
      "type": "function"
    },
    {
      "inputs": [],
      "name": "cancelUnpauseProposal",
      "outputs": [],
      "stateMutability": "nonpayable",
      "type": "function"
    },
    {
      "inputs": [],
      "name": "claim",
      "outputs": [],
      "stateMutability": "nonpayable",
      "type": "function"
    },
    {
      "inputs": [],
      "name": "claimTreasury",
      "outputs": [],
      "stateMutability": "nonpayable",
      "type": "function"
    },
    {
      "inputs": [
        {
          "internalType": "address",
          "name": "",
          "type": "address"
        }
      ],
      "name": "claimableUsdc",
      "outputs": [
        {
          "internalType": "uint256",
          "name": "",
          "type": "uint256"
        }
      ],
      "stateMutability": "view",
      "type": "function"
    },
    {
      "inputs": [],
      "name": "claimsPaused",
      "outputs": [
        {
          "internalType": "bool",
          "name": "",
          "type": "bool"
        }
      ],
      "stateMutability": "view",
      "type": "function"
    },
    {
      "inputs": [
        {
          "internalType": "uint256",
          "name": "_tradeId",
          "type": "uint256"
        }
      ],
      "name": "confirmArrival",
      "outputs": [],
      "stateMutability": "nonpayable",
      "type": "function"
    },
    {
      "inputs": [
        {
          "internalType": "address",
          "name": "_supplier",
          "type": "address"
        },
        {
          "internalType": "uint256",
          "name": "_totalAmount",
          "type": "uint256"
        },
        {
          "internalType": "uint256",
          "name": "_logisticsAmount",
          "type": "uint256"
        },
        {
          "internalType": "uint256",
          "name": "_platformFeesAmount",
          "type": "uint256"
        },
        {
          "internalType": "uint256",
          "name": "_supplierFirstTranche",
          "type": "uint256"
        },
        {
          "internalType": "uint256",
          "name": "_supplierSecondTranche",
          "type": "uint256"
        },
        {
          "internalType": "bytes32",
          "name": "_ricardianHash",
          "type": "bytes32"
        },
        {
          "internalType": "uint256",
          "name": "_buyerNonce",
          "type": "uint256"
        },
        {
          "internalType": "uint256",
          "name": "_deadline",
          "type": "uint256"
        },
        {
          "internalType": "bytes",
          "name": "_signature",
          "type": "bytes"
        }
      ],
      "name": "createTrade",
      "outputs": [
        {
          "internalType": "uint256",
          "name": "",
          "type": "uint256"
        }
      ],
      "stateMutability": "nonpayable",
      "type": "function"
    },
    {
      "inputs": [
        {
          "internalType": "address",
          "name": "_buyer",
          "type": "address"
        },
        {
          "internalType": "address",
          "name": "_supplier",
          "type": "address"
        },
        {
          "internalType": "uint256",
          "name": "_totalAmount",
          "type": "uint256"
        },
        {
          "internalType": "uint256",
          "name": "_logisticsAmount",
          "type": "uint256"
        },
        {
          "internalType": "uint256",
          "name": "_platformFeesAmount",
          "type": "uint256"
        },
        {
          "internalType": "uint256",
          "name": "_supplierFirstTranche",
          "type": "uint256"
        },
        {
          "internalType": "uint256",
          "name": "_supplierSecondTranche",
          "type": "uint256"
        },
        {
          "internalType": "bytes32",
          "name": "_ricardianHash",
          "type": "bytes32"
        },
        {
          "internalType": "uint256",
          "name": "_authorizationNonce",
          "type": "uint256"
        },
        {
          "internalType": "uint256",
          "name": "_authorizationDeadline",
          "type": "uint256"
        },
        {
          "internalType": "bytes",
          "name": "_authorizationSignature",
          "type": "bytes"
        },
        {
          "components": [
            {
              "internalType": "uint256",
              "name": "validAfter",
              "type": "uint256"
            },
            {
              "internalType": "uint256",
              "name": "validBefore",
              "type": "uint256"
            },
            {
              "internalType": "bytes32",
              "name": "nonce",
              "type": "bytes32"
            },
            {
              "internalType": "uint8",
              "name": "v",
              "type": "uint8"
            },
            {
              "internalType": "bytes32",
              "name": "r",
              "type": "bytes32"
            },
            {
              "internalType": "bytes32",
              "name": "s",
              "type": "bytes32"
            }
          ],
          "internalType": "struct AgroasysEscrow.UsdcAuthorization",
          "name": "_usdcAuthorization",
          "type": "tuple"
        }
      ],
      "name": "createTradeWithAuthorization",
      "outputs": [
        {
          "internalType": "uint256",
          "name": "",
          "type": "uint256"
        }
      ],
      "stateMutability": "nonpayable",
      "type": "function"
    },
    {
      "inputs": [],
      "name": "disableOracleEmergency",
      "outputs": [],
      "stateMutability": "nonpayable",
      "type": "function"
    },
    {
      "inputs": [],
      "name": "disputeCounter",
      "outputs": [
        {
          "internalType": "uint256",
          "name": "",
          "type": "uint256"
        }
      ],
      "stateMutability": "view",
      "type": "function"
    },
    {
      "inputs": [
        {
          "internalType": "uint256",
          "name": "",
          "type": "uint256"
        },
        {
          "internalType": "address",
          "name": "",
          "type": "address"
        }
      ],
      "name": "disputeHasApproved",
      "outputs": [
        {
          "internalType": "bool",
          "name": "",
          "type": "bool"
        }
      ],
      "stateMutability": "view",
      "type": "function"
    },
    {
      "inputs": [
        {
          "internalType": "uint256",
          "name": "",
          "type": "uint256"
        }
      ],
      "name": "disputeProposalCancelled",
      "outputs": [
        {
          "internalType": "bool",
          "name": "",
          "type": "bool"
        }
      ],
      "stateMutability": "view",
      "type": "function"
    },
    {
      "inputs": [
        {
          "internalType": "uint256",
          "name": "",
          "type": "uint256"
        }
      ],
      "name": "disputeProposalExpiresAt",
      "outputs": [
        {
          "internalType": "uint256",
          "name": "",
          "type": "uint256"
        }
      ],
      "stateMutability": "view",
      "type": "function"
    },
    {
      "inputs": [
        {
          "internalType": "uint256",
          "name": "",
          "type": "uint256"
        }
      ],
      "name": "disputeProposals",
      "outputs": [
        {
          "internalType": "uint256",
          "name": "tradeId",
          "type": "uint256"
        },
        {
          "internalType": "enum AgroasysEscrow.DisputeStatus",
          "name": "disputeStatus",
          "type": "uint8"
        },
        {
          "internalType": "uint256",
          "name": "approvalCount",
          "type": "uint256"
        },
        {
          "internalType": "bool",
          "name": "executed",
          "type": "bool"
        },
        {
          "internalType": "uint256",
          "name": "createdAt",
          "type": "uint256"
        },
        {
          "internalType": "address",
          "name": "proposer",
          "type": "address"
        }
      ],
      "stateMutability": "view",
      "type": "function"
    },
    {
      "inputs": [
        {
          "internalType": "uint256",
          "name": "_proposalId",
          "type": "uint256"
        }
      ],
      "name": "executeAddAdmin",
      "outputs": [],
      "stateMutability": "nonpayable",
      "type": "function"
    },
    {
      "inputs": [
        {
          "internalType": "uint256",
          "name": "_proposalId",
          "type": "uint256"
        }
      ],
      "name": "executeOracleUpdate",
      "outputs": [],
      "stateMutability": "nonpayable",
      "type": "function"
    },
    {
      "inputs": [
        {
          "internalType": "uint256",
          "name": "_proposalId",
          "type": "uint256"
        }
      ],
      "name": "executeTreasuryPayoutAddressUpdate",
      "outputs": [],
      "stateMutability": "nonpayable",
      "type": "function"
    },
    {
      "inputs": [
        {
          "internalType": "uint256",
          "name": "_tradeId",
          "type": "uint256"
        }
      ],
      "name": "finalizeAfterDisputeWindow",
      "outputs": [],
      "stateMutability": "nonpayable",
      "type": "function"
    },
    {
      "inputs": [
        {
          "internalType": "uint256",
          "name": "_tradeId",
          "type": "uint256"
        },
        {
          "internalType": "uint256",
          "name": "_authorizationNonce",
          "type": "uint256"
        },
        {
          "internalType": "uint256",
          "name": "_authorizationDeadline",
          "type": "uint256"
        },
        {
          "internalType": "bytes",
          "name": "_authorizationSignature",
          "type": "bytes"
        }
      ],
      "name": "finalizeAfterDisputeWindowWithAuthorization",
      "outputs": [],
      "stateMutability": "nonpayable",
      "type": "function"
    },
    {
      "inputs": [
        {
          "internalType": "address",
          "name": "user",
          "type": "address"
        }
      ],
      "name": "getAuthorizationNonce",
      "outputs": [
        {
          "internalType": "uint256",
          "name": "",
          "type": "uint256"
        }
      ],
      "stateMutability": "view",
      "type": "function"
    },
    {
      "inputs": [
        {
          "internalType": "address",
          "name": "buyer",
          "type": "address"
        }
      ],
      "name": "getBuyerNonce",
      "outputs": [
        {
          "internalType": "uint256",
          "name": "",
          "type": "uint256"
        }
      ],
      "stateMutability": "view",
      "type": "function"
    },
    {
      "inputs": [],
      "name": "getNextTradeId",
      "outputs": [
        {
          "internalType": "uint256",
          "name": "",
          "type": "uint256"
        }
      ],
      "stateMutability": "view",
      "type": "function"
    },
    {
      "inputs": [],
      "name": "governanceApprovals",
      "outputs": [
        {
          "internalType": "uint256",
          "name": "",
          "type": "uint256"
        }
      ],
      "stateMutability": "view",
      "type": "function"
    },
    {
      "inputs": [],
      "name": "governanceTimelock",
      "outputs": [
        {
          "internalType": "uint256",
          "name": "",
          "type": "uint256"
        }
      ],
      "stateMutability": "view",
      "type": "function"
    },
    {
      "inputs": [],
      "name": "hasActiveUnpauseProposal",
      "outputs": [
        {
          "internalType": "bool",
          "name": "",
          "type": "bool"
        }
      ],
      "stateMutability": "view",
      "type": "function"
    },
    {
      "inputs": [],
      "name": "hasPendingTreasuryPayoutAddressUpdateProposal",
      "outputs": [
        {
          "internalType": "bool",
          "name": "",
          "type": "bool"
        }
      ],
      "stateMutability": "view",
      "type": "function"
    },
    {
      "inputs": [
        {
          "internalType": "uint256",
          "name": "",
          "type": "uint256"
        }
      ],
      "name": "inTransitSince",
      "outputs": [
        {
          "internalType": "uint256",
          "name": "",
          "type": "uint256"
        }
      ],
      "stateMutability": "view",
      "type": "function"
    },
    {
      "inputs": [
        {
          "internalType": "address",
          "name": "",
          "type": "address"
        }
      ],
      "name": "isAdmin",
      "outputs": [
        {
          "internalType": "bool",
          "name": "",
          "type": "bool"
        }
      ],
      "stateMutability": "view",
      "type": "function"
    },
    {
      "inputs": [
        {
          "internalType": "address",
          "name": "",
          "type": "address"
        }
      ],
      "name": "nonces",
      "outputs": [
        {
          "internalType": "uint256",
          "name": "",
          "type": "uint256"
        }
      ],
      "stateMutability": "view",
      "type": "function"
    },
    {
      "inputs": [
        {
          "internalType": "uint256",
          "name": "_tradeId",
          "type": "uint256"
        }
      ],
      "name": "openDispute",
      "outputs": [],
      "stateMutability": "nonpayable",
      "type": "function"
    },
    {
      "inputs": [
        {
          "internalType": "uint256",
          "name": "_tradeId",
          "type": "uint256"
        },
        {
          "internalType": "uint256",
          "name": "_authorizationNonce",
          "type": "uint256"
        },
        {
          "internalType": "uint256",
          "name": "_authorizationDeadline",
          "type": "uint256"
        },
        {
          "internalType": "bytes",
          "name": "_authorizationSignature",
          "type": "bytes"
        }
      ],
      "name": "openDisputeWithAuthorization",
      "outputs": [],
      "stateMutability": "nonpayable",
      "type": "function"
    },
    {
      "inputs": [],
      "name": "oracleActive",
      "outputs": [
        {
          "internalType": "bool",
          "name": "",
          "type": "bool"
        }
      ],
      "stateMutability": "view",
      "type": "function"
    },
    {
      "inputs": [],
      "name": "oracleAddress",
      "outputs": [
        {
          "internalType": "address",
          "name": "",
          "type": "address"
        }
      ],
      "stateMutability": "view",
      "type": "function"
    },
    {
      "inputs": [],
      "name": "oracleUpdateCounter",
      "outputs": [
        {
          "internalType": "uint256",
          "name": "",
          "type": "uint256"
        }
      ],
      "stateMutability": "view",
      "type": "function"
    },
    {
      "inputs": [
        {
          "internalType": "uint256",
          "name": "",
          "type": "uint256"
        },
        {
          "internalType": "address",
          "name": "",
          "type": "address"
        }
      ],
      "name": "oracleUpdateHasApproved",
      "outputs": [
        {
          "internalType": "bool",
          "name": "",
          "type": "bool"
        }
      ],
      "stateMutability": "view",
      "type": "function"
    },
    {
      "inputs": [
        {
          "internalType": "uint256",
          "name": "",
          "type": "uint256"
        }
      ],
      "name": "oracleUpdateProposalCancelled",
      "outputs": [
        {
          "internalType": "bool",
          "name": "",
          "type": "bool"
        }
      ],
      "stateMutability": "view",
      "type": "function"
    },
    {
      "inputs": [
        {
          "internalType": "uint256",
          "name": "",
          "type": "uint256"
        }
      ],
      "name": "oracleUpdateProposalExpiresAt",
      "outputs": [
        {
          "internalType": "uint256",
          "name": "",
          "type": "uint256"
        }
      ],
      "stateMutability": "view",
      "type": "function"
    },
    {
      "inputs": [
        {
          "internalType": "uint256",
          "name": "",
          "type": "uint256"
        }
      ],
      "name": "oracleUpdateProposals",
      "outputs": [
        {
          "internalType": "address",
          "name": "newOracle",
          "type": "address"
        },
        {
          "internalType": "uint256",
          "name": "approvalCount",
          "type": "uint256"
        },
        {
          "internalType": "bool",
          "name": "executed",
          "type": "bool"
        },
        {
          "internalType": "uint256",
          "name": "createdAt",
          "type": "uint256"
        },
        {
          "internalType": "uint256",
          "name": "eta",
          "type": "uint256"
        },
        {
          "internalType": "address",
          "name": "proposer",
          "type": "address"
        },
        {
          "internalType": "bool",
          "name": "emergencyFastTrack",
          "type": "bool"
        }
      ],
      "stateMutability": "view",
      "type": "function"
    },
    {
      "inputs": [],
      "name": "pause",
      "outputs": [],
      "stateMutability": "nonpayable",
      "type": "function"
    },
    {
      "inputs": [],
      "name": "pauseClaims",
      "outputs": [],
      "stateMutability": "nonpayable",
      "type": "function"
    },
    {
      "inputs": [],
      "name": "paused",
      "outputs": [
        {
          "internalType": "bool",
          "name": "",
          "type": "bool"
        }
      ],
      "stateMutability": "view",
      "type": "function"
    },
    {
      "inputs": [
        {
          "internalType": "address",
          "name": "_newAdmin",
          "type": "address"
        }
      ],
      "name": "proposeAddAdmin",
      "outputs": [
        {
          "internalType": "uint256",
          "name": "",
          "type": "uint256"
        }
      ],
      "stateMutability": "nonpayable",
      "type": "function"
    },
    {
      "inputs": [
        {
          "internalType": "uint256",
          "name": "_tradeId",
          "type": "uint256"
        },
        {
          "internalType": "enum AgroasysEscrow.DisputeStatus",
          "name": "_disputeStatus",
          "type": "uint8"
        }
      ],
      "name": "proposeDisputeSolution",
      "outputs": [
        {
          "internalType": "uint256",
          "name": "",
          "type": "uint256"
        }
      ],
      "stateMutability": "nonpayable",
      "type": "function"
    },
    {
      "inputs": [
        {
          "internalType": "address",
          "name": "_newOracle",
          "type": "address"
        }
      ],
      "name": "proposeOracleUpdate",
      "outputs": [
        {
          "internalType": "uint256",
          "name": "",
          "type": "uint256"
        }
      ],
      "stateMutability": "nonpayable",
      "type": "function"
    },
    {
      "inputs": [
        {
          "internalType": "address",
          "name": "_newPayoutReceiver",
          "type": "address"
        }
      ],
      "name": "proposeTreasuryPayoutAddressUpdate",
      "outputs": [
        {
          "internalType": "uint256",
          "name": "",
          "type": "uint256"
        }
      ],
      "stateMutability": "nonpayable",
      "type": "function"
    },
    {
      "inputs": [],
      "name": "proposeUnpause",
      "outputs": [
        {
          "internalType": "bool",
          "name": "",
          "type": "bool"
        }
      ],
      "stateMutability": "nonpayable",
      "type": "function"
    },
    {
      "inputs": [
        {
          "internalType": "uint256",
          "name": "_tradeId",
          "type": "uint256"
        }
      ],
      "name": "refundInTransitAfterTimeout",
      "outputs": [],
      "stateMutability": "nonpayable",
      "type": "function"
    },
    {
      "inputs": [
        {
          "internalType": "uint256",
          "name": "_tradeId",
          "type": "uint256"
        },
        {
          "internalType": "uint256",
          "name": "_authorizationNonce",
          "type": "uint256"
        },
        {
          "internalType": "uint256",
          "name": "_authorizationDeadline",
          "type": "uint256"
        },
        {
          "internalType": "bytes",
          "name": "_authorizationSignature",
          "type": "bytes"
        }
      ],
      "name": "refundInTransitAfterTimeoutWithAuthorization",
      "outputs": [],
      "stateMutability": "nonpayable",
      "type": "function"
    },
    {
      "inputs": [
        {
          "internalType": "uint256",
          "name": "_tradeId",
          "type": "uint256"
        }
      ],
      "name": "releaseFundsStage1",
      "outputs": [],
      "stateMutability": "nonpayable",
      "type": "function"
    },
    {
      "inputs": [],
      "name": "requiredApprovals",
      "outputs": [
        {
          "internalType": "uint256",
          "name": "",
          "type": "uint256"
        }
      ],
      "stateMutability": "view",
      "type": "function"
    },
    {
      "inputs": [],
      "name": "totalClaimableUsdc",
      "outputs": [
        {
          "internalType": "uint256",
          "name": "",
          "type": "uint256"
        }
      ],
      "stateMutability": "view",
      "type": "function"
    },
    {
      "inputs": [
        {
          "internalType": "uint256",
          "name": "",
          "type": "uint256"
        }
      ],
      "name": "tradeActiveDisputeProposalId",
      "outputs": [
        {
          "internalType": "uint256",
          "name": "",
          "type": "uint256"
        }
      ],
      "stateMutability": "view",
      "type": "function"
    },
    {
      "inputs": [],
      "name": "tradeCounter",
      "outputs": [
        {
          "internalType": "uint256",
          "name": "",
          "type": "uint256"
        }
      ],
      "stateMutability": "view",
      "type": "function"
    },
    {
      "inputs": [
        {
          "internalType": "uint256",
          "name": "",
          "type": "uint256"
        }
      ],
      "name": "tradeHasActiveDisputeProposal",
      "outputs": [
        {
          "internalType": "bool",
          "name": "",
          "type": "bool"
        }
      ],
      "stateMutability": "view",
      "type": "function"
    },
    {
      "inputs": [
        {
          "internalType": "uint256",
          "name": "",
          "type": "uint256"
        }
      ],
      "name": "trades",
      "outputs": [
        {
          "internalType": "uint256",
          "name": "tradeId",
          "type": "uint256"
        },
        {
          "internalType": "bytes32",
          "name": "ricardianHash",
          "type": "bytes32"
        },
        {
          "internalType": "enum AgroasysEscrow.TradeStatus",
          "name": "status",
          "type": "uint8"
        },
        {
          "internalType": "address",
          "name": "buyerAddress",
          "type": "address"
        },
        {
          "internalType": "address",
          "name": "supplierAddress",
          "type": "address"
        },
        {
          "internalType": "uint256",
          "name": "totalAmountLocked",
          "type": "uint256"
        },
        {
          "internalType": "uint256",
          "name": "logisticsAmount",
          "type": "uint256"
        },
        {
          "internalType": "uint256",
          "name": "platformFeesAmount",
          "type": "uint256"
        },
        {
          "internalType": "uint256",
          "name": "supplierFirstTranche",
          "type": "uint256"
        },
        {
          "internalType": "uint256",
          "name": "supplierSecondTranche",
          "type": "uint256"
        },
        {
          "internalType": "uint256",
          "name": "createdAt",
          "type": "uint256"
        },
        {
          "internalType": "uint256",
          "name": "arrivalTimestamp",
          "type": "uint256"
        }
      ],
      "stateMutability": "view",
      "type": "function"
    },
    {
      "inputs": [],
      "name": "treasuryAddress",
      "outputs": [
        {
          "internalType": "address",
          "name": "",
          "type": "address"
        }
      ],
      "stateMutability": "view",
      "type": "function"
    },
    {
      "inputs": [],
      "name": "treasuryPayoutAddress",
      "outputs": [
        {
          "internalType": "address",
          "name": "",
          "type": "address"
        }
      ],
      "stateMutability": "view",
      "type": "function"
    },
    {
      "inputs": [],
      "name": "treasuryPayoutAddressUpdateCounter",
      "outputs": [
        {
          "internalType": "uint256",
          "name": "",
          "type": "uint256"
        }
      ],
      "stateMutability": "view",
      "type": "function"
    },
    {
      "inputs": [
        {
          "internalType": "uint256",
          "name": "",
          "type": "uint256"
        },
        {
          "internalType": "address",
          "name": "",
          "type": "address"
        }
      ],
      "name": "treasuryPayoutAddressUpdateHasApproved",
      "outputs": [
        {
          "internalType": "bool",
          "name": "",
          "type": "bool"
        }
      ],
      "stateMutability": "view",
      "type": "function"
    },
    {
      "inputs": [
        {
          "internalType": "uint256",
          "name": "",
          "type": "uint256"
        }
      ],
      "name": "treasuryPayoutAddressUpdateProposalCancelled",
      "outputs": [
        {
          "internalType": "bool",
          "name": "",
          "type": "bool"
        }
      ],
      "stateMutability": "view",
      "type": "function"
    },
    {
      "inputs": [
        {
          "internalType": "uint256",
          "name": "",
          "type": "uint256"
        }
      ],
      "name": "treasuryPayoutAddressUpdateProposalExpiresAt",
      "outputs": [
        {
          "internalType": "uint256",
          "name": "",
          "type": "uint256"
        }
      ],
      "stateMutability": "view",
      "type": "function"
    },
    {
      "inputs": [
        {
          "internalType": "uint256",
          "name": "",
          "type": "uint256"
        }
      ],
      "name": "treasuryPayoutAddressUpdateProposals",
      "outputs": [
        {
          "internalType": "address",
          "name": "newPayoutReceiver",
          "type": "address"
        },
        {
          "internalType": "uint256",
          "name": "approvalCount",
          "type": "uint256"
        },
        {
          "internalType": "bool",
          "name": "executed",
          "type": "bool"
        },
        {
          "internalType": "uint256",
          "name": "createdAt",
          "type": "uint256"
        },
        {
          "internalType": "uint256",
          "name": "eta",
          "type": "uint256"
        },
        {
          "internalType": "address",
          "name": "proposer",
          "type": "address"
        }
      ],
      "stateMutability": "view",
      "type": "function"
    },
    {
      "inputs": [],
      "name": "unpauseClaims",
      "outputs": [],
      "stateMutability": "nonpayable",
      "type": "function"
    },
    {
      "inputs": [
        {
          "internalType": "address",
          "name": "",
          "type": "address"
        }
      ],
      "name": "unpauseHasApproved",
      "outputs": [
        {
          "internalType": "bool",
          "name": "",
          "type": "bool"
        }
      ],
      "stateMutability": "view",
      "type": "function"
    },
    {
      "inputs": [],
      "name": "unpauseProposal",
      "outputs": [
        {
          "internalType": "uint256",
          "name": "approvalCount",
          "type": "uint256"
        },
        {
          "internalType": "bool",
          "name": "executed",
          "type": "bool"
        },
        {
          "internalType": "uint256",
          "name": "createdAt",
          "type": "uint256"
        },
        {
          "internalType": "address",
          "name": "proposer",
          "type": "address"
        }
      ],
      "stateMutability": "view",
      "type": "function"
    },
    {
      "inputs": [],
      "name": "usdcToken",
      "outputs": [
        {
          "internalType": "contract IERC20",
          "name": "",
          "type": "address"
        }
      ],
      "stateMutability": "view",
      "type": "function"
    }
  ],
  "bytecode": "0x60806040523461044e576160068038038061001981610469565b92833981019060a08183031261044e576100328161048e565b9061003f6020820161048e565b9061004c6040820161048e565b60608201519091906001600160401b03811161044e5781019480601f8701121561044e578551956001600160401b038711610453578660051b90602080610094818501610469565b809a8152019282010192831161044e57602001905b828210610436575050506080015160017f9b779b17422d0df92223018b32b4d1fa46e071723d6817e2486d003becc55f0055926001600160a01b0316918215610401576001600160a01b03169081156103cb576001600160a01b031691821561039357831561034e57600285511061030957838551106102d057601080546001600160a01b0319908116929092179055600d8054821692909217909155600e8054821683179055600f805490911690911790556013556000905b80518210156102a757600582901b810160200151600092906001600160a01b0316801561027657808452601260205260ff60408520541661023f576011546801000000000000000081101561022b576001810180601155811015610217577f31ecc21a745e3968a04e9570e4425bc18fa8019c68028196b546d1669c200c680180546001600160a01b03191682179055835260126020526040909220805460ff191660019081179091559190910190610163565b634e487b7160e01b85526032600452602485fd5b634e487b7160e01b85526041600452602485fd5b60405162461bcd60e51b815260206004820152600f60248201526e323ab83634b1b0ba329030b236b4b760891b6044820152606490fd5b60405162461bcd60e51b81526020600482015260096024820152683130b21030b236b4b760b91b6044820152606490fd5b62015180601c55600f805460ff60a81b1916600160a81b179055604051615b6390816104a38239f35b60405162461bcd60e51b81526020600482015260116024820152706e6f7420656e6f7567682061646d696e7360781b6044820152606490fd5b60405162461bcd60e51b815260206004820152601a60248201527f6174206c6561737420322061646d696e732072657175697265640000000000006044820152606490fd5b60405162461bcd60e51b815260206004820152601e60248201527f726571756972656420617070726f76616c73206d757374206265203e203000006044820152606490fd5b60405162461bcd60e51b815260206004820152601060248201526f696e76616c696420747265617375727960801b6044820152606490fd5b60405162461bcd60e51b815260206004820152600e60248201526d696e76616c6964206f7261636c6560901b6044820152606490fd5b60405162461bcd60e51b815260206004820152600d60248201526c34b73b30b634b2103a37b5b2b760991b6044820152606490fd5b602080916104438461048e565b8152019101906100a9565b600080fd5b634e487b7160e01b600052604160045260246000fd5b6040519190601f01601f191682016001600160401b0381118382101761045357604052565b51906001600160a01b038216820361044e5756fe608080604052600436101561001357600080fd5b600090813560e01c9081623bdc7414614069575080630d6043c614613ee65780630f3314e714613e3a57806311eac85514613e1157806314bfd6d014613dcd57806318c2740414613d495780631e6c598e14613c865780631fa7e781146124d757806320e32a5314613c5c57806324d7806c14613c1d5780632507cde11461394257806326ff5e1c146139075780632715048c1461383b57806327d00fb01461375f5780632a3ecca1146137165780632a4591ba146136d75780632b72349e1461358857806331c657751461356a5780633d8f6806146134c75780634a2ae305146134a15780634be935711461330b5780634e71d92d146131c65780634f84e8c81461319c57806355d2ac86146131635780635ab8621e146131345780635c04d8ca146131165780635c975abb146130f4578063620dc23a1461301d5780636247a37814612e5b5780636405a40514612e3d578063660d15b514610c925780636726b9db14612cbd57806368d69b6114611dca5780636de2a4f014612bb9578063710bb97914612b8f578063720417c514612b54578063749511b1146129cd5780637526b0ea14611dca57806376d622ce1461290357806376ebb7e0146128d957806377d8f09d1461279d5780637d36f4d31461277f5780637ecebe00146111f057806380eda0fd1461256157806381b2ce311461251057806381de274c146124d75780638354415d1461240f5780638456cb591461236757806386f23a35146123415780638a3ead53146123065780638d2304ee146122dc57806396f84c09146122ad57806399c1aadc1461228f5780639a1fdd79146122715780639b5e3061146121455780639c23b1be1461210a578063a0977604146120c1578063a10519d014611f27578063a11bcc6514611df2578063a143b00414611dcf578063a375d80714611dca578063a48448fe14611d4f578063a5f9dcf014611b8f578063a63187d114611b14578063a89ae4ba14611aeb578063a94c8f3d14611a70578063a9f4bd6514611a27578063ae7784d714611949578063b9bcaf2114611815578063c0e8f6a7146117f7578063c194bb4e146117dc578063c4c6ff6a146113f3578063c5f956af146113ca578063c5fa4a981461137e578063cc792e0d1461135b578063cd8ce3be14611229578063d371cf72146111f0578063d6d81fa314610f2a578063d80d0e5614610e4b578063daa0785614610d12578063dc88100e14610cce578063e57a7e3514610cb0578063ea4aa01614610c92578063ec9d151714610b04578063ede25b9d146109db578063ee5798ae146109ad578063f565776d14610692578063f585dc5714610674578063f5ecef571461064b578063fae8a3d6146104ef578063fcb0aa02146104c5578063fda769e714610496578063ff0c4ee5146104675763ff2eda091461042a57600080fd5b3461046457806003193601126104645760206040517f642bc978b352e60185507106148c2e8af9b88eeaeec91883eebdc673e6add83f8152f35b80fd5b50346104645760203660031901126104645760ff60406020926004358152600784522054166040519015158152f35b50346104645760203660031901126104645760ff60406020926004358152602a84522054166040519015158152f35b50346104645760203660031901126104645760406020916004358152601f83522054604051908152f35b5034610464578060031936011261046457338152601260205261051860ff604083205416614443565b61052560ff8254166148b2565b61053660ff600f5460a81c166149a7565b60ff601b541661063e575b6040516080810181811067ffffffffffffffff82111761062a5760405260018152816020820152426040820152606033910152600160165560ff196017541660175542601855336001600160601b0360a01b6019541617601955338152601a60205260408120600160ff19825416179055600160ff19601b541617601b55604051907f0c098089b7550dc564f1a038c8820df7c94ad41baa6be122a568c720c323ce3c339180a26105f0614c04565b6001825260208201527ff250c8cac0e5a06311da43d7d136f294ff38fe995468d5352d5b795bec30020a60403392a2602060405160018152f35b634e487b7160e01b83526041600452602483fd5b610646615647565b610541565b5034610464578060031936011261046457600f546040516001600160a01b039091168152602090f35b50346104645780600319360112610464576020604051620151808152f35b50346104645760403660031901126104645760043560243560028110156109a95733835260126020526106cb60ff604085205416614443565b6106d3614d65565b6106e060025483106146e5565b8183526001602052610707600360ff60026040872001541661070181614237565b146145c8565b818352600760205260ff6040842054166108c8575b600b549161072983614646565b600b5560405161073881614288565b81815260208101838152604082016001815260608301878152608084019142835260a0850193338552888a52600560205260408a209551865560018601905160028110156108b457916005959493916107b59360ff80198354169116179055516002870155511515600386019060ff801983541691151516179055565b51600484015560018060a01b0390511691019060018060a01b03166001600160601b0360a01b82541617905582845260066020526040842060018060a01b0333166000526020526040600020600160ff19825416179055808452600760205260408420600160ff19825416179055808452600860205282604085205562093a8042018042116108a0576040858560209752600987522055610859604051809361438c565b827f169133ad218243916e40f5d940b11e6662965ad0b9436428ec3ec92af6593fbb853394a4600160135414610892575b604051908152f35b61089b81614d9f565b61088a565b634e487b7160e01b85526011600452602485fd5b634e487b7160e01b8b52602160045260248bfd5b8183526008602052604083205480845260096020526040842054421180610992575b1561095457808452600a60205260408420600160ff1982541617905582845260076020526040842060ff19815416905582845260086020528360408120558233917f7d0d8277552faa3f645755b68537c6cdbbd2b3415f4fc4ec554d62d4824311d18680a461071c565b60405162461bcd60e51b81526020600482015260166024820152756163746976652070726f706f73616c2065786973747360501b6044820152606490fd5b50808452600a60205260ff604085205416156108ea565b8280fd5b50346104645760203660031901126104645760ff604060209260043581528380522054166040519015158152f35b5034610464576020366003190112610464576004353382526012602052610a0860ff604084205416614443565b610a15602154821061447c565b808252601d6020526040822090610a31600383015415156144bd565b60016002830191825490610a4860ff831615614509565b80865260208052610a6060ff60408820541615614548565b8552601f602052610a776040862054421115614589565b610a8d82850154610a86614c04565b1115614c16565b610a9d6004850154421015614c59565b60ff1916179055600d805482546001600160a01b031982166001600160a01b0391821617909255600f805460ff60a81b1916600160a81b1790559154811691167f078c3b417dadf69374a59793b829c52001247130433427049317bde56607b1b78380a380f35b5034610464576020366003190112610464576004353382526012602052610b3160ff604084205416614443565b610b3e602654821061447c565b80825260226020526040822090610b5a600383015415156144bd565b60028201805491610b6e60ff841615614509565b8085526025602052610b8760ff60408720541615614548565b84526024602052610b9e6040852054421115614589565b610bae6001840154610a86614c04565b610bbe6004840154421015614c59565b82546001600160a01b031691600190610bd88415156149e5565b8386526012602052610bf160ff60408820541615614a21565b60ff191617905560115468010000000000000000811015610c7e57806001610c1c9201601155614206565b815460039190911b92831b6001600160a01b039384901b19909116179055815481168352601260205260408320805460ff191660011790559054167f44d6d25963f097ad14f29f06854a01f575648a1ef82f30e562ccd3889717e3398280a280f35b634e487b7160e01b84526041600452602484fd5b50346104645780600319360112610464576020600254604051908152f35b50346104645780600319360112610464576020602154604051908152f35b5034610464578060031936011261046457608060165460ff6017541660185460018060a01b0360195416916040519384521515602084015260408301526060820152f35b5034610464576020366003190112610464576004353382526012602052610d3f60ff604084205416614443565b610d4c602654821061447c565b8082526022602052600160408320610d69600382015415156144bd565b610d7a60ff60028301541615614509565b8284526025602052610d9360ff60408620541615614548565b8284526024602052610dab6040852054421115614589565b828452602360205260408420828060a01b033316600052602052610dd760ff6040600020541615614607565b828452602360205260408420828060a01b03331660005260205260406000208260ff198254161790550190610e0c8254614646565b809255610e17614c04565b60405192835260208301527fb8cacf822d821b4e79cb750d1368c77e7e7ec2aee16f886327cd7c756f47c22360403393a380f35b5034610464576020366003190112610464576004353382526012602052610e7860ff604084205416614443565b610e85602b54821061447c565b8082526027602052610eb060ff600260408520610ea7600382015415156144bd565b01541615614509565b808252602a602052610ec960ff60408420541615614662565b8082526029602052610ee0604083205442116146a2565b808252602a60205260408220600160ff1982541617905560ff19602c5416602c5533907f3aa666fca861a2efe08793b4b6df7e2f3b72b5137df4acdf56dacd603242d65e8380a380f35b503461046457602036600319011261046457610f44614257565b3382526012602052610f5c60ff604084205416614443565b6001600160a01b031680156111ba57600d546001600160a01b0316811461118757610f92601154610f8b614c04565b1115614a5d565b60215490610f9f82614646565b602155600f5460a81c60ff161580156111755742905b60405160e0810181811067ffffffffffffffff8211176111615760058792879260405286815260208101600181526040820185815261105a606084019142835260808501938a8552604060a0870199338b5260c08801998c8b528152601d602052209560018060a01b039060018060a01b03905116166001600160601b0360a01b875416178655516001860155511515600285019060ff801983541691151516179055565b51600383015551600482015592519201805491516001600160a81b03199092166001600160a01b03939093169290921790151560a01b60ff60a01b16179055838552601e6020908152604080872033600090815292529020805460ff191660011790554262093a80810190811061114d576040868660209852601f8852205560405191825284820152827faff168a4e1fa91858b5fc1c223cee9cc0eaeaddb0b29c18df1630e08305bd80260403393a4611112614c04565b604051906001825283820152817ff39407f640014cb0220c4f7b0a6cc6acee38a440a8add233fa88e8c98b95b25c60403393a3604051908152f35b634e487b7160e01b86526011600452602486fd5b634e487b7160e01b87526041600452602487fd5b611181601c5442614655565b90610fb5565b60405162461bcd60e51b815260206004820152600b60248201526a73616d65206f7261636c6560a81b6044820152606490fd5b60405162461bcd60e51b815260206004820152600e60248201526d696e76616c6964206f7261636c6560901b6044820152606490fd5b5034610464576020366003190112610464576020906040906001600160a01b03611218614257565b168152600383522054604051908152f35b503461046457602036600319011261046457600435338252601260205261125660ff604084205416614443565b611263602b54821061447c565b8082526027602052604082209061127f600383015415156144bd565b6001600283019182549061129660ff831615614509565b808652602a6020526112af60ff60408820541615614548565b855260296020526112c66040862054421115614589565b6112d582850154610a86614c04565b6112e56004850154421015614c59565b6112f8828060a01b0385541615156143d5565b60ff1990811691909117909155602c80549091169055600f805482546001600160a01b031982166001600160a01b03918216179092559154811691167f4dc5527be93f8b21f9376931190711db811d1e6d980ca325ee2520d65069df748380a380f35b5034610464578060031936011261046457602060ff601b54166040519015158152f35b503461046457604036600319011261046457604061139a614272565b9160043581526023602052209060018060a01b0316600052602052602060ff604060002054166040519015158152f35b5034610464578060031936011261046457600e546040516001600160a01b039091168152602090f35b5034610464576102203660031901126104645761140e614257565b90611417614272565b916044359060643560843560a43560c4359160e435936101043595610124356101443567ffffffffffffffff81116117d8576114579036906004016142dc565b9060c0366101631901126117d8576114858888888f888f8b92611478614d65565b611480614c9c565b61502c565b6001600160a01b0383169889156117a45781421161176757898c52600460205260408c20548103611722576001810180821161170e57996115c36115ba8e9f958e9f849f98966115d79f8f918f988f938f9a8f958f9c8f96976115d29e6114fe8f9a9b6115b59c8c8252600460205260408220556158d3565b604051908882528960208301528b7f6ac709e2093c74d3ce56616ef76760c53ae0bf401457fb868a84e66636d3678360403394a46040519860208a019a7fab191139f84e7620737836d9002d499dbe8293085697773dfa2574e82decb7fc8c5260408b015260018060a01b031660608a0152608089015260a088015260c087015260e086015261010085015261012084015261014083015261016082015261016081526115ad610180826142ba565b51902061575c565b615825565b90929192615861565b6001600160a01b031614615318565b615171565b60105490926101a4359185906101c43560ff8116916001600160a01b0316908290036109a957803b156109a957610124839260405194859384926377aadf6360e11b84528a60048501523060248501528860448501526101643560648501526101843560848501528960a485015260c48401526101e43560e4840152610204356101048401525af18015611703577fa7c444d067108b7e8aee4afd13309e15a3e74a87a3d07d172c5c50945c37baaa602086959481997f642bc978b352e60185507106148c2e8af9b88eeaeec91883eebdc673e6add83f98958a956116f3575b5050604051908152a4604051838152600080516020615ace833981519152853392a46001600080516020615aee83398151915255604051908152f35b816116fd916142ba565b386116b7565b6040513d88823e3d90fd5b634e487b7160e01b8d52601160045260248dfd5b60405162461bcd60e51b815260206004820152601760248201527f62616420617574686f72697a6174696f6e206e6f6e63650000000000000000006044820152606490fd5b60405162461bcd60e51b8152602060048201526015602482015274185d5d1a1bdc9a5e985d1a5bdb88195e1c1a5c9959605a1b6044820152606490fd5b60405162461bcd60e51b815260206004820152600c60248201526b34b73b30b634b2103ab9b2b960a11b6044820152606490fd5b8a80fd5b5034610464578060031936011261046457602061088a614c04565b50346104645780600319360112610464576020604051621275008152f35b503461046457602036600319011261046457600435338252601260205261184260ff604084205416614443565b61184f602154821061447c565b808252601d60205260016040832061186c600382015415156144bd565b61187d60ff60028301541615614509565b8284526020805261189560ff60408620541615614548565b828452601f6020526118ad6040852054421115614589565b828452601e60205260408420828060a01b03331685526020526118d760ff60408620541615614607565b828452601e60205260408420828060a01b0333168552602052604084208260ff19825416179055019061190a8254614646565b809255611915614c04565b60405192835260208301527ff39407f640014cb0220c4f7b0a6cc6acee38a440a8add233fa88e8c98b95b25c60403393a380f35b50346104645760203660031901126104645760043561197360018060a01b03600d5416331461496d565b61198460ff600f5460a81c166149a7565b61198c614d65565b611994614c9c565b6119a160025482106146e5565b80825260016020527f86b04a9027748794b50d55160e5a9fe6b0375cd3221e0d4776f9e053f7ef6d046020600a6040852060028101600281546119f2600160ff83166119ec81614237565b14614b20565b60ff191617905501428155838552600c825284604081205554604051908152a26001600080516020615aee8339815191525580f35b50346104645760403660031901126104645760ff6040602092611a48614272565b6004358252602885528282206001600160a01b03909116825284522054604051911615158152f35b503461046457602036600319011261046457604060c091600435815260056020522080549060ff60018201541690600281015460ff60038301541690611ad3600484015493600560018060a01b039101541694604051968752602087019061438c565b604085015215156060840152608083015260a0820152f35b5034610464578060031936011261046457600d546040516001600160a01b039091168152602090f35b5034610464576020366003190112610464576004803582526027602090815260409283902080546001820154600283015460038401549584015460059094015487516001600160a01b0394851681529586019290925260ff1615159584019590955260608301939093526080820152911660a082015260c090f35b503461046457611b9e36614333565b9190611ba8614d65565b611bb0614c9c565b611bbd60025485106146e5565b83855260016020526040852092600284019260018060a01b03845460081c1692611bea81836003876156d5565b611c4093926115b56115c3936115ba93604051906020820192600080516020615aae8339815191528452886040840152600360608401528c608084015260a083015260c082015260c081526115ad60e0826142ba565b8054611c54600160ff83166119ec81614237565b838552600c6020526040852054611c6c811515614b6c565b62127500810180911161114d57937f1c642f6ec09eeef2a0619a2a298b98d5b38861f8a024837627f161d669c3c1068193600460209694611ccf7f57f680ee8ca7390570646e9ba27d0a0f0e281e2565cbb0928225841971066196994211614bb8565b60ff1916178155828852600c8652604088208890558054600894850180549095611d0492901c6001600160a01b03168561544b565b54925460405190815260089390931c6001600160a01b0316948593a3604051908152600080516020615ace83398151915260203392a46001600080516020615aee8339815191525580f35b5034610464576020366003190112610464576004803582526022602090815260409283902080546001820154600283015460038401549584015460059094015487516001600160a01b0394851681529586019290925260ff1615159584019590955260608301939093526080820152911660a082015260c090f35b61436e565b5034610464578060031936011261046457602060ff602c54166040519015158152f35b5034610464576020366003190112610464576004353382526012602052611e1f60ff604084205416614443565b611e2c602b54821061447c565b8082526027602052600160408320611e49600382015415156144bd565b611e5a60ff60028301541615614509565b828452602a602052611e7360ff60408620541615614548565b8284526029602052611e8b6040852054421115614589565b828452602860205260408420828060a01b0333168552602052611eb560ff60408620541615614607565b828452602860205260408420828060a01b0333168552602052604084208260ff198254161790550190611ee88254614646565b809255611ef3614c04565b60405192835260208301527f33f3d93b68d89de9a6b65493f004ff57d76aadd2fb47a98cbf886447309cdec760403393a380f35b503461046457611f3636614333565b93929190611f42614d65565b611f4a614c9c565b611f5760025484106146e5565b82845260016020526040842094600286019260018060a01b03845460081c1692611f8481836001876156d5565b611fda93926115b56115c3936115ba93604051906020820192600080516020615aae8339815191528452886040840152600160608401528b608084015260a083015260c082015260c081526115ad60e0826142ba565b600a815494611ff7600260ff8816611ff181614237565b1461475c565b01546120048115156147a8565b6201518081018091116120ad577f9d6f89df1fd95e20d56ed05e08fe9519ff6a2496090b77bfb70c8f64c21c238993946120426003924211156147e6565b60ff19161780915560405191807fb145240944e8bfe8998e31f11365578b766764ed1255b8e2efcb56e741b7be188680a2825260081c6001600160a01b0316903390600080516020615ace83398151915290602090a46001600080516020615aee8339815191525580f35b634e487b7160e01b84526011600452602484fd5b50346104645760403660031901126104645760ff60406020926120e2614272565b6004358252600685528282206001600160a01b03909116825284522054604051911615158152f35b503461046457806003193601126104645760206040517f57f680ee8ca7390570646e9ba27d0a0f0e281e2565cbb09282258419710661968152f35b503461046457602036600319011261046457600435612162614d65565b61216a614c9c565b61217760025482106146e5565b8082526001602052604082206002810180549192916121a4600882901c6001600160a01b03163314614723565b6121b6600160ff83166119ec81614237565b828552600c60205260408520546121ce811515614b6c565b62127500810180911161114d5791600460209261220d7f1c642f6ec09eeef2a0619a2a298b98d5b38861f8a024837627f161d669c3c106954211614bb8565b60ff1916178155838652600c825260408620869055805460089586018054909661224292901c6001600160a01b03168661544b565b54935460405190815260089490941c6001600160a01b031693a36001600080516020615aee8339815191525580f35b50346104645780600319360112610464576020601c54604051908152f35b50346104645780600319360112610464576020601354604051908152f35b50346104645760203660031901126104645760ff60406020926004358152600a84522054166040519015158152f35b50346104645760203660031901126104645760406020916004358152600983522054604051908152f35b503461046457806003193601126104645760206040517fa6115baa0e39b3877020da94fe30135520d27e0cb11c198edac119231d452a578152f35b5034610464578060031936011261046457602060ff600f5460a81c166040519015158152f35b5034610464578060031936011261046457338152601260205261239060ff604083205416614443565b805460ff81166123d9576001906123a5614d65565b60ff19161781557f62e78cea01bee320cd4e420270b5ea74000d11b0c9f74754ebdbfc544b05a2586020604051338152a180f35b60405162461bcd60e51b815260206004820152600e60248201526d185b1c9958591e481c185d5cd95960921b6044820152606490fd5b5034610464578060031936011261046457338152601260205261243860ff604083205416614443565b600f5461244a60ff8260a81c166149a7565b60ff60a81b1916600f55805460ff811615612495575b50600d546001600160a01b0316337f943e0551255d58897464f9809b2b06574fdc708ade497e30276ae48effc0a7948380a380f35b6001906124a0614d65565b60ff19161781557f62e78cea01bee320cd4e420270b5ea74000d11b0c9f74754ebdbfc544b05a2586020604051338152a138612460565b5034610464576020366003190112610464576020906040906001600160a01b036124ff614257565b168152600483522054604051908152f35b5034610464578060031936011261046457338152601260205261253960ff604083205416614443565b61254760ff601b54166148eb565b61255660ff6017541615614509565b61255e615647565b80f35b50346104645760203660031901126104645761257b614257565b338252601260205261259360ff604084205416614443565b6001600160a01b03166125a78115156143d5565b600f546001600160a01b0316811461273a576125c7601154610f8b614c04565b60ff602c54166126f557602b54906125de82614646565b602b5561262f6125f0601c5442614655565b604051906125fd82614288565b8382526001602083015285604083015242606083015260808201523360a0820152838552602760205260408520614a9f565b8183526028602090815260408085203386529091528320805460ff191660011790554262093a8081019081106120ad576040848460209652602986522055600160ff19602c541617602c55612686601c5442614655565b604051908152827f7d8684ed4e806e48e1379ec407e099c58ae93067f5a839e7cdf7299438e33316853393a46126ba614c04565b604051906001825283820152817f33f3d93b68d89de9a6b65493f004ff57d76aadd2fb47a98cbf886447309cdec760403393a3604051908152f35b60405162461bcd60e51b815260206004820152601860248201527f70726f706f73616c20616c72656164792070656e64696e6700000000000000006044820152606490fd5b60405162461bcd60e51b815260206004820152601d60248201527f73616d65207472656173757279207061796f75742072656365697665720000006044820152606490fd5b50346104645780600319360112610464576020600b54604051908152f35b50346104645760203660031901126104645760043533825260126020526127ca60ff604084205416614443565b6127d2614d65565b6127df600b54821061447c565b808252600560205260408220906127fb600483015415156144bd565b61280c60ff60038401541615614509565b808352600a60205261282560ff60408520541615614662565b808352600960205261283c604084205442116146a2565b808352600a60205260408320600160ff198254161790558154808452600760205260ff604085205416806128c4575b61289c575b50339154907f7d0d8277552faa3f645755b68537c6cdbbd2b3415f4fc4ec554d62d4824311d18480a480f35b835260076020526040832060ff19815416905581548352600860205282604081205538612870565b5080845260086020528160408520541461286b565b50346104645760203660031901126104645760406020916004358152600c83522054604051908152f35b503461046457602036600319011261046457600435338252601260205261293060ff604084205416614443565b61293d602154821061447c565b808252601d60205261295f60ff600260408520610ea7600382015415156144bd565b8082526020805261297760ff60408420541615614662565b808252601f60205261298e604083205442116146a2565b8082526020805260408220805460ff1916600117905533907fd2d878f87125c1948b966a8962e09576b78186471e1a7cc90c2bd2b6f05acc9f8380a380f35b5034610464576020366003190112610464576129e7614257565b33825260126020526129ff60ff604084205416614443565b6001600160a01b0316612a138115156149e5565b8082526012602052612a2c60ff60408420541615614a21565b612a3a601154610f8b614c04565b60265490612a4782614646565b602655612a98612a59601c5442614655565b60405190612a6682614288565b8382526001602083015285604083015242606083015260808201523360a0820152838552602260205260408520614a9f565b8183526023602090815260408085203386529091528320805460ff191660011790554262093a8081019081106120ad576040846004928560209752602487528282205584815260228652200154604051908152827f959284814070c6c3a0c8b0ce10f8406a2a5cfe5cc3a7d157ad2ba850026aee64853393a4612b19614c04565b604051906001825283820152817fb8cacf822d821b4e79cb750d1368c77e7e7ec2aee16f886327cd7c756f47c22360403393a3604051908152f35b503461046457806003193601126104645760206040517f9d6f89df1fd95e20d56ed05e08fe9519ff6a2496090b77bfb70c8f64c21c23898152f35b50346104645760203660031901126104645760406020916004358152602483522054604051908152f35b503461046457602036600319011261046457600435612bd6614d65565b612bde614c9c565b612beb60025482106146e5565b80825260016020526040822090600282018054612c10600260ff8316611ff181614237565b600a840154612c208115156147a8565b62015180810180911161114d5790612c3b600492421161492c565b60ff1916179055808352600c6020528260408120557f525d8c9a3bdfd74e1b0f3f79ccf0ef47d77d261e27396b35539f75e5d4086106602060038401612c92600860018060a01b038354169601958654908661552b565b5493546040519081526001600160a01b0390941693a36001600080516020615aee8339815191525580f35b503461046457602036600319011261046457600435612ce760018060a01b03600d5416331461496d565b612cf860ff600f5460a81c166149a7565b612d00614d65565b612d08614c9c565b612d1560025482106146e5565b808252600160205260408220906002820160018154612d4060ff8216612d3a81614237565b15614822565b60ff1916179055808352600c6020524260408420557f7fe4efc5647c551e3daa927b506b95903589ed6b18a37dbff54db80e7395239b6020600384019360018060a01b0385541694612d9960078301968754908761558d565b600e54600583018054909291612db991906001600160a01b0316886153d6565b612dd5600660018060a01b03600e541694019384549088615410565b549554600e54915460408051928352858301919091526001600160a01b03928316978893169187917faf26bf705c48ad6f6bf63104d1d8b9f94dac03ba9c3ae49b34cd094cc8c3f6f691a454604051908152a36001600080516020615aee8339815191525580f35b50346104645780600319360112610464576020601554604051908152f35b503461046457612e6a36614333565b93929190612e76614d65565b612e7e614c9c565b612e8b60025484106146e5565b82845260016020526040842094600286019260018060a01b03845460081c1692612eb881836004876156d5565b612f0e93926115b56115c3936115ba93604051906020820192600080516020615aae8339815191528452886040840152600460608401528b608084015260a083015260c082015260c081526115ad60e0826142ba565b805493612f23600260ff8716611ff181614237565b600a810154612f338115156147a8565b6201518081018091116108a0577fa6115baa0e39b3877020da94fe30135520d27e0cb11c198edac119231d452a579495612f70600492421161492c565b60ff1916178255828552600c602052846040812055827f525d8c9a3bdfd74e1b0f3f79ccf0ef47d77d261e27396b35539f75e5d4086106602060038401612fc8600860018060a01b038354169601958654908661552b565b5493546040519081526001600160a01b0390941693a35460405191825260081c6001600160a01b0316903390600080516020615ace83398151915290602090a46001600080516020615aee8339815191525580f35b50346104645760203660031901126104645760043561303a614d65565b613042614c9c565b61304f60025482106146e5565b80825260016020526040822060028101805491929161307c600882901c6001600160a01b03163314614723565b61308c60ff8216612d3a81614237565b600984015462093a80810180911161114d57916122426004806020946130d47fe54e6e873934788882b1744fc124e31c635896db16279bfdfd45fd2953619cff974211614866565b60ff19161780845596018054909660081c6001600160a01b031686615371565b503461046457806003193601126104645760ff60209154166040519015158152f35b50346104645780600319360112610464576020602654604051908152f35b50346104645760203660031901126104645760ff60406020926004358152602584522054166040519015158152f35b5034610464576020366003190112610464576020906040906001600160a01b0361318b614257565b168152601483522054604051908152f35b50346104645760203660031901126104645760406020916004358152602983522054604051908152f35b50346104645780600319360112610464576131e960ff600f5460a01c1615614399565b6131f1614c9c565b600e546001600160a01b031633146132c65733815260146020526040812054801561328d57338252601460205281604081205561323081601554614420565b60155560105461324c90829033906001600160a01b0316614cd8565b6040519081527fd8138f8a3f377c5259ca548e70e4c2de94f129f5a11036a15b69513cba2b426a60203392a26001600080516020615aee8339815191525580f35b60405162461bcd60e51b81526020600482015260116024820152706e6f7468696e6720636c61696d61626c6560781b6044820152606490fd5b60405162461bcd60e51b815260206004820152601f60248201527f7472656173757279206d7573742075736520636c61696d5472656173757279006044820152606490fd5b5034610464578060031936011261046457338152601260205261333460ff604083205416614443565b61334160ff8254166148b2565b61334f60ff601b54166148eb565b61335e60ff6017541615614509565b338152601a60205261337760ff60408320541615614607565b338152601a60205260408120600160ff19825416179055613399601654614646565b806016556133a5614c04565b6040519082825260208201527ff250c8cac0e5a06311da43d7d136f294ff38fe995468d5352d5b795bec30020a60403392a26133df614c04565b8110156133ea575080f35b6001906134096017549161340160ff841615614509565b610a86614c04565b60ff19161760175560ff19601b5416601b55805461342960ff82166148b2565b60ff191681557f5db9ee0a495bf2e6ff9c91a7834c1ba4fdd244a5e8aa4e537bd38aeae4b073aa6020604051338152a16134616154c1565b815b815181101561349c576001906001600160a01b036134818285615517565b51168452601a60205260408420805460ff1916905501613463565b505080f35b5034610464578060031936011261046457602060ff600f5460a01c166040519015158152f35b503461046457806003193601126104645733815260126020526134f060ff604083205416614443565b600f5460ff8160a01c16156135315760ff60a01b1916600f55337f58faeb75cd58dcc300b630223b434fdafecf55c21cd1aa07ce174a125ea52e8b8280a280f35b60405162461bcd60e51b815260206004820152601160248201527018db185a5b5cc81b9bdd081c185d5cd959607a1b6044820152606490fd5b50346104645780600319360112610464576020602b54604051908152f35b50346104645761359736614333565b91906135a1614d65565b6135a9614c9c565b6135b660025485106146e5565b83855260016020526040852092600284019260018060a01b03845460081c16926135e381836002876156d5565b61363993926115b56115c3936115ba93604051906020820192600080516020615aae8339815191528452886040840152600260608401528c608084015260a083015260c082015260c081526115ad60e0826142ba565b805461364b60ff8216612d3a81614237565b600983015462093a80810180911161114d57937fe54e6e873934788882b1744fc124e31c635896db16279bfdfd45fd2953619cff8193611d04600480602098966136b77f0e2cac5abaf6079f335df5966f41306619912fc862e3a81138fc8f0af5faca369b4211614866565b60ff19161780845595018054909560081c6001600160a01b031685615371565b50346104645760203660031901126104645760209060ff906040906001600160a01b03613702614257565b168152601a84522054166040519015158152f35b50346104645760403660031901126104645760ff6040602092613737614272565b6004358252601e85528282206001600160a01b03909116825284522054604051911615158152f35b50346104645760203660031901126104645760043561377c614d65565b613784614c9c565b61379160025482106146e5565b8082526001602052604082206002810180549091600a906137c0600884901c6001600160a01b03163314614723565b6137d2600260ff8516611ff181614237565b01546137df8115156147a8565b6201518081018091116108a057906137fb6003924211156147e6565b60ff19161790557fb145240944e8bfe8998e31f11365578b766764ed1255b8e2efcb56e741b7be188280a26001600080516020615aee8339815191525580f35b503461046457602036600319011261046457600435338252601260205261386860ff604084205416614443565b613875602654821061447c565b808252602260205261389760ff600260408520610ea7600382015415156144bd565b80825260256020526138b060ff60408420541615614662565b80825260246020526138c7604083205442116146a2565b808252602560205260408220805460ff1916600117905533907f6e5c3c82c1e75af7548eba9cd2cb4b639f5b6762fec00ca5e0d902fbad351ebc8380a380f35b503461046457806003193601126104645760206040517f0e2cac5abaf6079f335df5966f41306619912fc862e3a81138fc8f0af5faca368152f35b5034610464576101403660031901126104645761395d614257565b9060243560c43560a43560843560643560443560e435610104356101243567ffffffffffffffff8111613c1957906139ad888888888f968e6139a48b9236906004016142dc565b98611478614d65565b338a52600360205260408a20548303613be857804211613baf57613a96918b6115ba9260018060a01b03600e54169060405191602083019346855230604085015233606085015260018060a01b0316608084015260a08301528c60c08301528760e083015288610100830152896101208301528a6101408301528b610160830152866101808301526101a08201526101a08152613a4c6101c0826142ba565b51902060405160208101917f19457468657265756d205369676e6564204d6573736167653a0a3332000000008352603c820152603c8152613a8e605c826142ba565b519020615825565b336001600160a01b0390911603613b7a5760018101809111613b665795809798613acd97338b52600360205260408b205533615171565b6010546040516323b872dd60e01b855233600452306024526044939093526001600160a01b03169260208160648180885af16001825114811615613b47575b836040528160605215613b3357602083836001600080516020615aee833981519152558152f35b635274afe760e01b81526004849052602490fd5b6001811516613b5d57843b15153d151616613b0c565b833d83823e3d90fd5b634e487b7160e01b88526011600452602488fd5b60405162461bcd60e51b815260206004820152600d60248201526c626164207369676e617475726560981b6044820152606490fd5b60405162461bcd60e51b81526020600482015260116024820152701cda59db985d1d5c9948195e1c1a5c9959607a1b6044820152606490fd5b60405162461bcd60e51b8152602060048201526009602482015268626164206e6f6e636560b81b6044820152606490fd5b8980fd5b50346104645760203660031901126104645760209060ff906040906001600160a01b03613c48614257565b168152601284522054166040519015158152f35b50346104645760203660031901126104645760406020916004358152600883522054604051908152f35b5034610464576020366003190112610464576040610180916004358152600160205220805490600181015490600281015460ff81169060018060a01b036003840154166004840154600585015490600686015492600787015494600888015496600a60098a0154990154996040519b8c5260208c0152613d0581614237565b60408b015260081c6001600160a01b031660608a0152608089015260a088015260c087015260e0860152610100850152610120840152610140830152610160820152f35b503461046457602036600319011261046457604060e0916004358152601d6020522060ff60018060a01b03825416916001810154908260028201541660038201549060056004840154930154936040519687526020870152151560408601526060850152608084015260018060a01b03811660a084015260a01c16151560c0820152f35b50346104645760203660031901126104645760043590601154821015610464576020613df883614206565b905460405160039290921b1c6001600160a01b03168152f35b50346104645780600319360112610464576010546040516001600160a01b039091168152602090f35b50346104645780600319360112610464573381526012602052613e6360ff604083205416614443565b600f5460ff8160a01c16613ea95760ff60a01b1916600160a01b17600f55337fb62d15b068fb54a6f9b91bc09d642314c90fe5262a9f0c4b646803af896af7928280a280f35b60405162461bcd60e51b815260206004820152601560248201527418db185a5b5cc8185b1c9958591e481c185d5cd959605a1b6044820152606490fd5b5034610464576020366003190112610464576004353382526012602052613f1360ff604084205416614443565b613f1b614d65565b613f23614c9c565b613f30600b54821061447c565b8082526005602052600260408320613f4d600482015415156144bd565b613f5e60ff60038301541615614509565b828452600a602052613f7760ff60408620541615614548565b8284526009602052613f8f6040852054421115614589565b805484526001602052613fb0600360ff846040882001541661070181614237565b828452600660209081526040808620338752909152842054613fd59060ff1615614607565b8284526006602090815260408086203387529091528420805460ff1916600117905501805461400390614646565b80915560135490604051818152826020820152837f14e1b3091f09f49236e90d7a9826aa647e37c8b8600adc8a5935ee0c179e2de160403393a3101561405a575b506001600080516020615aee8339815191525580f35b61406390614d9f565b38614044565b905034614202578160031936011261420257600e546001600160a01b0316331480156141ec575b156141b157506140a860ff600f5460a01c1615614399565b6140b0614c9c565b600e546001600160a01b031680825260146020526040822054801561416c57600f546001600160a01b0316916140e78315156143d5565b8352601460205282604081205561410081601554614420565b60155560105461411c90829084906001600160a01b0316614cd8565b7fe67c643fa26ff85bbee9ac87fc706274fc81cf4ab3711712c8822eedba5a2306604060018060a01b03600e5416928151908152336020820152a36001600080516020615aee8339815191525580f35b60405162461bcd60e51b815260206004820152601a60248201527f6e6f7468696e6720747265617375727920636c61696d61626c650000000000006044820152606490fd5b62461bcd60e51b815260206004820152601660248201527537b7363c903a3932b0b9bab93c9037b91030b236b4b760511b6044820152606490fd5b50338252601260205260ff604083205416614090565b5080fd5b60115481101561422157601160005260206000200190600090565b634e487b7160e01b600052603260045260246000fd5b6005111561424157565b634e487b7160e01b600052602160045260246000fd5b600435906001600160a01b038216820361426d57565b600080fd5b602435906001600160a01b038216820361426d57565b60c0810190811067ffffffffffffffff8211176142a457604052565b634e487b7160e01b600052604160045260246000fd5b90601f8019910116810190811067ffffffffffffffff8211176142a457604052565b81601f8201121561426d5780359067ffffffffffffffff82116142a45760405192614311601f8401601f1916602001856142ba565b8284526020838301011161426d57816000926020809301838601378301015290565b90608060031983011261426d576004359160243591604435916064359067ffffffffffffffff821161426d5761436b916004016142dc565b90565b3461426d57600036600319011261426d57602060405162093a808152f35b9060028210156142415752565b156143a057565b60405162461bcd60e51b815260206004820152600d60248201526c18db185a5b5cc81c185d5cd959609a1b6044820152606490fd5b156143dc57565b606460405162461bcd60e51b815260206004820152602060248201527f696e76616c6964207472656173757279207061796f75742072656365697665726044820152fd5b9190820391821161442d57565b634e487b7160e01b600052601160045260246000fd5b1561444a57565b60405162461bcd60e51b815260206004820152600a60248201526937b7363c9030b236b4b760b11b6044820152606490fd5b1561448357565b60405162461bcd60e51b81526020600482015260126024820152711c1c9bdc1bdcd85b081b9bdd08199bdd5b9960721b6044820152606490fd5b156144c457565b60405162461bcd60e51b815260206004820152601860248201527f70726f706f73616c206e6f7420696e697469616c697a656400000000000000006044820152606490fd5b1561451057565b60405162461bcd60e51b815260206004820152601060248201526f185b1c9958591e48195e1958dd5d195960821b6044820152606490fd5b1561454f57565b60405162461bcd60e51b81526020600482015260126024820152711c1c9bdc1bdcd85b0818d85b98d95b1b195960721b6044820152606490fd5b1561459057565b60405162461bcd60e51b815260206004820152601060248201526f1c1c9bdc1bdcd85b08195e1c1a5c995960821b6044820152606490fd5b156145cf57565b60405162461bcd60e51b815260206004820152601060248201526f3a3930b232903737ba10333937bd32b760811b6044820152606490fd5b1561460e57565b60405162461bcd60e51b815260206004820152601060248201526f185b1c9958591e48185c1c1c9bdd995960821b6044820152606490fd5b600019811461442d5760010190565b9190820180921161442d57565b1561466957565b60405162461bcd60e51b8152602060048201526011602482015270185b1c9958591e4818d85b98d95b1b1959607a1b6044820152606490fd5b156146a957565b60405162461bcd60e51b81526020600482015260146024820152731c1c9bdc1bdcd85b081b9bdd08195e1c1a5c995960621b6044820152606490fd5b156146ec57565b60405162461bcd60e51b815260206004820152600f60248201526e1d1c985919481b9bdd08199bdd5b99608a1b6044820152606490fd5b1561472a57565b60405162461bcd60e51b815260206004820152600a60248201526937b7363c90313abcb2b960b11b6044820152606490fd5b1561476357565b60405162461bcd60e51b815260206004820152601960248201527f6d757374206265204152524956414c5f434f4e4649524d4544000000000000006044820152606490fd5b156147af57565b60405162461bcd60e51b815260206004820152600f60248201526e185c9c9a5d985b081b9bdd081cd95d608a1b6044820152606490fd5b156147ed57565b60405162461bcd60e51b815260206004820152600d60248201526c1dda5b991bddc818db1bdcd959609a1b6044820152606490fd5b1561482957565b60405162461bcd60e51b81526020600482015260156024820152741cdd185d1d5cc81b5d5cdd081899481313d0d2d151605a1b6044820152606490fd5b1561486d57565b60405162461bcd60e51b815260206004820152601860248201527f6c6f636b2074696d656f7574206e6f7420656c617073656400000000000000006044820152606490fd5b156148b957565b60405162461bcd60e51b815260206004820152600a6024820152691b9bdd081c185d5cd95960b21b6044820152606490fd5b156148f257565b60405162461bcd60e51b81526020600482015260126024820152711b9bc81858dd1a5d99481c1c9bdc1bdcd85b60721b6044820152606490fd5b1561493357565b60405162461bcd60e51b81526020600482015260126024820152711dda5b991bddc81b9bdd08195b185c1cd95960721b6044820152606490fd5b1561497457565b60405162461bcd60e51b815260206004820152600b60248201526a6f6e6c79206f7261636c6560a81b6044820152606490fd5b156149ae57565b60405162461bcd60e51b815260206004820152600f60248201526e1bdc9858db1948191a5cd8589b1959608a1b6044820152606490fd5b156149ec57565b60405162461bcd60e51b815260206004820152600d60248201526c34b73b30b634b21030b236b4b760991b6044820152606490fd5b15614a2857565b60405162461bcd60e51b815260206004820152600d60248201526c30b63932b0b23c9030b236b4b760991b6044820152606490fd5b15614a6457565b60405162461bcd60e51b8152602060048201526013602482015272696e73756666696369656e742061646d696e7360681b6044820152606490fd5b815181546001600160a01b039091166001600160a01b031990911617815560208201516001820155604082015160028201805460ff191691151560ff1691909117905590600590606081015160038401556080810151600484015560a00151910180546001600160a01b0319166001600160a01b0392909216919091179055565b15614b2757565b60405162461bcd60e51b815260206004820152601960248201527f737461747573206d75737420626520494e5f5452414e534954000000000000006044820152606490fd5b15614b7357565b60405162461bcd60e51b815260206004820152601c60248201527f696e2d7472616e7369742074696d657374616d70206e6f7420736574000000006044820152606490fd5b15614bbf57565b60405162461bcd60e51b815260206004820152601e60248201527f696e2d7472616e7369742074696d656f7574206e6f7420656c617073656400006044820152606490fd5b601354600281101561436b5750600290565b15614c1d57565b60405162461bcd60e51b81526020600482015260146024820152736e6f7420656e6f75676820617070726f76616c7360601b6044820152606490fd5b15614c6057565b60405162461bcd60e51b81526020600482015260146024820152731d1a5b595b1bd8dac81b9bdd08195b185c1cd95960621b6044820152606490fd5b6002600080516020615aee8339815191525414614cc7576002600080516020615aee83398151915255565b633ee5aeb560e01b60005260046000fd5b60405163a9059cbb60e01b60009081526001600160a01b03909316600452602493909352919060209060448180865af190600160005114821615614d43575b60405215614d225750565b635274afe760e01b60009081526001600160a01b0391909116600452602490fd5b906001811516614d5b57823b15153d15161690614d17565b503d6000823e3d90fd5b60ff60005416614d7157565b60405162461bcd60e51b81526020600482015260066024820152651c185d5cd95960d21b6044820152606490fd5b8060005260056020526040600020906003820191825492614dc360ff851615614509565b82600052600a602052614dde60ff6040600020541615614548565b826000526009602052614df8604060002054421115614589565b614e0a60028301546013541115614c16565b815460005260016020526040600020906002820194600360ff875416614e2f81614237565b03614ff05760019060ff1916179055600460ff1985541617845581546000526007602052604060002060ff19815416905581546000526008602052600060408120558154600052600c60205260006040812055600881015493600183019160ff83541660028110156142415780614f3c5750509160ff94846020937fafdf3220f58fe501f1c7cff54df532523ba92e302d4b17d7bb8c30b9e4e906b360407f367ef6da4bd64313a89876ecb2e42b4be35f68f378625be0d78dcd15eba27dd09760018060a01b03905460081c1695614f0986888354615486565b54998a935416958151958652614f218887018861438c565b6001600160a01b031694a4614f39604051809261438c565ba3565b90939150600103614fb25760ff94846020937fafdf3220f58fe501f1c7cff54df532523ba92e302d4b17d7bb8c30b9e4e906b360407f367ef6da4bd64313a89876ecb2e42b4be35f68f378625be0d78dcd15eba27dd097600360018060a01b039101541695614fad868883546155ea565b614f09565b60405162461bcd60e51b8152602060048201526016602482015275696e76616c696420646973707574652073746174757360501b6044820152606490fd5b60405162461bcd60e51b81526020600482015260146024820152733a3930b2329036bab9ba10313290232927ad22a760611b6044820152606490fd5b909394959291921561512c576001600160a01b0316156150f35761505884615058879361505d95614655565b614655565b036150b957151590816150af575b501561507357565b60405162461bcd60e51b815260206004820152601460248201527307472616e63686573206d757374206265203e20360641b6044820152606490fd5b905015153861506b565b60405162461bcd60e51b81526020600482015260126024820152710c4e4cac2d6c8deeedc40dad2e6dac2e8c6d60731b6044820152606490fd5b60405162461bcd60e51b81526020600482015260116024820152701cdd5c1c1b1a595c881c995c5d5a5c9959607a1b6044820152606490fd5b60405162461bcd60e51b815260206004820152601760248201527f72696361726469616e20686173682072657175697265640000000000000000006044820152606490fd5b9496919293969590956002549761518789614646565b6002556040519561018087019680881067ffffffffffffffff8911176142a4578a97604052878152876020820187815286604084019b60008d526060850190600160a01b60019003169c8d8252608086019e600160a01b60019003169e8f815260a087018d815260c088019189835260e08901938b85526101008a01958d87526101208b019788526101408b0198428a526101608c019a60008c52600052600160205260406000209b518c555160018c015560028b01915161524881614237565b61525181614237565b825491516001600160a81b031990921660ff9190911617600891821b610100600160a81b031617909155905160038a0180546001600160a01b0319166001600160a01b03929092169190911790559051600489015590516005880155905160068701559051600786015590519084015551600983015551600a909101556040805196875260208701919091528501526060840152608083015260a08201527f9896188f7299b6607b47eaa190d500bf89abbfa1bb2ce6d410f88b043e371b679060c090a490565b1561531f57565b60405162461bcd60e51b81526020600482015260116024820152703130b21030baba3437b934bd30ba34b7b760791b6044820152606490fd5b9081526040810192919060088210156142415760200152565b9082156153d1576004600080516020615b0e8339815191529160018060a01b03169384600052601460205260406000206153ac828254614655565b90556153ba81601554614655565b6015556153cc60405192839283615358565b0390a3565b505050565b9082156153d1576001600080516020615b0e83398151915291818060a01b03169384600052601460205260406000206153ac828254614655565b9082156153d1576002600080516020615b0e8339815191529160018060a01b03169384600052601460205260406000206153ac828254614655565b9082156153d1576005600080516020615b0e8339815191529160018060a01b03169384600052601460205260406000206153ac828254614655565b9082156153d1576006600080516020615b0e8339815191529160018060a01b03169384600052601460205260406000206153ac828254614655565b604051906011548083528260208101601160005260206000209260005b8181106154f55750506154f3925003836142ba565b565b84546001600160a01b03168352600194850194879450602090930192016154de565b80518210156142215760209160051b010190565b91909181156153d15760105461554d90839085906001600160a01b0316614cd8565b7feda30a0d8ec5ade5ca4d49054f410ef255c797498d31d9cc9dd928c12c87e79b604051806155886003339760018060a01b03169683615358565b0390a4565b91909181156153d1576010546155af90839085906001600160a01b0316614cd8565b7feda30a0d8ec5ade5ca4d49054f410ef255c797498d31d9cc9dd928c12c87e79b604051806155886000339760018060a01b03169683615358565b91909181156153d15760105461560c90839085906001600160a01b0316614cd8565b7feda30a0d8ec5ade5ca4d49054f410ef255c797498d31d9cc9dd928c12c87e79b604051806155886007339760018060a01b03169683615358565b61564f6154c1565b60005b815181101561568d576001906001600160a01b036156708285615517565b5116600052601a602052604060002060ff19815416905501615652565b505060ff19601b5416601b556000601655600060175560006018556000601955337fc79764e56dcfddc1a2135f80cf347dd741f7c7f914a134142b5d336e156d3bd0600080a2565b9192916001600160a01b03169081156117a45782421161176757816000526004602052604060002054840361172257600184019081851161442d57615728918360005260046020526040600020556158d3565b9160405193845260208401527f6ac709e2093c74d3ce56616ef76760c53ae0bf401457fb868a84e66636d3678360403394a4565b604090600e6020835161576f85826142ba565b828152016d4167726f61737973457363726f7760901b81522060016020845161579886826142ba565b82815201603160f81b81522083519060208201927f8b73c3c69bb8fe3d512ecc4cf759cc79239f7b179b0ffacaa9a75d522b39400f84528583015260608201524660808201523060a082015260a081526157f360c0826142ba565b519020915190602082019261190160f01b8452602283015260428201526042815261581f6062826142ba565b51902090565b81519190604183036158565761584f92506020820151906060604084015193015160001a90615a18565b9192909190565b505060009160029190565b9190916004811015614241578061587757509050565b6000600182036158925763f645eedf60e01b60005260046000fd5b50600281036158b0578263fce698f760e01b60005260045260246000fd5b90916003600092146158c0575050565b6335e2f38360e21b825260045260249150fd5b6158dc81614237565b80156159f3576158eb81614237565b600181146159ce576158fc81614237565b600281146159a95761590d81614237565b600381146159845760049061592181614237565b146159605760405162461bcd60e51b81526020600482015260126024820152713ab739bab83837b93a32b21030b1ba34b7b760711b6044820152606490fd5b7fa6115baa0e39b3877020da94fe30135520d27e0cb11c198edac119231d452a5790565b507f57f680ee8ca7390570646e9ba27d0a0f0e281e2565cbb092822584197106619690565b507f0e2cac5abaf6079f335df5966f41306619912fc862e3a81138fc8f0af5faca3690565b507f9d6f89df1fd95e20d56ed05e08fe9519ff6a2496090b77bfb70c8f64c21c238990565b507f642bc978b352e60185507106148c2e8af9b88eeaeec91883eebdc673e6add83f90565b91907f7fffffffffffffffffffffffffffffff5d576e7357a4501ddfe92f46681b20a08411615aa1579160209360809260ff60009560405194855216868401526040830152606082015282805260015afa15615a95576000516001600160a01b03811615615a895790600090600090565b50600090600190600090565b6040513d6000823e3d90fd5b5050506000916003919056fe1aeed6c1f2a5ee88498ce328b743baceb98beee0e74dc04aa13d1b44e5d341cfeff4a09a9216c5817ca15a500171a637ee0c8122db87aee65985697823e1beb29b779b17422d0df92223018b32b4d1fa46e071723d6817e2486d003becc55f00b6abcb523a11175bda4306d957cda75287b3d848b084a70d85fe099f51bc7f89a2646970667358221220b2ac7ba78d0f538a3bd1031c0fd66ed61f9107b14acf57ede8901f482e1206a064736f6c63430008220033",
  "linkReferences": {},
  "deployedLinkReferences": {}
}