{
  "_format": "hh-sol-artifact-1",
  "contractName": "AgroasysEscrow",
  "sourceName": "src/AgroasysEscrow.sol",
  "abi": [
    {
      "inputs": [
        {
          "internalType": "address",
          "name": "_usdcToken",
          "type": "address"
        },
        {
          "internalType": "address",
          "name": "_oracleAddress",
          "type": "address"
        },
        {
          "internalType": "address",
          "name": "_treasuryAddress",
          "type": "address"
        },
        {
          "internalType": "address[]",
          "name": "_admins",
          "type": "address[]"
        },
        {
          "internalType": "uint256",
          "name": "_requiredApprovals",
          "type": "uint256"
        }
      ],
      "stateMutability": "nonpayable",
      "type": "constructor"
    },
    {
      "inputs": [],
      "name": "ECDSAInvalidSignature",
      "type": "error"
    },
    {
      "inputs": [
        {
          "internalType": "uint256",
          "name": "length",
          "type": "uint256"
        }
      ],
      "name": "ECDSAInvalidSignatureLength",
      "type": "error"
    },
    {
      "inputs": [
        {
          "internalType": "bytes32",
          "name": "s",
          "type": "bytes32"
        }
      ],
      "name": "ECDSAInvalidSignatureS",
      "type": "error"
    },
    {
      "inputs": [],
      "name": "ReentrancyGuardReentrantCall",
      "type": "error"
    },
    {
      "inputs": [
        {
          "internalType": "address",
          "name": "token",
          "type": "address"
        }
      ],
      "name": "SafeERC20FailedOperation",
      "type": "error"
    },
    {
      "anonymous": false,
      "inputs": [
        {
          "indexed": true,
          "internalType": "uint256",
          "name": "proposalId",
          "type": "uint256"
        },
        {
          "indexed": true,
          "internalType": "address",
          "name": "approver",
          "type": "address"
        },
        {
          "indexed": false,
          "internalType": "uint256",
          "name": "approvalCount",
          "type": "uint256"
        },
        {
          "indexed": false,
          "internalType": "uint256",
          "name": "requiredApprovals",
          "type": "uint256"
        }
      ],
      "name": "AdminAddApproved",
      "type": "event"
    },
    {
      "anonymous": false,
      "inputs": [
        {
          "indexed": true,
          "internalType": "uint256",
          "name": "proposalId",
          "type": "uint256"
        },
        {
          "indexed": true,
          "internalType": "address",
          "name": "cancelledBy",
          "type": "address"
        }
      ],
      "name": "AdminAddProposalExpiredCancelled",
      "type": "event"
    },
    {
      "anonymous": false,
      "inputs": [
        {
          "indexed": true,
          "internalType": "uint256",
          "name": "proposalId",
          "type": "uint256"
        },
        {
          "indexed": true,
          "internalType": "address",
          "name": "proposer",
          "type": "address"
        },
        {
          "indexed": true,
          "internalType": "address",
          "name": "newAdmin",
          "type": "address"
        },
        {
          "indexed": false,
          "internalType": "uint256",
          "name": "eta",
          "type": "uint256"
        }
      ],
      "name": "AdminAddProposed",
      "type": "event"
    },
    {
      "anonymous": false,
      "inputs": [
        {
          "indexed": true,
          "internalType": "address",
          "name": "newAdmin",
          "type": "address"
        }
      ],
      "name": "AdminAdded",
      "type": "event"
    },
    {
      "anonymous": false,
      "inputs": [
        {
          "indexed": true,
          "internalType": "uint256",
          "name": "tradeId",
          "type": "uint256"
        },
        {
          "indexed": false,
          "internalType": "uint256",
          "name": "arrivalTimestamp",
          "type": "uint256"
        }
      ],
      "name": "ArrivalConfirmed",
      "type": "event"
    },
    {
      "anonymous": false,
      "inputs": [
        {
          "indexed": true,
          "internalType": "uint256",
          "name": "proposalId",
          "type": "uint256"
        },
        {
          "indexed": true,
          "internalType": "address",
          "name": "approver",
          "type": "address"
        },
        {
          "indexed": false,
          "internalType": "uint256",
          "name": "approvalCount",
          "type": "uint256"
        },
        {
          "indexed": false,
          "internalType": "uint256",
          "name": "requiredApprovals",
          "type": "uint256"
        }
      ],
      "name": "DisputeApproved",
      "type": "event"
    },
    {
      "anonymous": false,
      "inputs": [
        {
          "indexed": true,
          "internalType": "uint256",
          "name": "proposalId",
          "type": "uint256"
        },
        {
          "indexed": true,
          "internalType": "uint256",
          "name": "tradeId",
          "type": "uint256"
        },
        {
          "indexed": false,
          "internalType": "enum AgroasysEscrow.DisputeStatus",
          "name": "disputeStatus",
          "type": "uint8"
        }
      ],
      "name": "DisputeFinalized",
      "type": "event"
    },
    {
      "anonymous": false,
      "inputs": [
        {
          "indexed": true,
          "internalType": "uint256",
          "name": "tradeId",
          "type": "uint256"
        }
      ],
      "name": "DisputeOpenedByBuyer",
      "type": "event"
    },
    {
      "anonymous": false,
      "inputs": [
        {
          "indexed": true,
          "internalType": "uint256",
          "name": "tradeId",
          "type": "uint256"
        },
        {
          "indexed": true,
          "internalType": "uint256",
          "name": "proposalId",
          "type": "uint256"
        },
        {
          "indexed": true,
          "internalType": "address",
          "name": "recipient",
          "type": "address"
        },
        {
          "indexed": false,
          "internalType": "uint256",
          "name": "amount",
          "type": "uint256"
        },
        {
          "indexed": false,
          "internalType": "enum AgroasysEscrow.DisputeStatus",
          "name": "payoutType",
          "type": "uint8"
        }
      ],
      "name": "DisputePayout",
      "type": "event"
    },
    {
      "anonymous": false,
      "inputs": [
        {
          "indexed": true,
          "internalType": "uint256",
          "name": "proposalId",
          "type": "uint256"
        },
        {
          "indexed": true,
          "internalType": "uint256",
          "name": "tradeId",
          "type": "uint256"
        },
        {
          "indexed": true,
          "internalType": "address",
          "name": "cancelledBy",
          "type": "address"
        }
      ],
      "name": "DisputeProposalExpiredCancelled",
      "type": "event"
    },
    {
      "anonymous": false,
      "inputs": [
        {
          "indexed": true,
          "internalType": "uint256",
          "name": "proposalId",
          "type": "uint256"
        },
        {
          "indexed": true,
          "internalType": "uint256",
          "name": "tradeId",
          "type": "uint256"
        },
        {
          "indexed": false,
          "internalType": "enum AgroasysEscrow.DisputeStatus",
          "name": "disputeStatus",
          "type": "uint8"
        },
        {
          "indexed": true,
          "internalType": "address",
          "name": "proposer",
          "type": "address"
        }
      ],
      "name": "DisputeSolutionProposed",
      "type": "event"
    },
    {
      "anonymous": false,
      "inputs": [
        {
          "indexed": true,
          "internalType": "uint256",
          "name": "tradeId",
          "type": "uint256"
        },
        {
          "indexed": true,
          "internalType": "address",
          "name": "supplier",
          "type": "address"
        },
        {
          "indexed": false,
          "internalType": "uint256",
          "name": "supplierSecondTranche",
          "type": "uint256"
        }
      ],
      "name": "FinalTrancheReleased",
      "type": "event"
    },
    {
      "anonymous": false,
      "inputs": [
        {
          "indexed": true,
          "internalType": "uint256",
          "name": "tradeId",
          "type": "uint256"
        },
        {
          "indexed": true,
          "internalType": "address",
          "name": "supplier",
          "type": "address"
        },
        {
          "indexed": false,
          "internalType": "uint256",
          "name": "supplierFirstTranche",
          "type": "uint256"
        },
        {
          "indexed": true,
          "internalType": "address",
          "name": "treasury",
          "type": "address"
        },
        {
          "indexed": false,
          "internalType": "uint256",
          "name": "logisticsAmount",
          "type": "uint256"
        }
      ],
      "name": "FundsReleasedStage1",
      "type": "event"
    },
    {
      "anonymous": false,
      "inputs": [
        {
          "indexed": true,
          "internalType": "uint256",
          "name": "tradeId",
          "type": "uint256"
        },
        {
          "indexed": true,
          "internalType": "address",
          "name": "supplier",
          "type": "address"
        },
        {
          "indexed": false,
          "internalType": "uint256",
          "name": "supplierSecondTranche",
          "type": "uint256"
        },
        {
          "indexed": true,
          "internalType": "address",
          "name": "treasury",
          "type": "address"
        },
        {
          "indexed": false,
          "internalType": "uint256",
          "name": "platformFeesAmount",
          "type": "uint256"
        }
      ],
      "name": "FundsReleasedStage2",
      "type": "event"
    },
    {
      "anonymous": false,
      "inputs": [
        {
          "indexed": true,
          "internalType": "uint256",
          "name": "tradeId",
          "type": "uint256"
        },
        {
          "indexed": true,
          "internalType": "address",
          "name": "buyer",
          "type": "address"
        },
        {
          "indexed": false,
          "internalType": "uint256",
          "name": "refundedAmount",
          "type": "uint256"
        }
      ],
      "name": "InTransitTimeoutRefunded",
      "type": "event"
    },
    {
      "anonymous": false,
      "inputs": [
        {
          "indexed": true,
          "internalType": "address",
          "name": "by",
          "type": "address"
        },
        {
          "indexed": true,
          "internalType": "address",
          "name": "previousOracle",
          "type": "address"
        }
      ],
      "name": "OracleDisabledEmergency",
      "type": "event"
    },
    {
      "anonymous": false,
      "inputs": [
        {
          "indexed": true,
          "internalType": "uint256",
          "name": "proposalId",
          "type": "uint256"
        },
        {
          "indexed": true,
          "internalType": "address",
          "name": "approver",
          "type": "address"
        },
        {
          "indexed": false,
          "internalType": "uint256",
          "name": "approvalCount",
          "type": "uint256"
        },
        {
          "indexed": false,
          "internalType": "uint256",
          "name": "requiredApprovals",
          "type": "uint256"
        }
      ],
      "name": "OracleUpdateApproved",
      "type": "event"
    },
    {
      "anonymous": false,
      "inputs": [
        {
          "indexed": true,
          "internalType": "uint256",
          "name": "proposalId",
          "type": "uint256"
        },
        {
          "indexed": true,
          "internalType": "address",
          "name": "cancelledBy",
          "type": "address"
        }
      ],
      "name": "OracleUpdateProposalExpiredCancelled",
      "type": "event"
    },
    {
      "anonymous": false,
      "inputs": [
        {
          "indexed": true,
          "internalType": "uint256",
          "name": "proposalId",
          "type": "uint256"
        },
        {
          "indexed": true,
          "internalType": "address",
          "name": "proposer",
          "type": "address"
        },
        {
          "indexed": true,
          "internalType": "address",
          "name": "newOracle",
          "type": "address"
        },
        {
          "indexed": false,
          "internalType": "uint256",
          "name": "eta",
          "type": "uint256"
        },
        {
          "indexed": false,
          "internalType": "bool",
          "name": "emergencyFastTrack",
          "type": "bool"
        }
      ],
      "name": "OracleUpdateProposed",
      "type": "event"
    },
    {
      "anonymous": false,
      "inputs": [
        {
          "indexed": true,
          "internalType": "address",
          "name": "oldOracle",
          "type": "address"
        },
        {
          "indexed": true,
          "internalType": "address",
          "name": "newOracle",
          "type": "address"
        }
      ],
      "name": "OracleUpdated",
      "type": "event"
    },
    {
      "anonymous": false,
      "inputs": [
        {
          "indexed": false,
          "internalType": "address",
          "name": "account",
          "type": "address"
        }
      ],
      "name": "Paused",
      "type": "event"
    },
    {
      "anonymous": false,
      "inputs": [
        {
          "indexed": true,
          "internalType": "uint256",
          "name": "tradeId",
          "type": "uint256"
        },
        {
          "indexed": true,
          "internalType": "address",
          "name": "treasury",
          "type": "address"
        },
        {
          "indexed": false,
          "internalType": "uint256",
          "name": "platformFeesAmount",
          "type": "uint256"
        }
      ],
      "name": "PlatformFeesPaidStage1",
      "type": "event"
    },
    {
      "anonymous": false,
      "inputs": [
        {
          "indexed": true,
          "internalType": "uint256",
          "name": "tradeId",
          "type": "uint256"
        },
        {
          "indexed": true,
          "internalType": "address",
          "name": "buyer",
          "type": "address"
        },
        {
          "indexed": false,
          "internalType": "uint256",
          "name": "refundedAmount",
          "type": "uint256"
        }
      ],
      "name": "TradeCancelledAfterLockTimeout",
      "type": "event"
    },
    {
      "anonymous": false,
      "inputs": [
        {
          "indexed": true,
          "internalType": "uint256",
          "name": "tradeId",
          "type": "uint256"
        },
        {
          "indexed": true,
          "internalType": "address",
          "name": "buyer",
          "type": "address"
        },
        {
          "indexed": true,
          "internalType": "address",
          "name": "supplier",
          "type": "address"
        },
        {
          "indexed": false,
          "internalType": "uint256",
          "name": "totalAmount",
          "type": "uint256"
        },
        {
          "indexed": false,
          "internalType": "uint256",
          "name": "logisticsAmount",
          "type": "uint256"
        },
        {
          "indexed": false,
          "internalType": "uint256",
          "name": "platformFeesAmount",
          "type": "uint256"
        },
        {
          "indexed": false,
          "internalType": "uint256",
          "name": "supplierFirstTranche",
          "type": "uint256"
        },
        {
          "indexed": false,
          "internalType": "uint256",
          "name": "supplierSecondTranche",
          "type": "uint256"
        },
        {
          "indexed": false,
          "internalType": "bytes32",
          "name": "ricardianHash",
          "type": "bytes32"
        }
      ],
      "name": "TradeLocked",
      "type": "event"
    },
    {
      "anonymous": false,
      "inputs": [
        {
          "indexed": true,
          "internalType": "address",
          "name": "approver",
          "type": "address"
        },
        {
          "indexed": false,
          "internalType": "uint256",
          "name": "approvalCount",
          "type": "uint256"
        },
        {
          "indexed": false,
          "internalType": "uint256",
          "name": "requiredApprovals",
          "type": "uint256"
        }
      ],
      "name": "UnpauseApproved",
      "type": "event"
    },
    {
      "anonymous": false,
      "inputs": [
        {
          "indexed": true,
          "internalType": "address",
          "name": "cancelledBy",
          "type": "address"
        }
      ],
      "name": "UnpauseProposalCancelled",
      "type": "event"
    },
    {
      "anonymous": false,
      "inputs": [
        {
          "indexed": true,
          "internalType": "address",
          "name": "proposer",
          "type": "address"
        }
      ],
      "name": "UnpauseProposed",
      "type": "event"
    },
    {
      "anonymous": false,
      "inputs": [
        {
          "indexed": false,
          "internalType": "address",
          "name": "account",
          "type": "address"
        }
      ],
      "name": "Unpaused",
      "type": "event"
    },
    {
      "inputs": [],
      "name": "DISPUTE_PROPOSAL_TTL",
      "outputs": [
        {
          "internalType": "uint256",
          "name": "",
          "type": "uint256"
        }
      ],
      "stateMutability": "view",
      "type": "function"
    },
    {
      "inputs": [],
      "name": "DISPUTE_WINDOW",
      "outputs": [
        {
          "internalType": "uint256",
          "name": "",
          "type": "uint256"
        }
      ],
      "stateMutability": "view",
      "type": "function"
    },
    {
      "inputs": [],
      "name": "GOVERNANCE_PROPOSAL_TTL",
      "outputs": [
        {
          "internalType": "uint256",
          "name": "",
          "type": "uint256"
        }
      ],
      "stateMutability": "view",
      "type": "function"
    },
    {
      "inputs": [],
      "name": "IN_TRANSIT_TIMEOUT",
      "outputs": [
        {
          "internalType": "uint256",
          "name": "",
          "type": "uint256"
        }
      ],
      "stateMutability": "view",
      "type": "function"
    },
    {
      "inputs": [],
      "name": "LOCK_TIMEOUT",
      "outputs": [
        {
          "internalType": "uint256",
          "name": "",
          "type": "uint256"
        }
      ],
      "stateMutability": "view",
      "type": "function"
    },
    {
      "inputs": [],
      "name": "adminAddCounter",
      "outputs": [
        {
          "internalType": "uint256",
          "name": "",
          "type": "uint256"
        }
      ],
      "stateMutability": "view",
      "type": "function"
    },
    {
      "inputs": [
        {
          "internalType": "uint256",
          "name": "",
          "type": "uint256"
        },
        {
          "internalType": "address",
          "name": "",
          "type": "address"
        }
      ],
      "name": "adminAddHasApproved",
      "outputs": [
        {
          "internalType": "bool",
          "name": "",
          "type": "bool"
        }
      ],
      "stateMutability": "view",
      "type": "function"
    },
    {
      "inputs": [
        {
          "internalType": "uint256",
          "name": "",
          "type": "uint256"
        }
      ],
      "name": "adminAddProposalCancelled",
      "outputs": [
        {
          "internalType": "bool",
          "name": "",
          "type": "bool"
        }
      ],
      "stateMutability": "view",
      "type": "function"
    },
    {
      "inputs": [
        {
          "internalType": "uint256",
          "name": "",
          "type": "uint256"
        }
      ],
      "name": "adminAddProposalExpiresAt",
      "outputs": [
        {
          "internalType": "uint256",
          "name": "",
          "type": "uint256"
        }
      ],
      "stateMutability": "view",
      "type": "function"
    },
    {
      "inputs": [
        {
          "internalType": "uint256",
          "name": "",
          "type": "uint256"
        }
      ],
      "name": "adminAddProposals",
      "outputs": [
        {
          "internalType": "address",
          "name": "newAdmin",
          "type": "address"
        },
        {
          "internalType": "uint256",
          "name": "approvalCount",
          "type": "uint256"
        },
        {
          "internalType": "bool",
          "name": "executed",
          "type": "bool"
        },
        {
          "internalType": "uint256",
          "name": "createdAt",
          "type": "uint256"
        },
        {
          "internalType": "uint256",
          "name": "eta",
          "type": "uint256"
        },
        {
          "internalType": "address",
          "name": "proposer",
          "type": "address"
        }
      ],
      "stateMutability": "view",
      "type": "function"
    },
    {
      "inputs": [
        {
          "internalType": "uint256",
          "name": "",
          "type": "uint256"
        }
      ],
      "name": "admins",
      "outputs": [
        {
          "internalType": "address",
          "name": "",
          "type": "address"
        }
      ],
      "stateMutability": "view",
      "type": "function"
    },
    {
      "inputs": [
        {
          "internalType": "uint256",
          "name": "_proposalId",
          "type": "uint256"
        }
      ],
      "name": "approveAddAdmin",
      "outputs": [],
      "stateMutability": "nonpayable",
      "type": "function"
    },
    {
      "inputs": [
        {
          "internalType": "uint256",
          "name": "_proposalId",
          "type": "uint256"
        }
      ],
      "name": "approveDisputeSolution",
      "outputs": [],
      "stateMutability": "nonpayable",
      "type": "function"
    },
    {
      "inputs": [
        {
          "internalType": "uint256",
          "name": "_proposalId",
          "type": "uint256"
        }
      ],
      "name": "approveOracleUpdate",
      "outputs": [],
      "stateMutability": "nonpayable",
      "type": "function"
    },
    {
      "inputs": [],
      "name": "approveUnpause",
      "outputs": [],
      "stateMutability": "nonpayable",
      "type": "function"
    },
    {
      "inputs": [
        {
          "internalType": "uint256",
          "name": "_proposalId",
          "type": "uint256"
        }
      ],
      "name": "cancelExpiredAddAdminProposal",
      "outputs": [],
      "stateMutability": "nonpayable",
      "type": "function"
    },
    {
      "inputs": [
        {
          "internalType": "uint256",
          "name": "_proposalId",
          "type": "uint256"
        }
      ],
      "name": "cancelExpiredDisputeProposal",
      "outputs": [],
      "stateMutability": "nonpayable",
      "type": "function"
    },
    {
      "inputs": [
        {
          "internalType": "uint256",
          "name": "_proposalId",
          "type": "uint256"
        }
      ],
      "name": "cancelExpiredOracleUpdateProposal",
      "outputs": [],
      "stateMutability": "nonpayable",
      "type": "function"
    },
    {
      "inputs": [
        {
          "internalType": "uint256",
          "name": "_tradeId",
          "type": "uint256"
        }
      ],
      "name": "cancelLockedTradeAfterTimeout",
      "outputs": [],
      "stateMutability": "nonpayable",
      "type": "function"
    },
    {
      "inputs": [],
      "name": "cancelUnpauseProposal",
      "outputs": [],
      "stateMutability": "nonpayable",
      "type": "function"
    },
    {
      "inputs": [
        {
          "internalType": "uint256",
          "name": "_tradeId",
          "type": "uint256"
        }
      ],
      "name": "confirmArrival",
      "outputs": [],
      "stateMutability": "nonpayable",
      "type": "function"
    },
    {
      "inputs": [
        {
          "internalType": "address",
          "name": "_supplier",
          "type": "address"
        },
        {
          "internalType": "uint256",
          "name": "_totalAmount",
          "type": "uint256"
        },
        {
          "internalType": "uint256",
          "name": "_logisticsAmount",
          "type": "uint256"
        },
        {
          "internalType": "uint256",
          "name": "_platformFeesAmount",
          "type": "uint256"
        },
        {
          "internalType": "uint256",
          "name": "_supplierFirstTranche",
          "type": "uint256"
        },
        {
          "internalType": "uint256",
          "name": "_supplierSecondTranche",
          "type": "uint256"
        },
        {
          "internalType": "bytes32",
          "name": "_ricardianHash",
          "type": "bytes32"
        },
        {
          "internalType": "uint256",
          "name": "_buyerNonce",
          "type": "uint256"
        },
        {
          "internalType": "uint256",
          "name": "_deadline",
          "type": "uint256"
        },
        {
          "internalType": "bytes",
          "name": "_signature",
          "type": "bytes"
        }
      ],
      "name": "createTrade",
      "outputs": [
        {
          "internalType": "uint256",
          "name": "",
          "type": "uint256"
        }
      ],
      "stateMutability": "nonpayable",
      "type": "function"
    },
    {
      "inputs": [],
      "name": "disableOracleEmergency",
      "outputs": [],
      "stateMutability": "nonpayable",
      "type": "function"
    },
    {
      "inputs": [],
      "name": "disputeCounter",
      "outputs": [
        {
          "internalType": "uint256",
          "name": "",
          "type": "uint256"
        }
      ],
      "stateMutability": "view",
      "type": "function"
    },
    {
      "inputs": [
        {
          "internalType": "uint256",
          "name": "",
          "type": "uint256"
        },
        {
          "internalType": "address",
          "name": "",
          "type": "address"
        }
      ],
      "name": "disputeHasApproved",
      "outputs": [
        {
          "internalType": "bool",
          "name": "",
          "type": "bool"
        }
      ],
      "stateMutability": "view",
      "type": "function"
    },
    {
      "inputs": [
        {
          "internalType": "uint256",
          "name": "",
          "type": "uint256"
        }
      ],
      "name": "disputeProposalCancelled",
      "outputs": [
        {
          "internalType": "bool",
          "name": "",
          "type": "bool"
        }
      ],
      "stateMutability": "view",
      "type": "function"
    },
    {
      "inputs": [
        {
          "internalType": "uint256",
          "name": "",
          "type": "uint256"
        }
      ],
      "name": "disputeProposalExpiresAt",
      "outputs": [
        {
          "internalType": "uint256",
          "name": "",
          "type": "uint256"
        }
      ],
      "stateMutability": "view",
      "type": "function"
    },
    {
      "inputs": [
        {
          "internalType": "uint256",
          "name": "",
          "type": "uint256"
        }
      ],
      "name": "disputeProposals",
      "outputs": [
        {
          "internalType": "uint256",
          "name": "tradeId",
          "type": "uint256"
        },
        {
          "internalType": "enum AgroasysEscrow.DisputeStatus",
          "name": "disputeStatus",
          "type": "uint8"
        },
        {
          "internalType": "uint256",
          "name": "approvalCount",
          "type": "uint256"
        },
        {
          "internalType": "bool",
          "name": "executed",
          "type": "bool"
        },
        {
          "internalType": "uint256",
          "name": "createdAt",
          "type": "uint256"
        },
        {
          "internalType": "address",
          "name": "proposer",
          "type": "address"
        }
      ],
      "stateMutability": "view",
      "type": "function"
    },
    {
      "inputs": [
        {
          "internalType": "uint256",
          "name": "_proposalId",
          "type": "uint256"
        }
      ],
      "name": "executeAddAdmin",
      "outputs": [],
      "stateMutability": "nonpayable",
      "type": "function"
    },
    {
      "inputs": [
        {
          "internalType": "uint256",
          "name": "_proposalId",
          "type": "uint256"
        }
      ],
      "name": "executeOracleUpdate",
      "outputs": [],
      "stateMutability": "nonpayable",
      "type": "function"
    },
    {
      "inputs": [
        {
          "internalType": "uint256",
          "name": "_tradeId",
          "type": "uint256"
        }
      ],
      "name": "finalizeAfterDisputeWindow",
      "outputs": [],
      "stateMutability": "nonpayable",
      "type": "function"
    },
    {
      "inputs": [
        {
          "internalType": "address",
          "name": "buyer",
          "type": "address"
        }
      ],
      "name": "getBuyerNonce",
      "outputs": [
        {
          "internalType": "uint256",
          "name": "",
          "type": "uint256"
        }
      ],
      "stateMutability": "view",
      "type": "function"
    },
    {
      "inputs": [],
      "name": "getNextTradeId",
      "outputs": [
        {
          "internalType": "uint256",
          "name": "",
          "type": "uint256"
        }
      ],
      "stateMutability": "view",
      "type": "function"
    },
    {
      "inputs": [],
      "name": "governanceApprovals",
      "outputs": [
        {
          "internalType": "uint256",
          "name": "",
          "type": "uint256"
        }
      ],
      "stateMutability": "view",
      "type": "function"
    },
    {
      "inputs": [],
      "name": "governanceTimelock",
      "outputs": [
        {
          "internalType": "uint256",
          "name": "",
          "type": "uint256"
        }
      ],
      "stateMutability": "view",
      "type": "function"
    },
    {
      "inputs": [],
      "name": "hasActiveUnpauseProposal",
      "outputs": [
        {
          "internalType": "bool",
          "name": "",
          "type": "bool"
        }
      ],
      "stateMutability": "view",
      "type": "function"
    },
    {
      "inputs": [
        {
          "internalType": "uint256",
          "name": "",
          "type": "uint256"
        }
      ],
      "name": "inTransitSince",
      "outputs": [
        {
          "internalType": "uint256",
          "name": "",
          "type": "uint256"
        }
      ],
      "stateMutability": "view",
      "type": "function"
    },
    {
      "inputs": [
        {
          "internalType": "address",
          "name": "",
          "type": "address"
        }
      ],
      "name": "isAdmin",
      "outputs": [
        {
          "internalType": "bool",
          "name": "",
          "type": "bool"
        }
      ],
      "stateMutability": "view",
      "type": "function"
    },
    {
      "inputs": [
        {
          "internalType": "address",
          "name": "",
          "type": "address"
        }
      ],
      "name": "nonces",
      "outputs": [
        {
          "internalType": "uint256",
          "name": "",
          "type": "uint256"
        }
      ],
      "stateMutability": "view",
      "type": "function"
    },
    {
      "inputs": [
        {
          "internalType": "uint256",
          "name": "_tradeId",
          "type": "uint256"
        }
      ],
      "name": "openDispute",
      "outputs": [],
      "stateMutability": "nonpayable",
      "type": "function"
    },
    {
      "inputs": [],
      "name": "oracleActive",
      "outputs": [
        {
          "internalType": "bool",
          "name": "",
          "type": "bool"
        }
      ],
      "stateMutability": "view",
      "type": "function"
    },
    {
      "inputs": [],
      "name": "oracleAddress",
      "outputs": [
        {
          "internalType": "address",
          "name": "",
          "type": "address"
        }
      ],
      "stateMutability": "view",
      "type": "function"
    },
    {
      "inputs": [],
      "name": "oracleUpdateCounter",
      "outputs": [
        {
          "internalType": "uint256",
          "name": "",
          "type": "uint256"
        }
      ],
      "stateMutability": "view",
      "type": "function"
    },
    {
      "inputs": [
        {
          "internalType": "uint256",
          "name": "",
          "type": "uint256"
        },
        {
          "internalType": "address",
          "name": "",
          "type": "address"
        }
      ],
      "name": "oracleUpdateHasApproved",
      "outputs": [
        {
          "internalType": "bool",
          "name": "",
          "type": "bool"
        }
      ],
      "stateMutability": "view",
      "type": "function"
    },
    {
      "inputs": [
        {
          "internalType": "uint256",
          "name": "",
          "type": "uint256"
        }
      ],
      "name": "oracleUpdateProposalCancelled",
      "outputs": [
        {
          "internalType": "bool",
          "name": "",
          "type": "bool"
        }
      ],
      "stateMutability": "view",
      "type": "function"
    },
    {
      "inputs": [
        {
          "internalType": "uint256",
          "name": "",
          "type": "uint256"
        }
      ],
      "name": "oracleUpdateProposalExpiresAt",
      "outputs": [
        {
          "internalType": "uint256",
          "name": "",
          "type": "uint256"
        }
      ],
      "stateMutability": "view",
      "type": "function"
    },
    {
      "inputs": [
        {
          "internalType": "uint256",
          "name": "",
          "type": "uint256"
        }
      ],
      "name": "oracleUpdateProposals",
      "outputs": [
        {
          "internalType": "address",
          "name": "newOracle",
          "type": "address"
        },
        {
          "internalType": "uint256",
          "name": "approvalCount",
          "type": "uint256"
        },
        {
          "internalType": "bool",
          "name": "executed",
          "type": "bool"
        },
        {
          "internalType": "uint256",
          "name": "createdAt",
          "type": "uint256"
        },
        {
          "internalType": "uint256",
          "name": "eta",
          "type": "uint256"
        },
        {
          "internalType": "address",
          "name": "proposer",
          "type": "address"
        },
        {
          "internalType": "bool",
          "name": "emergencyFastTrack",
          "type": "bool"
        }
      ],
      "stateMutability": "view",
      "type": "function"
    },
    {
      "inputs": [],
      "name": "pause",
      "outputs": [],
      "stateMutability": "nonpayable",
      "type": "function"
    },
    {
      "inputs": [],
      "name": "paused",
      "outputs": [
        {
          "internalType": "bool",
          "name": "",
          "type": "bool"
        }
      ],
      "stateMutability": "view",
      "type": "function"
    },
    {
      "inputs": [
        {
          "internalType": "address",
          "name": "_newAdmin",
          "type": "address"
        }
      ],
      "name": "proposeAddAdmin",
      "outputs": [
        {
          "internalType": "uint256",
          "name": "",
          "type": "uint256"
        }
      ],
      "stateMutability": "nonpayable",
      "type": "function"
    },
    {
      "inputs": [
        {
          "internalType": "uint256",
          "name": "_tradeId",
          "type": "uint256"
        },
        {
          "internalType": "enum AgroasysEscrow.DisputeStatus",
          "name": "_disputeStatus",
          "type": "uint8"
        }
      ],
      "name": "proposeDisputeSolution",
      "outputs": [
        {
          "internalType": "uint256",
          "name": "",
          "type": "uint256"
        }
      ],
      "stateMutability": "nonpayable",
      "type": "function"
    },
    {
      "inputs": [
        {
          "internalType": "address",
          "name": "_newOracle",
          "type": "address"
        }
      ],
      "name": "proposeOracleUpdate",
      "outputs": [
        {
          "internalType": "uint256",
          "name": "",
          "type": "uint256"
        }
      ],
      "stateMutability": "nonpayable",
      "type": "function"
    },
    {
      "inputs": [],
      "name": "proposeUnpause",
      "outputs": [
        {
          "internalType": "bool",
          "name": "",
          "type": "bool"
        }
      ],
      "stateMutability": "nonpayable",
      "type": "function"
    },
    {
      "inputs": [
        {
          "internalType": "uint256",
          "name": "_tradeId",
          "type": "uint256"
        }
      ],
      "name": "refundInTransitAfterTimeout",
      "outputs": [],
      "stateMutability": "nonpayable",
      "type": "function"
    },
    {
      "inputs": [
        {
          "internalType": "uint256",
          "name": "_tradeId",
          "type": "uint256"
        }
      ],
      "name": "releaseFundsStage1",
      "outputs": [],
      "stateMutability": "nonpayable",
      "type": "function"
    },
    {
      "inputs": [],
      "name": "requiredApprovals",
      "outputs": [
        {
          "internalType": "uint256",
          "name": "",
          "type": "uint256"
        }
      ],
      "stateMutability": "view",
      "type": "function"
    },
    {
      "inputs": [
        {
          "internalType": "uint256",
          "name": "",
          "type": "uint256"
        }
      ],
      "name": "tradeActiveDisputeProposalId",
      "outputs": [
        {
          "internalType": "uint256",
          "name": "",
          "type": "uint256"
        }
      ],
      "stateMutability": "view",
      "type": "function"
    },
    {
      "inputs": [],
      "name": "tradeCounter",
      "outputs": [
        {
          "internalType": "uint256",
          "name": "",
          "type": "uint256"
        }
      ],
      "stateMutability": "view",
      "type": "function"
    },
    {
      "inputs": [
        {
          "internalType": "uint256",
          "name": "",
          "type": "uint256"
        }
      ],
      "name": "tradeHasActiveDisputeProposal",
      "outputs": [
        {
          "internalType": "bool",
          "name": "",
          "type": "bool"
        }
      ],
      "stateMutability": "view",
      "type": "function"
    },
    {
      "inputs": [
        {
          "internalType": "uint256",
          "name": "",
          "type": "uint256"
        }
      ],
      "name": "trades",
      "outputs": [
        {
          "internalType": "uint256",
          "name": "tradeId",
          "type": "uint256"
        },
        {
          "internalType": "bytes32",
          "name": "ricardianHash",
          "type": "bytes32"
        },
        {
          "internalType": "enum AgroasysEscrow.TradeStatus",
          "name": "status",
          "type": "uint8"
        },
        {
          "internalType": "address",
          "name": "buyerAddress",
          "type": "address"
        },
        {
          "internalType": "address",
          "name": "supplierAddress",
          "type": "address"
        },
        {
          "internalType": "uint256",
          "name": "totalAmountLocked",
          "type": "uint256"
        },
        {
          "internalType": "uint256",
          "name": "logisticsAmount",
          "type": "uint256"
        },
        {
          "internalType": "uint256",
          "name": "platformFeesAmount",
          "type": "uint256"
        },
        {
          "internalType": "uint256",
          "name": "supplierFirstTranche",
          "type": "uint256"
        },
        {
          "internalType": "uint256",
          "name": "supplierSecondTranche",
          "type": "uint256"
        },
        {
          "internalType": "uint256",
          "name": "createdAt",
          "type": "uint256"
        },
        {
          "internalType": "uint256",
          "name": "arrivalTimestamp",
          "type": "uint256"
        }
      ],
      "stateMutability": "view",
      "type": "function"
    },
    {
      "inputs": [],
      "name": "treasuryAddress",
      "outputs": [
        {
          "internalType": "address",
          "name": "",
          "type": "address"
        }
      ],
      "stateMutability": "view",
      "type": "function"
    },
    {
      "inputs": [
        {
          "internalType": "address",
          "name": "",
          "type": "address"
        }
      ],
      "name": "unpauseHasApproved",
      "outputs": [
        {
          "internalType": "bool",
          "name": "",
          "type": "bool"
        }
      ],
      "stateMutability": "view",
      "type": "function"
    },
    {
      "inputs": [],
      "name": "unpauseProposal",
      "outputs": [
        {
          "internalType": "uint256",
          "name": "approvalCount",
          "type": "uint256"
        },
        {
          "internalType": "bool",
          "name": "executed",
          "type": "bool"
        },
        {
          "internalType": "uint256",
          "name": "createdAt",
          "type": "uint256"
        },
        {
          "internalType": "address",
          "name": "proposer",
          "type": "address"
        }
      ],
      "stateMutability": "view",
      "type": "function"
    },
    {
      "inputs": [],
      "name": "usdcToken",
      "outputs": [
        {
          "internalType": "contract IERC20",
          "name": "",
          "type": "address"
        }
      ],
      "stateMutability": "view",
      "type": "function"
    }
  ],
  "bytecode": "0x6080604052346103d85761402080380380610019816103f3565b92833981019060a0818303126103d85761003281610418565b9061003f60208201610418565b9061004c60408201610418565b60608201519091906001600160401b0381116103d85781019480601f870112156103d8578551956001600160401b0387116103dd578660051b906020806100948185016103f3565b809a815201928201019283116103d857602001905b8282106103c057505050608001516001600055926001600160a01b031691821561038b576001600160a01b0316908115610355576001600160a01b031691821561031d5783156102d8578385511061029f5760018060a01b0319600e541617600e5560018060a01b0319600c541617600c5560018060a01b0319600d541617600d556011556000905b805182101561027657600582901b810160200151600092906001600160a01b0316801561024557808452601060205260ff60408520541661020e57600f54680100000000000000008110156101fa576001810180600f558110156101e6577f8d1108e10bcb7c27dddfc02ed9d693a074039d026cf4ea4240b40f7d581ac8020180546001600160a01b03191682179055835260106020526040909220805460ff191660019081179091559190910190610132565b634e487b7160e01b85526032600452602485fd5b634e487b7160e01b85526041600452602485fd5b60405162461bcd60e51b815260206004820152600f60248201526e323ab83634b1b0ba329030b236b4b760891b6044820152606490fd5b60405162461bcd60e51b81526020600482015260096024820152683130b21030b236b4b760b91b6044820152606490fd5b62015180601855600d805460ff60a81b1916600160a81b179055604051613bf3908161042d8239f35b60405162461bcd60e51b81526020600482015260116024820152706e6f7420656e6f7567682061646d696e7360781b6044820152606490fd5b60405162461bcd60e51b815260206004820152601e60248201527f726571756972656420617070726f76616c73206d757374206265203e203000006044820152606490fd5b60405162461bcd60e51b815260206004820152601060248201526f696e76616c696420747265617375727960801b6044820152606490fd5b60405162461bcd60e51b815260206004820152600e60248201526d696e76616c6964206f7261636c6560901b6044820152606490fd5b60405162461bcd60e51b815260206004820152600d60248201526c34b73b30b634b2103a37b5b2b760991b6044820152606490fd5b602080916103cd84610418565b8152019101906100a9565b600080fd5b634e487b7160e01b600052604160045260246000fd5b6040519190601f01601f191682016001600160401b038111838210176103dd57604052565b51906001600160a01b03821682036103d85756fe6080604052600436101561001257600080fd5b60003560e01c80630d6043c614612d2257806311eac85514612cf957806314bfd6d014612cb757806318c2740414612c325780631e6c598e14612b6f57806320e32a5314612b4357806324d7806c14612b045780632507cde11461253c5780632715048c1461246857806327d00fb01461235b5780632a3ecca11461230e5780632a4591ba146122cf5780634be935711461213f5780635ab8621e1461210e5780635c04d8ca146120f05780635c975abb146120ca578063620dc23a14611fab578063660d15b514610ae55780636726b9db14611e1e57806368d69b61146113aa5780636de2a4f014611cd3578063710bb97914611ca8578063749511b114611a9f5780637526b0ea146113aa57806376d622ce146119c157806376ebb7e01461199557806377d8f09d1461183e5780637d36f4d3146118205780637ecebe0014610f5f57806381b2ce31146117ce5780638354415d146117075780638456cb591461166057806386f23a351461163a5780638d2304ee1461160e57806396f84c09146115dd57806399c1aadc146115bf5780639a1fdd79146115a15780639b5e3061146113fc578063a0977604146113af578063a375d807146113aa578063a48448fe14611331578063a89ae4ba14611308578063a94c8f3d1461128c578063ae7784d7146111ae578063b9bcaf211461106b578063c0e8f6a71461104d578063c194bb4e14611032578063c5f956af14611009578063c5fa4a9814610fbc578063cc792e0d14610f99578063d371cf7214610f5f578063d6d81fa314610ca7578063daa0785614610b65578063dc88100e14610b21578063e57a7e3514610b03578063ea4aa01614610ae5578063ec9d151714610960578063ede25b9d1461082f578063ee5798ae146107fe578063f565776d146104bb578063f585dc571461049d578063fae8a3d61461033e578063fcb0aa02146103125763ff0c4ee5146102dc57600080fd5b3461030d57602036600319011261030d576004356000526006602052602060ff604060002054166040519015158152f35b600080fd5b3461030d57602036600319011261030d57600435600052601b6020526020604060002054604051908152f35b3461030d57600036600319011261030d5733600052601060205261036960ff60406000205416612f7c565b61038860ff600d5461037f828260a01c16613354565b60a81c1661344c565b60ff60175416610490575b6040516080810181811067ffffffffffffffff82111761047a576040526001815260006020820152426040820152606033910152600160125560ff196013541660135542601455336001600160601b0360a01b60155416176015553360005260166020526040600020600160ff19825416179055600160ff196017541617601755604051337f0c098089b7550dc564f1a038c8820df7c94ad41baa6be122a568c720c323ce3c600080a26011546001825260208201527ff250c8cac0e5a06311da43d7d136f294ff38fe995468d5352d5b795bec30020a60403392a2602060405160018152f35b634e487b7160e01b600052604160045260246000fd5b610498613991565b610393565b3461030d57600036600319011261030d576020604051620151808152f35b3461030d57604036600319011261030d57600435602435600281101561030d573360005260106020526104f560ff60406000205416612f7c565b61050760ff600d5460a01c1615612fb5565b6105146002548310613253565b81600052600160205260ff6002604060002001541660058110156107e857600361053e9114613136565b81600052600660205260ff604060002054166106fa575b600a5490610562826131b4565b600a556040519261057284612f13565b8084526020840193600094838152604082016001815260608301878152608084019142835260a0850193338552888a52600460205260408a209551865560018601905160028110156106e657916005959493916105f39360ff80198354169116179055516002870155511515600386019060ff801983541691151516179055565b51600484015551910180546001600160a01b0319166001600160a01b03929092169190911790558284526005602090815260408086203387528252808620805460ff1990811660019081179092558488526006845282882080549091169091179055828652600790915284208390554262093a8081019081106106d257604085856020975260088752205561068b6040518093612f6f565b827f169133ad218243916e40f5d940b11e6662965ad0b9436428ec3ec92af6593fbb853394a46001601154146106c4575b604051908152f35b6106cd8161364d565b6106bc565b634e487b7160e01b85526011600452602485fd5b634e487b7160e01b8b52602160045260248bfd5b8160005260076020526040600020548060005260086020526040600020544211806107cf575b15610791578060005260096020526040600020600160ff19825416179055826000526006602052604060002060ff198154169055826000526007602052600060408120558233917f7d0d8277552faa3f645755b68537c6cdbbd2b3415f4fc4ec554d62d4824311d1600080a4610555565b60405162461bcd60e51b81526020600482015260166024820152756163746976652070726f706f73616c2065786973747360501b6044820152606490fd5b5080600052600960205260ff6040600020541615610720565b634e487b7160e01b600052602160045260246000fd5b3461030d57602036600319011261030d57600435600052601c602052602060ff604060002054166040519015158152f35b3461030d57602036600319011261030d5760043533600052601060205261085d60ff60406000205416612f7c565b61086a601d548210612fea565b8060005260196020526040600020906108886003830154151561302b565b6001600283019182549061089f60ff831615613077565b80600052601c6020526108ba60ff60406000205416156130b6565b600052601b6020526108d36040600020544211156130f7565b6108e9828501546108e2613590565b11156135a5565b6108f960048501544210156135e8565b60ff1916179055600c805482546001600160a01b031982166001600160a01b0391821617909255600d805460ff60a81b1916600160a81b1790559154811691167f078c3b417dadf69374a59793b829c52001247130433427049317bde56607b1b7600080a3005b3461030d57602036600319011261030d5760043533600052601060205261098e60ff60406000205416612f7c565b61099b6022548210612fea565b80600052601e6020526040600020906109b96003830154151561302b565b600282018054916109cd60ff841615613077565b8060005260216020526109e860ff60406000205416156130b6565b60005260208052610a006040600020544211156130f7565b610a1060018401546108e2613590565b610a2060048401544210156135e8565b82546001600160a01b031691600190610a3a84151561348a565b836000526010602052610a5560ff60406000205416156134c6565b60ff1916179055600f546801000000000000000081101561047a57806001610a809201600f55612eb6565b815460039190911b92831b6001600160a01b039384901b19909116179055815481166000908152601060205260408120805460ff19166001179055915416907f44d6d25963f097ad14f29f06854a01f575648a1ef82f30e562ccd3889717e3399080a2005b3461030d57600036600319011261030d576020600254604051908152f35b3461030d57600036600319011261030d576020601d54604051908152f35b3461030d57600036600319011261030d57608060125460ff6013541660145460018060a01b0360155416916040519384521515602084015260408301526060820152f35b3461030d57602036600319011261030d57600435336000526010602052610b9360ff60406000205416612f7c565b610ba06022548210612fea565b80600052601e60205260016040600020610bbf6003820154151561302b565b610bd060ff60028301541615613077565b826000526021602052610beb60ff60406000205416156130b6565b8260005260208052610c046040600020544211156130f7565b82600052601f6020526040600020828060a01b033316600052602052610c3260ff6040600020541615613175565b82600052601f6020526040600020828060a01b03331660005260205260406000208260ff198254161790550190610c6982546131b4565b809255610c74613590565b60405192835260208301527fb8cacf822d821b4e79cb750d1368c77e7e7ec2aee16f886327cd7c756f47c22360403393a3005b3461030d57602036600319011261030d57610cc0612ee7565b336000526010602052610cda60ff60406000205416612f7c565b6001600160a01b03168015610f2957600c546001600160a01b03168114610ef657610d10600f54610d09613590565b1115613502565b601d54610d1c816131b4565b601d55600d5460a81c60ff1615918215610ee557425b60405160e0810181811067ffffffffffffffff82111761047a5760405282815260208101600181526005604083019260008452606081014281526080820190868252610dd860a084019633885260c08501968c88528b600052601960205260406000209560018060a01b039060018060a01b03905116166001600160601b0360a01b875416178655516001860155511515600285019060ff801983541691151516179055565b51600383015551600482015592519201805491516001600160a81b03199092166001600160a01b03939093169290921790151560a01b60ff60a01b161790556000838152601a602090815260408083203384529091529020805460ff191660011790554262093a80810194908510610ecf5760209484600052601b865260406000205560405191825284820152827faff168a4e1fa91858b5fc1c223cee9cc0eaeaddb0b29c18df1630e08305bd80260403393a4610e94613590565b604051906001825283820152817ff39407f640014cb0220c4f7b0a6cc6acee38a440a8add233fa88e8c98b95b25c60403393a3604051908152f35b634e487b7160e01b600052601160045260246000fd5b610ef1601854426131c3565b610d32565b60405162461bcd60e51b815260206004820152600b60248201526a73616d65206f7261636c6560a81b6044820152606490fd5b60405162461bcd60e51b815260206004820152600e60248201526d696e76616c6964206f7261636c6560901b6044820152606490fd5b3461030d57602036600319011261030d576001600160a01b03610f80612ee7565b1660005260036020526020604060002054604051908152f35b3461030d57600036600319011261030d57602060ff601754166040519015158152f35b3461030d57604036600319011261030d57610fd5612efd565b600435600052601f60205260406000209060018060a01b0316600052602052602060ff604060002054166040519015158152f35b3461030d57600036600319011261030d57600d546040516001600160a01b039091168152602090f35b3461030d57600036600319011261030d5760206106bc613590565b3461030d57600036600319011261030d576020604051621275008152f35b3461030d57602036600319011261030d5760043533600052601060205261109960ff60406000205416612f7c565b6110a6601d548210612fea565b806000526019602052600160406000206110c56003820154151561302b565b6110d660ff60028301541615613077565b82600052601c6020526110f160ff60406000205416156130b6565b82600052601b60205261110b6040600020544211156130f7565b82600052601a6020526040600020828060a01b03331660005260205261113960ff6040600020541615613175565b82600052601a6020526040600020828060a01b03331660005260205260406000208260ff19825416179055019061117082546131b4565b80925561117b613590565b60405192835260208301527ff39407f640014cb0220c4f7b0a6cc6acee38a440a8add233fa88e8c98b95b25c60403393a3005b3461030d57602036600319011261030d576004356111d760018060a01b03600c54163314613412565b6111f760ff600d546111ed828260a81c1661344c565b60a01c1615612fb5565b6111ff61362b565b61120c6002548210613253565b80600052600160205260406000206002810160ff81541660058110156107e8577f86b04a9027748794b50d55160e5a9fe6b0375cd3221e0d4776f9e053f7ef6d049260209261125f6001600a9414613544565b600260ff198254161790550142815583600052600b82526000604081205554604051908152a26001600055005b3461030d57602036600319011261030d57600435600052600460205260c0604060002080549060ff60018201541690600281015460ff600383015416906112f0600484015493600560018060a01b0391015416946040519687526020870190612f6f565b604085015215156060840152608083015260a0820152f35b3461030d57600036600319011261030d57600c546040516001600160a01b039091168152602090f35b3461030d57602036600319011261030d57600435600052601e60205260c0604060002060018060a01b038154169060018101549060ff600282015416600382015490600483015492600560018060a01b0391015416936040519586526020860152151560408501526060840152608083015260a0820152f35b612f51565b3461030d57604036600319011261030d576113c8612efd565b600435600052600560205260406000209060018060a01b0316600052602052602060ff604060002054166040519015158152f35b3461030d57602036600319011261030d5760043561141861362b565b6114256002548210613253565b8060005260016020526040600020906002820160ff81546114523360018060a01b038360081c1614613291565b1660058110156107e85760016114689114613544565b81600052600b602052604060002054801561155c57621275008101809111610ecf574211156115175760207f1c642f6ec09eeef2a0619a2a298b98d5b38861f8a024837627f161d669c3c10691600460ff1982541617815583600052600b8252600060408120556114f660018060a01b03600e5416600860018060a01b038454821c16970196875491613956565b54935460405190815260089490941c6001600160a01b031693a36001600055005b60405162461bcd60e51b815260206004820152601e60248201527f696e2d7472616e7369742074696d656f7574206e6f7420656c617073656400006044820152606490fd5b60405162461bcd60e51b815260206004820152601c60248201527f696e2d7472616e7369742074696d657374616d70206e6f7420736574000000006044820152606490fd5b3461030d57600036600319011261030d576020601854604051908152f35b3461030d57600036600319011261030d576020601154604051908152f35b3461030d57602036600319011261030d576004356000526009602052602060ff604060002054166040519015158152f35b3461030d57602036600319011261030d5760043560005260086020526020604060002054604051908152f35b3461030d57600036600319011261030d57602060ff600d5460a81c166040519015158152f35b3461030d57600036600319011261030d5733600052601060205261168b60ff60406000205416612f7c565b600d5460ff8160a01c166116d15760ff60a01b1916600160a01b17600d55337f62e78cea01bee320cd4e420270b5ea74000d11b0c9f74754ebdbfc544b05a258600080a2005b60405162461bcd60e51b815260206004820152600e60248201526d185b1c9958591e481c185d5cd95960921b6044820152606490fd5b3461030d57600036600319011261030d5733600052601060205261173260ff60406000205416612f7c565b600d5461174460ff8260a81c1661344c565b60ff60a81b198116600d5560a081901c60ff1615611791575b600c546001600160a01b0316337f943e0551255d58897464f9809b2b06574fdc708ade497e30276ae48effc0a794600080a3005b61ffff60a01b1916600160a01b17600d55337f62e78cea01bee320cd4e420270b5ea74000d11b0c9f74754ebdbfc544b05a258600080a28061175d565b3461030d57600036600319011261030d573360005260106020526117f960ff60406000205416612f7c565b61180760ff6017541661338d565b61181660ff6013541615613077565b61181e613991565b005b3461030d57600036600319011261030d576020600a54604051908152f35b3461030d57602036600319011261030d5760043533600052601060205261186c60ff60406000205416612f7c565b61187e60ff600d5460a01c1615612fb5565b61188b600a548210612fea565b8060005260046020526040600020906118a96004830154151561302b565b6118ba60ff60038401541615613077565b8060005260096020526118d560ff60406000205416156131d0565b8060005260086020526118ee6040600020544211613210565b8060005260096020526040600020600160ff19825416179055815480600052600660205260ff604060002054168061197e575b611952575b50339154907f7d0d8277552faa3f645755b68537c6cdbbd2b3415f4fc4ec554d62d4824311d1600080a4005b6000526006602052604060002060ff198154169055815460005260076020526000604081205582611926565b508060005260076020528160406000205414611921565b3461030d57602036600319011261030d57600435600052600b6020526020604060002054604051908152f35b3461030d57602036600319011261030d576004353360005260106020526119ef60ff60406000205416612f7c565b6119fc601d548210612fea565b806000526019602052611a2960ff60026040600020611a206003820154151561302b565b01541615613077565b80600052601c602052611a4460ff60406000205416156131d0565b80600052601b602052611a5d6040600020544211613210565b80600052601c6020526040600020600160ff1982541617905533907fd2d878f87125c1948b966a8962e09576b78186471e1a7cc90c2bd2b6f05acc9f600080a3005b3461030d57602036600319011261030d57611ab8612ee7565b336000526010602052611ad260ff60406000205416612f7c565b6001600160a01b0316611ae681151561348a565b806000526010602052611b0160ff60406000205416156134c6565b611b0f600f54610d09613590565b602254611b1b816131b4565b602255611b2a601854426131c3565b600560405191611b3983612f13565b8483526020830190600182526040840160008152611bb860608601914283526080870193845260a087019433865288600052601e60205260406000209760018060a01b039060018060a01b03905116166001600160601b0360a01b895416178855516001880155511515600287019060ff801983541691151516179055565b51600385015551600484015551910180546001600160a01b0319166001600160a01b03929092169190911790556000818152601f602090815260408083203384529091529020805460ff191660011790554262093a80810192908310610ecf576020928260005283805260406000205581600052601e8352600460406000200154604051908152827f959284814070c6c3a0c8b0ce10f8406a2a5cfe5cc3a7d157ad2ba850026aee64853393a4611c6d613590565b604051906001825283820152817fb8cacf822d821b4e79cb750d1368c77e7e7ec2aee16f886327cd7c756f47c22360403393a3604051908152f35b3461030d57602036600319011261030d57600435600052602080526020604060002054604051908152f35b3461030d57602036600319011261030d57600435611cf960ff600d5460a01c1615612fb5565b611d0161362b565b611d0e6002548210613253565b8060005260016020526040600020906002820160ff81541660058110156107e8576002611d3b91146132ca565b600a830154611d4b811515613316565b620151808101809111610ecf57421115611de457600460ff1982541617905580600052600b602052600060408120557f525d8c9a3bdfd74e1b0f3f79ccf0ef47d77d261e27396b35539f75e5d4086106602060018060a01b03600e5416611dc76003860191600860018060a01b03845416970196875491613956565b5493546040519081526001600160a01b0390941693a36001600055005b60405162461bcd60e51b81526020600482015260126024820152711dda5b991bddc81b9bdd08195b185c1cd95960721b6044820152606490fd5b3461030d57602036600319011261030d57600435611e4760018060a01b03600c54163314613412565b611e5d60ff600d546111ed828260a81c1661344c565b611e6561362b565b611e726002548210613253565b8060005260016020526040600020906002820160ff81541660058110156107e857611e9d90156133ce565b600160ff1982541617905580600052600b602052426040600020557f7fe4efc5647c551e3daa927b506b95903589ed6b18a37dbff54db80e7395239b602060018060a01b03600e54169360038101611f0660018060a01b03825416966007840197885491613956565b600e54600d54600584018054909392611f2b926001600160a01b039081169116613956565b600e54600d5460069490940180549094611f51926001600160a01b039182169116613956565b549554600d54915460408051928352858301919091526001600160a01b03928316978893169187917faf26bf705c48ad6f6bf63104d1d8b9f94dac03ba9c3ae49b34cd094cc8c3f6f691a454604051908152a36001600055005b3461030d57602036600319011261030d57600435611fc761362b565b611fd46002548210613253565b8060005260016020526040600020906002820160ff81546120013360018060a01b038360081c1614613291565b1660058110156107e85761201590156133ce565b600983015462093a808101809111610ecf574211156120855760207fe54e6e873934788882b1744fc124e31c635896db16279bfdfd45fd2953619cff91600460ff198254161781556114f660018060a01b03600e5416600460018060a01b03845460081c16970196875491613956565b60405162461bcd60e51b815260206004820152601860248201527f6c6f636b2074696d656f7574206e6f7420656c617073656400000000000000006044820152606490fd5b3461030d57600036600319011261030d57602060ff600d5460a01c166040519015158152f35b3461030d57600036600319011261030d576020602254604051908152f35b3461030d57602036600319011261030d576004356000526021602052602060ff604060002054166040519015158152f35b3461030d57600036600319011261030d5733600052601060205261216a60ff60406000205416612f7c565b61217b60ff600d5460a01c16613354565b61218960ff6017541661338d565b61219860ff6013541615613077565b3360005260166020526121b360ff6040600020541615613175565b3360005260166020526040600020600160ff198254161790556121d76012546131b4565b806012556011546040519082825260208201527ff250c8cac0e5a06311da43d7d136f294ff38fe995468d5352d5b795bec30020a60403392a2612218613590565b81101561222157005b6001906122406013549161223860ff841615613077565b6108e2613590565b60ff19161760135560ff60a01b19600d5416600d5560ff19601754166017556122676138ec565b60005b81518110156122a5576001906001600160a01b036122888285613942565b51166000526016602052604060002060ff1981541690550161226a565b5050337f5db9ee0a495bf2e6ff9c91a7834c1ba4fdd244a5e8aa4e537bd38aeae4b073aa600080a2005b3461030d57602036600319011261030d576001600160a01b036122f0612ee7565b166000526016602052602060ff604060002054166040519015158152f35b3461030d57604036600319011261030d57612327612efd565b600435600052601a60205260406000209060018060a01b0316600052602052602060ff604060002054166040519015158152f35b3461030d57602036600319011261030d5760043561238160ff600d5460a01c1615612fb5565b61238961362b565b6123966002548210613253565b8060005260016020526040600020600281019060ff82546123c33360018060a01b038360081c1614613291565b169060058210156107e8576123dc6002600a93146132ca565b01546123e9811515613316565b620151808101809111610ecf57421161243357805460ff191660031790557fb145240944e8bfe8998e31f11365578b766764ed1255b8e2efcb56e741b7be18600080a26001600055005b60405162461bcd60e51b815260206004820152600d60248201526c1dda5b991bddc818db1bdcd959609a1b6044820152606490fd5b3461030d57602036600319011261030d5760043533600052601060205261249660ff60406000205416612f7c565b6124a36022548210612fea565b80600052601e6020526124c760ff60026040600020611a206003820154151561302b565b8060005260216020526124e260ff60406000205416156131d0565b80600052602080526124fa6040600020544211613210565b8060005260216020526040600020600160ff1982541617905533907f6e5c3c82c1e75af7548eba9cd2cb4b639f5b6762fec00ca5e0d902fbad351ebc600080a3005b3461030d5761014036600319011261030d57612556612ee7565b60e435610124356101043567ffffffffffffffff821161030d573660238301121561030d57816004013567ffffffffffffffff811161047a57604051926125a7601f8301601f191660200185612f2f565b818452366024838301011161030d578160009260246020930183870137840101526125da60ff600d5460a01c1615612fb5565b6125e261362b565b60c43515612abf576001600160a01b03841615612a865761261860a4356126136084356126136064356044356131c3565b6131c3565b60243503612a4c57608435151580612a41575b15612a055733600052600360205260406000205483036129d45780421161299b57612730916127279160018060a01b03600d54169060405190602082019246845230604084015233606084015260018060a01b038916608084015260a083015260243560c083015260443560e083015260643561010083015260843561012083015260a43561014083015260c435610160830152866101808301526101a08201526101a081526126dd6101c082612f2f565b51902060405160208101917f19457468657265756d205369676e6564204d6573736167653a0a3332000000008352603c820152603c815261271f605c82612f2f565b519020613a86565b90929192613ac2565b336001600160a01b03909116036129665760018101809111610ecf57336000526003602052604060002055600254612767816131b4565b60025560405191610180830183811067ffffffffffffffff82111761047a576040528183526020830160c43581526040840160008152336060860152608085019060018060a01b038416825260243560a087015260443560c087015260643560e087015260843561010087015260a435610120870152426101408701526000610160870152846000526001602052604060002092865184555160018401555160058110156107e85760028301805460608801516001600160a81b031990911660ff90931692909217600892831b610100600160a81b031617905590516003830180546001600160a01b0319166001600160a01b0392831617905560a0860151600484015560c0860151600584015560e08601516006840155610100860151600784015561012086015191830191909155610140850151600983015561016090940151600a9190910155600e546040516323b872dd60e01b60208281019190915233602480840191909152306044840152356064808401919091528252946128f992166128f4608483612f2f565b613a1f565b604051906024358252604435848301526064356040830152608435606083015260a435608083015260c43560a083015260018060a01b031690827f9896188f7299b6607b47eaa190d500bf89abbfa1bb2ce6d410f88b043e371b6760c03393a46001600055604051908152f35b60405162461bcd60e51b815260206004820152600d60248201526c626164207369676e617475726560981b6044820152606490fd5b60405162461bcd60e51b81526020600482015260116024820152701cda59db985d1d5c9948195e1c1a5c9959607a1b6044820152606490fd5b60405162461bcd60e51b8152602060048201526009602482015268626164206e6f6e636560b81b6044820152606490fd5b60405162461bcd60e51b815260206004820152601460248201527307472616e63686573206d757374206265203e20360641b6044820152606490fd5b5060a435151561262b565b60405162461bcd60e51b81526020600482015260126024820152710c4e4cac2d6c8deeedc40dad2e6dac2e8c6d60731b6044820152606490fd5b60405162461bcd60e51b81526020600482015260116024820152701cdd5c1c1b1a595c881c995c5d5a5c9959607a1b6044820152606490fd5b60405162461bcd60e51b815260206004820152601760248201527f72696361726469616e20686173682072657175697265640000000000000000006044820152606490fd5b3461030d57602036600319011261030d576001600160a01b03612b25612ee7565b166000526010602052602060ff604060002054166040519015158152f35b3461030d57602036600319011261030d5760043560005260076020526020604060002054604051908152f35b3461030d57602036600319011261030d57600435600052600160205260406000208054600182015460028301549260ff84169360018060a01b0360038301541660048301546005840154600685015491600786015493600887015495600a6009890154980154986040519a8b5260208b015260058b10156107e8576101809a60408b015260018060a01b039060081c1660608a0152608089015260a088015260c087015260e0860152610100850152610120840152610140830152610160820152f35b3461030d57602036600319011261030d57600435600052601960205260e0604060002060ff60018060a01b03825416916001810154908260028201541660038201549060056004840154930154936040519687526020870152151560408601526060850152608084015260018060a01b03811660a084015260a01c16151560c0820152f35b3461030d57602036600319011261030d57600435600f5481101561030d57612ce0602091612eb6565b905460405160039290921b1c6001600160a01b03168152f35b3461030d57600036600319011261030d57600e546040516001600160a01b039091168152602090f35b3461030d57602036600319011261030d57600435336000526010602052612d5060ff60406000205416612f7c565b612d6260ff600d5460a01c1615612fb5565b612d6a61362b565b612d77600a548210612fea565b8060005260046020526040600020612d946004820154151561302b565b612da560ff60038301541615613077565b816000526009602052612dc060ff60406000205416156130b6565b816000526008602052612dda6040600020544211156130f7565b8054600052600160205260ff600260406000200154169060058210156107e857612e08600360029314613136565b6000838152600560209081526040808320338452909152902054612e2f9060ff1615613175565b60008381526005602090815260408083203384529091529020805460ff19166001179055018054612e5f906131b4565b80915560115490604051818152826020820152837f14e1b3091f09f49236e90d7a9826aa647e37c8b8600adc8a5935ee0c179e2de160403393a31015612ea7575b6001600055005b612eb09061364d565b80612ea0565b600f54811015612ed157600f60005260206000200190600090565b634e487b7160e01b600052603260045260246000fd5b600435906001600160a01b038216820361030d57565b602435906001600160a01b038216820361030d57565b60c0810190811067ffffffffffffffff82111761047a57604052565b90601f8019910116810190811067ffffffffffffffff82111761047a57604052565b3461030d57600036600319011261030d57602060405162093a808152f35b9060028210156107e85752565b15612f8357565b60405162461bcd60e51b815260206004820152600a60248201526937b7363c9030b236b4b760b11b6044820152606490fd5b15612fbc57565b60405162461bcd60e51b81526020600482015260066024820152651c185d5cd95960d21b6044820152606490fd5b15612ff157565b60405162461bcd60e51b81526020600482015260126024820152711c1c9bdc1bdcd85b081b9bdd08199bdd5b9960721b6044820152606490fd5b1561303257565b60405162461bcd60e51b815260206004820152601860248201527f70726f706f73616c206e6f7420696e697469616c697a656400000000000000006044820152606490fd5b1561307e57565b60405162461bcd60e51b815260206004820152601060248201526f185b1c9958591e48195e1958dd5d195960821b6044820152606490fd5b156130bd57565b60405162461bcd60e51b81526020600482015260126024820152711c1c9bdc1bdcd85b0818d85b98d95b1b195960721b6044820152606490fd5b156130fe57565b60405162461bcd60e51b815260206004820152601060248201526f1c1c9bdc1bdcd85b08195e1c1a5c995960821b6044820152606490fd5b1561313d57565b60405162461bcd60e51b815260206004820152601060248201526f3a3930b232903737ba10333937bd32b760811b6044820152606490fd5b1561317c57565b60405162461bcd60e51b815260206004820152601060248201526f185b1c9958591e48185c1c1c9bdd995960821b6044820152606490fd5b6000198114610ecf5760010190565b91908201809211610ecf57565b156131d757565b60405162461bcd60e51b8152602060048201526011602482015270185b1c9958591e4818d85b98d95b1b1959607a1b6044820152606490fd5b1561321757565b60405162461bcd60e51b81526020600482015260146024820152731c1c9bdc1bdcd85b081b9bdd08195e1c1a5c995960621b6044820152606490fd5b1561325a57565b60405162461bcd60e51b815260206004820152600f60248201526e1d1c985919481b9bdd08199bdd5b99608a1b6044820152606490fd5b1561329857565b60405162461bcd60e51b815260206004820152600a60248201526937b7363c90313abcb2b960b11b6044820152606490fd5b156132d157565b60405162461bcd60e51b815260206004820152601960248201527f6d757374206265204152524956414c5f434f4e4649524d4544000000000000006044820152606490fd5b1561331d57565b60405162461bcd60e51b815260206004820152600f60248201526e185c9c9a5d985b081b9bdd081cd95d608a1b6044820152606490fd5b1561335b57565b60405162461bcd60e51b815260206004820152600a6024820152691b9bdd081c185d5cd95960b21b6044820152606490fd5b1561339457565b60405162461bcd60e51b81526020600482015260126024820152711b9bc81858dd1a5d99481c1c9bdc1bdcd85b60721b6044820152606490fd5b156133d557565b60405162461bcd60e51b81526020600482015260156024820152741cdd185d1d5cc81b5d5cdd081899481313d0d2d151605a1b6044820152606490fd5b1561341957565b60405162461bcd60e51b815260206004820152600b60248201526a6f6e6c79206f7261636c6560a81b6044820152606490fd5b1561345357565b60405162461bcd60e51b815260206004820152600f60248201526e1bdc9858db1948191a5cd8589b1959608a1b6044820152606490fd5b1561349157565b60405162461bcd60e51b815260206004820152600d60248201526c34b73b30b634b21030b236b4b760991b6044820152606490fd5b156134cd57565b60405162461bcd60e51b815260206004820152600d60248201526c30b63932b0b23c9030b236b4b760991b6044820152606490fd5b1561350957565b60405162461bcd60e51b8152602060048201526013602482015272696e73756666696369656e742061646d696e7360681b6044820152606490fd5b1561354b57565b60405162461bcd60e51b815260206004820152601960248201527f737461747573206d75737420626520494e5f5452414e534954000000000000006044820152606490fd5b60115460028110156135a25750600290565b90565b156135ac57565b60405162461bcd60e51b81526020600482015260146024820152736e6f7420656e6f75676820617070726f76616c7360601b6044820152606490fd5b156135ef57565b60405162461bcd60e51b81526020600482015260146024820152731d1a5b595b1bd8dac81b9bdd08195b185c1cd95960621b6044820152606490fd5b60026000541461363c576002600055565b633ee5aeb560e01b60005260046000fd5b806000526004602052604060002090600382019182549261367160ff851615613077565b82600052600960205261368c60ff60406000205416156130b6565b8260005260086020526136a66040600020544211156130f7565b6136b8600283015460115411156135a5565b81546000526001602052604060002090600282019460ff86541660058110156107e8576003036138b05760019060ff1916179055600460ff1985541617845581546000526006602052604060002060ff19815416905581546000526007602052600060408120558154600052600b60205260006040812055600881015493600183019160ff83541660028110156107e857806137f35750509160ff94846020937fafdf3220f58fe501f1c7cff54df532523ba92e302d4b17d7bb8c30b9e4e906b360407f367ef6da4bd64313a89876ecb2e42b4be35f68f378625be0d78dcd15eba27dd09760018060a01b03905460081c16956137c0868860018060a01b03600e5416613956565b54998a9354169581519586526137d888870188612f6f565b6001600160a01b031694a46137f06040518092612f6f565ba3565b909391506001036138725760ff94846020937fafdf3220f58fe501f1c7cff54df532523ba92e302d4b17d7bb8c30b9e4e906b360407f367ef6da4bd64313a89876ecb2e42b4be35f68f378625be0d78dcd15eba27dd097600360018060a01b03910154169561386d868860018060a01b03600e5416613956565b6137c0565b60405162461bcd60e51b8152602060048201526016602482015275696e76616c696420646973707574652073746174757360501b6044820152606490fd5b60405162461bcd60e51b81526020600482015260146024820152733a3930b2329036bab9ba10313290232927ad22a760611b6044820152606490fd5b60405190600f548083528260208101600f60005260206000209260005b81811061392057505061391e92500383612f2f565b565b84546001600160a01b0316835260019485019487945060209093019201613909565b8051821015612ed15760209160051b010190565b60405163a9059cbb60e01b60208201526001600160a01b03909216602483015260448083019390935291815261391e916128f4606483612f2f565b6139996138ec565b60005b81518110156139d7576001906001600160a01b036139ba8285613942565b51166000526016602052604060002060ff1981541690550161399c565b505060ff19601754166017556000601255600060135560006014556000601555337fc79764e56dcfddc1a2135f80cf347dd741f7c7f914a134142b5d336e156d3bd0600080a2565b906000602091828151910182855af115613a7a576000513d613a7157506001600160a01b0381163b155b613a505750565b635274afe760e01b60009081526001600160a01b0391909116600452602490fd5b60011415613a49565b6040513d6000823e3d90fd5b8151919060418303613ab757613ab092506020820151906060604084015193015160001a90613b34565b9192909190565b505060009160029190565b91909160048110156107e85780613ad857509050565b600060018203613af35763f645eedf60e01b60005260046000fd5b5060028103613b11578263fce698f760e01b60005260045260246000fd5b9091600360009214613b21575050565b6335e2f38360e21b825260045260249150fd5b91907f7fffffffffffffffffffffffffffffff5d576e7357a4501ddfe92f46681b20a08411613bb1579160209360809260ff60009560405194855216868401526040830152606082015282805260015afa15613a7a576000516001600160a01b03811615613ba55790600090600090565b50600090600190600090565b5050506000916003919056fea264697066735822122098289b68a91c6c6c5b56781e112578a4e0a8a1acef70c680ecab47aa5d60059664736f6c634300081c0033",
  "linkReferences": {},
  "deployedLinkReferences": {}
}