{
  "_format": "hh-sol-artifact-1",
  "contractName": "AgroasysEscrow",
  "sourceName": "src/AgroasysEscrow.sol",
  "abi": [
    {
      "inputs": [
        {
          "internalType": "address",
          "name": "_usdcToken",
          "type": "address"
        },
        {
          "internalType": "address",
          "name": "_oracleAddress",
          "type": "address"
        },
        {
          "internalType": "address",
          "name": "_treasuryAddress",
          "type": "address"
        },
        {
          "internalType": "address[]",
          "name": "_admins",
          "type": "address[]"
        },
        {
          "internalType": "uint256",
          "name": "_requiredApprovals",
          "type": "uint256"
        }
      ],
      "stateMutability": "nonpayable",
      "type": "constructor"
    },
    {
      "inputs": [],
      "name": "ECDSAInvalidSignature",
      "type": "error"
    },
    {
      "inputs": [
        {
          "internalType": "uint256",
          "name": "length",
          "type": "uint256"
        }
      ],
      "name": "ECDSAInvalidSignatureLength",
      "type": "error"
    },
    {
      "inputs": [
        {
          "internalType": "bytes32",
          "name": "s",
          "type": "bytes32"
        }
      ],
      "name": "ECDSAInvalidSignatureS",
      "type": "error"
    },
    {
      "inputs": [],
      "name": "EnforcedPause",
      "type": "error"
    },
    {
      "inputs": [],
      "name": "ExpectedPause",
      "type": "error"
    },
    {
      "inputs": [],
      "name": "ReentrancyGuardReentrantCall",
      "type": "error"
    },
    {
      "inputs": [
        {
          "internalType": "address",
          "name": "token",
          "type": "address"
        }
      ],
      "name": "SafeERC20FailedOperation",
      "type": "error"
    },
    {
      "anonymous": false,
      "inputs": [
        {
          "indexed": true,
          "internalType": "uint256",
          "name": "proposalId",
          "type": "uint256"
        },
        {
          "indexed": true,
          "internalType": "address",
          "name": "approver",
          "type": "address"
        },
        {
          "indexed": false,
          "internalType": "uint256",
          "name": "approvalCount",
          "type": "uint256"
        },
        {
          "indexed": false,
          "internalType": "uint256",
          "name": "requiredApprovals",
          "type": "uint256"
        }
      ],
      "name": "AdminAddApproved",
      "type": "event"
    },
    {
      "anonymous": false,
      "inputs": [
        {
          "indexed": true,
          "internalType": "uint256",
          "name": "proposalId",
          "type": "uint256"
        },
        {
          "indexed": true,
          "internalType": "address",
          "name": "cancelledBy",
          "type": "address"
        }
      ],
      "name": "AdminAddProposalExpiredCancelled",
      "type": "event"
    },
    {
      "anonymous": false,
      "inputs": [
        {
          "indexed": true,
          "internalType": "uint256",
          "name": "proposalId",
          "type": "uint256"
        },
        {
          "indexed": true,
          "internalType": "address",
          "name": "proposer",
          "type": "address"
        },
        {
          "indexed": true,
          "internalType": "address",
          "name": "newAdmin",
          "type": "address"
        },
        {
          "indexed": false,
          "internalType": "uint256",
          "name": "eta",
          "type": "uint256"
        }
      ],
      "name": "AdminAddProposed",
      "type": "event"
    },
    {
      "anonymous": false,
      "inputs": [
        {
          "indexed": true,
          "internalType": "address",
          "name": "newAdmin",
          "type": "address"
        }
      ],
      "name": "AdminAdded",
      "type": "event"
    },
    {
      "anonymous": false,
      "inputs": [
        {
          "indexed": true,
          "internalType": "uint256",
          "name": "tradeId",
          "type": "uint256"
        },
        {
          "indexed": false,
          "internalType": "uint256",
          "name": "arrivalTimestamp",
          "type": "uint256"
        }
      ],
      "name": "ArrivalConfirmed",
      "type": "event"
    },
    {
      "anonymous": false,
      "inputs": [
        {
          "indexed": true,
          "internalType": "address",
          "name": "user",
          "type": "address"
        },
        {
          "indexed": true,
          "internalType": "bytes32",
          "name": "action",
          "type": "bytes32"
        },
        {
          "indexed": false,
          "internalType": "uint256",
          "name": "nonce",
          "type": "uint256"
        },
        {
          "indexed": true,
          "internalType": "address",
          "name": "relayer",
          "type": "address"
        },
        {
          "indexed": false,
          "internalType": "uint256",
          "name": "deadline",
          "type": "uint256"
        }
      ],
      "name": "AuthorizationConsumed",
      "type": "event"
    },
    {
      "anonymous": false,
      "inputs": [
        {
          "indexed": true,
          "internalType": "uint256",
          "name": "tradeId",
          "type": "uint256"
        },
        {
          "indexed": true,
          "internalType": "address",
          "name": "buyer",
          "type": "address"
        },
        {
          "indexed": false,
          "internalType": "uint256",
          "name": "amount",
          "type": "uint256"
        },
        {
          "indexed": false,
          "internalType": "enum AgroasysEscrow.ClaimType",
          "name": "claimType",
          "type": "uint8"
        },
        {
          "indexed": true,
          "internalType": "address",
          "name": "triggeredBy",
          "type": "address"
        }
      ],
      "name": "BuyerRefundTransferred",
      "type": "event"
    },
    {
      "anonymous": false,
      "inputs": [
        {
          "indexed": true,
          "internalType": "uint256",
          "name": "tradeId",
          "type": "uint256"
        },
        {
          "indexed": true,
          "internalType": "address",
          "name": "recipient",
          "type": "address"
        },
        {
          "indexed": false,
          "internalType": "uint256",
          "name": "amount",
          "type": "uint256"
        },
        {
          "indexed": false,
          "internalType": "enum AgroasysEscrow.ClaimType",
          "name": "claimType",
          "type": "uint8"
        }
      ],
      "name": "ClaimableAccrued",
      "type": "event"
    },
    {
      "anonymous": false,
      "inputs": [
        {
          "indexed": true,
          "internalType": "address",
          "name": "triggeredBy",
          "type": "address"
        }
      ],
      "name": "ClaimsPaused",
      "type": "event"
    },
    {
      "anonymous": false,
      "inputs": [
        {
          "indexed": true,
          "internalType": "address",
          "name": "triggeredBy",
          "type": "address"
        }
      ],
      "name": "ClaimsUnpaused",
      "type": "event"
    },
    {
      "anonymous": false,
      "inputs": [
        {
          "indexed": true,
          "internalType": "uint256",
          "name": "proposalId",
          "type": "uint256"
        },
        {
          "indexed": true,
          "internalType": "address",
          "name": "approver",
          "type": "address"
        },
        {
          "indexed": false,
          "internalType": "uint256",
          "name": "approvalCount",
          "type": "uint256"
        },
        {
          "indexed": false,
          "internalType": "uint256",
          "name": "requiredApprovals",
          "type": "uint256"
        }
      ],
      "name": "DisputeApproved",
      "type": "event"
    },
    {
      "anonymous": false,
      "inputs": [
        {
          "indexed": true,
          "internalType": "uint256",
          "name": "proposalId",
          "type": "uint256"
        },
        {
          "indexed": true,
          "internalType": "uint256",
          "name": "tradeId",
          "type": "uint256"
        },
        {
          "indexed": false,
          "internalType": "enum AgroasysEscrow.DisputeStatus",
          "name": "disputeStatus",
          "type": "uint8"
        }
      ],
      "name": "DisputeFinalized",
      "type": "event"
    },
    {
      "anonymous": false,
      "inputs": [
        {
          "indexed": true,
          "internalType": "uint256",
          "name": "tradeId",
          "type": "uint256"
        }
      ],
      "name": "DisputeOpenedByBuyer",
      "type": "event"
    },
    {
      "anonymous": false,
      "inputs": [
        {
          "indexed": true,
          "internalType": "uint256",
          "name": "tradeId",
          "type": "uint256"
        },
        {
          "indexed": true,
          "internalType": "uint256",
          "name": "proposalId",
          "type": "uint256"
        },
        {
          "indexed": true,
          "internalType": "address",
          "name": "recipient",
          "type": "address"
        },
        {
          "indexed": false,
          "internalType": "uint256",
          "name": "amount",
          "type": "uint256"
        },
        {
          "indexed": false,
          "internalType": "enum AgroasysEscrow.DisputeStatus",
          "name": "payoutType",
          "type": "uint8"
        }
      ],
      "name": "DisputePayout",
      "type": "event"
    },
    {
      "anonymous": false,
      "inputs": [
        {
          "indexed": true,
          "internalType": "uint256",
          "name": "proposalId",
          "type": "uint256"
        },
        {
          "indexed": true,
          "internalType": "uint256",
          "name": "tradeId",
          "type": "uint256"
        },
        {
          "indexed": true,
          "internalType": "address",
          "name": "cancelledBy",
          "type": "address"
        }
      ],
      "name": "DisputeProposalExpiredCancelled",
      "type": "event"
    },
    {
      "anonymous": false,
      "inputs": [
        {
          "indexed": true,
          "internalType": "uint256",
          "name": "proposalId",
          "type": "uint256"
        },
        {
          "indexed": true,
          "internalType": "uint256",
          "name": "tradeId",
          "type": "uint256"
        },
        {
          "indexed": false,
          "internalType": "enum AgroasysEscrow.DisputeStatus",
          "name": "disputeStatus",
          "type": "uint8"
        },
        {
          "indexed": true,
          "internalType": "address",
          "name": "proposer",
          "type": "address"
        }
      ],
      "name": "DisputeSolutionProposed",
      "type": "event"
    },
    {
      "anonymous": false,
      "inputs": [
        {
          "indexed": true,
          "internalType": "uint256",
          "name": "tradeId",
          "type": "uint256"
        },
        {
          "indexed": true,
          "internalType": "address",
          "name": "supplier",
          "type": "address"
        },
        {
          "indexed": false,
          "internalType": "uint256",
          "name": "supplierSecondTranche",
          "type": "uint256"
        }
      ],
      "name": "FinalTrancheReleased",
      "type": "event"
    },
    {
      "anonymous": false,
      "inputs": [
        {
          "indexed": true,
          "internalType": "uint256",
          "name": "tradeId",
          "type": "uint256"
        },
        {
          "indexed": true,
          "internalType": "address",
          "name": "supplier",
          "type": "address"
        },
        {
          "indexed": false,
          "internalType": "uint256",
          "name": "supplierFirstTranche",
          "type": "uint256"
        },
        {
          "indexed": true,
          "internalType": "address",
          "name": "treasury",
          "type": "address"
        },
        {
          "indexed": false,
          "internalType": "uint256",
          "name": "logisticsAmount",
          "type": "uint256"
        }
      ],
      "name": "FundsReleasedStage1",
      "type": "event"
    },
    {
      "anonymous": false,
      "inputs": [
        {
          "indexed": true,
          "internalType": "uint256",
          "name": "tradeId",
          "type": "uint256"
        },
        {
          "indexed": true,
          "internalType": "address",
          "name": "supplier",
          "type": "address"
        },
        {
          "indexed": false,
          "internalType": "uint256",
          "name": "supplierSecondTranche",
          "type": "uint256"
        },
        {
          "indexed": true,
          "internalType": "address",
          "name": "treasury",
          "type": "address"
        },
        {
          "indexed": false,
          "internalType": "uint256",
          "name": "platformFeesAmount",
          "type": "uint256"
        }
      ],
      "name": "FundsReleasedStage2",
      "type": "event"
    },
    {
      "anonymous": false,
      "inputs": [
        {
          "indexed": true,
          "internalType": "uint256",
          "name": "tradeId",
          "type": "uint256"
        },
        {
          "indexed": true,
          "internalType": "address",
          "name": "buyer",
          "type": "address"
        },
        {
          "indexed": true,
          "internalType": "bytes32",
          "name": "usdcAuthorizationNonce",
          "type": "bytes32"
        },
        {
          "indexed": false,
          "internalType": "uint256",
          "name": "amount",
          "type": "uint256"
        }
      ],
      "name": "GaslessTradeFunded",
      "type": "event"
    },
    {
      "anonymous": false,
      "inputs": [
        {
          "indexed": true,
          "internalType": "uint256",
          "name": "tradeId",
          "type": "uint256"
        },
        {
          "indexed": true,
          "internalType": "address",
          "name": "buyer",
          "type": "address"
        },
        {
          "indexed": false,
          "internalType": "uint256",
          "name": "refundedAmount",
          "type": "uint256"
        }
      ],
      "name": "InTransitTimeoutRefunded",
      "type": "event"
    },
    {
      "anonymous": false,
      "inputs": [
        {
          "indexed": true,
          "internalType": "address",
          "name": "by",
          "type": "address"
        },
        {
          "indexed": true,
          "internalType": "address",
          "name": "previousOracle",
          "type": "address"
        }
      ],
      "name": "OracleDisabledEmergency",
      "type": "event"
    },
    {
      "anonymous": false,
      "inputs": [
        {
          "indexed": true,
          "internalType": "uint256",
          "name": "proposalId",
          "type": "uint256"
        },
        {
          "indexed": true,
          "internalType": "address",
          "name": "approver",
          "type": "address"
        },
        {
          "indexed": false,
          "internalType": "uint256",
          "name": "approvalCount",
          "type": "uint256"
        },
        {
          "indexed": false,
          "internalType": "uint256",
          "name": "requiredApprovals",
          "type": "uint256"
        }
      ],
      "name": "OracleUpdateApproved",
      "type": "event"
    },
    {
      "anonymous": false,
      "inputs": [
        {
          "indexed": true,
          "internalType": "uint256",
          "name": "proposalId",
          "type": "uint256"
        },
        {
          "indexed": true,
          "internalType": "address",
          "name": "cancelledBy",
          "type": "address"
        }
      ],
      "name": "OracleUpdateProposalExpiredCancelled",
      "type": "event"
    },
    {
      "anonymous": false,
      "inputs": [
        {
          "indexed": true,
          "internalType": "uint256",
          "name": "proposalId",
          "type": "uint256"
        },
        {
          "indexed": true,
          "internalType": "address",
          "name": "proposer",
          "type": "address"
        },
        {
          "indexed": true,
          "internalType": "address",
          "name": "newOracle",
          "type": "address"
        },
        {
          "indexed": false,
          "internalType": "uint256",
          "name": "eta",
          "type": "uint256"
        },
        {
          "indexed": false,
          "internalType": "bool",
          "name": "emergencyFastTrack",
          "type": "bool"
        }
      ],
      "name": "OracleUpdateProposed",
      "type": "event"
    },
    {
      "anonymous": false,
      "inputs": [
        {
          "indexed": true,
          "internalType": "address",
          "name": "oldOracle",
          "type": "address"
        },
        {
          "indexed": true,
          "internalType": "address",
          "name": "newOracle",
          "type": "address"
        }
      ],
      "name": "OracleUpdated",
      "type": "event"
    },
    {
      "anonymous": false,
      "inputs": [
        {
          "indexed": false,
          "internalType": "address",
          "name": "account",
          "type": "address"
        }
      ],
      "name": "Paused",
      "type": "event"
    },
    {
      "anonymous": false,
      "inputs": [
        {
          "indexed": true,
          "internalType": "uint256",
          "name": "tradeId",
          "type": "uint256"
        },
        {
          "indexed": true,
          "internalType": "address",
          "name": "treasury",
          "type": "address"
        },
        {
          "indexed": false,
          "internalType": "uint256",
          "name": "platformFeesAmount",
          "type": "uint256"
        }
      ],
      "name": "PlatformFeesPaidStage1",
      "type": "event"
    },
    {
      "anonymous": false,
      "inputs": [
        {
          "indexed": true,
          "internalType": "address",
          "name": "relayer",
          "type": "address"
        },
        {
          "indexed": true,
          "internalType": "address",
          "name": "user",
          "type": "address"
        },
        {
          "indexed": true,
          "internalType": "bytes32",
          "name": "action",
          "type": "bytes32"
        },
        {
          "indexed": false,
          "internalType": "uint256",
          "name": "tradeId",
          "type": "uint256"
        }
      ],
      "name": "RelayedActionExecuted",
      "type": "event"
    },
    {
      "anonymous": false,
      "inputs": [
        {
          "indexed": true,
          "internalType": "address",
          "name": "relayer",
          "type": "address"
        },
        {
          "indexed": false,
          "internalType": "bool",
          "name": "allowed",
          "type": "bool"
        },
        {
          "indexed": true,
          "internalType": "address",
          "name": "updatedBy",
          "type": "address"
        }
      ],
      "name": "RelayerUpdated",
      "type": "event"
    },
    {
      "anonymous": false,
      "inputs": [
        {
          "indexed": true,
          "internalType": "uint256",
          "name": "tradeId",
          "type": "uint256"
        },
        {
          "indexed": true,
          "internalType": "address",
          "name": "supplier",
          "type": "address"
        },
        {
          "indexed": false,
          "internalType": "uint256",
          "name": "amount",
          "type": "uint256"
        },
        {
          "indexed": false,
          "internalType": "enum AgroasysEscrow.ClaimType",
          "name": "claimType",
          "type": "uint8"
        },
        {
          "indexed": true,
          "internalType": "address",
          "name": "triggeredBy",
          "type": "address"
        }
      ],
      "name": "SupplierPayoutTransferred",
      "type": "event"
    },
    {
      "anonymous": false,
      "inputs": [
        {
          "indexed": true,
          "internalType": "uint256",
          "name": "tradeId",
          "type": "uint256"
        },
        {
          "indexed": true,
          "internalType": "address",
          "name": "buyer",
          "type": "address"
        },
        {
          "indexed": false,
          "internalType": "uint256",
          "name": "refundedAmount",
          "type": "uint256"
        }
      ],
      "name": "TradeCancelledAfterLockTimeout",
      "type": "event"
    },
    {
      "anonymous": false,
      "inputs": [
        {
          "indexed": true,
          "internalType": "uint256",
          "name": "tradeId",
          "type": "uint256"
        },
        {
          "indexed": true,
          "internalType": "address",
          "name": "buyer",
          "type": "address"
        },
        {
          "indexed": true,
          "internalType": "address",
          "name": "supplier",
          "type": "address"
        },
        {
          "indexed": false,
          "internalType": "uint256",
          "name": "totalAmount",
          "type": "uint256"
        },
        {
          "indexed": false,
          "internalType": "uint256",
          "name": "logisticsAmount",
          "type": "uint256"
        },
        {
          "indexed": false,
          "internalType": "uint256",
          "name": "platformFeesAmount",
          "type": "uint256"
        },
        {
          "indexed": false,
          "internalType": "uint256",
          "name": "supplierFirstTranche",
          "type": "uint256"
        },
        {
          "indexed": false,
          "internalType": "uint256",
          "name": "supplierSecondTranche",
          "type": "uint256"
        },
        {
          "indexed": false,
          "internalType": "bytes32",
          "name": "ricardianHash",
          "type": "bytes32"
        }
      ],
      "name": "TradeLocked",
      "type": "event"
    },
    {
      "anonymous": false,
      "inputs": [
        {
          "indexed": true,
          "internalType": "address",
          "name": "treasuryIdentity",
          "type": "address"
        },
        {
          "indexed": true,
          "internalType": "address",
          "name": "payoutReceiver",
          "type": "address"
        },
        {
          "indexed": false,
          "internalType": "uint256",
          "name": "amount",
          "type": "uint256"
        },
        {
          "indexed": false,
          "internalType": "address",
          "name": "triggeredBy",
          "type": "address"
        }
      ],
      "name": "TreasuryClaimed",
      "type": "event"
    },
    {
      "anonymous": false,
      "inputs": [
        {
          "indexed": true,
          "internalType": "uint256",
          "name": "proposalId",
          "type": "uint256"
        },
        {
          "indexed": true,
          "internalType": "address",
          "name": "approver",
          "type": "address"
        },
        {
          "indexed": false,
          "internalType": "uint256",
          "name": "approvalCount",
          "type": "uint256"
        },
        {
          "indexed": false,
          "internalType": "uint256",
          "name": "requiredApprovals",
          "type": "uint256"
        }
      ],
      "name": "TreasuryPayoutAddressUpdateApproved",
      "type": "event"
    },
    {
      "anonymous": false,
      "inputs": [
        {
          "indexed": true,
          "internalType": "uint256",
          "name": "proposalId",
          "type": "uint256"
        },
        {
          "indexed": true,
          "internalType": "address",
          "name": "cancelledBy",
          "type": "address"
        }
      ],
      "name": "TreasuryPayoutAddressUpdateProposalExpiredCancelled",
      "type": "event"
    },
    {
      "anonymous": false,
      "inputs": [
        {
          "indexed": true,
          "internalType": "uint256",
          "name": "proposalId",
          "type": "uint256"
        },
        {
          "indexed": true,
          "internalType": "address",
          "name": "proposer",
          "type": "address"
        },
        {
          "indexed": true,
          "internalType": "address",
          "name": "newPayoutReceiver",
          "type": "address"
        },
        {
          "indexed": false,
          "internalType": "uint256",
          "name": "eta",
          "type": "uint256"
        }
      ],
      "name": "TreasuryPayoutAddressUpdateProposed",
      "type": "event"
    },
    {
      "anonymous": false,
      "inputs": [
        {
          "indexed": true,
          "internalType": "address",
          "name": "oldPayoutReceiver",
          "type": "address"
        },
        {
          "indexed": true,
          "internalType": "address",
          "name": "newPayoutReceiver",
          "type": "address"
        }
      ],
      "name": "TreasuryPayoutAddressUpdated",
      "type": "event"
    },
    {
      "anonymous": false,
      "inputs": [
        {
          "indexed": true,
          "internalType": "address",
          "name": "approver",
          "type": "address"
        },
        {
          "indexed": false,
          "internalType": "uint256",
          "name": "approvalCount",
          "type": "uint256"
        },
        {
          "indexed": false,
          "internalType": "uint256",
          "name": "requiredApprovals",
          "type": "uint256"
        }
      ],
      "name": "UnpauseApproved",
      "type": "event"
    },
    {
      "anonymous": false,
      "inputs": [
        {
          "indexed": true,
          "internalType": "address",
          "name": "cancelledBy",
          "type": "address"
        }
      ],
      "name": "UnpauseProposalCancelled",
      "type": "event"
    },
    {
      "anonymous": false,
      "inputs": [
        {
          "indexed": true,
          "internalType": "address",
          "name": "proposer",
          "type": "address"
        }
      ],
      "name": "UnpauseProposed",
      "type": "event"
    },
    {
      "anonymous": false,
      "inputs": [
        {
          "indexed": false,
          "internalType": "address",
          "name": "account",
          "type": "address"
        }
      ],
      "name": "Unpaused",
      "type": "event"
    },
    {
      "inputs": [],
      "name": "ACTION_CANCEL_LOCKED_TIMEOUT",
      "outputs": [
        {
          "internalType": "bytes32",
          "name": "",
          "type": "bytes32"
        }
      ],
      "stateMutability": "view",
      "type": "function"
    },
    {
      "inputs": [],
      "name": "ACTION_CREATE_TRADE",
      "outputs": [
        {
          "internalType": "bytes32",
          "name": "",
          "type": "bytes32"
        }
      ],
      "stateMutability": "view",
      "type": "function"
    },
    {
      "inputs": [],
      "name": "ACTION_FINALIZE_AFTER_DISPUTE_WINDOW",
      "outputs": [
        {
          "internalType": "bytes32",
          "name": "",
          "type": "bytes32"
        }
      ],
      "stateMutability": "view",
      "type": "function"
    },
    {
      "inputs": [],
      "name": "ACTION_OPEN_DISPUTE",
      "outputs": [
        {
          "internalType": "bytes32",
          "name": "",
          "type": "bytes32"
        }
      ],
      "stateMutability": "view",
      "type": "function"
    },
    {
      "inputs": [],
      "name": "ACTION_REFUND_IN_TRANSIT_TIMEOUT",
      "outputs": [
        {
          "internalType": "bytes32",
          "name": "",
          "type": "bytes32"
        }
      ],
      "stateMutability": "view",
      "type": "function"
    },
    {
      "inputs": [],
      "name": "DISPUTE_PROPOSAL_TTL",
      "outputs": [
        {
          "internalType": "uint256",
          "name": "",
          "type": "uint256"
        }
      ],
      "stateMutability": "view",
      "type": "function"
    },
    {
      "inputs": [],
      "name": "DISPUTE_WINDOW",
      "outputs": [
        {
          "internalType": "uint256",
          "name": "",
          "type": "uint256"
        }
      ],
      "stateMutability": "view",
      "type": "function"
    },
    {
      "inputs": [],
      "name": "GOVERNANCE_PROPOSAL_TTL",
      "outputs": [
        {
          "internalType": "uint256",
          "name": "",
          "type": "uint256"
        }
      ],
      "stateMutability": "view",
      "type": "function"
    },
    {
      "inputs": [],
      "name": "IN_TRANSIT_TIMEOUT",
      "outputs": [
        {
          "internalType": "uint256",
          "name": "",
          "type": "uint256"
        }
      ],
      "stateMutability": "view",
      "type": "function"
    },
    {
      "inputs": [],
      "name": "LOCK_TIMEOUT",
      "outputs": [
        {
          "internalType": "uint256",
          "name": "",
          "type": "uint256"
        }
      ],
      "stateMutability": "view",
      "type": "function"
    },
    {
      "inputs": [],
      "name": "adminAddCounter",
      "outputs": [
        {
          "internalType": "uint256",
          "name": "",
          "type": "uint256"
        }
      ],
      "stateMutability": "view",
      "type": "function"
    },
    {
      "inputs": [
        {
          "internalType": "uint256",
          "name": "",
          "type": "uint256"
        },
        {
          "internalType": "address",
          "name": "",
          "type": "address"
        }
      ],
      "name": "adminAddHasApproved",
      "outputs": [
        {
          "internalType": "bool",
          "name": "",
          "type": "bool"
        }
      ],
      "stateMutability": "view",
      "type": "function"
    },
    {
      "inputs": [
        {
          "internalType": "uint256",
          "name": "",
          "type": "uint256"
        }
      ],
      "name": "adminAddProposalCancelled",
      "outputs": [
        {
          "internalType": "bool",
          "name": "",
          "type": "bool"
        }
      ],
      "stateMutability": "view",
      "type": "function"
    },
    {
      "inputs": [
        {
          "internalType": "uint256",
          "name": "",
          "type": "uint256"
        }
      ],
      "name": "adminAddProposalExpiresAt",
      "outputs": [
        {
          "internalType": "uint256",
          "name": "",
          "type": "uint256"
        }
      ],
      "stateMutability": "view",
      "type": "function"
    },
    {
      "inputs": [
        {
          "internalType": "uint256",
          "name": "",
          "type": "uint256"
        }
      ],
      "name": "adminAddProposals",
      "outputs": [
        {
          "internalType": "address",
          "name": "newAdmin",
          "type": "address"
        },
        {
          "internalType": "uint256",
          "name": "approvalCount",
          "type": "uint256"
        },
        {
          "internalType": "bool",
          "name": "executed",
          "type": "bool"
        },
        {
          "internalType": "uint256",
          "name": "createdAt",
          "type": "uint256"
        },
        {
          "internalType": "uint256",
          "name": "eta",
          "type": "uint256"
        },
        {
          "internalType": "address",
          "name": "proposer",
          "type": "address"
        }
      ],
      "stateMutability": "view",
      "type": "function"
    },
    {
      "inputs": [
        {
          "internalType": "uint256",
          "name": "",
          "type": "uint256"
        }
      ],
      "name": "admins",
      "outputs": [
        {
          "internalType": "address",
          "name": "",
          "type": "address"
        }
      ],
      "stateMutability": "view",
      "type": "function"
    },
    {
      "inputs": [
        {
          "internalType": "uint256",
          "name": "_proposalId",
          "type": "uint256"
        }
      ],
      "name": "approveAddAdmin",
      "outputs": [],
      "stateMutability": "nonpayable",
      "type": "function"
    },
    {
      "inputs": [
        {
          "internalType": "uint256",
          "name": "_proposalId",
          "type": "uint256"
        }
      ],
      "name": "approveDisputeSolution",
      "outputs": [],
      "stateMutability": "nonpayable",
      "type": "function"
    },
    {
      "inputs": [
        {
          "internalType": "uint256",
          "name": "_proposalId",
          "type": "uint256"
        }
      ],
      "name": "approveOracleUpdate",
      "outputs": [],
      "stateMutability": "nonpayable",
      "type": "function"
    },
    {
      "inputs": [
        {
          "internalType": "uint256",
          "name": "_proposalId",
          "type": "uint256"
        }
      ],
      "name": "approveTreasuryPayoutAddressUpdate",
      "outputs": [],
      "stateMutability": "nonpayable",
      "type": "function"
    },
    {
      "inputs": [],
      "name": "approveUnpause",
      "outputs": [],
      "stateMutability": "nonpayable",
      "type": "function"
    },
    {
      "inputs": [
        {
          "internalType": "address",
          "name": "",
          "type": "address"
        }
      ],
      "name": "authorizationNonces",
      "outputs": [
        {
          "internalType": "uint256",
          "name": "",
          "type": "uint256"
        }
      ],
      "stateMutability": "view",
      "type": "function"
    },
    {
      "inputs": [
        {
          "internalType": "uint256",
          "name": "_tradeId",
          "type": "uint256"
        }
      ],
      "name": "buyerRefundableAmount",
      "outputs": [
        {
          "internalType": "uint256",
          "name": "",
          "type": "uint256"
        }
      ],
      "stateMutability": "view",
      "type": "function"
    },
    {
      "inputs": [
        {
          "internalType": "uint256",
          "name": "_proposalId",
          "type": "uint256"
        }
      ],
      "name": "cancelExpiredAddAdminProposal",
      "outputs": [],
      "stateMutability": "nonpayable",
      "type": "function"
    },
    {
      "inputs": [
        {
          "internalType": "uint256",
          "name": "_proposalId",
          "type": "uint256"
        }
      ],
      "name": "cancelExpiredDisputeProposal",
      "outputs": [],
      "stateMutability": "nonpayable",
      "type": "function"
    },
    {
      "inputs": [
        {
          "internalType": "uint256",
          "name": "_proposalId",
          "type": "uint256"
        }
      ],
      "name": "cancelExpiredOracleUpdateProposal",
      "outputs": [],
      "stateMutability": "nonpayable",
      "type": "function"
    },
    {
      "inputs": [
        {
          "internalType": "uint256",
          "name": "_proposalId",
          "type": "uint256"
        }
      ],
      "name": "cancelExpiredTreasuryPayoutAddressUpdateProposal",
      "outputs": [],
      "stateMutability": "nonpayable",
      "type": "function"
    },
    {
      "inputs": [
        {
          "internalType": "uint256",
          "name": "_tradeId",
          "type": "uint256"
        },
        {
          "internalType": "uint256",
          "name": "_authorizationNonce",
          "type": "uint256"
        },
        {
          "internalType": "uint256",
          "name": "_authorizationDeadline",
          "type": "uint256"
        },
        {
          "internalType": "bytes",
          "name": "_authorizationSignature",
          "type": "bytes"
        }
      ],
      "name": "cancelLockedTradeAfterTimeoutWithAuthorization",
      "outputs": [],
      "stateMutability": "nonpayable",
      "type": "function"
    },
    {
      "inputs": [],
      "name": "cancelUnpauseProposal",
      "outputs": [],
      "stateMutability": "nonpayable",
      "type": "function"
    },
    {
      "inputs": [],
      "name": "claimTreasury",
      "outputs": [],
      "stateMutability": "nonpayable",
      "type": "function"
    },
    {
      "inputs": [
        {
          "internalType": "address",
          "name": "",
          "type": "address"
        }
      ],
      "name": "claimableUsdc",
      "outputs": [
        {
          "internalType": "uint256",
          "name": "",
          "type": "uint256"
        }
      ],
      "stateMutability": "view",
      "type": "function"
    },
    {
      "inputs": [],
      "name": "claimsPaused",
      "outputs": [
        {
          "internalType": "bool",
          "name": "",
          "type": "bool"
        }
      ],
      "stateMutability": "view",
      "type": "function"
    },
    {
      "inputs": [
        {
          "internalType": "uint256",
          "name": "_tradeId",
          "type": "uint256"
        }
      ],
      "name": "confirmArrival",
      "outputs": [],
      "stateMutability": "nonpayable",
      "type": "function"
    },
    {
      "inputs": [
        {
          "internalType": "address",
          "name": "_buyer",
          "type": "address"
        },
        {
          "internalType": "address",
          "name": "_supplier",
          "type": "address"
        },
        {
          "internalType": "uint256",
          "name": "_totalAmount",
          "type": "uint256"
        },
        {
          "internalType": "uint256",
          "name": "_logisticsAmount",
          "type": "uint256"
        },
        {
          "internalType": "uint256",
          "name": "_platformFeesAmount",
          "type": "uint256"
        },
        {
          "internalType": "uint256",
          "name": "_supplierFirstTranche",
          "type": "uint256"
        },
        {
          "internalType": "uint256",
          "name": "_supplierSecondTranche",
          "type": "uint256"
        },
        {
          "internalType": "bytes32",
          "name": "_ricardianHash",
          "type": "bytes32"
        },
        {
          "internalType": "uint256",
          "name": "_authorizationNonce",
          "type": "uint256"
        },
        {
          "internalType": "uint256",
          "name": "_authorizationDeadline",
          "type": "uint256"
        },
        {
          "internalType": "bytes",
          "name": "_authorizationSignature",
          "type": "bytes"
        },
        {
          "components": [
            {
              "internalType": "uint256",
              "name": "validAfter",
              "type": "uint256"
            },
            {
              "internalType": "uint256",
              "name": "validBefore",
              "type": "uint256"
            },
            {
              "internalType": "bytes32",
              "name": "nonce",
              "type": "bytes32"
            },
            {
              "internalType": "uint8",
              "name": "v",
              "type": "uint8"
            },
            {
              "internalType": "bytes32",
              "name": "r",
              "type": "bytes32"
            },
            {
              "internalType": "bytes32",
              "name": "s",
              "type": "bytes32"
            }
          ],
          "internalType": "struct AgroasysEscrow.UsdcAuthorization",
          "name": "_usdcAuthorization",
          "type": "tuple"
        }
      ],
      "name": "createTradeWithAuthorization",
      "outputs": [
        {
          "internalType": "uint256",
          "name": "",
          "type": "uint256"
        }
      ],
      "stateMutability": "nonpayable",
      "type": "function"
    },
    {
      "inputs": [],
      "name": "disableOracleEmergency",
      "outputs": [],
      "stateMutability": "nonpayable",
      "type": "function"
    },
    {
      "inputs": [],
      "name": "disputeCounter",
      "outputs": [
        {
          "internalType": "uint256",
          "name": "",
          "type": "uint256"
        }
      ],
      "stateMutability": "view",
      "type": "function"
    },
    {
      "inputs": [
        {
          "internalType": "uint256",
          "name": "",
          "type": "uint256"
        },
        {
          "internalType": "address",
          "name": "",
          "type": "address"
        }
      ],
      "name": "disputeHasApproved",
      "outputs": [
        {
          "internalType": "bool",
          "name": "",
          "type": "bool"
        }
      ],
      "stateMutability": "view",
      "type": "function"
    },
    {
      "inputs": [
        {
          "internalType": "uint256",
          "name": "",
          "type": "uint256"
        }
      ],
      "name": "disputeProposalCancelled",
      "outputs": [
        {
          "internalType": "bool",
          "name": "",
          "type": "bool"
        }
      ],
      "stateMutability": "view",
      "type": "function"
    },
    {
      "inputs": [
        {
          "internalType": "uint256",
          "name": "",
          "type": "uint256"
        }
      ],
      "name": "disputeProposalExpiresAt",
      "outputs": [
        {
          "internalType": "uint256",
          "name": "",
          "type": "uint256"
        }
      ],
      "stateMutability": "view",
      "type": "function"
    },
    {
      "inputs": [
        {
          "internalType": "uint256",
          "name": "",
          "type": "uint256"
        }
      ],
      "name": "disputeProposals",
      "outputs": [
        {
          "internalType": "uint256",
          "name": "tradeId",
          "type": "uint256"
        },
        {
          "internalType": "enum AgroasysEscrow.DisputeStatus",
          "name": "disputeStatus",
          "type": "uint8"
        },
        {
          "internalType": "uint256",
          "name": "approvalCount",
          "type": "uint256"
        },
        {
          "internalType": "bool",
          "name": "executed",
          "type": "bool"
        },
        {
          "internalType": "uint256",
          "name": "createdAt",
          "type": "uint256"
        },
        {
          "internalType": "address",
          "name": "proposer",
          "type": "address"
        }
      ],
      "stateMutability": "view",
      "type": "function"
    },
    {
      "inputs": [
        {
          "internalType": "uint256",
          "name": "_proposalId",
          "type": "uint256"
        }
      ],
      "name": "executeAddAdmin",
      "outputs": [],
      "stateMutability": "nonpayable",
      "type": "function"
    },
    {
      "inputs": [
        {
          "internalType": "uint256",
          "name": "_proposalId",
          "type": "uint256"
        }
      ],
      "name": "executeOracleUpdate",
      "outputs": [],
      "stateMutability": "nonpayable",
      "type": "function"
    },
    {
      "inputs": [
        {
          "internalType": "uint256",
          "name": "_proposalId",
          "type": "uint256"
        }
      ],
      "name": "executeTreasuryPayoutAddressUpdate",
      "outputs": [],
      "stateMutability": "nonpayable",
      "type": "function"
    },
    {
      "inputs": [
        {
          "internalType": "uint256",
          "name": "_tradeId",
          "type": "uint256"
        }
      ],
      "name": "finalizeAfterDisputeWindow",
      "outputs": [],
      "stateMutability": "nonpayable",
      "type": "function"
    },
    {
      "inputs": [
        {
          "internalType": "uint256",
          "name": "_tradeId",
          "type": "uint256"
        },
        {
          "internalType": "uint256",
          "name": "_authorizationNonce",
          "type": "uint256"
        },
        {
          "internalType": "uint256",
          "name": "_authorizationDeadline",
          "type": "uint256"
        },
        {
          "internalType": "bytes",
          "name": "_authorizationSignature",
          "type": "bytes"
        }
      ],
      "name": "finalizeAfterDisputeWindowWithAuthorization",
      "outputs": [],
      "stateMutability": "nonpayable",
      "type": "function"
    },
    {
      "inputs": [
        {
          "internalType": "address",
          "name": "user",
          "type": "address"
        }
      ],
      "name": "getAuthorizationNonce",
      "outputs": [
        {
          "internalType": "uint256",
          "name": "",
          "type": "uint256"
        }
      ],
      "stateMutability": "view",
      "type": "function"
    },
    {
      "inputs": [
        {
          "internalType": "address",
          "name": "buyer",
          "type": "address"
        }
      ],
      "name": "getBuyerNonce",
      "outputs": [
        {
          "internalType": "uint256",
          "name": "",
          "type": "uint256"
        }
      ],
      "stateMutability": "view",
      "type": "function"
    },
    {
      "inputs": [],
      "name": "getNextTradeId",
      "outputs": [
        {
          "internalType": "uint256",
          "name": "",
          "type": "uint256"
        }
      ],
      "stateMutability": "view",
      "type": "function"
    },
    {
      "inputs": [],
      "name": "governanceApprovals",
      "outputs": [
        {
          "internalType": "uint256",
          "name": "",
          "type": "uint256"
        }
      ],
      "stateMutability": "view",
      "type": "function"
    },
    {
      "inputs": [],
      "name": "governanceTimelock",
      "outputs": [
        {
          "internalType": "uint256",
          "name": "",
          "type": "uint256"
        }
      ],
      "stateMutability": "view",
      "type": "function"
    },
    {
      "inputs": [],
      "name": "hasActiveUnpauseProposal",
      "outputs": [
        {
          "internalType": "bool",
          "name": "",
          "type": "bool"
        }
      ],
      "stateMutability": "view",
      "type": "function"
    },
    {
      "inputs": [],
      "name": "hasPendingTreasuryPayoutAddressUpdateProposal",
      "outputs": [
        {
          "internalType": "bool",
          "name": "",
          "type": "bool"
        }
      ],
      "stateMutability": "view",
      "type": "function"
    },
    {
      "inputs": [
        {
          "internalType": "uint256",
          "name": "",
          "type": "uint256"
        }
      ],
      "name": "inTransitSince",
      "outputs": [
        {
          "internalType": "uint256",
          "name": "",
          "type": "uint256"
        }
      ],
      "stateMutability": "view",
      "type": "function"
    },
    {
      "inputs": [
        {
          "internalType": "address",
          "name": "",
          "type": "address"
        }
      ],
      "name": "isAdmin",
      "outputs": [
        {
          "internalType": "bool",
          "name": "",
          "type": "bool"
        }
      ],
      "stateMutability": "view",
      "type": "function"
    },
    {
      "inputs": [
        {
          "internalType": "address",
          "name": "",
          "type": "address"
        }
      ],
      "name": "isRelayer",
      "outputs": [
        {
          "internalType": "bool",
          "name": "",
          "type": "bool"
        }
      ],
      "stateMutability": "view",
      "type": "function"
    },
    {
      "inputs": [
        {
          "internalType": "uint256",
          "name": "_tradeId",
          "type": "uint256"
        }
      ],
      "name": "nonRefundableFeeAmount",
      "outputs": [
        {
          "internalType": "uint256",
          "name": "",
          "type": "uint256"
        }
      ],
      "stateMutability": "view",
      "type": "function"
    },
    {
      "inputs": [
        {
          "internalType": "address",
          "name": "",
          "type": "address"
        }
      ],
      "name": "nonces",
      "outputs": [
        {
          "internalType": "uint256",
          "name": "",
          "type": "uint256"
        }
      ],
      "stateMutability": "view",
      "type": "function"
    },
    {
      "inputs": [
        {
          "internalType": "uint256",
          "name": "_tradeId",
          "type": "uint256"
        },
        {
          "internalType": "uint256",
          "name": "_authorizationNonce",
          "type": "uint256"
        },
        {
          "internalType": "uint256",
          "name": "_authorizationDeadline",
          "type": "uint256"
        },
        {
          "internalType": "bytes",
          "name": "_authorizationSignature",
          "type": "bytes"
        }
      ],
      "name": "openDisputeWithAuthorization",
      "outputs": [],
      "stateMutability": "nonpayable",
      "type": "function"
    },
    {
      "inputs": [],
      "name": "oracleActive",
      "outputs": [
        {
          "internalType": "bool",
          "name": "",
          "type": "bool"
        }
      ],
      "stateMutability": "view",
      "type": "function"
    },
    {
      "inputs": [],
      "name": "oracleAddress",
      "outputs": [
        {
          "internalType": "address",
          "name": "",
          "type": "address"
        }
      ],
      "stateMutability": "view",
      "type": "function"
    },
    {
      "inputs": [],
      "name": "oracleUpdateCounter",
      "outputs": [
        {
          "internalType": "uint256",
          "name": "",
          "type": "uint256"
        }
      ],
      "stateMutability": "view",
      "type": "function"
    },
    {
      "inputs": [
        {
          "internalType": "uint256",
          "name": "",
          "type": "uint256"
        },
        {
          "internalType": "address",
          "name": "",
          "type": "address"
        }
      ],
      "name": "oracleUpdateHasApproved",
      "outputs": [
        {
          "internalType": "bool",
          "name": "",
          "type": "bool"
        }
      ],
      "stateMutability": "view",
      "type": "function"
    },
    {
      "inputs": [
        {
          "internalType": "uint256",
          "name": "",
          "type": "uint256"
        }
      ],
      "name": "oracleUpdateProposalCancelled",
      "outputs": [
        {
          "internalType": "bool",
          "name": "",
          "type": "bool"
        }
      ],
      "stateMutability": "view",
      "type": "function"
    },
    {
      "inputs": [
        {
          "internalType": "uint256",
          "name": "",
          "type": "uint256"
        }
      ],
      "name": "oracleUpdateProposalExpiresAt",
      "outputs": [
        {
          "internalType": "uint256",
          "name": "",
          "type": "uint256"
        }
      ],
      "stateMutability": "view",
      "type": "function"
    },
    {
      "inputs": [
        {
          "internalType": "uint256",
          "name": "",
          "type": "uint256"
        }
      ],
      "name": "oracleUpdateProposals",
      "outputs": [
        {
          "internalType": "address",
          "name": "newOracle",
          "type": "address"
        },
        {
          "internalType": "uint256",
          "name": "approvalCount",
          "type": "uint256"
        },
        {
          "internalType": "bool",
          "name": "executed",
          "type": "bool"
        },
        {
          "internalType": "uint256",
          "name": "createdAt",
          "type": "uint256"
        },
        {
          "internalType": "uint256",
          "name": "eta",
          "type": "uint256"
        },
        {
          "internalType": "address",
          "name": "proposer",
          "type": "address"
        },
        {
          "internalType": "bool",
          "name": "emergencyFastTrack",
          "type": "bool"
        }
      ],
      "stateMutability": "view",
      "type": "function"
    },
    {
      "inputs": [],
      "name": "pause",
      "outputs": [],
      "stateMutability": "nonpayable",
      "type": "function"
    },
    {
      "inputs": [],
      "name": "pauseClaims",
      "outputs": [],
      "stateMutability": "nonpayable",
      "type": "function"
    },
    {
      "inputs": [],
      "name": "paused",
      "outputs": [
        {
          "internalType": "bool",
          "name": "",
          "type": "bool"
        }
      ],
      "stateMutability": "view",
      "type": "function"
    },
    {
      "inputs": [
        {
          "internalType": "address",
          "name": "_newAdmin",
          "type": "address"
        }
      ],
      "name": "proposeAddAdmin",
      "outputs": [
        {
          "internalType": "uint256",
          "name": "",
          "type": "uint256"
        }
      ],
      "stateMutability": "nonpayable",
      "type": "function"
    },
    {
      "inputs": [
        {
          "internalType": "uint256",
          "name": "_tradeId",
          "type": "uint256"
        },
        {
          "internalType": "enum AgroasysEscrow.DisputeStatus",
          "name": "_disputeStatus",
          "type": "uint8"
        }
      ],
      "name": "proposeDisputeSolution",
      "outputs": [
        {
          "internalType": "uint256",
          "name": "",
          "type": "uint256"
        }
      ],
      "stateMutability": "nonpayable",
      "type": "function"
    },
    {
      "inputs": [
        {
          "internalType": "address",
          "name": "_newOracle",
          "type": "address"
        }
      ],
      "name": "proposeOracleUpdate",
      "outputs": [
        {
          "internalType": "uint256",
          "name": "",
          "type": "uint256"
        }
      ],
      "stateMutability": "nonpayable",
      "type": "function"
    },
    {
      "inputs": [
        {
          "internalType": "address",
          "name": "_newPayoutReceiver",
          "type": "address"
        }
      ],
      "name": "proposeTreasuryPayoutAddressUpdate",
      "outputs": [
        {
          "internalType": "uint256",
          "name": "",
          "type": "uint256"
        }
      ],
      "stateMutability": "nonpayable",
      "type": "function"
    },
    {
      "inputs": [],
      "name": "proposeUnpause",
      "outputs": [
        {
          "internalType": "bool",
          "name": "",
          "type": "bool"
        }
      ],
      "stateMutability": "nonpayable",
      "type": "function"
    },
    {
      "inputs": [
        {
          "internalType": "uint256",
          "name": "_tradeId",
          "type": "uint256"
        },
        {
          "internalType": "uint256",
          "name": "_authorizationNonce",
          "type": "uint256"
        },
        {
          "internalType": "uint256",
          "name": "_authorizationDeadline",
          "type": "uint256"
        },
        {
          "internalType": "bytes",
          "name": "_authorizationSignature",
          "type": "bytes"
        }
      ],
      "name": "refundInTransitAfterTimeoutWithAuthorization",
      "outputs": [],
      "stateMutability": "nonpayable",
      "type": "function"
    },
    {
      "inputs": [
        {
          "internalType": "uint256",
          "name": "_tradeId",
          "type": "uint256"
        }
      ],
      "name": "releaseFundsStage1",
      "outputs": [],
      "stateMutability": "nonpayable",
      "type": "function"
    },
    {
      "inputs": [],
      "name": "requiredApprovals",
      "outputs": [
        {
          "internalType": "uint256",
          "name": "",
          "type": "uint256"
        }
      ],
      "stateMutability": "view",
      "type": "function"
    },
    {
      "inputs": [
        {
          "internalType": "address",
          "name": "relayer",
          "type": "address"
        },
        {
          "internalType": "bool",
          "name": "allowed",
          "type": "bool"
        }
      ],
      "name": "setRelayer",
      "outputs": [],
      "stateMutability": "nonpayable",
      "type": "function"
    },
    {
      "inputs": [],
      "name": "totalClaimableUsdc",
      "outputs": [
        {
          "internalType": "uint256",
          "name": "",
          "type": "uint256"
        }
      ],
      "stateMutability": "view",
      "type": "function"
    },
    {
      "inputs": [
        {
          "internalType": "uint256",
          "name": "",
          "type": "uint256"
        }
      ],
      "name": "tradeActiveDisputeProposalId",
      "outputs": [
        {
          "internalType": "uint256",
          "name": "",
          "type": "uint256"
        }
      ],
      "stateMutability": "view",
      "type": "function"
    },
    {
      "inputs": [],
      "name": "tradeCounter",
      "outputs": [
        {
          "internalType": "uint256",
          "name": "",
          "type": "uint256"
        }
      ],
      "stateMutability": "view",
      "type": "function"
    },
    {
      "inputs": [
        {
          "internalType": "uint256",
          "name": "",
          "type": "uint256"
        }
      ],
      "name": "tradeHasActiveDisputeProposal",
      "outputs": [
        {
          "internalType": "bool",
          "name": "",
          "type": "bool"
        }
      ],
      "stateMutability": "view",
      "type": "function"
    },
    {
      "inputs": [
        {
          "internalType": "uint256",
          "name": "",
          "type": "uint256"
        }
      ],
      "name": "trades",
      "outputs": [
        {
          "internalType": "uint256",
          "name": "tradeId",
          "type": "uint256"
        },
        {
          "internalType": "bytes32",
          "name": "ricardianHash",
          "type": "bytes32"
        },
        {
          "internalType": "enum AgroasysEscrow.TradeStatus",
          "name": "status",
          "type": "uint8"
        },
        {
          "internalType": "address",
          "name": "buyerAddress",
          "type": "address"
        },
        {
          "internalType": "address",
          "name": "supplierAddress",
          "type": "address"
        },
        {
          "internalType": "uint256",
          "name": "totalAmountLocked",
          "type": "uint256"
        },
        {
          "internalType": "uint256",
          "name": "logisticsAmount",
          "type": "uint256"
        },
        {
          "internalType": "uint256",
          "name": "platformFeesAmount",
          "type": "uint256"
        },
        {
          "internalType": "uint256",
          "name": "supplierFirstTranche",
          "type": "uint256"
        },
        {
          "internalType": "uint256",
          "name": "supplierSecondTranche",
          "type": "uint256"
        },
        {
          "internalType": "uint256",
          "name": "createdAt",
          "type": "uint256"
        },
        {
          "internalType": "uint256",
          "name": "arrivalTimestamp",
          "type": "uint256"
        }
      ],
      "stateMutability": "view",
      "type": "function"
    },
    {
      "inputs": [],
      "name": "treasuryAddress",
      "outputs": [
        {
          "internalType": "address",
          "name": "",
          "type": "address"
        }
      ],
      "stateMutability": "view",
      "type": "function"
    },
    {
      "inputs": [],
      "name": "treasuryPayoutAddress",
      "outputs": [
        {
          "internalType": "address",
          "name": "",
          "type": "address"
        }
      ],
      "stateMutability": "view",
      "type": "function"
    },
    {
      "inputs": [],
      "name": "treasuryPayoutAddressUpdateCounter",
      "outputs": [
        {
          "internalType": "uint256",
          "name": "",
          "type": "uint256"
        }
      ],
      "stateMutability": "view",
      "type": "function"
    },
    {
      "inputs": [
        {
          "internalType": "uint256",
          "name": "",
          "type": "uint256"
        },
        {
          "internalType": "address",
          "name": "",
          "type": "address"
        }
      ],
      "name": "treasuryPayoutAddressUpdateHasApproved",
      "outputs": [
        {
          "internalType": "bool",
          "name": "",
          "type": "bool"
        }
      ],
      "stateMutability": "view",
      "type": "function"
    },
    {
      "inputs": [
        {
          "internalType": "uint256",
          "name": "",
          "type": "uint256"
        }
      ],
      "name": "treasuryPayoutAddressUpdateProposalCancelled",
      "outputs": [
        {
          "internalType": "bool",
          "name": "",
          "type": "bool"
        }
      ],
      "stateMutability": "view",
      "type": "function"
    },
    {
      "inputs": [
        {
          "internalType": "uint256",
          "name": "",
          "type": "uint256"
        }
      ],
      "name": "treasuryPayoutAddressUpdateProposalExpiresAt",
      "outputs": [
        {
          "internalType": "uint256",
          "name": "",
          "type": "uint256"
        }
      ],
      "stateMutability": "view",
      "type": "function"
    },
    {
      "inputs": [
        {
          "internalType": "uint256",
          "name": "",
          "type": "uint256"
        }
      ],
      "name": "treasuryPayoutAddressUpdateProposals",
      "outputs": [
        {
          "internalType": "address",
          "name": "newPayoutReceiver",
          "type": "address"
        },
        {
          "internalType": "uint256",
          "name": "approvalCount",
          "type": "uint256"
        },
        {
          "internalType": "bool",
          "name": "executed",
          "type": "bool"
        },
        {
          "internalType": "uint256",
          "name": "createdAt",
          "type": "uint256"
        },
        {
          "internalType": "uint256",
          "name": "eta",
          "type": "uint256"
        },
        {
          "internalType": "address",
          "name": "proposer",
          "type": "address"
        }
      ],
      "stateMutability": "view",
      "type": "function"
    },
    {
      "inputs": [],
      "name": "unpauseClaims",
      "outputs": [],
      "stateMutability": "nonpayable",
      "type": "function"
    },
    {
      "inputs": [
        {
          "internalType": "address",
          "name": "",
          "type": "address"
        }
      ],
      "name": "unpauseHasApproved",
      "outputs": [
        {
          "internalType": "bool",
          "name": "",
          "type": "bool"
        }
      ],
      "stateMutability": "view",
      "type": "function"
    },
    {
      "inputs": [],
      "name": "unpauseProposal",
      "outputs": [
        {
          "internalType": "uint256",
          "name": "approvalCount",
          "type": "uint256"
        },
        {
          "internalType": "bool",
          "name": "executed",
          "type": "bool"
        },
        {
          "internalType": "uint256",
          "name": "createdAt",
          "type": "uint256"
        },
        {
          "internalType": "address",
          "name": "proposer",
          "type": "address"
        }
      ],
      "stateMutability": "view",
      "type": "function"
    },
    {
      "inputs": [],
      "name": "usdcToken",
      "outputs": [
        {
          "internalType": "contract IERC20",
          "name": "",
          "type": "address"
        }
      ],
      "stateMutability": "view",
      "type": "function"
    }
  ],
  "bytecode": "0x60a080604052346104d757615c1c803803809161001c82856104f2565b833981019060a0818303126104d75761003481610515565b9061004160208201610515565b9061004e60408201610515565b60608201519091906001600160401b0381116104d75781019480601f870112156104d7578551956001600160401b0387116104dc578660051b9060405197610099602084018a6104f2565b88526020808901928201019283116104d757602001905b8282106104bf575050506080015160017f9b779b17422d0df92223018b32b4d1fa46e071723d6817e2486d003becc55f0055926001600160a01b031691821561048a576001600160a01b0316908115610454576001600160a01b031691821561041c57600284106103d7578385511061039e57601080546001600160a01b0319908116929092179055600d8054821692909217909155600e8054821683179055600f805490911690911790556014556000905b80518210156102a757600582901b810160200151600092906001600160a01b0316801561027657808452601260205260ff60408520541661023f576011546801000000000000000081101561022b576001810180601155811015610217577f31ecc21a745e3968a04e9570e4425bc18fa8019c68028196b546d1669c200c680180546001600160a01b03191682179055835260126020526040909220805460ff191660019081179091559190910190610163565b634e487b7160e01b85526032600452602485fd5b634e487b7160e01b85526041600452602485fd5b60405162461bcd60e51b815260206004820152600f60248201526e323ab83634b1b0ba329030b236b4b760891b6044820152606490fd5b60405162461bcd60e51b81526020600482015260096024820152683130b21030b236b4b760b91b6044820152606490fd5b62015180601d55600f805460ff60a81b1916600160a81b17905560408051906102d090826104f2565b600e81526d4167726f61737973457363726f7760901b602090910152604080517f60b5ba687a3fb28c60c02b55848ec4ac87ec13f39917c0f415531752131bff419161031c90826104f2565b600181526020810190603160f81b82525190206040519060208201927f8b73c3c69bb8fe3d512ecc4cf759cc79239f7b179b0ffacaa9a75d522b39400f8452604083015260608201524660808201523060a082015260a0815261038060c0826104f2565b5190206080526040516156f2908161052a8239608051816153320152f35b60405162461bcd60e51b81526020600482015260116024820152706e6f7420656e6f7567682061646d696e7360781b6044820152606490fd5b60405162461bcd60e51b815260206004820152601f60248201527f726571756972656420617070726f76616c73206d757374206265203e3d2032006044820152606490fd5b60405162461bcd60e51b815260206004820152601060248201526f696e76616c696420747265617375727960801b6044820152606490fd5b60405162461bcd60e51b815260206004820152600e60248201526d696e76616c6964206f7261636c6560901b6044820152606490fd5b60405162461bcd60e51b815260206004820152600d60248201526c34b73b30b634b2103a37b5b2b760991b6044820152606490fd5b602080916104cc84610515565b8152019101906100b0565b600080fd5b634e487b7160e01b600052604160045260246000fd5b601f909101601f19168101906001600160401b038211908210176104dc57604052565b51906001600160a01b03821682036104d75756fe608080604052600436101561001357600080fd5b600090813560e01c9081623bdc74146140b5575080630d6043c614613cbe5780630f3314e714613c1257806311eac85514613be957806314bfd6d014613ba557806318c2740414613b215780631e6c598e14613a5e5780631fa7e781146127e257806320e32a5314613a3457806324d7806c146139f557806326ff5e1c146139ba5780632715048c146138ee5780632a3ecca1146138a55780632a4591ba146138665780632b72349e146136185780632fd7d5ef146135e257806331c65775146135c45780633d8f6806146135215780634a2ae305146134fb5780634be93571146133745780634f84e8c81461334a578063541d55481461330b57806355d2ac86146132d25780635ab8621e146132a35780635c04d8ca146132855780635c975abb146132635780636247a378146131145780636405a405146130f6578063660d15b514610d415780636726b9db14612f7657806368d69b61146121c35780636de2a4f014612f1c578063710bb97914612ef2578063720417c514612eb7578063749511b114612d335780637526b0ea146121c357806376d622ce14612c6857806376ebb7e014612c3e57806377d8f09d14612b025780637d36f4d314612ae45780637e8c2f1014612a9b5780637ecebe001461128f57806380eda0fd1461286c57806381b2ce311461281b57806381de274c146127e25780638354415d1461271a5780638456cb591461267257806386f23a351461264c5780638a3ead53146126115780638d2304ee146125e757806396f84c09146125b857806399c1aadc14611ae35780639a1fdd791461259a5780639c23b1be1461255f578063a097760414612516578063a10519d01461231b578063a11bcc65146121eb578063a143b004146121c8578063a375d807146121c3578063a48448fe14612148578063a5f9dcf014611e94578063a63187d114611e19578063a89ae4ba14611df0578063a94c8f3d14611d75578063a9f4bd6514611d2c578063ae7784d714611c4e578063b9bcaf2114611b1f578063c0e8f6a714611b01578063c194bb4e14611ae3578063c4c6ff6a14611494578063c5f956af1461146b578063c5fa4a981461141f578063cc792e0d146113fc578063cd8ce3be146112c8578063d371cf721461128f578063d6d81fa314610fd4578063d80d0e5614610ef5578063daa0785614610dc1578063dc88100e14610d7d578063e57a7e3514610d5f578063ea4aa01614610d41578063ec9d151714610bb1578063ecd8dc3a14610ad6578063ede25b9d146109b2578063ee5798ae14610983578063f565776d14610681578063f585dc5714610663578063f5ecef571461063a578063fae8a3d6146104e3578063fcb0aa02146104ba578063fda769e71461048b578063ff0c4ee51461045c5763ff2eda091461041f57600080fd5b3461045957806003193601126104595760206040517f642bc978b352e60185507106148c2e8af9b88eeaeec91883eebdc673e6add83f8152f35b80fd5b50346104595760203660031901126104595760ff60406020926004358152600784522054166040519015158152f35b50346104595760203660031901126104595760ff60406020926004358152602b84522054166040519015158152f35b503461045957602036600319011261045957604060209160043581528280522054604051908152f35b5034610459578060031936011261045957338152601260205261050c60ff604083205416614461565b61051960ff8254166147df565b61052a60ff600f5460a81c16614893565b60ff601c541661062d575b6040516080810181811067ffffffffffffffff8211176106195760405260018152816020820152426040820152606033910152600160175560ff196018541660185542601955336001600160601b0360a01b601a541617601a55338152601b60205260408120600160ff19825416179055600160ff19601c541617601c55604051907f0c098089b7550dc564f1a038c8820df7c94ad41baa6be122a568c720c323ce3c339180a26014546001825260208201527ff250c8cac0e5a06311da43d7d136f294ff38fe995468d5352d5b795bec30020a60403392a2602060405160018152f35b634e487b7160e01b83526041600452602483fd5b6106356151ad565b610535565b5034610459578060031936011261045957600f546040516001600160a01b039091168152602090f35b50346104595780600319360112610459576020604051620151808152f35b503461045957604036600319011261045957600435602435600281101561097f5733835260126020526106ba60ff604085205416614461565b6106c2614c31565b6106cf6002548310614750565b81835260016020526106f6600360ff6002604087200154166106f0816142b4565b146145e6565b818352600760205260ff60408420541661089e575b600b549161071883614664565b600b5560405161072781614305565b81815260208101838152604082016001815260608301878152608084019142835260a0850193338552888a52600560205260408a2095518655600186019051600281101561088a57916005959493916107a49360ff80198354169116179055516002870155511515600386019060ff801983541691151516179055565b51600484015560018060a01b0390511691019060018060a01b03166001600160601b0360a01b82541617905582845260066020526040842060018060a01b0333166000526020526040600020600160ff19825416179055808452600760205260408420600160ff19825416179055808452600860205282604085205562093a8042018042116108765760408585602097526009875220556108486040518093614409565b827f169133ad218243916e40f5d940b11e6662965ad0b9436428ec3ec92af6593fbb853394a4604051908152f35b634e487b7160e01b85526011600452602485fd5b634e487b7160e01b8b52602160045260248bfd5b8183526008602052604083205480845260096020526040842054421180610968575b1561092a57808452600a60205260408420600160ff1982541617905582845260076020526040842060ff19815416905582845260086020528360408120558233917f7d0d8277552faa3f645755b68537c6cdbbd2b3415f4fc4ec554d62d4824311d18680a461070b565b60405162461bcd60e51b81526020600482015260166024820152756163746976652070726f706f73616c2065786973747360501b6044820152606490fd5b50808452600a60205260ff604085205416156108c0565b8280fd5b50346104595760203660031901126104595760ff60406020926004358152602184522054166040519015158152f35b50346104595760203660031901126104595760043533825260126020526109df60ff604084205416614461565b6109ec602254821061449a565b808252601e6020526040822090610a08600383015415156144db565b60016002830191825490610a1f60ff831615614527565b8086526021602052610a3860ff60408820541615614566565b855260208052610a4e60408620544211156145a7565b610a5f828501546014541115614ae2565b610a6f6004850154421015614b25565b60ff1916179055600d805482546001600160a01b031982166001600160a01b0391821617909255600f805460ff60a81b1916600160a81b1790559154811691167f078c3b417dadf69374a59793b829c52001247130433427049317bde56607b1b78380a380f35b503461045957604036600319011261045957610af06142d4565b60243580151591828203610bad573384526012602052610b1660ff604086205416614461565b6001600160a01b0316908115610b7657610b47908285526013602052604085209060ff801983541691151516179055565b6040519182527f6da1699b033f54d95156eaa43377f43bf3c32288bbf7355f3de946b8ced3203260203393a380f35b60405162461bcd60e51b815260206004820152600f60248201526e34b73b30b634b2103932b630bcb2b960891b6044820152606490fd5b8380fd5b5034610459576020366003190112610459576004353382526012602052610bde60ff604084205416614461565b610beb602754821061449a565b80825260236020526040822090610c07600383015415156144db565b60028201805491610c1b60ff841615614527565b8085526026602052610c3460ff60408720541615614566565b84526025602052610c4b60408520544211156145a7565b610c5d60018401546014541115614ae2565b610c6d6004840154421015614b25565b82546001600160a01b031691600190610c878415156148d1565b8386526012602052610ca060ff6040882054161561490d565b60ff191617905560115468010000000000000000811015610d2d57806001610ccb9201601155614283565b815460039190911b92831b6001600160a01b039384901b19909116179055815481168352601260205260408320805460ff191660011790559054167f44d6d25963f097ad14f29f06854a01f575648a1ef82f30e562ccd3889717e3398280a280f35b634e487b7160e01b84526041600452602484fd5b50346104595780600319360112610459576020600254604051908152f35b50346104595780600319360112610459576020602254604051908152f35b5034610459578060031936011261045957608060175460ff6018541660195460018060a01b03601a5416916040519384521515602084015260408301526060820152f35b5034610459576020366003190112610459576004353382526012602052610dee60ff604084205416614461565b610dfb602754821061449a565b8082526023602052600160408320610e18600382015415156144db565b610e2960ff60028301541615614527565b8284526026602052610e4260ff60408620541615614566565b8284526025602052610e5a60408520544211156145a7565b828452602460205260408420828060a01b033316600052602052610e8660ff6040600020541615614625565b828452602460205260408420828060a01b03331660005260205260406000208260ff198254161790550190610ebb8254614664565b80925560145460405192835260208301527fb8cacf822d821b4e79cb750d1368c77e7e7ec2aee16f886327cd7c756f47c22360403393a380f35b5034610459576020366003190112610459576004353382526012602052610f2260ff604084205416614461565b610f2f602c54821061449a565b8082526028602052610f5a60ff600260408520610f51600382015415156144db565b01541615614527565b808252602b602052610f7360ff60408420541615614689565b808252602a602052610f8a604083205442116146c9565b808252602b60205260408220600160ff1982541617905560ff19602d5416602d5533907f3aa666fca861a2efe08793b4b6df7e2f3b72b5137df4acdf56dacd603242d65e8380a380f35b503461045957602036600319011261045957610fee6142d4565b338252601260205261100660ff604084205416614461565b6001600160a01b0316801561125957600d546001600160a01b03168114611226576110376011546014541115614949565b6022549061104482614664565b602255600f5460a81c60ff161580156112145742905b60405160e0810181811067ffffffffffffffff821117611200576005879287926040528681526020810160018152604082018581526110ff606084019142835260808501938a8552604060a0870199338b5260c08801998c8b528152601e602052209560018060a01b039060018060a01b03905116166001600160601b0360a01b875416178655516001860155511515600285019060ff801983541691151516179055565b51600383015551600482015592519201805491516001600160a81b03199092166001600160a01b03939093169290921790151560a01b60ff60a01b16179055838552601f6020908152604080872033600090815292529020805460ff191660011790554262093a8081019081106111ec576040868660209852878052205560405191825284820152827faff168a4e1fa91858b5fc1c223cee9cc0eaeaddb0b29c18df1630e08305bd80260403393a4601454604051906001825283820152817ff39407f640014cb0220c4f7b0a6cc6acee38a440a8add233fa88e8c98b95b25c60403393a3604051908152f35b634e487b7160e01b86526011600452602486fd5b634e487b7160e01b87526041600452602487fd5b611220601d54426147d2565b9061105a565b60405162461bcd60e51b815260206004820152600b60248201526a73616d65206f7261636c6560a81b6044820152606490fd5b60405162461bcd60e51b815260206004820152600e60248201526d696e76616c6964206f7261636c6560901b6044820152606490fd5b5034610459576020366003190112610459576020906040906001600160a01b036112b76142d4565b168152600383522054604051908152f35b50346104595760203660031901126104595760043533825260126020526112f560ff604084205416614461565b611302602c54821061449a565b8082526028602052604082209061131e600383015415156144db565b6001600283019182549061133560ff831615614527565b808652602b60205261134e60ff60408820541615614566565b8552602a60205261136560408620544211156145a7565b611376828501546014541115614ae2565b6113866004850154421015614b25565b611399828060a01b038554161515614416565b60ff1990811691909117909155602d80549091169055600f805482546001600160a01b031982166001600160a01b03918216179092559154811691167f4dc5527be93f8b21f9376931190711db811d1e6d980ca325ee2520d65069df748380a380f35b5034610459578060031936011261045957602060ff601c54166040519015158152f35b503461045957604036600319011261045957604061143b6142ef565b9160043581526024602052209060018060a01b0316600052602052602060ff604060002054166040519015158152f35b5034610459578060031936011261045957600e546040516001600160a01b039091168152602090f35b503461045957610220366003190112610459576114af6142d4565b6114b76142ef565b60843591906044359060643560e43560c43560a43561010435610124356101443567ffffffffffffffff8111611adf576114f5903690600401614359565b968b60c0366101631901126104595760ff60406115259233815260126020522054168d8115611ac7575b5061470c565b61152d614c31565b611535614b68565b8515611a82576001600160a01b0316968715611a4957308814611a045761156985611564866115648f8c6147d2565b6147d2565b89036119ca57831515806119c1575b156119855761158882848c61523b565b60405190602082019a7fab191139f84e7620737836d9002d499dbe8293085697773dfa2574e82decb7fc8c52600160a01b60019003169a828c6040819501528a60608201528b60808201528960a08201528d60c08201528660e082015287610100820152886101208201528561014082015284610160820152610160815261161261018082614337565b51902061161e90615320565b90611628916153d4565b61163191615410565b611647916001600160a01b039190911614614c6b565b6001820180831161197157898c52600460205260408c20556116688b615482565b906040519283526020830152887f6ac709e2093c74d3ce56616ef76760c53ae0bf401457fb868a84e66636d3678360403394a4600254976116a889614664565b600255604051610180810181811067ffffffffffffffff82111761195d5793838383600a8f8f9a968f9c988f9a8f918f8f9d7f9896188f7299b6607b47eaa190d500bf89abbfa1bb2ce6d410f88b043e371b679f9460c09f8f938f8f988b8b94604092835280865260208601938452610160610140848801978489526060810197885260808101998a5260a081019a8b5260c081019b8c5260e081019c8d5261010081019d8e5261012081019e8f52019d8e429052019d8e5281526001602052209c518d555160018d015560028c019151611782816142b4565b61178b816142b4565b825491516001600160a81b031990921660ff9190911617600891821b610100600160a81b031617909155905160038b0180546001600160a01b0319166001600160a01b0392909216919091179055905160048a015590516005890155905160068801559051600787015590519085015551600984015551910155604080518c815260208101969096528501526060840152608083015260a0820152a46010546101a435919085906101c43560ff8116916001600160a01b03169082900361097f57803b1561097f57610124839260405194859384926377aadf6360e11b84528a60048501523060248501528860448501526101643560648501526101843560848501528960a485015260c48401526101e43560e4840152610204356101048401525af18015611952577fa7c444d067108b7e8aee4afd13309e15a3e74a87a3d07d172c5c50945c37baaa602086959481997f642bc978b352e60185507106148c2e8af9b88eeaeec91883eebdc673e6add83f98958a95611942575b5050604051908152a460405183815260008051602061567d833981519152853392a4600160008051602061569d83398151915255604051908152f35b8161194c91614337565b38611906565b6040513d88823e3d90fd5b634e487b7160e01b8c52604160045260248cfd5b634e487b7160e01b8c52601160045260248cfd5b60405162461bcd60e51b815260206004820152601460248201527307472616e63686573206d757374206265203e20360641b6044820152606490fd5b50841515611578565b60405162461bcd60e51b81526020600482015260126024820152710c4e4cac2d6c8deeedc40dad2e6dac2e8c6d60731b6044820152606490fd5b60405162461bcd60e51b815260206004820152601960248201527f737570706c6965722063616e6e6f7420626520657363726f77000000000000006044820152606490fd5b60405162461bcd60e51b81526020600482015260116024820152701cdd5c1c1b1a595c881c995c5d5a5c9959607a1b6044820152606490fd5b60405162461bcd60e51b815260206004820152601760248201527f72696361726469616e20686173682072657175697265640000000000000000006044820152606490fd5b60ff915060409033815260136020522054168d61151f565b8b80fd5b50346104595780600319360112610459576020601454604051908152f35b50346104595780600319360112610459576020604051621275008152f35b5034610459576020366003190112610459576004353382526012602052611b4c60ff604084205416614461565b611b59602254821061449a565b808252601e602052600160408320611b76600382015415156144db565b611b8760ff60028301541615614527565b8284526021602052611ba060ff60408620541615614566565b82845260208052611bb760408520544211156145a7565b828452601f60205260408420828060a01b0333168552602052611be160ff60408620541615614625565b828452601f60205260408420828060a01b0333168552602052604084208260ff198254161790550190611c148254614664565b80925560145460405192835260208301527ff39407f640014cb0220c4f7b0a6cc6acee38a440a8add233fa88e8c98b95b25c60403393a380f35b503461045957602036600319011261045957600435611c7860018060a01b03600d54163314614859565b611c8960ff600f5460a81c16614893565b611c91614c31565b611c99614b68565b611ca66002548210614750565b80825260016020527f86b04a9027748794b50d55160e5a9fe6b0375cd3221e0d4776f9e053f7ef6d046020600a604085206002810160028154611cf7600160ff8316611cf1816142b4565b14614a96565b60ff191617905501428155838552600c825284604081205554604051908152a2600160008051602061569d8339815191525580f35b50346104595760403660031901126104595760ff6040602092611d4d6142ef565b6004358252602985528282206001600160a01b03909116825284522054604051911615158152f35b503461045957602036600319011261045957604060c091600435815260056020522080549060ff60018201541690600281015460ff60038301541690611dd8600484015493600560018060a01b0391015416946040519687526020870190614409565b604085015215156060840152608083015260a0820152f35b5034610459578060031936011261045957600d546040516001600160a01b039091168152602090f35b5034610459576020366003190112610459576004803582526028602090815260409283902080546001820154600283015460038401549584015460059094015487516001600160a01b0394851681529586019290925260ff1615159584019590955260608301939093526080820152911660a082015260c090f35b503461045957611ea3366143b0565b9290338552601260205260ff6040862054168015612132575b611ec59061470c565b611ecd614c31565b611ed5614b68565b611ee26002548310614750565b81855260016020526040852092600284019460018060a01b03865460081c1690611f0d84848461523b565b81611f8e611f93959493611f7f611f76600395611f71604051602081019060008051602061565d83398151915282528660408201528960608201528d60808201528a60a08201528b60c082015260c08152611f6960e082614337565b519020615320565b6153d4565b90929192615410565b6001600160a01b031614614c6b565b615370565b825491611fa8600160ff8516611cf1816142b4565b818552600c602052604085205480156120d9576212750081018091116111ec5742111561209457817f1c642f6ec09eeef2a0619a2a298b98d5b38861f8a024837627f161d669c3c1067f57f680ee8ca7390570646e9ba27d0a0f0e281e2565cbb092822584197106619695600460209660ff1916178155828852600c8652876040812055612049600860018060a01b038354821c1695019485549085614ec9565b54925460405190815260089390931c6001600160a01b0316948593a360405190815260008051602061567d83398151915260203392a4600160008051602061569d8339815191525580f35b60405162461bcd60e51b815260206004820152601e60248201527f696e2d7472616e7369742074696d656f7574206e6f7420656c617073656400006044820152606490fd5b60405162461bcd60e51b815260206004820152601c60248201527f696e2d7472616e7369742074696d657374616d70206e6f7420736574000000006044820152606490fd5b634e487b7160e01b88526021600452602488fd5b503385526013602052604085205460ff16611ebc565b5034610459576020366003190112610459576004803582526023602090815260409283902080546001820154600283015460038401549584015460059094015487516001600160a01b0394851681529586019290925260ff1615159584019590955260608301939093526080820152911660a082015260c090f35b6143eb565b5034610459578060031936011261045957602060ff602d54166040519015158152f35b503461045957602036600319011261045957600435338252601260205261221860ff604084205416614461565b612225602c54821061449a565b8082526028602052600160408320612242600382015415156144db565b61225360ff60028301541615614527565b828452602b60205261226c60ff60408620541615614566565b828452602a60205261228460408520544211156145a7565b828452602960205260408420828060a01b03331685526020526122ae60ff60408620541615614625565b828452602960205260408420828060a01b0333168552602052604084208260ff1982541617905501906122e18254614664565b80925560145460405192835260208301527f33f3d93b68d89de9a6b65493f004ff57d76aadd2fb47a98cbf886447309cdec760403393a380f35b50346104595761232a366143b0565b90929192338552601260205260ff6040862054168015612500575b61234e9061470c565b612356614c31565b61235e614b68565b61236b6002548410614750565b82855260016020526040852093600285019260018060a01b03845460081c169061239684848461523b565b81611f8e6123ff9594936123f2611f76600195611f718c604051602081019160008051602061565d83398151915283528760408301528a606083015260808201528a60a08201528b60c082015260c08152611f6960e082614337565b848060a01b031614614c6b565b600a81549361241c600260ff8716612416816142b4565b14614a0c565b0154612429811515614a58565b6201518081018091116108765742116124cb5760037f9d6f89df1fd95e20d56ed05e08fe9519ff6a2496090b77bfb70c8f64c21c23899360ff19161780915560405191807fb145240944e8bfe8998e31f11365578b766764ed1255b8e2efcb56e741b7be188680a2825260081c6001600160a01b031690339060008051602061567d83398151915290602090a4600160008051602061569d8339815191525580f35b60405162461bcd60e51b815260206004820152600d60248201526c1dda5b991bddc818db1bdcd959609a1b6044820152606490fd5b503385526013602052604085205460ff16612345565b50346104595760403660031901126104595760ff60406020926125376142ef565b6004358252600685528282206001600160a01b03909116825284522054604051911615158152f35b503461045957806003193601126104595760206040517f57f680ee8ca7390570646e9ba27d0a0f0e281e2565cbb09282258419710661968152f35b50346104595780600319360112610459576020601d54604051908152f35b50346104595760203660031901126104595760ff60406020926004358152600a84522054166040519015158152f35b50346104595760203660031901126104595760406020916004358152600983522054604051908152f35b503461045957806003193601126104595760206040517fa6115baa0e39b3877020da94fe30135520d27e0cb11c198edac119231d452a578152f35b5034610459578060031936011261045957602060ff600f5460a81c166040519015158152f35b5034610459578060031936011261045957338152601260205261269b60ff604083205416614461565b805460ff81166126e4576001906126b0614c31565b60ff19161781557f62e78cea01bee320cd4e420270b5ea74000d11b0c9f74754ebdbfc544b05a2586020604051338152a180f35b60405162461bcd60e51b815260206004820152600e60248201526d185b1c9958591e481c185d5cd95960921b6044820152606490fd5b5034610459578060031936011261045957338152601260205261274360ff604083205416614461565b600f5461275560ff8260a81c16614893565b60ff60a81b1916600f55805460ff8116156127a0575b50600d546001600160a01b0316337f943e0551255d58897464f9809b2b06574fdc708ade497e30276ae48effc0a7948380a380f35b6001906127ab614c31565b60ff19161781557f62e78cea01bee320cd4e420270b5ea74000d11b0c9f74754ebdbfc544b05a2586020604051338152a13861276b565b5034610459576020366003190112610459576020906040906001600160a01b0361280a6142d4565b168152600483522054604051908152f35b5034610459578060031936011261045957338152601260205261284460ff604083205416614461565b61285260ff601c5416614818565b61286160ff6018541615614527565b6128696151ad565b80f35b5034610459576020366003190112610459576128866142d4565b338252601260205261289e60ff604084205416614461565b6001600160a01b03166128b2811515614416565b600f546001600160a01b03168114612a56576128d46011546014541115614949565b60ff602d5416612a1157602c54906128eb82614664565b602c5561293c6128fd601d54426147d2565b6040519061290a82614305565b8382526001602083015285604083015242606083015260808201523360a082015283855260286020526040852061498b565b8183526029602090815260408085203386529091528320805460ff191660011790554262093a8081019081106129fd576040848460209652602a86522055600160ff19602d541617602d55612993601d54426147d2565b604051908152827f7d8684ed4e806e48e1379ec407e099c58ae93067f5a839e7cdf7299438e33316853393a4601454604051906001825283820152817f33f3d93b68d89de9a6b65493f004ff57d76aadd2fb47a98cbf886447309cdec760403393a3604051908152f35b634e487b7160e01b84526011600452602484fd5b60405162461bcd60e51b815260206004820152601860248201527f70726f706f73616c20616c72656164792070656e64696e6700000000000000006044820152606490fd5b60405162461bcd60e51b815260206004820152601d60248201527f73616d65207472656173757279207061796f75742072656365697665720000006044820152606490fd5b503461045957602036600319011261045957612adc6040602092600435612ac56002548210614750565b8152600184522060066005820154910154906147d2565b604051908152f35b50346104595780600319360112610459576020600b54604051908152f35b5034610459576020366003190112610459576004353382526012602052612b2f60ff604084205416614461565b612b37614c31565b612b44600b54821061449a565b80825260056020526040822090612b60600483015415156144db565b612b7160ff60038401541615614527565b808352600a602052612b8a60ff60408520541615614689565b8083526009602052612ba1604084205442116146c9565b808352600a60205260408320600160ff198254161790558154808452600760205260ff60408520541680612c29575b612c01575b50339154907f7d0d8277552faa3f645755b68537c6cdbbd2b3415f4fc4ec554d62d4824311d18480a480f35b835260076020526040832060ff19815416905581548352600860205282604081205538612bd5565b50808452600860205281604085205414612bd0565b50346104595760203660031901126104595760406020916004358152600c83522054604051908152f35b5034610459576020366003190112610459576004353382526012602052612c9560ff604084205416614461565b612ca2602254821061449a565b808252601e602052612cc460ff600260408520610f51600382015415156144db565b8082526021602052612cdd60ff60408420541615614689565b80825260208052612cf3604083205442116146c9565b808252602160205260408220805460ff1916600117905533907fd2d878f87125c1948b966a8962e09576b78186471e1a7cc90c2bd2b6f05acc9f8380a380f35b503461045957602036600319011261045957612d4d6142d4565b3382526012602052612d6560ff604084205416614461565b6001600160a01b0316612d798115156148d1565b8082526012602052612d9260ff6040842054161561490d565b612da26011546014541115614949565b60275490612daf82614664565b602755612e00612dc1601d54426147d2565b60405190612dce82614305565b8382526001602083015285604083015242606083015260808201523360a082015283855260236020526040852061498b565b8183526024602090815260408085203386529091528320805460ff191660011790554262093a8081019081106129fd576040846004928560209752602587528282205584815260238652200154604051908152827f959284814070c6c3a0c8b0ce10f8406a2a5cfe5cc3a7d157ad2ba850026aee64853393a4601454604051906001825283820152817fb8cacf822d821b4e79cb750d1368c77e7e7ec2aee16f886327cd7c756f47c22360403393a3604051908152f35b503461045957806003193601126104595760206040517f9d6f89df1fd95e20d56ed05e08fe9519ff6a2496090b77bfb70c8f64c21c23898152f35b50346104595760203660031901126104595760406020916004358152602583522054604051908152f35b5034610459576020366003190112610459573381526012602052612f4660ff604083205416614461565b612f4e614c31565b612f56614b68565b612f61600435614f90565b600160008051602061569d8339815191525580f35b503461045957602036600319011261045957600435612fa060018060a01b03600d54163314614859565b612fb160ff600f5460a81c16614893565b612fb9614c31565b612fc1614b68565b612fce6002548210614750565b808252600160205260408220906002820160018154612ff960ff8216612ff3816142b4565b1561478e565b60ff1916179055808352600c6020524260408420557f7fe4efc5647c551e3daa927b506b95903589ed6b18a37dbff54db80e7395239b6020600384019360018060a01b03855416946130526007830196875490876150f3565b600e5460058301805490929161307291906001600160a01b031688614d47565b61308e600660018060a01b03600e541694019384549088614dbd565b549554600e54915460408051928352858301919091526001600160a01b03928316978893169187917faf26bf705c48ad6f6bf63104d1d8b9f94dac03ba9c3ae49b34cd094cc8c3f6f691a454604051908152a3600160008051602061569d8339815191525580f35b50346104595780600319360112610459576020601654604051908152f35b503461045957613123366143b0565b90939291338452601260205260ff604085205416801561324d575b6131479061470c565b61314f614c31565b613157614b68565b6131646002548410614750565b8284526001602052600360408520019160018060a01b038354169061318a87848461523b565b91600482611f8e7fa6115baa0e39b3877020da94fe30135520d27e0cb11c198edac119231d452a57989994611f7f611f7661320898611f718c604051602081019160008051602061565d83398151915283528760408301528a606083015260808201528a60a08201528b60c082015260c08152611f6960e082614337565b61321182614f90565b546040519182526001600160a01b031690339060008051602061567d83398151915290602090a4600160008051602061569d8339815191525580f35b503384526013602052604084205460ff1661313e565b503461045957806003193601126104595760ff60209154166040519015158152f35b50346104595780600319360112610459576020602754604051908152f35b50346104595760203660031901126104595760ff60406020926004358152602684522054166040519015158152f35b5034610459576020366003190112610459576020906040906001600160a01b036132fa6142d4565b168152601583522054604051908152f35b50346104595760203660031901126104595760209060ff906040906001600160a01b036133366142d4565b168152601384522054166040519015158152f35b50346104595760203660031901126104595760406020916004358152602a83522054604051908152f35b5034610459578060031936011261045957338152601260205261339d60ff604083205416614461565b6133aa60ff8254166147df565b6133b860ff601c5416614818565b6133c760ff6018541615614527565b338152601b6020526133e060ff60408320541615614625565b338152601b60205260408120600160ff19825416179055613402601754614664565b80601755601454906040518181528260208201527ff250c8cac0e5a06311da43d7d136f294ff38fe995468d5352d5b795bec30020a60403392a2101580613447575080f35b6001906134636018549161345e60ff841615614527565b614ae2565b60ff19161760185560ff19601c5416601c55805461348360ff82166147df565b60ff191681557f5db9ee0a495bf2e6ff9c91a7834c1ba4fdd244a5e8aa4e537bd38aeae4b073aa6020604051338152a16134bb614f26565b815b81518110156134f6576001906001600160a01b036134db8285614f7c565b51168452601b60205260408420805460ff19169055016134bd565b505080f35b5034610459578060031936011261045957602060ff600f5460a01c166040519015158152f35b5034610459578060031936011261045957338152601260205261354a60ff604083205416614461565b600f5460ff8160a01c161561358b5760ff60a01b1916600f55337f58faeb75cd58dcc300b630223b434fdafecf55c21cd1aa07ce174a125ea52e8b8280a280f35b60405162461bcd60e51b815260206004820152601160248201527018db185a5b5cc81b9bdd081c185d5cd959607a1b6044820152606490fd5b50346104595780600319360112610459576020602c54604051908152f35b503461045957602036600319011261045957612adc604060209260043561360c6002548210614750565b81526001845220614cab565b503461045957613627366143b0565b9290338552601260205260ff6040862054168015613850575b6136499061470c565b613651614c31565b613659614b68565b6136666002548310614750565b81855260016020526040852092600284019460018060a01b03865460081c169061369184848461523b565b81611f8e6136ed959493611f7f611f76600295611f71604051602081019060008051602061565d83398151915282528660408201528960608201528d60808201528a60a08201528b60c082015260c08152611f6960e082614337565b82546136ff60ff8216612ff3816142b4565b600983015462093a8081018091116111ec5742111561380b57817fe54e6e873934788882b1744fc124e31c635896db16279bfdfd45fd2953619cff7f0e2cac5abaf6079f335df5966f41306619912fc862e3a81138fc8f0af5faca36956137ab86600461376d602099614cab565b60ff19909716178355600e546005820154613791916001600160a01b031687614d47565b600e5460069190910154906001600160a01b031685614dbd565b80546137c590859060081c6001600160a01b031685614e6c565b5460405193845260081c6001600160a01b0316948593a360405190815260008051602061567d83398151915260203392a4600160008051602061569d8339815191525580f35b60405162461bcd60e51b815260206004820152601860248201527f6c6f636b2074696d656f7574206e6f7420656c617073656400000000000000006044820152606490fd5b503385526013602052604085205460ff16613640565b50346104595760203660031901126104595760209060ff906040906001600160a01b036138916142d4565b168152601b84522054166040519015158152f35b50346104595760403660031901126104595760ff60406020926138c66142ef565b6004358252601f85528282206001600160a01b03909116825284522054604051911615158152f35b503461045957602036600319011261045957600435338252601260205261391b60ff604084205416614461565b613928602754821061449a565b808252602360205261394a60ff600260408520610f51600382015415156144db565b808252602660205261396360ff60408420541615614689565b808252602560205261397a604083205442116146c9565b808252602660205260408220805460ff1916600117905533907f6e5c3c82c1e75af7548eba9cd2cb4b639f5b6762fec00ca5e0d902fbad351ebc8380a380f35b503461045957806003193601126104595760206040517f0e2cac5abaf6079f335df5966f41306619912fc862e3a81138fc8f0af5faca368152f35b50346104595760203660031901126104595760209060ff906040906001600160a01b03613a206142d4565b168152601284522054166040519015158152f35b50346104595760203660031901126104595760406020916004358152600883522054604051908152f35b5034610459576020366003190112610459576040610180916004358152600160205220805490600181015490600281015460ff81169060018060a01b036003840154166004840154600585015490600686015492600787015494600888015496600a60098a0154990154996040519b8c5260208c0152613add816142b4565b60408b015260081c6001600160a01b031660608a0152608089015260a088015260c087015260e0860152610100850152610120840152610140830152610160820152f35b503461045957602036600319011261045957604060e0916004358152601e6020522060ff60018060a01b03825416916001810154908260028201541660038201549060056004840154930154936040519687526020870152151560408601526060850152608084015260018060a01b03811660a084015260a01c16151560c0820152f35b50346104595760203660031901126104595760043590601154821015610459576020613bd083614283565b905460405160039290921b1c6001600160a01b03168152f35b50346104595780600319360112610459576010546040516001600160a01b039091168152602090f35b50346104595780600319360112610459573381526012602052613c3b60ff604083205416614461565b600f5460ff8160a01c16613c815760ff60a01b1916600160a01b17600f55337fb62d15b068fb54a6f9b91bc09d642314c90fe5262a9f0c4b646803af896af7928280a280f35b60405162461bcd60e51b815260206004820152601560248201527418db185a5b5cc8185b1c9958591e481c185d5cd959605a1b6044820152606490fd5b5034610459576020366003190112610459576004353382526012602052613ceb60ff604084205416614461565b613cf3614c31565b613cfb614b68565b613d08600b54821061449a565b8082526005602052600260408320613d25600482015415156144db565b613d3660ff60038301541615614527565b828452600a602052613d4f60ff60408620541615614566565b8284526009602052613d6760408520544211156145a7565b805484526001602052613d88600360ff84604088200154166106f0816142b4565b828452600660209081526040808620338752909152842054613dad9060ff1615614625565b8284526006602090815260408086203387529091528420805460ff19166001179055018054909190613dde90614664565b8092556014548092604051818152826020820152837f14e1b3091f09f49236e90d7a9826aa647e37c8b8600adc8a5935ee0c179e2de160403393a31015613e36575b82600160008051602061569d8339815191525580f35b80835260056020526040832060038101613e96815494613e5960ff871615614527565b848752600a602052613e7260ff60408920541615614566565b8487526009602052613e8a60408820544211156145a7565b60028401541015614ae2565b81548552600160205260408520906002820194600360ff875416613eb9816142b4565b036140795760019060ff1916179055600460ff198554161784558154855260076020526040852060ff19815416905581548552600860205284604081205581548552600c602052846040812055600881015493600183019160ff835416600281101561211e5780613fc55750509160ff94846020937fafdf3220f58fe501f1c7cff54df532523ba92e302d4b17d7bb8c30b9e4e906b360407f367ef6da4bd64313a89876ecb2e42b4be35f68f378625be0d78dcd15eba27dd09760018060a01b03905460081c1695613f8d86888354614e0a565b54998a935416958151958652613fa588870188614409565b6001600160a01b031694a4613fbd6040518092614409565ba33880613e20565b9093915060010361403b5760ff94846020937fafdf3220f58fe501f1c7cff54df532523ba92e302d4b17d7bb8c30b9e4e906b360407f367ef6da4bd64313a89876ecb2e42b4be35f68f378625be0d78dcd15eba27dd097600360018060a01b03910154169561403686888354615096565b613f8d565b60405162461bcd60e51b8152602060048201526016602482015275696e76616c696420646973707574652073746174757360501b6044820152606490fd5b60405162461bcd60e51b81526020600482015260146024820152733a3930b2329036bab9ba10313290232927ad22a760611b6044820152606490fd5b90503461427f578160031936011261427f57600e546001600160a01b031633148015614269575b1561422e575060ff600f5460a01c166141f9576140f7614b68565b600e546001600160a01b03168082526015602052604082205480156141b457600f546001600160a01b03169161412e831515614416565b835260156020528260408120556016548181039081116129fd5760165560105461416490829084906001600160a01b0316614ba4565b7fe67c643fa26ff85bbee9ac87fc706274fc81cf4ab3711712c8822eedba5a2306604060018060a01b03600e5416928151908152336020820152a3600160008051602061569d8339815191525580f35b60405162461bcd60e51b815260206004820152601a60248201527f6e6f7468696e6720747265617375727920636c61696d61626c650000000000006044820152606490fd5b60405162461bcd60e51b815260206004820152600d60248201526c18db185a5b5cc81c185d5cd959609a1b6044820152606490fd5b62461bcd60e51b815260206004820152601660248201527537b7363c903a3932b0b9bab93c9037b91030b236b4b760511b6044820152606490fd5b50338252601260205260ff6040832054166140dc565b5080fd5b60115481101561429e57601160005260206000200190600090565b634e487b7160e01b600052603260045260246000fd5b600511156142be57565b634e487b7160e01b600052602160045260246000fd5b600435906001600160a01b03821682036142ea57565b600080fd5b602435906001600160a01b03821682036142ea57565b60c0810190811067ffffffffffffffff82111761432157604052565b634e487b7160e01b600052604160045260246000fd5b90601f8019910116810190811067ffffffffffffffff82111761432157604052565b81601f820112156142ea5780359067ffffffffffffffff8211614321576040519261438e601f8401601f191660200185614337565b828452602083830101116142ea57816000926020809301838601378301015290565b9060806003198301126142ea576004359160243591604435916064359067ffffffffffffffff82116142ea576143e891600401614359565b90565b346142ea5760003660031901126142ea57602060405162093a808152f35b9060028210156142be5752565b1561441d57565b606460405162461bcd60e51b815260206004820152602060248201527f696e76616c6964207472656173757279207061796f75742072656365697665726044820152fd5b1561446857565b60405162461bcd60e51b815260206004820152600a60248201526937b7363c9030b236b4b760b11b6044820152606490fd5b156144a157565b60405162461bcd60e51b81526020600482015260126024820152711c1c9bdc1bdcd85b081b9bdd08199bdd5b9960721b6044820152606490fd5b156144e257565b60405162461bcd60e51b815260206004820152601860248201527f70726f706f73616c206e6f7420696e697469616c697a656400000000000000006044820152606490fd5b1561452e57565b60405162461bcd60e51b815260206004820152601060248201526f185b1c9958591e48195e1958dd5d195960821b6044820152606490fd5b1561456d57565b60405162461bcd60e51b81526020600482015260126024820152711c1c9bdc1bdcd85b0818d85b98d95b1b195960721b6044820152606490fd5b156145ae57565b60405162461bcd60e51b815260206004820152601060248201526f1c1c9bdc1bdcd85b08195e1c1a5c995960821b6044820152606490fd5b156145ed57565b60405162461bcd60e51b815260206004820152601060248201526f3a3930b232903737ba10333937bd32b760811b6044820152606490fd5b1561462c57565b60405162461bcd60e51b815260206004820152601060248201526f185b1c9958591e48185c1c1c9bdd995960821b6044820152606490fd5b60001981146146735760010190565b634e487b7160e01b600052601160045260246000fd5b1561469057565b60405162461bcd60e51b8152602060048201526011602482015270185b1c9958591e4818d85b98d95b1b1959607a1b6044820152606490fd5b156146d057565b60405162461bcd60e51b81526020600482015260146024820152731c1c9bdc1bdcd85b081b9bdd08195e1c1a5c995960621b6044820152606490fd5b1561471357565b60405162461bcd60e51b815260206004820152601560248201527437b7363c903932b630bcb2b91037b91030b236b4b760591b6044820152606490fd5b1561475757565b60405162461bcd60e51b815260206004820152600f60248201526e1d1c985919481b9bdd08199bdd5b99608a1b6044820152606490fd5b1561479557565b60405162461bcd60e51b81526020600482015260156024820152741cdd185d1d5cc81b5d5cdd081899481313d0d2d151605a1b6044820152606490fd5b9190820180921161467357565b156147e657565b60405162461bcd60e51b815260206004820152600a6024820152691b9bdd081c185d5cd95960b21b6044820152606490fd5b1561481f57565b60405162461bcd60e51b81526020600482015260126024820152711b9bc81858dd1a5d99481c1c9bdc1bdcd85b60721b6044820152606490fd5b1561486057565b60405162461bcd60e51b815260206004820152600b60248201526a6f6e6c79206f7261636c6560a81b6044820152606490fd5b1561489a57565b60405162461bcd60e51b815260206004820152600f60248201526e1bdc9858db1948191a5cd8589b1959608a1b6044820152606490fd5b156148d857565b60405162461bcd60e51b815260206004820152600d60248201526c34b73b30b634b21030b236b4b760991b6044820152606490fd5b1561491457565b60405162461bcd60e51b815260206004820152600d60248201526c30b63932b0b23c9030b236b4b760991b6044820152606490fd5b1561495057565b60405162461bcd60e51b8152602060048201526013602482015272696e73756666696369656e742061646d696e7360681b6044820152606490fd5b815181546001600160a01b039091166001600160a01b031990911617815560208201516001820155604082015160028201805460ff191691151560ff1691909117905590600590606081015160038401556080810151600484015560a00151910180546001600160a01b0319166001600160a01b0392909216919091179055565b15614a1357565b60405162461bcd60e51b815260206004820152601960248201527f6d757374206265204152524956414c5f434f4e4649524d4544000000000000006044820152606490fd5b15614a5f57565b60405162461bcd60e51b815260206004820152600f60248201526e185c9c9a5d985b081b9bdd081cd95d608a1b6044820152606490fd5b15614a9d57565b60405162461bcd60e51b815260206004820152601960248201527f737461747573206d75737420626520494e5f5452414e534954000000000000006044820152606490fd5b15614ae957565b60405162461bcd60e51b81526020600482015260146024820152736e6f7420656e6f75676820617070726f76616c7360601b6044820152606490fd5b15614b2c57565b60405162461bcd60e51b81526020600482015260146024820152731d1a5b595b1bd8dac81b9bdd08195b185c1cd95960621b6044820152606490fd5b600260008051602061569d8339815191525414614b9357600260008051602061569d83398151915255565b633ee5aeb560e01b60005260046000fd5b60405163a9059cbb60e01b60009081526001600160a01b03909316600452602493909352919060209060448180865af190600160005114821615614c0f575b60405215614bee5750565b635274afe760e01b60009081526001600160a01b0391909116600452602490fd5b906001811516614c2757823b15153d15161690614be3565b503d6000823e3d90fd5b60ff60005416614c3d57565b60405162461bcd60e51b81526020600482015260066024820152651c185d5cd95960d21b6044820152606490fd5b15614c7257565b60405162461bcd60e51b81526020600482015260116024820152703130b21030baba3437b934bd30ba34b7b760791b6044820152606490fd5b60ff600282015416614cbc816142b4565b8015614d1957614ccb816142b4565b60018114908115614d04575b8115614cf0575b50614ce95750600090565b6008015490565b60039150614cfd816142b4565b1438614cde565b9050614d0f816142b4565b6002811490614cd7565b5080600860076143e8930154910154906147d2565b9081526040810192919060088210156142be5760200152565b908215614db85760017fb6abcb523a11175bda4306d957cda75287b3d848b084a70d85fe099f51bc7f8991818060a01b0316938460005260156020526040600020614d938282546147d2565b9055614da1816016546147d2565b601655614db360405192839283614d2e565b0390a3565b505050565b908215614db85760027fb6abcb523a11175bda4306d957cda75287b3d848b084a70d85fe099f51bc7f899160018060a01b0316938460005260156020526040600020614d938282546147d2565b9190918115614db857601054614e2c90839085906001600160a01b0316614ba4565b7ffb71e31697d4a6aaae1d166334aa8c7428a349389bcc95579d54fb95535edf7660405180614e676006339760018060a01b03169683614d2e565b0390a4565b9190918115614db857601054614e8e90839085906001600160a01b0316614ba4565b7ffb71e31697d4a6aaae1d166334aa8c7428a349389bcc95579d54fb95535edf7660405180614e676004339760018060a01b03169683614d2e565b9190918115614db857601054614eeb90839085906001600160a01b0316614ba4565b7ffb71e31697d4a6aaae1d166334aa8c7428a349389bcc95579d54fb95535edf7660405180614e676005339760018060a01b03169683614d2e565b604051906011548083528260208101601160005260206000209260005b818110614f5a575050614f5892500383614337565b565b84546001600160a01b0316835260019485019487945060209093019201614f43565b805182101561429e5760209160051b010190565b614f9d6002548210614750565b806000526001602052604060002090600282018054614fc4600260ff8316612416816142b4565b600a840154614fd4811515614a58565b6201518081018091116146735742111561505c5760049060ff191617905580600052600c602052600060408120557f525d8c9a3bdfd74e1b0f3f79ccf0ef47d77d261e27396b35539f75e5d4086106602060038401615044600860018060a01b0383541696019586549086615150565b5493546040519081526001600160a01b0390941693a3565b60405162461bcd60e51b81526020600482015260126024820152711dda5b991bddc81b9bdd08195b185c1cd95960721b6044820152606490fd5b9190918115614db8576010546150b890839085906001600160a01b0316614ba4565b7feda30a0d8ec5ade5ca4d49054f410ef255c797498d31d9cc9dd928c12c87e79b60405180614e676007339760018060a01b03169683614d2e565b9190918115614db85760105461511590839085906001600160a01b0316614ba4565b7feda30a0d8ec5ade5ca4d49054f410ef255c797498d31d9cc9dd928c12c87e79b60405180614e676000339760018060a01b03169683614d2e565b9190918115614db85760105461517290839085906001600160a01b0316614ba4565b7feda30a0d8ec5ade5ca4d49054f410ef255c797498d31d9cc9dd928c12c87e79b60405180614e676003339760018060a01b03169683614d2e565b6151b5614f26565b60005b81518110156151f3576001906001600160a01b036151d68285614f7c565b5116600052601b602052604060002060ff198154169055016151b8565b505060ff19601c5416601c556000601755600060185560006019556000601a55337fc79764e56dcfddc1a2135f80cf347dd741f7c7f914a134142b5d336e156d3bd0600080a2565b90916001600160a01b039091169081156152ec5742116152af5760005260046020526040600020540361526a57565b60405162461bcd60e51b815260206004820152601760248201527f62616420617574686f72697a6174696f6e206e6f6e63650000000000000000006044820152606490fd5b60405162461bcd60e51b8152602060048201526015602482015274185d5d1a1bdc9a5e985d1a5bdb88195e1c1a5c9959605a1b6044820152606490fd5b60405162461bcd60e51b815260206004820152600c60248201526b34b73b30b634b2103ab9b2b960a11b6044820152606490fd5b604051602081019161190160f01b83527f0000000000000000000000000000000000000000000000000000000000000000602283015260428201526042815261536a606282614337565b51902090565b9291926001840191828511614673576153a09160018060a01b031692836000526004602052604060002055615482565b9160405193845260208401527f6ac709e2093c74d3ce56616ef76760c53ae0bf401457fb868a84e66636d3678360403394a4565b8151919060418303615405576153fe92506020820151906060604084015193015160001a906155c7565b9192909190565b505060009160029190565b91909160048110156142be578061542657509050565b6000600182036154415763f645eedf60e01b60005260046000fd5b506002810361545f578263fce698f760e01b60005260045260246000fd5b909160036000921461546f575050565b6335e2f38360e21b825260045260249150fd5b61548b816142b4565b80156155a25761549a816142b4565b6001811461557d576154ab816142b4565b60028114615558576154bc816142b4565b60038114615533576004906154d0816142b4565b1461550f5760405162461bcd60e51b81526020600482015260126024820152713ab739bab83837b93a32b21030b1ba34b7b760711b6044820152606490fd5b7fa6115baa0e39b3877020da94fe30135520d27e0cb11c198edac119231d452a5790565b507f57f680ee8ca7390570646e9ba27d0a0f0e281e2565cbb092822584197106619690565b507f0e2cac5abaf6079f335df5966f41306619912fc862e3a81138fc8f0af5faca3690565b507f9d6f89df1fd95e20d56ed05e08fe9519ff6a2496090b77bfb70c8f64c21c238990565b507f642bc978b352e60185507106148c2e8af9b88eeaeec91883eebdc673e6add83f90565b91907f7fffffffffffffffffffffffffffffff5d576e7357a4501ddfe92f46681b20a08411615650579160209360809260ff60009560405194855216868401526040830152606082015282805260015afa15615644576000516001600160a01b038116156156385790600090600090565b50600090600190600090565b6040513d6000823e3d90fd5b5050506000916003919056fe1aeed6c1f2a5ee88498ce328b743baceb98beee0e74dc04aa13d1b44e5d341cfeff4a09a9216c5817ca15a500171a637ee0c8122db87aee65985697823e1beb29b779b17422d0df92223018b32b4d1fa46e071723d6817e2486d003becc55f00a2646970667358221220a8238a9f2a5ff85100f197e259dbaa7cd20374c762acdc0c0d49d525f5a0403d64736f6c63430008220033",
  "linkReferences": {},
  "deployedLinkReferences": {}
}