{
  "_format": "hh-sol-artifact-1",
  "contractName": "AgroasysEscrow",
  "sourceName": "src/AgroasysEscrow.sol",
  "abi": [
    {
      "inputs": [
        {
          "internalType": "address",
          "name": "_usdcToken",
          "type": "address"
        },
        {
          "internalType": "address",
          "name": "_oracleAddress",
          "type": "address"
        },
        {
          "internalType": "address",
          "name": "_treasuryAddress",
          "type": "address"
        },
        {
          "internalType": "address[]",
          "name": "_admins",
          "type": "address[]"
        },
        {
          "internalType": "uint256",
          "name": "_requiredApprovals",
          "type": "uint256"
        }
      ],
      "stateMutability": "nonpayable",
      "type": "constructor"
    },
    {
      "inputs": [],
      "name": "ECDSAInvalidSignature",
      "type": "error"
    },
    {
      "inputs": [
        {
          "internalType": "uint256",
          "name": "length",
          "type": "uint256"
        }
      ],
      "name": "ECDSAInvalidSignatureLength",
      "type": "error"
    },
    {
      "inputs": [
        {
          "internalType": "bytes32",
          "name": "s",
          "type": "bytes32"
        }
      ],
      "name": "ECDSAInvalidSignatureS",
      "type": "error"
    },
    {
      "inputs": [],
      "name": "EnforcedPause",
      "type": "error"
    },
    {
      "inputs": [],
      "name": "ExpectedPause",
      "type": "error"
    },
    {
      "inputs": [],
      "name": "ReentrancyGuardReentrantCall",
      "type": "error"
    },
    {
      "inputs": [
        {
          "internalType": "address",
          "name": "token",
          "type": "address"
        }
      ],
      "name": "SafeERC20FailedOperation",
      "type": "error"
    },
    {
      "anonymous": false,
      "inputs": [
        {
          "indexed": true,
          "internalType": "uint256",
          "name": "proposalId",
          "type": "uint256"
        },
        {
          "indexed": true,
          "internalType": "address",
          "name": "approver",
          "type": "address"
        },
        {
          "indexed": false,
          "internalType": "uint256",
          "name": "approvalCount",
          "type": "uint256"
        },
        {
          "indexed": false,
          "internalType": "uint256",
          "name": "requiredApprovals",
          "type": "uint256"
        }
      ],
      "name": "AdminAddApproved",
      "type": "event"
    },
    {
      "anonymous": false,
      "inputs": [
        {
          "indexed": true,
          "internalType": "uint256",
          "name": "proposalId",
          "type": "uint256"
        },
        {
          "indexed": true,
          "internalType": "address",
          "name": "cancelledBy",
          "type": "address"
        }
      ],
      "name": "AdminAddProposalExpiredCancelled",
      "type": "event"
    },
    {
      "anonymous": false,
      "inputs": [
        {
          "indexed": true,
          "internalType": "uint256",
          "name": "proposalId",
          "type": "uint256"
        },
        {
          "indexed": true,
          "internalType": "address",
          "name": "proposer",
          "type": "address"
        },
        {
          "indexed": true,
          "internalType": "address",
          "name": "newAdmin",
          "type": "address"
        },
        {
          "indexed": false,
          "internalType": "uint256",
          "name": "eta",
          "type": "uint256"
        }
      ],
      "name": "AdminAddProposed",
      "type": "event"
    },
    {
      "anonymous": false,
      "inputs": [
        {
          "indexed": true,
          "internalType": "address",
          "name": "newAdmin",
          "type": "address"
        }
      ],
      "name": "AdminAdded",
      "type": "event"
    },
    {
      "anonymous": false,
      "inputs": [
        {
          "indexed": true,
          "internalType": "uint256",
          "name": "tradeId",
          "type": "uint256"
        },
        {
          "indexed": false,
          "internalType": "uint256",
          "name": "arrivalTimestamp",
          "type": "uint256"
        }
      ],
      "name": "ArrivalConfirmed",
      "type": "event"
    },
    {
      "anonymous": false,
      "inputs": [
        {
          "indexed": true,
          "internalType": "address",
          "name": "user",
          "type": "address"
        },
        {
          "indexed": true,
          "internalType": "bytes32",
          "name": "action",
          "type": "bytes32"
        },
        {
          "indexed": false,
          "internalType": "uint256",
          "name": "nonce",
          "type": "uint256"
        },
        {
          "indexed": true,
          "internalType": "address",
          "name": "relayer",
          "type": "address"
        },
        {
          "indexed": false,
          "internalType": "uint256",
          "name": "deadline",
          "type": "uint256"
        }
      ],
      "name": "AuthorizationConsumed",
      "type": "event"
    },
    {
      "anonymous": false,
      "inputs": [
        {
          "indexed": true,
          "internalType": "uint256",
          "name": "tradeId",
          "type": "uint256"
        },
        {
          "indexed": true,
          "internalType": "address",
          "name": "buyer",
          "type": "address"
        },
        {
          "indexed": false,
          "internalType": "uint256",
          "name": "amount",
          "type": "uint256"
        },
        {
          "indexed": false,
          "internalType": "enum AgroasysEscrow.ClaimType",
          "name": "claimType",
          "type": "uint8"
        },
        {
          "indexed": true,
          "internalType": "address",
          "name": "triggeredBy",
          "type": "address"
        }
      ],
      "name": "BuyerRefundTransferred",
      "type": "event"
    },
    {
      "anonymous": false,
      "inputs": [
        {
          "indexed": true,
          "internalType": "uint256",
          "name": "tradeId",
          "type": "uint256"
        },
        {
          "indexed": true,
          "internalType": "address",
          "name": "recipient",
          "type": "address"
        },
        {
          "indexed": false,
          "internalType": "uint256",
          "name": "amount",
          "type": "uint256"
        },
        {
          "indexed": false,
          "internalType": "enum AgroasysEscrow.ClaimType",
          "name": "claimType",
          "type": "uint8"
        }
      ],
      "name": "ClaimableAccrued",
      "type": "event"
    },
    {
      "anonymous": false,
      "inputs": [
        {
          "indexed": true,
          "internalType": "address",
          "name": "triggeredBy",
          "type": "address"
        }
      ],
      "name": "ClaimsPaused",
      "type": "event"
    },
    {
      "anonymous": false,
      "inputs": [
        {
          "indexed": true,
          "internalType": "address",
          "name": "triggeredBy",
          "type": "address"
        }
      ],
      "name": "ClaimsUnpaused",
      "type": "event"
    },
    {
      "anonymous": false,
      "inputs": [
        {
          "indexed": true,
          "internalType": "uint256",
          "name": "proposalId",
          "type": "uint256"
        },
        {
          "indexed": true,
          "internalType": "address",
          "name": "approver",
          "type": "address"
        },
        {
          "indexed": false,
          "internalType": "uint256",
          "name": "approvalCount",
          "type": "uint256"
        },
        {
          "indexed": false,
          "internalType": "uint256",
          "name": "requiredApprovals",
          "type": "uint256"
        }
      ],
      "name": "DisputeApproved",
      "type": "event"
    },
    {
      "anonymous": false,
      "inputs": [
        {
          "indexed": true,
          "internalType": "uint256",
          "name": "proposalId",
          "type": "uint256"
        },
        {
          "indexed": true,
          "internalType": "uint256",
          "name": "tradeId",
          "type": "uint256"
        },
        {
          "indexed": false,
          "internalType": "enum AgroasysEscrow.DisputeStatus",
          "name": "disputeStatus",
          "type": "uint8"
        }
      ],
      "name": "DisputeFinalized",
      "type": "event"
    },
    {
      "anonymous": false,
      "inputs": [
        {
          "indexed": true,
          "internalType": "uint256",
          "name": "tradeId",
          "type": "uint256"
        }
      ],
      "name": "DisputeOpenedByBuyer",
      "type": "event"
    },
    {
      "anonymous": false,
      "inputs": [
        {
          "indexed": true,
          "internalType": "uint256",
          "name": "tradeId",
          "type": "uint256"
        },
        {
          "indexed": true,
          "internalType": "uint256",
          "name": "proposalId",
          "type": "uint256"
        },
        {
          "indexed": true,
          "internalType": "address",
          "name": "recipient",
          "type": "address"
        },
        {
          "indexed": false,
          "internalType": "uint256",
          "name": "amount",
          "type": "uint256"
        },
        {
          "indexed": false,
          "internalType": "enum AgroasysEscrow.DisputeStatus",
          "name": "payoutType",
          "type": "uint8"
        }
      ],
      "name": "DisputePayout",
      "type": "event"
    },
    {
      "anonymous": false,
      "inputs": [
        {
          "indexed": true,
          "internalType": "uint256",
          "name": "proposalId",
          "type": "uint256"
        },
        {
          "indexed": true,
          "internalType": "uint256",
          "name": "tradeId",
          "type": "uint256"
        },
        {
          "indexed": true,
          "internalType": "address",
          "name": "cancelledBy",
          "type": "address"
        }
      ],
      "name": "DisputeProposalExpiredCancelled",
      "type": "event"
    },
    {
      "anonymous": false,
      "inputs": [
        {
          "indexed": true,
          "internalType": "uint256",
          "name": "proposalId",
          "type": "uint256"
        },
        {
          "indexed": true,
          "internalType": "uint256",
          "name": "tradeId",
          "type": "uint256"
        },
        {
          "indexed": false,
          "internalType": "enum AgroasysEscrow.DisputeStatus",
          "name": "disputeStatus",
          "type": "uint8"
        },
        {
          "indexed": true,
          "internalType": "address",
          "name": "proposer",
          "type": "address"
        }
      ],
      "name": "DisputeSolutionProposed",
      "type": "event"
    },
    {
      "anonymous": false,
      "inputs": [
        {
          "indexed": true,
          "internalType": "uint256",
          "name": "tradeId",
          "type": "uint256"
        },
        {
          "indexed": true,
          "internalType": "address",
          "name": "supplier",
          "type": "address"
        },
        {
          "indexed": false,
          "internalType": "uint256",
          "name": "supplierSecondTranche",
          "type": "uint256"
        }
      ],
      "name": "FinalTrancheReleased",
      "type": "event"
    },
    {
      "anonymous": false,
      "inputs": [
        {
          "indexed": true,
          "internalType": "uint256",
          "name": "tradeId",
          "type": "uint256"
        },
        {
          "indexed": true,
          "internalType": "address",
          "name": "supplier",
          "type": "address"
        },
        {
          "indexed": false,
          "internalType": "uint256",
          "name": "supplierFirstTranche",
          "type": "uint256"
        },
        {
          "indexed": true,
          "internalType": "address",
          "name": "treasury",
          "type": "address"
        },
        {
          "indexed": false,
          "internalType": "uint256",
          "name": "logisticsAmount",
          "type": "uint256"
        }
      ],
      "name": "FundsReleasedStage1",
      "type": "event"
    },
    {
      "anonymous": false,
      "inputs": [
        {
          "indexed": true,
          "internalType": "uint256",
          "name": "tradeId",
          "type": "uint256"
        },
        {
          "indexed": true,
          "internalType": "address",
          "name": "supplier",
          "type": "address"
        },
        {
          "indexed": false,
          "internalType": "uint256",
          "name": "supplierSecondTranche",
          "type": "uint256"
        },
        {
          "indexed": true,
          "internalType": "address",
          "name": "treasury",
          "type": "address"
        },
        {
          "indexed": false,
          "internalType": "uint256",
          "name": "platformFeesAmount",
          "type": "uint256"
        }
      ],
      "name": "FundsReleasedStage2",
      "type": "event"
    },
    {
      "anonymous": false,
      "inputs": [
        {
          "indexed": true,
          "internalType": "uint256",
          "name": "tradeId",
          "type": "uint256"
        },
        {
          "indexed": true,
          "internalType": "address",
          "name": "buyer",
          "type": "address"
        },
        {
          "indexed": true,
          "internalType": "bytes32",
          "name": "usdcAuthorizationNonce",
          "type": "bytes32"
        },
        {
          "indexed": false,
          "internalType": "uint256",
          "name": "amount",
          "type": "uint256"
        }
      ],
      "name": "GaslessTradeFunded",
      "type": "event"
    },
    {
      "anonymous": false,
      "inputs": [
        {
          "indexed": true,
          "internalType": "uint256",
          "name": "tradeId",
          "type": "uint256"
        },
        {
          "indexed": true,
          "internalType": "address",
          "name": "buyer",
          "type": "address"
        },
        {
          "indexed": false,
          "internalType": "uint256",
          "name": "refundedAmount",
          "type": "uint256"
        }
      ],
      "name": "InTransitTimeoutRefunded",
      "type": "event"
    },
    {
      "anonymous": false,
      "inputs": [
        {
          "indexed": true,
          "internalType": "address",
          "name": "by",
          "type": "address"
        },
        {
          "indexed": true,
          "internalType": "address",
          "name": "previousOracle",
          "type": "address"
        }
      ],
      "name": "OracleDisabledEmergency",
      "type": "event"
    },
    {
      "anonymous": false,
      "inputs": [
        {
          "indexed": true,
          "internalType": "uint256",
          "name": "proposalId",
          "type": "uint256"
        },
        {
          "indexed": true,
          "internalType": "address",
          "name": "approver",
          "type": "address"
        },
        {
          "indexed": false,
          "internalType": "uint256",
          "name": "approvalCount",
          "type": "uint256"
        },
        {
          "indexed": false,
          "internalType": "uint256",
          "name": "requiredApprovals",
          "type": "uint256"
        }
      ],
      "name": "OracleUpdateApproved",
      "type": "event"
    },
    {
      "anonymous": false,
      "inputs": [
        {
          "indexed": true,
          "internalType": "uint256",
          "name": "proposalId",
          "type": "uint256"
        },
        {
          "indexed": true,
          "internalType": "address",
          "name": "cancelledBy",
          "type": "address"
        }
      ],
      "name": "OracleUpdateProposalExpiredCancelled",
      "type": "event"
    },
    {
      "anonymous": false,
      "inputs": [
        {
          "indexed": true,
          "internalType": "uint256",
          "name": "proposalId",
          "type": "uint256"
        },
        {
          "indexed": true,
          "internalType": "address",
          "name": "proposer",
          "type": "address"
        },
        {
          "indexed": true,
          "internalType": "address",
          "name": "newOracle",
          "type": "address"
        },
        {
          "indexed": false,
          "internalType": "uint256",
          "name": "eta",
          "type": "uint256"
        },
        {
          "indexed": false,
          "internalType": "bool",
          "name": "emergencyFastTrack",
          "type": "bool"
        }
      ],
      "name": "OracleUpdateProposed",
      "type": "event"
    },
    {
      "anonymous": false,
      "inputs": [
        {
          "indexed": true,
          "internalType": "address",
          "name": "oldOracle",
          "type": "address"
        },
        {
          "indexed": true,
          "internalType": "address",
          "name": "newOracle",
          "type": "address"
        }
      ],
      "name": "OracleUpdated",
      "type": "event"
    },
    {
      "anonymous": false,
      "inputs": [
        {
          "indexed": false,
          "internalType": "address",
          "name": "account",
          "type": "address"
        }
      ],
      "name": "Paused",
      "type": "event"
    },
    {
      "anonymous": false,
      "inputs": [
        {
          "indexed": true,
          "internalType": "uint256",
          "name": "tradeId",
          "type": "uint256"
        },
        {
          "indexed": true,
          "internalType": "address",
          "name": "treasury",
          "type": "address"
        },
        {
          "indexed": false,
          "internalType": "uint256",
          "name": "platformFeesAmount",
          "type": "uint256"
        }
      ],
      "name": "PlatformFeesPaidStage1",
      "type": "event"
    },
    {
      "anonymous": false,
      "inputs": [
        {
          "indexed": true,
          "internalType": "address",
          "name": "relayer",
          "type": "address"
        },
        {
          "indexed": true,
          "internalType": "address",
          "name": "user",
          "type": "address"
        },
        {
          "indexed": true,
          "internalType": "bytes32",
          "name": "action",
          "type": "bytes32"
        },
        {
          "indexed": false,
          "internalType": "uint256",
          "name": "tradeId",
          "type": "uint256"
        }
      ],
      "name": "RelayedActionExecuted",
      "type": "event"
    },
    {
      "anonymous": false,
      "inputs": [
        {
          "indexed": true,
          "internalType": "address",
          "name": "relayer",
          "type": "address"
        },
        {
          "indexed": false,
          "internalType": "bool",
          "name": "allowed",
          "type": "bool"
        },
        {
          "indexed": true,
          "internalType": "address",
          "name": "updatedBy",
          "type": "address"
        }
      ],
      "name": "RelayerUpdated",
      "type": "event"
    },
    {
      "anonymous": false,
      "inputs": [
        {
          "indexed": true,
          "internalType": "uint256",
          "name": "tradeId",
          "type": "uint256"
        },
        {
          "indexed": true,
          "internalType": "address",
          "name": "supplier",
          "type": "address"
        },
        {
          "indexed": false,
          "internalType": "uint256",
          "name": "amount",
          "type": "uint256"
        },
        {
          "indexed": false,
          "internalType": "enum AgroasysEscrow.ClaimType",
          "name": "claimType",
          "type": "uint8"
        },
        {
          "indexed": true,
          "internalType": "address",
          "name": "triggeredBy",
          "type": "address"
        }
      ],
      "name": "SupplierPayoutTransferred",
      "type": "event"
    },
    {
      "anonymous": false,
      "inputs": [
        {
          "indexed": true,
          "internalType": "uint256",
          "name": "tradeId",
          "type": "uint256"
        },
        {
          "indexed": true,
          "internalType": "address",
          "name": "buyer",
          "type": "address"
        },
        {
          "indexed": false,
          "internalType": "uint256",
          "name": "refundedAmount",
          "type": "uint256"
        }
      ],
      "name": "TradeCancelledAfterLockTimeout",
      "type": "event"
    },
    {
      "anonymous": false,
      "inputs": [
        {
          "indexed": true,
          "internalType": "uint256",
          "name": "tradeId",
          "type": "uint256"
        },
        {
          "indexed": true,
          "internalType": "address",
          "name": "buyer",
          "type": "address"
        },
        {
          "indexed": true,
          "internalType": "address",
          "name": "supplier",
          "type": "address"
        },
        {
          "indexed": false,
          "internalType": "uint256",
          "name": "totalAmount",
          "type": "uint256"
        },
        {
          "indexed": false,
          "internalType": "uint256",
          "name": "logisticsAmount",
          "type": "uint256"
        },
        {
          "indexed": false,
          "internalType": "uint256",
          "name": "platformFeesAmount",
          "type": "uint256"
        },
        {
          "indexed": false,
          "internalType": "uint256",
          "name": "supplierFirstTranche",
          "type": "uint256"
        },
        {
          "indexed": false,
          "internalType": "uint256",
          "name": "supplierSecondTranche",
          "type": "uint256"
        },
        {
          "indexed": false,
          "internalType": "bytes32",
          "name": "ricardianHash",
          "type": "bytes32"
        }
      ],
      "name": "TradeLocked",
      "type": "event"
    },
    {
      "anonymous": false,
      "inputs": [
        {
          "indexed": true,
          "internalType": "address",
          "name": "treasuryIdentity",
          "type": "address"
        },
        {
          "indexed": true,
          "internalType": "address",
          "name": "payoutReceiver",
          "type": "address"
        },
        {
          "indexed": false,
          "internalType": "uint256",
          "name": "amount",
          "type": "uint256"
        },
        {
          "indexed": false,
          "internalType": "address",
          "name": "triggeredBy",
          "type": "address"
        }
      ],
      "name": "TreasuryClaimed",
      "type": "event"
    },
    {
      "anonymous": false,
      "inputs": [
        {
          "indexed": true,
          "internalType": "uint256",
          "name": "proposalId",
          "type": "uint256"
        },
        {
          "indexed": true,
          "internalType": "address",
          "name": "approver",
          "type": "address"
        },
        {
          "indexed": false,
          "internalType": "uint256",
          "name": "approvalCount",
          "type": "uint256"
        },
        {
          "indexed": false,
          "internalType": "uint256",
          "name": "requiredApprovals",
          "type": "uint256"
        }
      ],
      "name": "TreasuryPayoutAddressUpdateApproved",
      "type": "event"
    },
    {
      "anonymous": false,
      "inputs": [
        {
          "indexed": true,
          "internalType": "uint256",
          "name": "proposalId",
          "type": "uint256"
        },
        {
          "indexed": true,
          "internalType": "address",
          "name": "cancelledBy",
          "type": "address"
        }
      ],
      "name": "TreasuryPayoutAddressUpdateProposalExpiredCancelled",
      "type": "event"
    },
    {
      "anonymous": false,
      "inputs": [
        {
          "indexed": true,
          "internalType": "uint256",
          "name": "proposalId",
          "type": "uint256"
        },
        {
          "indexed": true,
          "internalType": "address",
          "name": "proposer",
          "type": "address"
        },
        {
          "indexed": true,
          "internalType": "address",
          "name": "newPayoutReceiver",
          "type": "address"
        },
        {
          "indexed": false,
          "internalType": "uint256",
          "name": "eta",
          "type": "uint256"
        }
      ],
      "name": "TreasuryPayoutAddressUpdateProposed",
      "type": "event"
    },
    {
      "anonymous": false,
      "inputs": [
        {
          "indexed": true,
          "internalType": "address",
          "name": "oldPayoutReceiver",
          "type": "address"
        },
        {
          "indexed": true,
          "internalType": "address",
          "name": "newPayoutReceiver",
          "type": "address"
        }
      ],
      "name": "TreasuryPayoutAddressUpdated",
      "type": "event"
    },
    {
      "anonymous": false,
      "inputs": [
        {
          "indexed": true,
          "internalType": "address",
          "name": "approver",
          "type": "address"
        },
        {
          "indexed": false,
          "internalType": "uint256",
          "name": "approvalCount",
          "type": "uint256"
        },
        {
          "indexed": false,
          "internalType": "uint256",
          "name": "requiredApprovals",
          "type": "uint256"
        }
      ],
      "name": "UnpauseApproved",
      "type": "event"
    },
    {
      "anonymous": false,
      "inputs": [
        {
          "indexed": true,
          "internalType": "address",
          "name": "cancelledBy",
          "type": "address"
        }
      ],
      "name": "UnpauseProposalCancelled",
      "type": "event"
    },
    {
      "anonymous": false,
      "inputs": [
        {
          "indexed": true,
          "internalType": "address",
          "name": "proposer",
          "type": "address"
        }
      ],
      "name": "UnpauseProposed",
      "type": "event"
    },
    {
      "anonymous": false,
      "inputs": [
        {
          "indexed": false,
          "internalType": "address",
          "name": "account",
          "type": "address"
        }
      ],
      "name": "Unpaused",
      "type": "event"
    },
    {
      "inputs": [],
      "name": "ACTION_CANCEL_LOCKED_TIMEOUT",
      "outputs": [
        {
          "internalType": "bytes32",
          "name": "",
          "type": "bytes32"
        }
      ],
      "stateMutability": "view",
      "type": "function"
    },
    {
      "inputs": [],
      "name": "ACTION_CREATE_TRADE",
      "outputs": [
        {
          "internalType": "bytes32",
          "name": "",
          "type": "bytes32"
        }
      ],
      "stateMutability": "view",
      "type": "function"
    },
    {
      "inputs": [],
      "name": "ACTION_FINALIZE_AFTER_DISPUTE_WINDOW",
      "outputs": [
        {
          "internalType": "bytes32",
          "name": "",
          "type": "bytes32"
        }
      ],
      "stateMutability": "view",
      "type": "function"
    },
    {
      "inputs": [],
      "name": "ACTION_OPEN_DISPUTE",
      "outputs": [
        {
          "internalType": "bytes32",
          "name": "",
          "type": "bytes32"
        }
      ],
      "stateMutability": "view",
      "type": "function"
    },
    {
      "inputs": [],
      "name": "ACTION_REFUND_IN_TRANSIT_TIMEOUT",
      "outputs": [
        {
          "internalType": "bytes32",
          "name": "",
          "type": "bytes32"
        }
      ],
      "stateMutability": "view",
      "type": "function"
    },
    {
      "inputs": [],
      "name": "DISPUTE_PROPOSAL_TTL",
      "outputs": [
        {
          "internalType": "uint256",
          "name": "",
          "type": "uint256"
        }
      ],
      "stateMutability": "view",
      "type": "function"
    },
    {
      "inputs": [],
      "name": "DISPUTE_WINDOW",
      "outputs": [
        {
          "internalType": "uint256",
          "name": "",
          "type": "uint256"
        }
      ],
      "stateMutability": "view",
      "type": "function"
    },
    {
      "inputs": [],
      "name": "GOVERNANCE_PROPOSAL_TTL",
      "outputs": [
        {
          "internalType": "uint256",
          "name": "",
          "type": "uint256"
        }
      ],
      "stateMutability": "view",
      "type": "function"
    },
    {
      "inputs": [],
      "name": "IN_TRANSIT_TIMEOUT",
      "outputs": [
        {
          "internalType": "uint256",
          "name": "",
          "type": "uint256"
        }
      ],
      "stateMutability": "view",
      "type": "function"
    },
    {
      "inputs": [],
      "name": "LOCK_TIMEOUT",
      "outputs": [
        {
          "internalType": "uint256",
          "name": "",
          "type": "uint256"
        }
      ],
      "stateMutability": "view",
      "type": "function"
    },
    {
      "inputs": [],
      "name": "adminAddCounter",
      "outputs": [
        {
          "internalType": "uint256",
          "name": "",
          "type": "uint256"
        }
      ],
      "stateMutability": "view",
      "type": "function"
    },
    {
      "inputs": [
        {
          "internalType": "uint256",
          "name": "",
          "type": "uint256"
        },
        {
          "internalType": "address",
          "name": "",
          "type": "address"
        }
      ],
      "name": "adminAddHasApproved",
      "outputs": [
        {
          "internalType": "bool",
          "name": "",
          "type": "bool"
        }
      ],
      "stateMutability": "view",
      "type": "function"
    },
    {
      "inputs": [
        {
          "internalType": "uint256",
          "name": "",
          "type": "uint256"
        }
      ],
      "name": "adminAddProposalCancelled",
      "outputs": [
        {
          "internalType": "bool",
          "name": "",
          "type": "bool"
        }
      ],
      "stateMutability": "view",
      "type": "function"
    },
    {
      "inputs": [
        {
          "internalType": "uint256",
          "name": "",
          "type": "uint256"
        }
      ],
      "name": "adminAddProposalExpiresAt",
      "outputs": [
        {
          "internalType": "uint256",
          "name": "",
          "type": "uint256"
        }
      ],
      "stateMutability": "view",
      "type": "function"
    },
    {
      "inputs": [
        {
          "internalType": "uint256",
          "name": "",
          "type": "uint256"
        }
      ],
      "name": "adminAddProposals",
      "outputs": [
        {
          "internalType": "address",
          "name": "newAdmin",
          "type": "address"
        },
        {
          "internalType": "uint256",
          "name": "approvalCount",
          "type": "uint256"
        },
        {
          "internalType": "bool",
          "name": "executed",
          "type": "bool"
        },
        {
          "internalType": "uint256",
          "name": "createdAt",
          "type": "uint256"
        },
        {
          "internalType": "uint256",
          "name": "eta",
          "type": "uint256"
        },
        {
          "internalType": "address",
          "name": "proposer",
          "type": "address"
        }
      ],
      "stateMutability": "view",
      "type": "function"
    },
    {
      "inputs": [
        {
          "internalType": "uint256",
          "name": "",
          "type": "uint256"
        }
      ],
      "name": "admins",
      "outputs": [
        {
          "internalType": "address",
          "name": "",
          "type": "address"
        }
      ],
      "stateMutability": "view",
      "type": "function"
    },
    {
      "inputs": [
        {
          "internalType": "uint256",
          "name": "_proposalId",
          "type": "uint256"
        }
      ],
      "name": "approveAddAdmin",
      "outputs": [],
      "stateMutability": "nonpayable",
      "type": "function"
    },
    {
      "inputs": [
        {
          "internalType": "uint256",
          "name": "_proposalId",
          "type": "uint256"
        }
      ],
      "name": "approveDisputeSolution",
      "outputs": [],
      "stateMutability": "nonpayable",
      "type": "function"
    },
    {
      "inputs": [
        {
          "internalType": "uint256",
          "name": "_proposalId",
          "type": "uint256"
        }
      ],
      "name": "approveOracleUpdate",
      "outputs": [],
      "stateMutability": "nonpayable",
      "type": "function"
    },
    {
      "inputs": [
        {
          "internalType": "uint256",
          "name": "_proposalId",
          "type": "uint256"
        }
      ],
      "name": "approveTreasuryPayoutAddressUpdate",
      "outputs": [],
      "stateMutability": "nonpayable",
      "type": "function"
    },
    {
      "inputs": [],
      "name": "approveUnpause",
      "outputs": [],
      "stateMutability": "nonpayable",
      "type": "function"
    },
    {
      "inputs": [
        {
          "internalType": "address",
          "name": "",
          "type": "address"
        }
      ],
      "name": "authorizationNonces",
      "outputs": [
        {
          "internalType": "uint256",
          "name": "",
          "type": "uint256"
        }
      ],
      "stateMutability": "view",
      "type": "function"
    },
    {
      "inputs": [
        {
          "internalType": "uint256",
          "name": "_tradeId",
          "type": "uint256"
        }
      ],
      "name": "buyerRefundableAmount",
      "outputs": [
        {
          "internalType": "uint256",
          "name": "",
          "type": "uint256"
        }
      ],
      "stateMutability": "view",
      "type": "function"
    },
    {
      "inputs": [
        {
          "internalType": "uint256",
          "name": "_proposalId",
          "type": "uint256"
        }
      ],
      "name": "cancelExpiredAddAdminProposal",
      "outputs": [],
      "stateMutability": "nonpayable",
      "type": "function"
    },
    {
      "inputs": [
        {
          "internalType": "uint256",
          "name": "_proposalId",
          "type": "uint256"
        }
      ],
      "name": "cancelExpiredDisputeProposal",
      "outputs": [],
      "stateMutability": "nonpayable",
      "type": "function"
    },
    {
      "inputs": [
        {
          "internalType": "uint256",
          "name": "_proposalId",
          "type": "uint256"
        }
      ],
      "name": "cancelExpiredOracleUpdateProposal",
      "outputs": [],
      "stateMutability": "nonpayable",
      "type": "function"
    },
    {
      "inputs": [
        {
          "internalType": "uint256",
          "name": "_proposalId",
          "type": "uint256"
        }
      ],
      "name": "cancelExpiredTreasuryPayoutAddressUpdateProposal",
      "outputs": [],
      "stateMutability": "nonpayable",
      "type": "function"
    },
    {
      "inputs": [
        {
          "internalType": "uint256",
          "name": "_tradeId",
          "type": "uint256"
        }
      ],
      "name": "cancelLockedTradeAfterTimeout",
      "outputs": [],
      "stateMutability": "nonpayable",
      "type": "function"
    },
    {
      "inputs": [
        {
          "internalType": "uint256",
          "name": "_tradeId",
          "type": "uint256"
        },
        {
          "internalType": "uint256",
          "name": "_authorizationNonce",
          "type": "uint256"
        },
        {
          "internalType": "uint256",
          "name": "_authorizationDeadline",
          "type": "uint256"
        },
        {
          "internalType": "bytes",
          "name": "_authorizationSignature",
          "type": "bytes"
        }
      ],
      "name": "cancelLockedTradeAfterTimeoutWithAuthorization",
      "outputs": [],
      "stateMutability": "nonpayable",
      "type": "function"
    },
    {
      "inputs": [],
      "name": "cancelUnpauseProposal",
      "outputs": [],
      "stateMutability": "nonpayable",
      "type": "function"
    },
    {
      "inputs": [],
      "name": "claimTreasury",
      "outputs": [],
      "stateMutability": "nonpayable",
      "type": "function"
    },
    {
      "inputs": [
        {
          "internalType": "address",
          "name": "",
          "type": "address"
        }
      ],
      "name": "claimableUsdc",
      "outputs": [
        {
          "internalType": "uint256",
          "name": "",
          "type": "uint256"
        }
      ],
      "stateMutability": "view",
      "type": "function"
    },
    {
      "inputs": [],
      "name": "claimsPaused",
      "outputs": [
        {
          "internalType": "bool",
          "name": "",
          "type": "bool"
        }
      ],
      "stateMutability": "view",
      "type": "function"
    },
    {
      "inputs": [
        {
          "internalType": "uint256",
          "name": "_tradeId",
          "type": "uint256"
        }
      ],
      "name": "confirmArrival",
      "outputs": [],
      "stateMutability": "nonpayable",
      "type": "function"
    },
    {
      "inputs": [
        {
          "internalType": "address",
          "name": "_supplier",
          "type": "address"
        },
        {
          "internalType": "uint256",
          "name": "_totalAmount",
          "type": "uint256"
        },
        {
          "internalType": "uint256",
          "name": "_logisticsAmount",
          "type": "uint256"
        },
        {
          "internalType": "uint256",
          "name": "_platformFeesAmount",
          "type": "uint256"
        },
        {
          "internalType": "uint256",
          "name": "_supplierFirstTranche",
          "type": "uint256"
        },
        {
          "internalType": "uint256",
          "name": "_supplierSecondTranche",
          "type": "uint256"
        },
        {
          "internalType": "bytes32",
          "name": "_ricardianHash",
          "type": "bytes32"
        },
        {
          "internalType": "uint256",
          "name": "_buyerNonce",
          "type": "uint256"
        },
        {
          "internalType": "uint256",
          "name": "_deadline",
          "type": "uint256"
        },
        {
          "internalType": "bytes",
          "name": "_signature",
          "type": "bytes"
        }
      ],
      "name": "createTrade",
      "outputs": [
        {
          "internalType": "uint256",
          "name": "",
          "type": "uint256"
        }
      ],
      "stateMutability": "nonpayable",
      "type": "function"
    },
    {
      "inputs": [
        {
          "internalType": "address",
          "name": "_buyer",
          "type": "address"
        },
        {
          "internalType": "address",
          "name": "_supplier",
          "type": "address"
        },
        {
          "internalType": "uint256",
          "name": "_totalAmount",
          "type": "uint256"
        },
        {
          "internalType": "uint256",
          "name": "_logisticsAmount",
          "type": "uint256"
        },
        {
          "internalType": "uint256",
          "name": "_platformFeesAmount",
          "type": "uint256"
        },
        {
          "internalType": "uint256",
          "name": "_supplierFirstTranche",
          "type": "uint256"
        },
        {
          "internalType": "uint256",
          "name": "_supplierSecondTranche",
          "type": "uint256"
        },
        {
          "internalType": "bytes32",
          "name": "_ricardianHash",
          "type": "bytes32"
        },
        {
          "internalType": "uint256",
          "name": "_authorizationNonce",
          "type": "uint256"
        },
        {
          "internalType": "uint256",
          "name": "_authorizationDeadline",
          "type": "uint256"
        },
        {
          "internalType": "bytes",
          "name": "_authorizationSignature",
          "type": "bytes"
        },
        {
          "components": [
            {
              "internalType": "uint256",
              "name": "validAfter",
              "type": "uint256"
            },
            {
              "internalType": "uint256",
              "name": "validBefore",
              "type": "uint256"
            },
            {
              "internalType": "bytes32",
              "name": "nonce",
              "type": "bytes32"
            },
            {
              "internalType": "uint8",
              "name": "v",
              "type": "uint8"
            },
            {
              "internalType": "bytes32",
              "name": "r",
              "type": "bytes32"
            },
            {
              "internalType": "bytes32",
              "name": "s",
              "type": "bytes32"
            }
          ],
          "internalType": "struct AgroasysEscrow.UsdcAuthorization",
          "name": "_usdcAuthorization",
          "type": "tuple"
        }
      ],
      "name": "createTradeWithAuthorization",
      "outputs": [
        {
          "internalType": "uint256",
          "name": "",
          "type": "uint256"
        }
      ],
      "stateMutability": "nonpayable",
      "type": "function"
    },
    {
      "inputs": [],
      "name": "disableOracleEmergency",
      "outputs": [],
      "stateMutability": "nonpayable",
      "type": "function"
    },
    {
      "inputs": [],
      "name": "disputeCounter",
      "outputs": [
        {
          "internalType": "uint256",
          "name": "",
          "type": "uint256"
        }
      ],
      "stateMutability": "view",
      "type": "function"
    },
    {
      "inputs": [
        {
          "internalType": "uint256",
          "name": "",
          "type": "uint256"
        },
        {
          "internalType": "address",
          "name": "",
          "type": "address"
        }
      ],
      "name": "disputeHasApproved",
      "outputs": [
        {
          "internalType": "bool",
          "name": "",
          "type": "bool"
        }
      ],
      "stateMutability": "view",
      "type": "function"
    },
    {
      "inputs": [
        {
          "internalType": "uint256",
          "name": "",
          "type": "uint256"
        }
      ],
      "name": "disputeProposalCancelled",
      "outputs": [
        {
          "internalType": "bool",
          "name": "",
          "type": "bool"
        }
      ],
      "stateMutability": "view",
      "type": "function"
    },
    {
      "inputs": [
        {
          "internalType": "uint256",
          "name": "",
          "type": "uint256"
        }
      ],
      "name": "disputeProposalExpiresAt",
      "outputs": [
        {
          "internalType": "uint256",
          "name": "",
          "type": "uint256"
        }
      ],
      "stateMutability": "view",
      "type": "function"
    },
    {
      "inputs": [
        {
          "internalType": "uint256",
          "name": "",
          "type": "uint256"
        }
      ],
      "name": "disputeProposals",
      "outputs": [
        {
          "internalType": "uint256",
          "name": "tradeId",
          "type": "uint256"
        },
        {
          "internalType": "enum AgroasysEscrow.DisputeStatus",
          "name": "disputeStatus",
          "type": "uint8"
        },
        {
          "internalType": "uint256",
          "name": "approvalCount",
          "type": "uint256"
        },
        {
          "internalType": "bool",
          "name": "executed",
          "type": "bool"
        },
        {
          "internalType": "uint256",
          "name": "createdAt",
          "type": "uint256"
        },
        {
          "internalType": "address",
          "name": "proposer",
          "type": "address"
        }
      ],
      "stateMutability": "view",
      "type": "function"
    },
    {
      "inputs": [
        {
          "internalType": "uint256",
          "name": "_proposalId",
          "type": "uint256"
        }
      ],
      "name": "executeAddAdmin",
      "outputs": [],
      "stateMutability": "nonpayable",
      "type": "function"
    },
    {
      "inputs": [
        {
          "internalType": "uint256",
          "name": "_proposalId",
          "type": "uint256"
        }
      ],
      "name": "executeOracleUpdate",
      "outputs": [],
      "stateMutability": "nonpayable",
      "type": "function"
    },
    {
      "inputs": [
        {
          "internalType": "uint256",
          "name": "_proposalId",
          "type": "uint256"
        }
      ],
      "name": "executeTreasuryPayoutAddressUpdate",
      "outputs": [],
      "stateMutability": "nonpayable",
      "type": "function"
    },
    {
      "inputs": [
        {
          "internalType": "uint256",
          "name": "_tradeId",
          "type": "uint256"
        }
      ],
      "name": "finalizeAfterDisputeWindow",
      "outputs": [],
      "stateMutability": "nonpayable",
      "type": "function"
    },
    {
      "inputs": [
        {
          "internalType": "uint256",
          "name": "_tradeId",
          "type": "uint256"
        },
        {
          "internalType": "uint256",
          "name": "_authorizationNonce",
          "type": "uint256"
        },
        {
          "internalType": "uint256",
          "name": "_authorizationDeadline",
          "type": "uint256"
        },
        {
          "internalType": "bytes",
          "name": "_authorizationSignature",
          "type": "bytes"
        }
      ],
      "name": "finalizeAfterDisputeWindowWithAuthorization",
      "outputs": [],
      "stateMutability": "nonpayable",
      "type": "function"
    },
    {
      "inputs": [
        {
          "internalType": "address",
          "name": "user",
          "type": "address"
        }
      ],
      "name": "getAuthorizationNonce",
      "outputs": [
        {
          "internalType": "uint256",
          "name": "",
          "type": "uint256"
        }
      ],
      "stateMutability": "view",
      "type": "function"
    },
    {
      "inputs": [
        {
          "internalType": "address",
          "name": "buyer",
          "type": "address"
        }
      ],
      "name": "getBuyerNonce",
      "outputs": [
        {
          "internalType": "uint256",
          "name": "",
          "type": "uint256"
        }
      ],
      "stateMutability": "view",
      "type": "function"
    },
    {
      "inputs": [],
      "name": "getNextTradeId",
      "outputs": [
        {
          "internalType": "uint256",
          "name": "",
          "type": "uint256"
        }
      ],
      "stateMutability": "view",
      "type": "function"
    },
    {
      "inputs": [],
      "name": "governanceApprovals",
      "outputs": [
        {
          "internalType": "uint256",
          "name": "",
          "type": "uint256"
        }
      ],
      "stateMutability": "view",
      "type": "function"
    },
    {
      "inputs": [],
      "name": "governanceTimelock",
      "outputs": [
        {
          "internalType": "uint256",
          "name": "",
          "type": "uint256"
        }
      ],
      "stateMutability": "view",
      "type": "function"
    },
    {
      "inputs": [],
      "name": "hasActiveUnpauseProposal",
      "outputs": [
        {
          "internalType": "bool",
          "name": "",
          "type": "bool"
        }
      ],
      "stateMutability": "view",
      "type": "function"
    },
    {
      "inputs": [],
      "name": "hasPendingTreasuryPayoutAddressUpdateProposal",
      "outputs": [
        {
          "internalType": "bool",
          "name": "",
          "type": "bool"
        }
      ],
      "stateMutability": "view",
      "type": "function"
    },
    {
      "inputs": [
        {
          "internalType": "uint256",
          "name": "",
          "type": "uint256"
        }
      ],
      "name": "inTransitSince",
      "outputs": [
        {
          "internalType": "uint256",
          "name": "",
          "type": "uint256"
        }
      ],
      "stateMutability": "view",
      "type": "function"
    },
    {
      "inputs": [
        {
          "internalType": "address",
          "name": "",
          "type": "address"
        }
      ],
      "name": "isAdmin",
      "outputs": [
        {
          "internalType": "bool",
          "name": "",
          "type": "bool"
        }
      ],
      "stateMutability": "view",
      "type": "function"
    },
    {
      "inputs": [
        {
          "internalType": "address",
          "name": "",
          "type": "address"
        }
      ],
      "name": "isRelayer",
      "outputs": [
        {
          "internalType": "bool",
          "name": "",
          "type": "bool"
        }
      ],
      "stateMutability": "view",
      "type": "function"
    },
    {
      "inputs": [
        {
          "internalType": "uint256",
          "name": "_tradeId",
          "type": "uint256"
        }
      ],
      "name": "nonRefundableFeeAmount",
      "outputs": [
        {
          "internalType": "uint256",
          "name": "",
          "type": "uint256"
        }
      ],
      "stateMutability": "view",
      "type": "function"
    },
    {
      "inputs": [
        {
          "internalType": "address",
          "name": "",
          "type": "address"
        }
      ],
      "name": "nonces",
      "outputs": [
        {
          "internalType": "uint256",
          "name": "",
          "type": "uint256"
        }
      ],
      "stateMutability": "view",
      "type": "function"
    },
    {
      "inputs": [
        {
          "internalType": "uint256",
          "name": "_tradeId",
          "type": "uint256"
        }
      ],
      "name": "openDispute",
      "outputs": [],
      "stateMutability": "nonpayable",
      "type": "function"
    },
    {
      "inputs": [
        {
          "internalType": "uint256",
          "name": "_tradeId",
          "type": "uint256"
        },
        {
          "internalType": "uint256",
          "name": "_authorizationNonce",
          "type": "uint256"
        },
        {
          "internalType": "uint256",
          "name": "_authorizationDeadline",
          "type": "uint256"
        },
        {
          "internalType": "bytes",
          "name": "_authorizationSignature",
          "type": "bytes"
        }
      ],
      "name": "openDisputeWithAuthorization",
      "outputs": [],
      "stateMutability": "nonpayable",
      "type": "function"
    },
    {
      "inputs": [],
      "name": "oracleActive",
      "outputs": [
        {
          "internalType": "bool",
          "name": "",
          "type": "bool"
        }
      ],
      "stateMutability": "view",
      "type": "function"
    },
    {
      "inputs": [],
      "name": "oracleAddress",
      "outputs": [
        {
          "internalType": "address",
          "name": "",
          "type": "address"
        }
      ],
      "stateMutability": "view",
      "type": "function"
    },
    {
      "inputs": [],
      "name": "oracleUpdateCounter",
      "outputs": [
        {
          "internalType": "uint256",
          "name": "",
          "type": "uint256"
        }
      ],
      "stateMutability": "view",
      "type": "function"
    },
    {
      "inputs": [
        {
          "internalType": "uint256",
          "name": "",
          "type": "uint256"
        },
        {
          "internalType": "address",
          "name": "",
          "type": "address"
        }
      ],
      "name": "oracleUpdateHasApproved",
      "outputs": [
        {
          "internalType": "bool",
          "name": "",
          "type": "bool"
        }
      ],
      "stateMutability": "view",
      "type": "function"
    },
    {
      "inputs": [
        {
          "internalType": "uint256",
          "name": "",
          "type": "uint256"
        }
      ],
      "name": "oracleUpdateProposalCancelled",
      "outputs": [
        {
          "internalType": "bool",
          "name": "",
          "type": "bool"
        }
      ],
      "stateMutability": "view",
      "type": "function"
    },
    {
      "inputs": [
        {
          "internalType": "uint256",
          "name": "",
          "type": "uint256"
        }
      ],
      "name": "oracleUpdateProposalExpiresAt",
      "outputs": [
        {
          "internalType": "uint256",
          "name": "",
          "type": "uint256"
        }
      ],
      "stateMutability": "view",
      "type": "function"
    },
    {
      "inputs": [
        {
          "internalType": "uint256",
          "name": "",
          "type": "uint256"
        }
      ],
      "name": "oracleUpdateProposals",
      "outputs": [
        {
          "internalType": "address",
          "name": "newOracle",
          "type": "address"
        },
        {
          "internalType": "uint256",
          "name": "approvalCount",
          "type": "uint256"
        },
        {
          "internalType": "bool",
          "name": "executed",
          "type": "bool"
        },
        {
          "internalType": "uint256",
          "name": "createdAt",
          "type": "uint256"
        },
        {
          "internalType": "uint256",
          "name": "eta",
          "type": "uint256"
        },
        {
          "internalType": "address",
          "name": "proposer",
          "type": "address"
        },
        {
          "internalType": "bool",
          "name": "emergencyFastTrack",
          "type": "bool"
        }
      ],
      "stateMutability": "view",
      "type": "function"
    },
    {
      "inputs": [],
      "name": "pause",
      "outputs": [],
      "stateMutability": "nonpayable",
      "type": "function"
    },
    {
      "inputs": [],
      "name": "pauseClaims",
      "outputs": [],
      "stateMutability": "nonpayable",
      "type": "function"
    },
    {
      "inputs": [],
      "name": "paused",
      "outputs": [
        {
          "internalType": "bool",
          "name": "",
          "type": "bool"
        }
      ],
      "stateMutability": "view",
      "type": "function"
    },
    {
      "inputs": [
        {
          "internalType": "address",
          "name": "_newAdmin",
          "type": "address"
        }
      ],
      "name": "proposeAddAdmin",
      "outputs": [
        {
          "internalType": "uint256",
          "name": "",
          "type": "uint256"
        }
      ],
      "stateMutability": "nonpayable",
      "type": "function"
    },
    {
      "inputs": [
        {
          "internalType": "uint256",
          "name": "_tradeId",
          "type": "uint256"
        },
        {
          "internalType": "enum AgroasysEscrow.DisputeStatus",
          "name": "_disputeStatus",
          "type": "uint8"
        }
      ],
      "name": "proposeDisputeSolution",
      "outputs": [
        {
          "internalType": "uint256",
          "name": "",
          "type": "uint256"
        }
      ],
      "stateMutability": "nonpayable",
      "type": "function"
    },
    {
      "inputs": [
        {
          "internalType": "address",
          "name": "_newOracle",
          "type": "address"
        }
      ],
      "name": "proposeOracleUpdate",
      "outputs": [
        {
          "internalType": "uint256",
          "name": "",
          "type": "uint256"
        }
      ],
      "stateMutability": "nonpayable",
      "type": "function"
    },
    {
      "inputs": [
        {
          "internalType": "address",
          "name": "_newPayoutReceiver",
          "type": "address"
        }
      ],
      "name": "proposeTreasuryPayoutAddressUpdate",
      "outputs": [
        {
          "internalType": "uint256",
          "name": "",
          "type": "uint256"
        }
      ],
      "stateMutability": "nonpayable",
      "type": "function"
    },
    {
      "inputs": [],
      "name": "proposeUnpause",
      "outputs": [
        {
          "internalType": "bool",
          "name": "",
          "type": "bool"
        }
      ],
      "stateMutability": "nonpayable",
      "type": "function"
    },
    {
      "inputs": [
        {
          "internalType": "uint256",
          "name": "_tradeId",
          "type": "uint256"
        }
      ],
      "name": "refundInTransitAfterTimeout",
      "outputs": [],
      "stateMutability": "nonpayable",
      "type": "function"
    },
    {
      "inputs": [
        {
          "internalType": "uint256",
          "name": "_tradeId",
          "type": "uint256"
        },
        {
          "internalType": "uint256",
          "name": "_authorizationNonce",
          "type": "uint256"
        },
        {
          "internalType": "uint256",
          "name": "_authorizationDeadline",
          "type": "uint256"
        },
        {
          "internalType": "bytes",
          "name": "_authorizationSignature",
          "type": "bytes"
        }
      ],
      "name": "refundInTransitAfterTimeoutWithAuthorization",
      "outputs": [],
      "stateMutability": "nonpayable",
      "type": "function"
    },
    {
      "inputs": [
        {
          "internalType": "uint256",
          "name": "_tradeId",
          "type": "uint256"
        }
      ],
      "name": "releaseFundsStage1",
      "outputs": [],
      "stateMutability": "nonpayable",
      "type": "function"
    },
    {
      "inputs": [],
      "name": "requiredApprovals",
      "outputs": [
        {
          "internalType": "uint256",
          "name": "",
          "type": "uint256"
        }
      ],
      "stateMutability": "view",
      "type": "function"
    },
    {
      "inputs": [
        {
          "internalType": "address",
          "name": "relayer",
          "type": "address"
        },
        {
          "internalType": "bool",
          "name": "allowed",
          "type": "bool"
        }
      ],
      "name": "setRelayer",
      "outputs": [],
      "stateMutability": "nonpayable",
      "type": "function"
    },
    {
      "inputs": [],
      "name": "totalClaimableUsdc",
      "outputs": [
        {
          "internalType": "uint256",
          "name": "",
          "type": "uint256"
        }
      ],
      "stateMutability": "view",
      "type": "function"
    },
    {
      "inputs": [
        {
          "internalType": "uint256",
          "name": "",
          "type": "uint256"
        }
      ],
      "name": "tradeActiveDisputeProposalId",
      "outputs": [
        {
          "internalType": "uint256",
          "name": "",
          "type": "uint256"
        }
      ],
      "stateMutability": "view",
      "type": "function"
    },
    {
      "inputs": [],
      "name": "tradeCounter",
      "outputs": [
        {
          "internalType": "uint256",
          "name": "",
          "type": "uint256"
        }
      ],
      "stateMutability": "view",
      "type": "function"
    },
    {
      "inputs": [
        {
          "internalType": "uint256",
          "name": "",
          "type": "uint256"
        }
      ],
      "name": "tradeHasActiveDisputeProposal",
      "outputs": [
        {
          "internalType": "bool",
          "name": "",
          "type": "bool"
        }
      ],
      "stateMutability": "view",
      "type": "function"
    },
    {
      "inputs": [
        {
          "internalType": "uint256",
          "name": "",
          "type": "uint256"
        }
      ],
      "name": "trades",
      "outputs": [
        {
          "internalType": "uint256",
          "name": "tradeId",
          "type": "uint256"
        },
        {
          "internalType": "bytes32",
          "name": "ricardianHash",
          "type": "bytes32"
        },
        {
          "internalType": "enum AgroasysEscrow.TradeStatus",
          "name": "status",
          "type": "uint8"
        },
        {
          "internalType": "address",
          "name": "buyerAddress",
          "type": "address"
        },
        {
          "internalType": "address",
          "name": "supplierAddress",
          "type": "address"
        },
        {
          "internalType": "uint256",
          "name": "totalAmountLocked",
          "type": "uint256"
        },
        {
          "internalType": "uint256",
          "name": "logisticsAmount",
          "type": "uint256"
        },
        {
          "internalType": "uint256",
          "name": "platformFeesAmount",
          "type": "uint256"
        },
        {
          "internalType": "uint256",
          "name": "supplierFirstTranche",
          "type": "uint256"
        },
        {
          "internalType": "uint256",
          "name": "supplierSecondTranche",
          "type": "uint256"
        },
        {
          "internalType": "uint256",
          "name": "createdAt",
          "type": "uint256"
        },
        {
          "internalType": "uint256",
          "name": "arrivalTimestamp",
          "type": "uint256"
        }
      ],
      "stateMutability": "view",
      "type": "function"
    },
    {
      "inputs": [],
      "name": "treasuryAddress",
      "outputs": [
        {
          "internalType": "address",
          "name": "",
          "type": "address"
        }
      ],
      "stateMutability": "view",
      "type": "function"
    },
    {
      "inputs": [],
      "name": "treasuryPayoutAddress",
      "outputs": [
        {
          "internalType": "address",
          "name": "",
          "type": "address"
        }
      ],
      "stateMutability": "view",
      "type": "function"
    },
    {
      "inputs": [],
      "name": "treasuryPayoutAddressUpdateCounter",
      "outputs": [
        {
          "internalType": "uint256",
          "name": "",
          "type": "uint256"
        }
      ],
      "stateMutability": "view",
      "type": "function"
    },
    {
      "inputs": [
        {
          "internalType": "uint256",
          "name": "",
          "type": "uint256"
        },
        {
          "internalType": "address",
          "name": "",
          "type": "address"
        }
      ],
      "name": "treasuryPayoutAddressUpdateHasApproved",
      "outputs": [
        {
          "internalType": "bool",
          "name": "",
          "type": "bool"
        }
      ],
      "stateMutability": "view",
      "type": "function"
    },
    {
      "inputs": [
        {
          "internalType": "uint256",
          "name": "",
          "type": "uint256"
        }
      ],
      "name": "treasuryPayoutAddressUpdateProposalCancelled",
      "outputs": [
        {
          "internalType": "bool",
          "name": "",
          "type": "bool"
        }
      ],
      "stateMutability": "view",
      "type": "function"
    },
    {
      "inputs": [
        {
          "internalType": "uint256",
          "name": "",
          "type": "uint256"
        }
      ],
      "name": "treasuryPayoutAddressUpdateProposalExpiresAt",
      "outputs": [
        {
          "internalType": "uint256",
          "name": "",
          "type": "uint256"
        }
      ],
      "stateMutability": "view",
      "type": "function"
    },
    {
      "inputs": [
        {
          "internalType": "uint256",
          "name": "",
          "type": "uint256"
        }
      ],
      "name": "treasuryPayoutAddressUpdateProposals",
      "outputs": [
        {
          "internalType": "address",
          "name": "newPayoutReceiver",
          "type": "address"
        },
        {
          "internalType": "uint256",
          "name": "approvalCount",
          "type": "uint256"
        },
        {
          "internalType": "bool",
          "name": "executed",
          "type": "bool"
        },
        {
          "internalType": "uint256",
          "name": "createdAt",
          "type": "uint256"
        },
        {
          "internalType": "uint256",
          "name": "eta",
          "type": "uint256"
        },
        {
          "internalType": "address",
          "name": "proposer",
          "type": "address"
        }
      ],
      "stateMutability": "view",
      "type": "function"
    },
    {
      "inputs": [],
      "name": "unpauseClaims",
      "outputs": [],
      "stateMutability": "nonpayable",
      "type": "function"
    },
    {
      "inputs": [
        {
          "internalType": "address",
          "name": "",
          "type": "address"
        }
      ],
      "name": "unpauseHasApproved",
      "outputs": [
        {
          "internalType": "bool",
          "name": "",
          "type": "bool"
        }
      ],
      "stateMutability": "view",
      "type": "function"
    },
    {
      "inputs": [],
      "name": "unpauseProposal",
      "outputs": [
        {
          "internalType": "uint256",
          "name": "approvalCount",
          "type": "uint256"
        },
        {
          "internalType": "bool",
          "name": "executed",
          "type": "bool"
        },
        {
          "internalType": "uint256",
          "name": "createdAt",
          "type": "uint256"
        },
        {
          "internalType": "address",
          "name": "proposer",
          "type": "address"
        }
      ],
      "stateMutability": "view",
      "type": "function"
    },
    {
      "inputs": [],
      "name": "usdcToken",
      "outputs": [
        {
          "internalType": "contract IERC20",
          "name": "",
          "type": "address"
        }
      ],
      "stateMutability": "view",
      "type": "function"
    }
  ],
  "bytecode": "0x60a080604052346104d7576163b7803803809161001c82856104f2565b833981019060a0818303126104d75761003481610515565b9061004160208201610515565b9061004e60408201610515565b60608201519091906001600160401b0381116104d75781019480601f870112156104d7578551956001600160401b0387116104dc578660051b9060405197610099602084018a6104f2565b88526020808901928201019283116104d757602001905b8282106104bf575050506080015160017f9b779b17422d0df92223018b32b4d1fa46e071723d6817e2486d003becc55f0055926001600160a01b031691821561048a576001600160a01b0316908115610454576001600160a01b031691821561041c57600284106103d7578385511061039e57601080546001600160a01b0319908116929092179055600d8054821692909217909155600e8054821683179055600f805490911690911790556014556000905b80518210156102a757600582901b810160200151600092906001600160a01b0316801561027657808452601260205260ff60408520541661023f576011546801000000000000000081101561022b576001810180601155811015610217577f31ecc21a745e3968a04e9570e4425bc18fa8019c68028196b546d1669c200c680180546001600160a01b03191682179055835260126020526040909220805460ff191660019081179091559190910190610163565b634e487b7160e01b85526032600452602485fd5b634e487b7160e01b85526041600452602485fd5b60405162461bcd60e51b815260206004820152600f60248201526e323ab83634b1b0ba329030b236b4b760891b6044820152606490fd5b60405162461bcd60e51b81526020600482015260096024820152683130b21030b236b4b760b91b6044820152606490fd5b62015180601d55600f805460ff60a81b1916600160a81b17905560408051906102d090826104f2565b600e81526d4167726f61737973457363726f7760901b602090910152604080517f60b5ba687a3fb28c60c02b55848ec4ac87ec13f39917c0f415531752131bff419161031c90826104f2565b600181526020810190603160f81b82525190206040519060208201927f8b73c3c69bb8fe3d512ecc4cf759cc79239f7b179b0ffacaa9a75d522b39400f8452604083015260608201524660808201523060a082015260a0815261038060c0826104f2565b519020608052604051615e8d908161052a823960805181615acd0152f35b60405162461bcd60e51b81526020600482015260116024820152706e6f7420656e6f7567682061646d696e7360781b6044820152606490fd5b60405162461bcd60e51b815260206004820152601f60248201527f726571756972656420617070726f76616c73206d757374206265203e3d2032006044820152606490fd5b60405162461bcd60e51b815260206004820152601060248201526f696e76616c696420747265617375727960801b6044820152606490fd5b60405162461bcd60e51b815260206004820152600e60248201526d696e76616c6964206f7261636c6560901b6044820152606490fd5b60405162461bcd60e51b815260206004820152600d60248201526c34b73b30b634b2103a37b5b2b760991b6044820152606490fd5b602080916104cc84610515565b8152019101906100b0565b600080fd5b634e487b7160e01b600052604160045260246000fd5b601f909101601f19168101906001600160401b038211908210176104dc57604052565b51906001600160a01b03821682036104d75756fe608080604052600436101561001357600080fd5b600090813560e01c9081623bdc7414614484575080630d6043c61461408d5780630f3314e714613fe157806311eac85514613fb857806314bfd6d014613f7457806318c2740414613ef05780631e6c598e14613e2d5780631fa7e781146125a857806320e32a5314613e0357806324d7806c14613dc45780632507cde114613adc57806326ff5e1c14613aa15780632715048c146139d557806327d00fb0146138f95780632a3ecca1146138b05780632a4591ba146138715780632b72349e146136625780632fd7d5ef1461362c57806331c657751461360e5780633d8f68061461356b5780634a2ae305146135455780634be93571146133be5780634f84e8c814613394578063541d55481461335557806355d2ac861461331c5780635ab8621e146132ed5780635c04d8ca146132cf5780635c975abb146132ad578063620dc23a1461316d5780636247a37814612f705780636405a40514612f52578063660d15b514610d6d5780636726b9db14612dd257806368d69b6114611e765780636de2a4f014612cce578063710bb97914612ca4578063720417c514612c69578063749511b114612ae55780637526b0ea14611e7657806376d622ce14612a1a57806376ebb7e0146129f057806377d8f09d146128b45780637d36f4d3146128965780637e8c2f101461284d5780637ecebe00146112bb57806380eda0fd1461263257806381b2ce31146125e157806381de274c146125a85780638354415d146124e05780638456cb591461243857806386f23a35146124125780638a3ead53146123d75780638d2304ee146123ad57806396f84c091461237e57806399c1aadc146118135780639a1fdd79146123605780639b5e3061146122345780639c23b1be146121f9578063a0977604146121b0578063a10519d014611fce578063a11bcc6514611e9e578063a143b00414611e7b578063a375d80714611e76578063a48448fe14611dfb578063a5f9dcf014611bc4578063a63187d114611b49578063a89ae4ba14611b20578063a94c8f3d14611aa5578063a9f4bd6514611a5c578063ae7784d71461197e578063b9bcaf211461184f578063c0e8f6a714611831578063c194bb4e14611813578063c4c6ff6a146114c0578063c5f956af14611497578063c5fa4a981461144b578063cc792e0d14611428578063cd8ce3be146112f4578063d371cf72146112bb578063d6d81fa314611000578063d80d0e5614610f21578063daa0785614610ded578063dc88100e14610da9578063e57a7e3514610d8b578063ea4aa01614610d6d578063ec9d151714610bdd578063ecd8dc3a14610b02578063ede25b9d146109de578063ee5798ae146109af578063f565776d146106ad578063f585dc571461068f578063f5ecef5714610666578063fae8a3d61461050f578063fcb0aa02146104e6578063fda769e7146104b7578063ff0c4ee5146104885763ff2eda091461044b57600080fd5b3461048557806003193601126104855760206040517f642bc978b352e60185507106148c2e8af9b88eeaeec91883eebdc673e6add83f8152f35b80fd5b50346104855760203660031901126104855760ff60406020926004358152600784522054166040519015158152f35b50346104855760203660031901126104855760ff60406020926004358152602b84522054166040519015158152f35b503461048557602036600319011261048557604060209160043581528280522054604051908152f35b5034610485578060031936011261048557338152601260205261053860ff604083205416614830565b61054560ff825416614cf9565b61055660ff600f5460a81c16614dee565b60ff601c5416610659575b6040516080810181811067ffffffffffffffff8211176106455760405260018152816020820152426040820152606033910152600160175560ff196018541660185542601955336001600160601b0360a01b601a541617601a55338152601b60205260408120600160ff19825416179055600160ff19601c541617601c55604051907f0c098089b7550dc564f1a038c8820df7c94ad41baa6be122a568c720c323ce3c339180a26014546001825260208201527ff250c8cac0e5a06311da43d7d136f294ff38fe995468d5352d5b795bec30020a60403392a2602060405160018152f35b634e487b7160e01b83526041600452602483fd5b610661615948565b610561565b5034610485578060031936011261048557600f546040516001600160a01b039091168152602090f35b50346104855780600319360112610485576020604051620151808152f35b50346104855760403660031901126104855760043560243560028110156109ab5733835260126020526106e660ff604085205416614830565b6106ee61519a565b6106fb6002548310614ae8565b8183526001602052610722600360ff60026040872001541661071c81614683565b146149b5565b818352600760205260ff6040842054166108ca575b600b549161074483614a33565b600b55604051610753816146d4565b81815260208101838152604082016001815260608301878152608084019142835260a0850193338552888a52600560205260408a209551865560018601905160028110156108b657916005959493916107d09360ff80198354169116179055516002870155511515600386019060ff801983541691151516179055565b51600484015560018060a01b0390511691019060018060a01b03166001600160601b0360a01b82541617905582845260066020526040842060018060a01b0333166000526020526040600020600160ff19825416179055808452600760205260408420600160ff19825416179055808452600860205282604085205562093a8042018042116108a257604085856020975260098752205561087460405180936147d8565b827f169133ad218243916e40f5d940b11e6662965ad0b9436428ec3ec92af6593fbb853394a4604051908152f35b634e487b7160e01b85526011600452602485fd5b634e487b7160e01b8b52602160045260248bfd5b8183526008602052604083205480845260096020526040842054421180610994575b1561095657808452600a60205260408420600160ff1982541617905582845260076020526040842060ff19815416905582845260086020528360408120558233917f7d0d8277552faa3f645755b68537c6cdbbd2b3415f4fc4ec554d62d4824311d18680a4610737565b60405162461bcd60e51b81526020600482015260166024820152756163746976652070726f706f73616c2065786973747360501b6044820152606490fd5b50808452600a60205260ff604085205416156108ec565b8280fd5b50346104855760203660031901126104855760ff60406020926004358152602184522054166040519015158152f35b5034610485576020366003190112610485576004353382526012602052610a0b60ff604084205416614830565b610a186022548210614869565b808252601e6020526040822090610a34600383015415156148aa565b60016002830191825490610a4b60ff8316156148f6565b8086526021602052610a6460ff60408820541615614935565b855260208052610a7a6040862054421115614976565b610a8b82850154601454111561504b565b610a9b600485015442101561508e565b60ff1916179055600d805482546001600160a01b031982166001600160a01b0391821617909255600f805460ff60a81b1916600160a81b1790559154811691167f078c3b417dadf69374a59793b829c52001247130433427049317bde56607b1b78380a380f35b503461048557604036600319011261048557610b1c6146a3565b60243580151591828203610bd9573384526012602052610b4260ff604086205416614830565b6001600160a01b0316908115610ba257610b73908285526013602052604085209060ff801983541691151516179055565b6040519182527f6da1699b033f54d95156eaa43377f43bf3c32288bbf7355f3de946b8ced3203260203393a380f35b60405162461bcd60e51b815260206004820152600f60248201526e34b73b30b634b2103932b630bcb2b960891b6044820152606490fd5b8380fd5b5034610485576020366003190112610485576004353382526012602052610c0a60ff604084205416614830565b610c176027548210614869565b80825260236020526040822090610c33600383015415156148aa565b60028201805491610c4760ff8416156148f6565b8085526026602052610c6060ff60408720541615614935565b84526025602052610c776040852054421115614976565b610c896001840154601454111561504b565b610c99600484015442101561508e565b82546001600160a01b031691600190610cb3841515614e2c565b8386526012602052610ccc60ff60408820541615614e68565b60ff191617905560115468010000000000000000811015610d5957806001610cf79201601155614652565b815460039190911b92831b6001600160a01b039384901b19909116179055815481168352601260205260408320805460ff191660011790559054167f44d6d25963f097ad14f29f06854a01f575648a1ef82f30e562ccd3889717e3398280a280f35b634e487b7160e01b84526041600452602484fd5b50346104855780600319360112610485576020600254604051908152f35b50346104855780600319360112610485576020602254604051908152f35b5034610485578060031936011261048557608060175460ff6018541660195460018060a01b03601a5416916040519384521515602084015260408301526060820152f35b5034610485576020366003190112610485576004353382526012602052610e1a60ff604084205416614830565b610e276027548210614869565b8082526023602052600160408320610e44600382015415156148aa565b610e5560ff600283015416156148f6565b8284526026602052610e6e60ff60408620541615614935565b8284526025602052610e866040852054421115614976565b828452602460205260408420828060a01b033316600052602052610eb260ff60406000205416156149f4565b828452602460205260408420828060a01b03331660005260205260406000208260ff198254161790550190610ee78254614a33565b80925560145460405192835260208301527fb8cacf822d821b4e79cb750d1368c77e7e7ec2aee16f886327cd7c756f47c22360403393a380f35b5034610485576020366003190112610485576004353382526012602052610f4e60ff604084205416614830565b610f5b602c548210614869565b8082526028602052610f8660ff600260408520610f7d600382015415156148aa565b015416156148f6565b808252602b602052610f9f60ff60408420541615614a65565b808252602a602052610fb660408320544211614aa5565b808252602b60205260408220600160ff1982541617905560ff19602d5416602d5533907f3aa666fca861a2efe08793b4b6df7e2f3b72b5137df4acdf56dacd603242d65e8380a380f35b50346104855760203660031901126104855761101a6146a3565b338252601260205261103260ff604084205416614830565b6001600160a01b0316801561128557600d546001600160a01b03168114611252576110636011546014541115614ea4565b6022549061107082614a33565b602255600f5460a81c60ff161580156112405742905b60405160e0810181811067ffffffffffffffff82111761122c5760058792879260405286815260208101600181526040820185815261112b606084019142835260808501938a8552604060a0870199338b5260c08801998c8b528152601e602052209560018060a01b039060018060a01b03905116166001600160601b0360a01b875416178655516001860155511515600285019060ff801983541691151516179055565b51600383015551600482015592519201805491516001600160a81b03199092166001600160a01b03939093169290921790151560a01b60ff60a01b16179055838552601f6020908152604080872033600090815292529020805460ff191660011790554262093a808101908110611218576040868660209852878052205560405191825284820152827faff168a4e1fa91858b5fc1c223cee9cc0eaeaddb0b29c18df1630e08305bd80260403393a4601454604051906001825283820152817ff39407f640014cb0220c4f7b0a6cc6acee38a440a8add233fa88e8c98b95b25c60403393a3604051908152f35b634e487b7160e01b86526011600452602486fd5b634e487b7160e01b87526041600452602487fd5b61124c601d5442614a58565b90611086565b60405162461bcd60e51b815260206004820152600b60248201526a73616d65206f7261636c6560a81b6044820152606490fd5b60405162461bcd60e51b815260206004820152600e60248201526d696e76616c6964206f7261636c6560901b6044820152606490fd5b5034610485576020366003190112610485576020906040906001600160a01b036112e36146a3565b168152600383522054604051908152f35b503461048557602036600319011261048557600435338252601260205261132160ff604084205416614830565b61132e602c548210614869565b8082526028602052604082209061134a600383015415156148aa565b6001600283019182549061136160ff8316156148f6565b808652602b60205261137a60ff60408820541615614935565b8552602a6020526113916040862054421115614976565b6113a282850154601454111561504b565b6113b2600485015442101561508e565b6113c5828060a01b0385541615156147e5565b60ff1990811691909117909155602d80549091169055600f805482546001600160a01b031982166001600160a01b03918216179092559154811691167f4dc5527be93f8b21f9376931190711db811d1e6d980ca325ee2520d65069df748380a380f35b5034610485578060031936011261048557602060ff601c54166040519015158152f35b50346104855760403660031901126104855760406114676146be565b9160043581526024602052209060018060a01b0316600052602052602060ff604060002054166040519015158152f35b5034610485578060031936011261048557600e546040516001600160a01b039091168152602090f35b503461048557610220366003190112610485576114db6146a3565b906114e46146be565b6044359060643560843560a43560c4359160e43593610104359561012435966101443567ffffffffffffffff811161180f57611524903690600401614728565b9760c03661016319011261180f57338b52601260205260ff60408c20541680156117f9575b61155290614c25565b61155a61519a565b8b81838c8b8b8b8b8b61156b6150d1565b611575958c6151d4565b61157e926159d6565b60405160208101997fab191139f84e7620737836d9002d499dbe8293085697773dfa2574e82decb7fc8b528d600160a01b60019003169a828c604081950152600160a01b60019003871660608201528d60808201528760a08201528860c08201528960e08201528a6101008201528b6101208201528561014082015284610160820152610160815261161261018082614706565b51902061161e90615abb565b9061162891615b6f565b61163191615bab565b611647916001600160a01b03919091161461550c565b600182018083116117e557918b9c916116768d8d9e958d9e97969d6116ae9e5260046020526040822055615c1d565b9060405192835260208301528b7f6ac709e2093c74d3ce56616ef76760c53ae0bf401457fb868a84e66636d3678360403394a4615365565b60105490926101a4359185906101c43560ff8116916001600160a01b0316908290036109ab57803b156109ab57610124839260405194859384926377aadf6360e11b84528a60048501523060248501528860448501526101643560648501526101843560848501528960a485015260c48401526101e43560e4840152610204356101048401525af180156117da577fa7c444d067108b7e8aee4afd13309e15a3e74a87a3d07d172c5c50945c37baaa602086959481997f642bc978b352e60185507106148c2e8af9b88eeaeec91883eebdc673e6add83f98958a956117ca575b5050604051908152a4604051838152600080516020615e18833981519152853392a46001600080516020615e3883398151915255604051908152f35b816117d491614706565b3861178e565b6040513d88823e3d90fd5b634e487b7160e01b8c52601160045260248cfd5b50338b52601360205260408b205460ff16611549565b8a80fd5b50346104855780600319360112610485576020601454604051908152f35b50346104855780600319360112610485576020604051621275008152f35b503461048557602036600319011261048557600435338252601260205261187c60ff604084205416614830565b6118896022548210614869565b808252601e6020526001604083206118a6600382015415156148aa565b6118b760ff600283015416156148f6565b82845260216020526118d060ff60408620541615614935565b828452602080526118e76040852054421115614976565b828452601f60205260408420828060a01b033316855260205261191160ff604086205416156149f4565b828452601f60205260408420828060a01b0333168552602052604084208260ff1982541617905501906119448254614a33565b80925560145460405192835260208301527ff39407f640014cb0220c4f7b0a6cc6acee38a440a8add233fa88e8c98b95b25c60403393a380f35b5034610485576020366003190112610485576004356119a860018060a01b03600d54163314614db4565b6119b960ff600f5460a81c16614dee565b6119c161519a565b6119c96150d1565b6119d66002548210614ae8565b80825260016020527f86b04a9027748794b50d55160e5a9fe6b0375cd3221e0d4776f9e053f7ef6d046020600a604085206002810160028154611a27600160ff8316611a2181614683565b14614f67565b60ff191617905501428155838552600c825284604081205554604051908152a26001600080516020615e388339815191525580f35b50346104855760403660031901126104855760ff6040602092611a7d6146be565b6004358252602985528282206001600160a01b03909116825284522054604051911615158152f35b503461048557602036600319011261048557604060c091600435815260056020522080549060ff60018201541690600281015460ff60038301541690611b08600484015493600560018060a01b03910154169460405196875260208701906147d8565b604085015215156060840152608083015260a0820152f35b5034610485578060031936011261048557600d546040516001600160a01b039091168152602090f35b5034610485576020366003190112610485576004803582526028602090815260409283902080546001820154600283015460038401549584015460059094015487516001600160a01b0394851681529586019290925260ff1615159584019590955260608301939093526080820152911660a082015260c090f35b503461048557611bd33661477f565b90338552601260205260ff6040862054168015611de5575b611bf490614c25565b611bfc61519a565b611c046150d1565b611c116002548510614ae8565b83855260016020526040852092600284019260018060a01b03845460081c1690611c3c8484846159d6565b81611cbd611cc2959493611cae611ca5600395611ca08d6040516020810191600080516020615df883398151915283528760408301528a606083015260808201528a60a08201528b60c082015260c08152611c9860e082614706565b519020615abb565b615b6f565b90929192615bab565b6001600160a01b03161461550c565b615b0b565b8054611cd6600160ff8316611a2181614683565b838552600c6020526040852054611cee811515614fb3565b62127500810180911161121857937f1c642f6ec09eeef2a0619a2a298b98d5b38861f8a024837627f161d669c3c1068193600460209694611d517f57f680ee8ca7390570646e9ba27d0a0f0e281e2565cbb0928225841971066196994211614fff565b60ff1916178155828852600c8652604088208890558054600894850180549095611d8692901c6001600160a01b03168561576a565b54925460405190815260089390931c6001600160a01b0316948593a3604051908152600080516020615e1883398151915260203392a46001600080516020615e388339815191525580f35b634e487b7160e01b88526021600452602488fd5b503385526013602052604085205460ff16611beb565b5034610485576020366003190112610485576004803582526023602090815260409283902080546001820154600283015460038401549584015460059094015487516001600160a01b0394851681529586019290925260ff1615159584019590955260608301939093526080820152911660a082015260c090f35b6147ba565b5034610485578060031936011261048557602060ff602d54166040519015158152f35b5034610485576020366003190112610485576004353382526012602052611ecb60ff604084205416614830565b611ed8602c548210614869565b8082526028602052600160408320611ef5600382015415156148aa565b611f0660ff600283015416156148f6565b828452602b602052611f1f60ff60408620541615614935565b828452602a602052611f376040852054421115614976565b828452602960205260408420828060a01b0333168552602052611f6160ff604086205416156149f4565b828452602960205260408420828060a01b0333168552602052604084208260ff198254161790550190611f948254614a33565b80925560145460405192835260208301527f33f3d93b68d89de9a6b65493f004ff57d76aadd2fb47a98cbf886447309cdec760403393a380f35b503461048557611fdd3661477f565b9093929193338452601260205260ff604085205416801561219a575b61200290614c25565b61200a61519a565b6120126150d1565b61201f6002548410614ae8565b82845260016020526040842094600286019260018060a01b03845460081c169061204a8484846159d6565b81611cbd6120b39594936120a6611ca5600195611ca08c6040516020810191600080516020615df883398151915283528760408301528a606083015260808201528a60a08201528b60c082015260c08152611c9860e082614706565b848060a01b03161461550c565b600a8154946120d0600260ff88166120ca81614683565b14614b5f565b01546120dd811515614bab565b620151808101809111612186577f9d6f89df1fd95e20d56ed05e08fe9519ff6a2496090b77bfb70c8f64c21c2389939461211b600392421115614be9565b60ff19161780915560405191807fb145240944e8bfe8998e31f11365578b766764ed1255b8e2efcb56e741b7be188680a2825260081c6001600160a01b0316903390600080516020615e1883398151915290602090a46001600080516020615e388339815191525580f35b634e487b7160e01b84526011600452602484fd5b503384526013602052604084205460ff16611ff9565b50346104855760403660031901126104855760ff60406020926121d16146be565b6004358252600685528282206001600160a01b03909116825284522054604051911615158152f35b503461048557806003193601126104855760206040517f57f680ee8ca7390570646e9ba27d0a0f0e281e2565cbb09282258419710661968152f35b50346104855760203660031901126104855760043561225161519a565b6122596150d1565b6122666002548210614ae8565b808252600160205260408220600281018054919291612293600882901c6001600160a01b03163314614b26565b6122a5600160ff8316611a2181614683565b828552600c60205260408520546122bd811515614fb3565b621275008101809111611218579160046020926122fc7f1c642f6ec09eeef2a0619a2a298b98d5b38861f8a024837627f161d669c3c106954211614fff565b60ff1916178155838652600c825260408620869055805460089586018054909661233192901c6001600160a01b03168661576a565b54935460405190815260089490941c6001600160a01b031693a36001600080516020615e388339815191525580f35b50346104855780600319360112610485576020601d54604051908152f35b50346104855760203660031901126104855760ff60406020926004358152600a84522054166040519015158152f35b50346104855760203660031901126104855760406020916004358152600983522054604051908152f35b503461048557806003193601126104855760206040517fa6115baa0e39b3877020da94fe30135520d27e0cb11c198edac119231d452a578152f35b5034610485578060031936011261048557602060ff600f5460a81c166040519015158152f35b5034610485578060031936011261048557338152601260205261246160ff604083205416614830565b805460ff81166124aa5760019061247661519a565b60ff19161781557f62e78cea01bee320cd4e420270b5ea74000d11b0c9f74754ebdbfc544b05a2586020604051338152a180f35b60405162461bcd60e51b815260206004820152600e60248201526d185b1c9958591e481c185d5cd95960921b6044820152606490fd5b5034610485578060031936011261048557338152601260205261250960ff604083205416614830565b600f5461251b60ff8260a81c16614dee565b60ff60a81b1916600f55805460ff811615612566575b50600d546001600160a01b0316337f943e0551255d58897464f9809b2b06574fdc708ade497e30276ae48effc0a7948380a380f35b60019061257161519a565b60ff19161781557f62e78cea01bee320cd4e420270b5ea74000d11b0c9f74754ebdbfc544b05a2586020604051338152a138612531565b5034610485576020366003190112610485576020906040906001600160a01b036125d06146a3565b168152600483522054604051908152f35b5034610485578060031936011261048557338152601260205261260a60ff604083205416614830565b61261860ff601c5416614d32565b61262760ff60185416156148f6565b61262f615948565b80f35b50346104855760203660031901126104855761264c6146a3565b338252601260205261266460ff604084205416614830565b6001600160a01b03166126788115156147e5565b600f546001600160a01b031681146128085761269a6011546014541115614ea4565b60ff602d54166127c357602c54906126b182614a33565b602c556127026126c3601d5442614a58565b604051906126d0826146d4565b8382526001602083015285604083015242606083015260808201523360a0820152838552602860205260408520614ee6565b8183526029602090815260408085203386529091528320805460ff191660011790554262093a808101908110612186576040848460209652602a86522055600160ff19602d541617602d55612759601d5442614a58565b604051908152827f7d8684ed4e806e48e1379ec407e099c58ae93067f5a839e7cdf7299438e33316853393a4601454604051906001825283820152817f33f3d93b68d89de9a6b65493f004ff57d76aadd2fb47a98cbf886447309cdec760403393a3604051908152f35b60405162461bcd60e51b815260206004820152601860248201527f70726f706f73616c20616c72656164792070656e64696e6700000000000000006044820152606490fd5b60405162461bcd60e51b815260206004820152601d60248201527f73616d65207472656173757279207061796f75742072656365697665720000006044820152606490fd5b50346104855760203660031901126104855761288e60406020926004356128776002548210614ae8565b815260018452206006600582015491015490614a58565b604051908152f35b50346104855780600319360112610485576020600b54604051908152f35b50346104855760203660031901126104855760043533825260126020526128e160ff604084205416614830565b6128e961519a565b6128f6600b548210614869565b80825260056020526040822090612912600483015415156148aa565b61292360ff600384015416156148f6565b808352600a60205261293c60ff60408520541615614a65565b808352600960205261295360408420544211614aa5565b808352600a60205260408320600160ff198254161790558154808452600760205260ff604085205416806129db575b6129b3575b50339154907f7d0d8277552faa3f645755b68537c6cdbbd2b3415f4fc4ec554d62d4824311d18480a480f35b835260076020526040832060ff19815416905581548352600860205282604081205538612987565b50808452600860205281604085205414612982565b50346104855760203660031901126104855760406020916004358152600c83522054604051908152f35b5034610485576020366003190112610485576004353382526012602052612a4760ff604084205416614830565b612a546022548210614869565b808252601e602052612a7660ff600260408520610f7d600382015415156148aa565b8082526021602052612a8f60ff60408420541615614a65565b80825260208052612aa560408320544211614aa5565b808252602160205260408220805460ff1916600117905533907fd2d878f87125c1948b966a8962e09576b78186471e1a7cc90c2bd2b6f05acc9f8380a380f35b503461048557602036600319011261048557612aff6146a3565b3382526012602052612b1760ff604084205416614830565b6001600160a01b0316612b2b811515614e2c565b8082526012602052612b4460ff60408420541615614e68565b612b546011546014541115614ea4565b60275490612b6182614a33565b602755612bb2612b73601d5442614a58565b60405190612b80826146d4565b8382526001602083015285604083015242606083015260808201523360a0820152838552602360205260408520614ee6565b8183526024602090815260408085203386529091528320805460ff191660011790554262093a808101908110612186576040846004928560209752602587528282205584815260238652200154604051908152827f959284814070c6c3a0c8b0ce10f8406a2a5cfe5cc3a7d157ad2ba850026aee64853393a4601454604051906001825283820152817fb8cacf822d821b4e79cb750d1368c77e7e7ec2aee16f886327cd7c756f47c22360403393a3604051908152f35b503461048557806003193601126104855760206040517f9d6f89df1fd95e20d56ed05e08fe9519ff6a2496090b77bfb70c8f64c21c23898152f35b50346104855760203660031901126104855760406020916004358152602583522054604051908152f35b503461048557602036600319011261048557600435612ceb61519a565b612cf36150d1565b612d006002548210614ae8565b80825260016020526040822090600282018054612d25600260ff83166120ca81614683565b600a840154612d35811515614bab565b6201518081018091116112185790612d506004924211614d73565b60ff1916179055808352600c6020528260408120557f525d8c9a3bdfd74e1b0f3f79ccf0ef47d77d261e27396b35539f75e5d4086106602060038401612da7600860018060a01b038354169601958654908661588e565b5493546040519081526001600160a01b0390941693a36001600080516020615e388339815191525580f35b503461048557602036600319011261048557600435612dfc60018060a01b03600d54163314614db4565b612e0d60ff600f5460a81c16614dee565b612e1561519a565b612e1d6150d1565b612e2a6002548210614ae8565b808252600160205260408220906002820160018154612e5560ff8216612e4f81614683565b15614c69565b60ff1916179055808352600c6020524260408420557f7fe4efc5647c551e3daa927b506b95903589ed6b18a37dbff54db80e7395239b6020600384019360018060a01b0385541694612eae6007830196875490876158eb565b600e54600583018054909291612ece91906001600160a01b0316886155e8565b612eea600660018060a01b03600e54169401938454908861565e565b549554600e54915460408051928352858301919091526001600160a01b03928316978893169187917faf26bf705c48ad6f6bf63104d1d8b9f94dac03ba9c3ae49b34cd094cc8c3f6f691a454604051908152a36001600080516020615e388339815191525580f35b50346104855780600319360112610485576020601654604051908152f35b503461048557612f7f3661477f565b9093929193338452601260205260ff6040852054168015613157575b612fa490614c25565b612fac61519a565b612fb46150d1565b612fc16002548410614ae8565b82845260016020526040842094600286019260018060a01b03845460081c1690612fec8484846159d6565b81611cbd613048959493611cae611ca5600495611ca08c6040516020810191600080516020615df883398151915283528760408301528a606083015260808201528a60a08201528b60c082015260c08152611c9860e082614706565b80549361305d600260ff87166120ca81614683565b600a81015461306d811515614bab565b6201518081018091116108a2577fa6115baa0e39b3877020da94fe30135520d27e0cb11c198edac119231d452a5794956130aa6004924211614d73565b60ff1916178255828552600c602052846040812055827f525d8c9a3bdfd74e1b0f3f79ccf0ef47d77d261e27396b35539f75e5d4086106602060038401613102600860018060a01b038354169601958654908661588e565b5493546040519081526001600160a01b0390941693a35460405191825260081c6001600160a01b0316903390600080516020615e1883398151915290602090a46001600080516020615e388339815191525580f35b503384526013602052604084205460ff16612f9b565b50346104855760203660031901126104855760043561318a61519a565b6131926150d1565b61319f6002548210614ae8565b80825260016020526040822060028101805492916131cb600885901c6001600160a01b03163314614b26565b6131db60ff8516612e4f81614683565b600981015462093a80810180911161121857916132696020926132207fe54e6e873934788882b1744fc124e31c635896db16279bfdfd45fd2953619cff954211614cad565b600461322b8261554c565b60ff19909816178355600e54600582015461324f916001600160a01b0316886155e8565b600e5460069190910154906001600160a01b03168661565e565b805461328390869060081c6001600160a01b03168661570d565b5460405194855260081c6001600160a01b031693a36001600080516020615e388339815191525580f35b503461048557806003193601126104855760ff60209154166040519015158152f35b50346104855780600319360112610485576020602754604051908152f35b50346104855760203660031901126104855760ff60406020926004358152602684522054166040519015158152f35b5034610485576020366003190112610485576020906040906001600160a01b036133446146a3565b168152601583522054604051908152f35b50346104855760203660031901126104855760209060ff906040906001600160a01b036133806146a3565b168152601384522054166040519015158152f35b50346104855760203660031901126104855760406020916004358152602a83522054604051908152f35b503461048557806003193601126104855733815260126020526133e760ff604083205416614830565b6133f460ff825416614cf9565b61340260ff601c5416614d32565b61341160ff60185416156148f6565b338152601b60205261342a60ff604083205416156149f4565b338152601b60205260408120600160ff1982541617905561344c601754614a33565b80601755601454906040518181528260208201527ff250c8cac0e5a06311da43d7d136f294ff38fe995468d5352d5b795bec30020a60403392a2101580613491575080f35b6001906134ad601854916134a860ff8416156148f6565b61504b565b60ff19161760185560ff19601c5416601c5580546134cd60ff8216614cf9565b60ff191681557f5db9ee0a495bf2e6ff9c91a7834c1ba4fdd244a5e8aa4e537bd38aeae4b073aa6020604051338152a16135056157c7565b815b8151811015613540576001906001600160a01b03613525828561581d565b51168452601b60205260408420805460ff1916905501613507565b505080f35b5034610485578060031936011261048557602060ff600f5460a01c166040519015158152f35b5034610485578060031936011261048557338152601260205261359460ff604083205416614830565b600f5460ff8160a01c16156135d55760ff60a01b1916600f55337f58faeb75cd58dcc300b630223b434fdafecf55c21cd1aa07ce174a125ea52e8b8280a280f35b60405162461bcd60e51b815260206004820152601160248201527018db185a5b5cc81b9bdd081c185d5cd959607a1b6044820152606490fd5b50346104855780600319360112610485576020602c54604051908152f35b50346104855760203660031901126104855761288e60406020926004356136566002548210614ae8565b8152600184522061554c565b5034610485576136713661477f565b90338552601260205260ff604086205416801561385b575b61369290614c25565b61369a61519a565b6136a26150d1565b6136af6002548510614ae8565b83855260016020526040852092600284019260018060a01b03845460081c16906136da8484846159d6565b81611cbd613736959493611cae611ca5600295611ca08d6040516020810191600080516020615df883398151915283528760408301528a606083015260808201528a60a08201528b60c082015260c08152611c9860e082614706565b80549161374960ff8416612e4f81614683565b600981015462093a80810180911161121857937fe54e6e873934788882b1744fc124e31c635896db16279bfdfd45fd2953619cff81936137fb602096946137b27f0e2cac5abaf6079f335df5966f41306619912fc862e3a81138fc8f0af5faca36994211614cad565b60046137bd8261554c565b60ff19909716178355600e5460058201546137e1916001600160a01b0316876155e8565b600e5460069190910154906001600160a01b03168561565e565b805461381590859060081c6001600160a01b03168561570d565b5460405193845260081c6001600160a01b0316948593a3604051908152600080516020615e1883398151915260203392a46001600080516020615e388339815191525580f35b503385526013602052604085205460ff16613689565b50346104855760203660031901126104855760209060ff906040906001600160a01b0361389c6146a3565b168152601b84522054166040519015158152f35b50346104855760403660031901126104855760ff60406020926138d16146be565b6004358252601f85528282206001600160a01b03909116825284522054604051911615158152f35b50346104855760203660031901126104855760043561391661519a565b61391e6150d1565b61392b6002548210614ae8565b8082526001602052604082206002810180549091600a9061395a600884901c6001600160a01b03163314614b26565b61396c600260ff85166120ca81614683565b0154613979811515614bab565b6201518081018091116108a25790613995600392421115614be9565b60ff19161790557fb145240944e8bfe8998e31f11365578b766764ed1255b8e2efcb56e741b7be188280a26001600080516020615e388339815191525580f35b5034610485576020366003190112610485576004353382526012602052613a0260ff604084205416614830565b613a0f6027548210614869565b8082526023602052613a3160ff600260408520610f7d600382015415156148aa565b8082526026602052613a4a60ff60408420541615614a65565b8082526025602052613a6160408320544211614aa5565b808252602660205260408220805460ff1916600117905533907f6e5c3c82c1e75af7548eba9cd2cb4b639f5b6762fec00ca5e0d902fbad351ebc8380a380f35b503461048557806003193601126104855760206040517f0e2cac5abaf6079f335df5966f41306619912fc862e3a81138fc8f0af5faca368152f35b50346104855761014036600319011261048557613af76146a3565b9060243560c43560a43560843560643560443560e435610104356101243567ffffffffffffffff8111613dc05790613b54888888888f968e613b3e8b923690600401614728565b98613b4761519a565b613b4f6150d1565b6151d4565b338a52600360205260408a20548303613d8f57804211613d5657613c3d918b611ca59260018060a01b03600e54169060405191602083019346855230604085015233606085015260018060a01b0316608084015260a08301528c60c08301528760e083015288610100830152896101208301528a6101408301528b610160830152866101808301526101a08201526101a08152613bf36101c082614706565b51902060405160208101917f19457468657265756d205369676e6564204d6573736167653a0a3332000000008352603c820152603c8152613c35605c82614706565b519020615b6f565b336001600160a01b0390911603613d215760018101809111613d0d5795809798613c7497338b52600360205260408b205533615365565b6010546040516323b872dd60e01b855233600452306024526044939093526001600160a01b03169260208160648180885af16001825114811615613cee575b836040528160605215613cda57602083836001600080516020615e38833981519152558152f35b635274afe760e01b81526004849052602490fd5b6001811516613d0457843b15153d151616613cb3565b833d83823e3d90fd5b634e487b7160e01b88526011600452602488fd5b60405162461bcd60e51b815260206004820152600d60248201526c626164207369676e617475726560981b6044820152606490fd5b60405162461bcd60e51b81526020600482015260116024820152701cda59db985d1d5c9948195e1c1a5c9959607a1b6044820152606490fd5b60405162461bcd60e51b8152602060048201526009602482015268626164206e6f6e636560b81b6044820152606490fd5b8980fd5b50346104855760203660031901126104855760209060ff906040906001600160a01b03613def6146a3565b168152601284522054166040519015158152f35b50346104855760203660031901126104855760406020916004358152600883522054604051908152f35b5034610485576020366003190112610485576040610180916004358152600160205220805490600181015490600281015460ff81169060018060a01b036003840154166004840154600585015490600686015492600787015494600888015496600a60098a0154990154996040519b8c5260208c0152613eac81614683565b60408b015260081c6001600160a01b031660608a0152608089015260a088015260c087015260e0860152610100850152610120840152610140830152610160820152f35b503461048557602036600319011261048557604060e0916004358152601e6020522060ff60018060a01b03825416916001810154908260028201541660038201549060056004840154930154936040519687526020870152151560408601526060850152608084015260018060a01b03811660a084015260a01c16151560c0820152f35b50346104855760203660031901126104855760043590601154821015610485576020613f9f83614652565b905460405160039290921b1c6001600160a01b03168152f35b50346104855780600319360112610485576010546040516001600160a01b039091168152602090f35b5034610485578060031936011261048557338152601260205261400a60ff604083205416614830565b600f5460ff8160a01c166140505760ff60a01b1916600160a01b17600f55337fb62d15b068fb54a6f9b91bc09d642314c90fe5262a9f0c4b646803af896af7928280a280f35b60405162461bcd60e51b815260206004820152601560248201527418db185a5b5cc8185b1c9958591e481c185d5cd959605a1b6044820152606490fd5b50346104855760203660031901126104855760043533825260126020526140ba60ff604084205416614830565b6140c261519a565b6140ca6150d1565b6140d7600b548210614869565b80825260056020526002604083206140f4600482015415156148aa565b61410560ff600383015416156148f6565b828452600a60205261411e60ff60408620541615614935565b82845260096020526141366040852054421115614976565b805484526001602052614157600360ff846040882001541661071c81614683565b82845260066020908152604080862033875290915284205461417c9060ff16156149f4565b8284526006602090815260408086203387529091528420805460ff191660011790550180549091906141ad90614a33565b8092556014548092604051818152826020820152837f14e1b3091f09f49236e90d7a9826aa647e37c8b8600adc8a5935ee0c179e2de160403393a31015614205575b826001600080516020615e388339815191525580f35b8083526005602052604083206003810161426581549461422860ff8716156148f6565b848752600a60205261424160ff60408920541615614935565b84875260096020526142596040882054421115614976565b6002840154101561504b565b81548552600160205260408520906002820194600360ff87541661428881614683565b036144485760019060ff1916179055600460ff198554161784558154855260076020526040852060ff19815416905581548552600860205284604081205581548552600c602052846040812055600881015493600183019160ff8354166002811015611dd157806143945750509160ff94846020937fafdf3220f58fe501f1c7cff54df532523ba92e302d4b17d7bb8c30b9e4e906b360407f367ef6da4bd64313a89876ecb2e42b4be35f68f378625be0d78dcd15eba27dd09760018060a01b03905460081c169561435c868883546156ab565b54998a935416958151958652614374888701886147d8565b6001600160a01b031694a461438c60405180926147d8565ba338806141ef565b9093915060010361440a5760ff94846020937fafdf3220f58fe501f1c7cff54df532523ba92e302d4b17d7bb8c30b9e4e906b360407f367ef6da4bd64313a89876ecb2e42b4be35f68f378625be0d78dcd15eba27dd097600360018060a01b03910154169561440586888354615831565b61435c565b60405162461bcd60e51b8152602060048201526016602482015275696e76616c696420646973707574652073746174757360501b6044820152606490fd5b60405162461bcd60e51b81526020600482015260146024820152733a3930b2329036bab9ba10313290232927ad22a760611b6044820152606490fd5b90503461464e578160031936011261464e57600e546001600160a01b031633148015614638575b156145fd575060ff600f5460a01c166145c8576144c66150d1565b600e546001600160a01b031680825260156020526040822054801561458357600f546001600160a01b0316916144fd8315156147e5565b835260156020528260408120556016548181039081116121865760165560105461453390829084906001600160a01b031661510d565b7fe67c643fa26ff85bbee9ac87fc706274fc81cf4ab3711712c8822eedba5a2306604060018060a01b03600e5416928151908152336020820152a36001600080516020615e388339815191525580f35b60405162461bcd60e51b815260206004820152601a60248201527f6e6f7468696e6720747265617375727920636c61696d61626c650000000000006044820152606490fd5b60405162461bcd60e51b815260206004820152600d60248201526c18db185a5b5cc81c185d5cd959609a1b6044820152606490fd5b62461bcd60e51b815260206004820152601660248201527537b7363c903a3932b0b9bab93c9037b91030b236b4b760511b6044820152606490fd5b50338252601260205260ff6040832054166144ab565b5080fd5b60115481101561466d57601160005260206000200190600090565b634e487b7160e01b600052603260045260246000fd5b6005111561468d57565b634e487b7160e01b600052602160045260246000fd5b600435906001600160a01b03821682036146b957565b600080fd5b602435906001600160a01b03821682036146b957565b60c0810190811067ffffffffffffffff8211176146f057604052565b634e487b7160e01b600052604160045260246000fd5b90601f8019910116810190811067ffffffffffffffff8211176146f057604052565b81601f820112156146b95780359067ffffffffffffffff82116146f0576040519261475d601f8401601f191660200185614706565b828452602083830101116146b957816000926020809301838601378301015290565b9060806003198301126146b9576004359160243591604435916064359067ffffffffffffffff82116146b9576147b791600401614728565b90565b346146b95760003660031901126146b957602060405162093a808152f35b90600282101561468d5752565b156147ec57565b606460405162461bcd60e51b815260206004820152602060248201527f696e76616c6964207472656173757279207061796f75742072656365697665726044820152fd5b1561483757565b60405162461bcd60e51b815260206004820152600a60248201526937b7363c9030b236b4b760b11b6044820152606490fd5b1561487057565b60405162461bcd60e51b81526020600482015260126024820152711c1c9bdc1bdcd85b081b9bdd08199bdd5b9960721b6044820152606490fd5b156148b157565b60405162461bcd60e51b815260206004820152601860248201527f70726f706f73616c206e6f7420696e697469616c697a656400000000000000006044820152606490fd5b156148fd57565b60405162461bcd60e51b815260206004820152601060248201526f185b1c9958591e48195e1958dd5d195960821b6044820152606490fd5b1561493c57565b60405162461bcd60e51b81526020600482015260126024820152711c1c9bdc1bdcd85b0818d85b98d95b1b195960721b6044820152606490fd5b1561497d57565b60405162461bcd60e51b815260206004820152601060248201526f1c1c9bdc1bdcd85b08195e1c1a5c995960821b6044820152606490fd5b156149bc57565b60405162461bcd60e51b815260206004820152601060248201526f3a3930b232903737ba10333937bd32b760811b6044820152606490fd5b156149fb57565b60405162461bcd60e51b815260206004820152601060248201526f185b1c9958591e48185c1c1c9bdd995960821b6044820152606490fd5b6000198114614a425760010190565b634e487b7160e01b600052601160045260246000fd5b91908201809211614a4257565b15614a6c57565b60405162461bcd60e51b8152602060048201526011602482015270185b1c9958591e4818d85b98d95b1b1959607a1b6044820152606490fd5b15614aac57565b60405162461bcd60e51b81526020600482015260146024820152731c1c9bdc1bdcd85b081b9bdd08195e1c1a5c995960621b6044820152606490fd5b15614aef57565b60405162461bcd60e51b815260206004820152600f60248201526e1d1c985919481b9bdd08199bdd5b99608a1b6044820152606490fd5b15614b2d57565b60405162461bcd60e51b815260206004820152600a60248201526937b7363c90313abcb2b960b11b6044820152606490fd5b15614b6657565b60405162461bcd60e51b815260206004820152601960248201527f6d757374206265204152524956414c5f434f4e4649524d4544000000000000006044820152606490fd5b15614bb257565b60405162461bcd60e51b815260206004820152600f60248201526e185c9c9a5d985b081b9bdd081cd95d608a1b6044820152606490fd5b15614bf057565b60405162461bcd60e51b815260206004820152600d60248201526c1dda5b991bddc818db1bdcd959609a1b6044820152606490fd5b15614c2c57565b60405162461bcd60e51b815260206004820152601560248201527437b7363c903932b630bcb2b91037b91030b236b4b760591b6044820152606490fd5b15614c7057565b60405162461bcd60e51b81526020600482015260156024820152741cdd185d1d5cc81b5d5cdd081899481313d0d2d151605a1b6044820152606490fd5b15614cb457565b60405162461bcd60e51b815260206004820152601860248201527f6c6f636b2074696d656f7574206e6f7420656c617073656400000000000000006044820152606490fd5b15614d0057565b60405162461bcd60e51b815260206004820152600a6024820152691b9bdd081c185d5cd95960b21b6044820152606490fd5b15614d3957565b60405162461bcd60e51b81526020600482015260126024820152711b9bc81858dd1a5d99481c1c9bdc1bdcd85b60721b6044820152606490fd5b15614d7a57565b60405162461bcd60e51b81526020600482015260126024820152711dda5b991bddc81b9bdd08195b185c1cd95960721b6044820152606490fd5b15614dbb57565b60405162461bcd60e51b815260206004820152600b60248201526a6f6e6c79206f7261636c6560a81b6044820152606490fd5b15614df557565b60405162461bcd60e51b815260206004820152600f60248201526e1bdc9858db1948191a5cd8589b1959608a1b6044820152606490fd5b15614e3357565b60405162461bcd60e51b815260206004820152600d60248201526c34b73b30b634b21030b236b4b760991b6044820152606490fd5b15614e6f57565b60405162461bcd60e51b815260206004820152600d60248201526c30b63932b0b23c9030b236b4b760991b6044820152606490fd5b15614eab57565b60405162461bcd60e51b8152602060048201526013602482015272696e73756666696369656e742061646d696e7360681b6044820152606490fd5b815181546001600160a01b039091166001600160a01b031990911617815560208201516001820155604082015160028201805460ff191691151560ff1691909117905590600590606081015160038401556080810151600484015560a00151910180546001600160a01b0319166001600160a01b0392909216919091179055565b15614f6e57565b60405162461bcd60e51b815260206004820152601960248201527f737461747573206d75737420626520494e5f5452414e534954000000000000006044820152606490fd5b15614fba57565b60405162461bcd60e51b815260206004820152601c60248201527f696e2d7472616e7369742074696d657374616d70206e6f7420736574000000006044820152606490fd5b1561500657565b60405162461bcd60e51b815260206004820152601e60248201527f696e2d7472616e7369742074696d656f7574206e6f7420656c617073656400006044820152606490fd5b1561505257565b60405162461bcd60e51b81526020600482015260146024820152736e6f7420656e6f75676820617070726f76616c7360601b6044820152606490fd5b1561509557565b60405162461bcd60e51b81526020600482015260146024820152731d1a5b595b1bd8dac81b9bdd08195b185c1cd95960621b6044820152606490fd5b6002600080516020615e3883398151915254146150fc576002600080516020615e3883398151915255565b633ee5aeb560e01b60005260046000fd5b60405163a9059cbb60e01b60009081526001600160a01b03909316600452602493909352919060209060448180865af190600160005114821615615178575b604052156151575750565b635274afe760e01b60009081526001600160a01b0391909116600452602490fd5b90600181151661519057823b15153d1516169061514c565b503d6000823e3d90fd5b60ff600054166151a657565b60405162461bcd60e51b81526020600482015260066024820152651c185d5cd95960d21b6044820152606490fd5b9093949592919215615320576001600160a01b031680156152e75730146152a25761520784615207879361520c95614a58565b614a58565b03615268571515908161525e575b501561522257565b60405162461bcd60e51b815260206004820152601460248201527307472616e63686573206d757374206265203e20360641b6044820152606490fd5b905015153861521a565b60405162461bcd60e51b81526020600482015260126024820152710c4e4cac2d6c8deeedc40dad2e6dac2e8c6d60731b6044820152606490fd5b60405162461bcd60e51b815260206004820152601960248201527f737570706c6965722063616e6e6f7420626520657363726f77000000000000006044820152606490fd5b60405162461bcd60e51b81526020600482015260116024820152701cdd5c1c1b1a595c881c995c5d5a5c9959607a1b6044820152606490fd5b60405162461bcd60e51b815260206004820152601760248201527f72696361726469616e20686173682072657175697265640000000000000000006044820152606490fd5b9496919293969590956002549761537b89614a33565b6002556040519561018087019680881067ffffffffffffffff8911176146f0578a97604052878152876020820187815286604084019b60008d526060850190600160a01b60019003169c8d8252608086019e600160a01b60019003169e8f815260a087018d815260c088019189835260e08901938b85526101008a01958d87526101208b019788526101408b0198428a526101608c019a60008c52600052600160205260406000209b518c555160018c015560028b01915161543c81614683565b61544581614683565b825491516001600160a81b031990921660ff9190911617600891821b610100600160a81b031617909155905160038a0180546001600160a01b0319166001600160a01b03929092169190911790559051600489015590516005880155905160068701559051600786015590519084015551600983015551600a909101556040805196875260208701919091528501526060840152608083015260a08201527f9896188f7299b6607b47eaa190d500bf89abbfa1bb2ce6d410f88b043e371b679060c090a490565b1561551357565b60405162461bcd60e51b81526020600482015260116024820152703130b21030baba3437b934bd30ba34b7b760791b6044820152606490fd5b60ff60028201541661555d81614683565b80156155ba5761556c81614683565b600181149081156155a5575b8115615591575b5061558a5750600090565b6008015490565b6003915061559e81614683565b143861557f565b90506155b081614683565b6002811490615578565b5080600860076147b793015491015490614a58565b90815260408101929190600882101561468d5760200152565b9082156156595760017fb6abcb523a11175bda4306d957cda75287b3d848b084a70d85fe099f51bc7f8991818060a01b0316938460005260156020526040600020615634828254614a58565b905561564281601654614a58565b601655615654604051928392836155cf565b0390a3565b505050565b9082156156595760027fb6abcb523a11175bda4306d957cda75287b3d848b084a70d85fe099f51bc7f899160018060a01b0316938460005260156020526040600020615634828254614a58565b9190918115615659576010546156cd90839085906001600160a01b031661510d565b7ffb71e31697d4a6aaae1d166334aa8c7428a349389bcc95579d54fb95535edf76604051806157086006339760018060a01b031696836155cf565b0390a4565b91909181156156595760105461572f90839085906001600160a01b031661510d565b7ffb71e31697d4a6aaae1d166334aa8c7428a349389bcc95579d54fb95535edf76604051806157086004339760018060a01b031696836155cf565b91909181156156595760105461578c90839085906001600160a01b031661510d565b7ffb71e31697d4a6aaae1d166334aa8c7428a349389bcc95579d54fb95535edf76604051806157086005339760018060a01b031696836155cf565b604051906011548083528260208101601160005260206000209260005b8181106157fb5750506157f992500383614706565b565b84546001600160a01b03168352600194850194879450602090930192016157e4565b805182101561466d5760209160051b010190565b91909181156156595760105461585390839085906001600160a01b031661510d565b7feda30a0d8ec5ade5ca4d49054f410ef255c797498d31d9cc9dd928c12c87e79b604051806157086007339760018060a01b031696836155cf565b9190918115615659576010546158b090839085906001600160a01b031661510d565b7feda30a0d8ec5ade5ca4d49054f410ef255c797498d31d9cc9dd928c12c87e79b604051806157086003339760018060a01b031696836155cf565b91909181156156595760105461590d90839085906001600160a01b031661510d565b7feda30a0d8ec5ade5ca4d49054f410ef255c797498d31d9cc9dd928c12c87e79b604051806157086000339760018060a01b031696836155cf565b6159506157c7565b60005b815181101561598e576001906001600160a01b03615971828561581d565b5116600052601b602052604060002060ff19815416905501615953565b505060ff19601c5416601c556000601755600060185560006019556000601a55337fc79764e56dcfddc1a2135f80cf347dd741f7c7f914a134142b5d336e156d3bd0600080a2565b90916001600160a01b03909116908115615a87574211615a4a57600052600460205260406000205403615a0557565b60405162461bcd60e51b815260206004820152601760248201527f62616420617574686f72697a6174696f6e206e6f6e63650000000000000000006044820152606490fd5b60405162461bcd60e51b8152602060048201526015602482015274185d5d1a1bdc9a5e985d1a5bdb88195e1c1a5c9959605a1b6044820152606490fd5b60405162461bcd60e51b815260206004820152600c60248201526b34b73b30b634b2103ab9b2b960a11b6044820152606490fd5b604051602081019161190160f01b83527f00000000000000000000000000000000000000000000000000000000000000006022830152604282015260428152615b05606282614706565b51902090565b9291926001840191828511614a4257615b3b9160018060a01b031692836000526004602052604060002055615c1d565b9160405193845260208401527f6ac709e2093c74d3ce56616ef76760c53ae0bf401457fb868a84e66636d3678360403394a4565b8151919060418303615ba057615b9992506020820151906060604084015193015160001a90615d62565b9192909190565b505060009160029190565b919091600481101561468d5780615bc157509050565b600060018203615bdc5763f645eedf60e01b60005260046000fd5b5060028103615bfa578263fce698f760e01b60005260045260246000fd5b9091600360009214615c0a575050565b6335e2f38360e21b825260045260249150fd5b615c2681614683565b8015615d3d57615c3581614683565b60018114615d1857615c4681614683565b60028114615cf357615c5781614683565b60038114615cce57600490615c6b81614683565b14615caa5760405162461bcd60e51b81526020600482015260126024820152713ab739bab83837b93a32b21030b1ba34b7b760711b6044820152606490fd5b7fa6115baa0e39b3877020da94fe30135520d27e0cb11c198edac119231d452a5790565b507f57f680ee8ca7390570646e9ba27d0a0f0e281e2565cbb092822584197106619690565b507f0e2cac5abaf6079f335df5966f41306619912fc862e3a81138fc8f0af5faca3690565b507f9d6f89df1fd95e20d56ed05e08fe9519ff6a2496090b77bfb70c8f64c21c238990565b507f642bc978b352e60185507106148c2e8af9b88eeaeec91883eebdc673e6add83f90565b91907f7fffffffffffffffffffffffffffffff5d576e7357a4501ddfe92f46681b20a08411615deb579160209360809260ff60009560405194855216868401526040830152606082015282805260015afa15615ddf576000516001600160a01b03811615615dd35790600090600090565b50600090600190600090565b6040513d6000823e3d90fd5b5050506000916003919056fe1aeed6c1f2a5ee88498ce328b743baceb98beee0e74dc04aa13d1b44e5d341cfeff4a09a9216c5817ca15a500171a637ee0c8122db87aee65985697823e1beb29b779b17422d0df92223018b32b4d1fa46e071723d6817e2486d003becc55f00a2646970667358221220d775447db2468e75523d9f20257194fe1fbe38467981649c5c2b42e6e7771fd564736f6c63430008220033",
  "linkReferences": {},
  "deployedLinkReferences": {}
}