{
  "_format": "hh-sol-artifact-1",
  "contractName": "AgroasysEscrow",
  "sourceName": "src/AgroasysEscrow.sol",
  "abi": [
    {
      "inputs": [
        {
          "internalType": "address",
          "name": "_usdcToken",
          "type": "address"
        },
        {
          "internalType": "address",
          "name": "_oracleAddress",
          "type": "address"
        },
        {
          "internalType": "address",
          "name": "_treasuryAddress",
          "type": "address"
        },
        {
          "internalType": "address[]",
          "name": "_admins",
          "type": "address[]"
        },
        {
          "internalType": "uint256",
          "name": "_requiredApprovals",
          "type": "uint256"
        }
      ],
      "stateMutability": "nonpayable",
      "type": "constructor"
    },
    {
      "inputs": [],
      "name": "ECDSAInvalidSignature",
      "type": "error"
    },
    {
      "inputs": [
        {
          "internalType": "uint256",
          "name": "length",
          "type": "uint256"
        }
      ],
      "name": "ECDSAInvalidSignatureLength",
      "type": "error"
    },
    {
      "inputs": [
        {
          "internalType": "bytes32",
          "name": "s",
          "type": "bytes32"
        }
      ],
      "name": "ECDSAInvalidSignatureS",
      "type": "error"
    },
    {
      "inputs": [],
      "name": "EnforcedPause",
      "type": "error"
    },
    {
      "inputs": [],
      "name": "ExpectedPause",
      "type": "error"
    },
    {
      "inputs": [],
      "name": "ReentrancyGuardReentrantCall",
      "type": "error"
    },
    {
      "inputs": [
        {
          "internalType": "address",
          "name": "token",
          "type": "address"
        }
      ],
      "name": "SafeERC20FailedOperation",
      "type": "error"
    },
    {
      "anonymous": false,
      "inputs": [
        {
          "indexed": true,
          "internalType": "uint256",
          "name": "proposalId",
          "type": "uint256"
        },
        {
          "indexed": true,
          "internalType": "address",
          "name": "approver",
          "type": "address"
        },
        {
          "indexed": false,
          "internalType": "uint256",
          "name": "approvalCount",
          "type": "uint256"
        },
        {
          "indexed": false,
          "internalType": "uint256",
          "name": "requiredApprovals",
          "type": "uint256"
        }
      ],
      "name": "AdminAddApproved",
      "type": "event"
    },
    {
      "anonymous": false,
      "inputs": [
        {
          "indexed": true,
          "internalType": "uint256",
          "name": "proposalId",
          "type": "uint256"
        },
        {
          "indexed": true,
          "internalType": "address",
          "name": "cancelledBy",
          "type": "address"
        }
      ],
      "name": "AdminAddProposalExpiredCancelled",
      "type": "event"
    },
    {
      "anonymous": false,
      "inputs": [
        {
          "indexed": true,
          "internalType": "uint256",
          "name": "proposalId",
          "type": "uint256"
        },
        {
          "indexed": true,
          "internalType": "address",
          "name": "proposer",
          "type": "address"
        },
        {
          "indexed": true,
          "internalType": "address",
          "name": "newAdmin",
          "type": "address"
        },
        {
          "indexed": false,
          "internalType": "uint256",
          "name": "eta",
          "type": "uint256"
        }
      ],
      "name": "AdminAddProposed",
      "type": "event"
    },
    {
      "anonymous": false,
      "inputs": [
        {
          "indexed": true,
          "internalType": "address",
          "name": "newAdmin",
          "type": "address"
        }
      ],
      "name": "AdminAdded",
      "type": "event"
    },
    {
      "anonymous": false,
      "inputs": [
        {
          "indexed": true,
          "internalType": "uint256",
          "name": "tradeId",
          "type": "uint256"
        },
        {
          "indexed": false,
          "internalType": "uint256",
          "name": "arrivalTimestamp",
          "type": "uint256"
        }
      ],
      "name": "ArrivalConfirmed",
      "type": "event"
    },
    {
      "anonymous": false,
      "inputs": [
        {
          "indexed": true,
          "internalType": "address",
          "name": "user",
          "type": "address"
        },
        {
          "indexed": true,
          "internalType": "bytes32",
          "name": "action",
          "type": "bytes32"
        },
        {
          "indexed": false,
          "internalType": "uint256",
          "name": "nonce",
          "type": "uint256"
        },
        {
          "indexed": true,
          "internalType": "address",
          "name": "relayer",
          "type": "address"
        },
        {
          "indexed": false,
          "internalType": "uint256",
          "name": "deadline",
          "type": "uint256"
        }
      ],
      "name": "AuthorizationConsumed",
      "type": "event"
    },
    {
      "anonymous": false,
      "inputs": [
        {
          "indexed": true,
          "internalType": "uint256",
          "name": "tradeId",
          "type": "uint256"
        },
        {
          "indexed": true,
          "internalType": "address",
          "name": "recipient",
          "type": "address"
        },
        {
          "indexed": false,
          "internalType": "uint256",
          "name": "amount",
          "type": "uint256"
        },
        {
          "indexed": false,
          "internalType": "enum AgroasysEscrow.ClaimType",
          "name": "claimType",
          "type": "uint8"
        }
      ],
      "name": "ClaimableAccrued",
      "type": "event"
    },
    {
      "anonymous": false,
      "inputs": [
        {
          "indexed": true,
          "internalType": "address",
          "name": "claimant",
          "type": "address"
        },
        {
          "indexed": false,
          "internalType": "uint256",
          "name": "amount",
          "type": "uint256"
        }
      ],
      "name": "Claimed",
      "type": "event"
    },
    {
      "anonymous": false,
      "inputs": [
        {
          "indexed": true,
          "internalType": "address",
          "name": "triggeredBy",
          "type": "address"
        }
      ],
      "name": "ClaimsPaused",
      "type": "event"
    },
    {
      "anonymous": false,
      "inputs": [
        {
          "indexed": true,
          "internalType": "address",
          "name": "triggeredBy",
          "type": "address"
        }
      ],
      "name": "ClaimsUnpaused",
      "type": "event"
    },
    {
      "anonymous": false,
      "inputs": [
        {
          "indexed": true,
          "internalType": "uint256",
          "name": "proposalId",
          "type": "uint256"
        },
        {
          "indexed": true,
          "internalType": "address",
          "name": "approver",
          "type": "address"
        },
        {
          "indexed": false,
          "internalType": "uint256",
          "name": "approvalCount",
          "type": "uint256"
        },
        {
          "indexed": false,
          "internalType": "uint256",
          "name": "requiredApprovals",
          "type": "uint256"
        }
      ],
      "name": "DisputeApproved",
      "type": "event"
    },
    {
      "anonymous": false,
      "inputs": [
        {
          "indexed": true,
          "internalType": "uint256",
          "name": "proposalId",
          "type": "uint256"
        },
        {
          "indexed": true,
          "internalType": "uint256",
          "name": "tradeId",
          "type": "uint256"
        },
        {
          "indexed": false,
          "internalType": "enum AgroasysEscrow.DisputeStatus",
          "name": "disputeStatus",
          "type": "uint8"
        }
      ],
      "name": "DisputeFinalized",
      "type": "event"
    },
    {
      "anonymous": false,
      "inputs": [
        {
          "indexed": true,
          "internalType": "uint256",
          "name": "tradeId",
          "type": "uint256"
        }
      ],
      "name": "DisputeOpenedByBuyer",
      "type": "event"
    },
    {
      "anonymous": false,
      "inputs": [
        {
          "indexed": true,
          "internalType": "uint256",
          "name": "tradeId",
          "type": "uint256"
        },
        {
          "indexed": true,
          "internalType": "uint256",
          "name": "proposalId",
          "type": "uint256"
        },
        {
          "indexed": true,
          "internalType": "address",
          "name": "recipient",
          "type": "address"
        },
        {
          "indexed": false,
          "internalType": "uint256",
          "name": "amount",
          "type": "uint256"
        },
        {
          "indexed": false,
          "internalType": "enum AgroasysEscrow.DisputeStatus",
          "name": "payoutType",
          "type": "uint8"
        }
      ],
      "name": "DisputePayout",
      "type": "event"
    },
    {
      "anonymous": false,
      "inputs": [
        {
          "indexed": true,
          "internalType": "uint256",
          "name": "proposalId",
          "type": "uint256"
        },
        {
          "indexed": true,
          "internalType": "uint256",
          "name": "tradeId",
          "type": "uint256"
        },
        {
          "indexed": true,
          "internalType": "address",
          "name": "cancelledBy",
          "type": "address"
        }
      ],
      "name": "DisputeProposalExpiredCancelled",
      "type": "event"
    },
    {
      "anonymous": false,
      "inputs": [
        {
          "indexed": true,
          "internalType": "uint256",
          "name": "proposalId",
          "type": "uint256"
        },
        {
          "indexed": true,
          "internalType": "uint256",
          "name": "tradeId",
          "type": "uint256"
        },
        {
          "indexed": false,
          "internalType": "enum AgroasysEscrow.DisputeStatus",
          "name": "disputeStatus",
          "type": "uint8"
        },
        {
          "indexed": true,
          "internalType": "address",
          "name": "proposer",
          "type": "address"
        }
      ],
      "name": "DisputeSolutionProposed",
      "type": "event"
    },
    {
      "anonymous": false,
      "inputs": [
        {
          "indexed": true,
          "internalType": "uint256",
          "name": "tradeId",
          "type": "uint256"
        },
        {
          "indexed": true,
          "internalType": "address",
          "name": "supplier",
          "type": "address"
        },
        {
          "indexed": false,
          "internalType": "uint256",
          "name": "supplierSecondTranche",
          "type": "uint256"
        }
      ],
      "name": "FinalTrancheReleased",
      "type": "event"
    },
    {
      "anonymous": false,
      "inputs": [
        {
          "indexed": true,
          "internalType": "uint256",
          "name": "tradeId",
          "type": "uint256"
        },
        {
          "indexed": true,
          "internalType": "address",
          "name": "supplier",
          "type": "address"
        },
        {
          "indexed": false,
          "internalType": "uint256",
          "name": "supplierFirstTranche",
          "type": "uint256"
        },
        {
          "indexed": true,
          "internalType": "address",
          "name": "treasury",
          "type": "address"
        },
        {
          "indexed": false,
          "internalType": "uint256",
          "name": "logisticsAmount",
          "type": "uint256"
        }
      ],
      "name": "FundsReleasedStage1",
      "type": "event"
    },
    {
      "anonymous": false,
      "inputs": [
        {
          "indexed": true,
          "internalType": "uint256",
          "name": "tradeId",
          "type": "uint256"
        },
        {
          "indexed": true,
          "internalType": "address",
          "name": "supplier",
          "type": "address"
        },
        {
          "indexed": false,
          "internalType": "uint256",
          "name": "supplierSecondTranche",
          "type": "uint256"
        },
        {
          "indexed": true,
          "internalType": "address",
          "name": "treasury",
          "type": "address"
        },
        {
          "indexed": false,
          "internalType": "uint256",
          "name": "platformFeesAmount",
          "type": "uint256"
        }
      ],
      "name": "FundsReleasedStage2",
      "type": "event"
    },
    {
      "anonymous": false,
      "inputs": [
        {
          "indexed": true,
          "internalType": "uint256",
          "name": "tradeId",
          "type": "uint256"
        },
        {
          "indexed": true,
          "internalType": "address",
          "name": "buyer",
          "type": "address"
        },
        {
          "indexed": true,
          "internalType": "bytes32",
          "name": "usdcAuthorizationNonce",
          "type": "bytes32"
        },
        {
          "indexed": false,
          "internalType": "uint256",
          "name": "amount",
          "type": "uint256"
        }
      ],
      "name": "GaslessTradeFunded",
      "type": "event"
    },
    {
      "anonymous": false,
      "inputs": [
        {
          "indexed": true,
          "internalType": "uint256",
          "name": "tradeId",
          "type": "uint256"
        },
        {
          "indexed": true,
          "internalType": "address",
          "name": "buyer",
          "type": "address"
        },
        {
          "indexed": false,
          "internalType": "uint256",
          "name": "refundedAmount",
          "type": "uint256"
        }
      ],
      "name": "InTransitTimeoutRefunded",
      "type": "event"
    },
    {
      "anonymous": false,
      "inputs": [
        {
          "indexed": true,
          "internalType": "address",
          "name": "by",
          "type": "address"
        },
        {
          "indexed": true,
          "internalType": "address",
          "name": "previousOracle",
          "type": "address"
        }
      ],
      "name": "OracleDisabledEmergency",
      "type": "event"
    },
    {
      "anonymous": false,
      "inputs": [
        {
          "indexed": true,
          "internalType": "uint256",
          "name": "proposalId",
          "type": "uint256"
        },
        {
          "indexed": true,
          "internalType": "address",
          "name": "approver",
          "type": "address"
        },
        {
          "indexed": false,
          "internalType": "uint256",
          "name": "approvalCount",
          "type": "uint256"
        },
        {
          "indexed": false,
          "internalType": "uint256",
          "name": "requiredApprovals",
          "type": "uint256"
        }
      ],
      "name": "OracleUpdateApproved",
      "type": "event"
    },
    {
      "anonymous": false,
      "inputs": [
        {
          "indexed": true,
          "internalType": "uint256",
          "name": "proposalId",
          "type": "uint256"
        },
        {
          "indexed": true,
          "internalType": "address",
          "name": "cancelledBy",
          "type": "address"
        }
      ],
      "name": "OracleUpdateProposalExpiredCancelled",
      "type": "event"
    },
    {
      "anonymous": false,
      "inputs": [
        {
          "indexed": true,
          "internalType": "uint256",
          "name": "proposalId",
          "type": "uint256"
        },
        {
          "indexed": true,
          "internalType": "address",
          "name": "proposer",
          "type": "address"
        },
        {
          "indexed": true,
          "internalType": "address",
          "name": "newOracle",
          "type": "address"
        },
        {
          "indexed": false,
          "internalType": "uint256",
          "name": "eta",
          "type": "uint256"
        },
        {
          "indexed": false,
          "internalType": "bool",
          "name": "emergencyFastTrack",
          "type": "bool"
        }
      ],
      "name": "OracleUpdateProposed",
      "type": "event"
    },
    {
      "anonymous": false,
      "inputs": [
        {
          "indexed": true,
          "internalType": "address",
          "name": "oldOracle",
          "type": "address"
        },
        {
          "indexed": true,
          "internalType": "address",
          "name": "newOracle",
          "type": "address"
        }
      ],
      "name": "OracleUpdated",
      "type": "event"
    },
    {
      "anonymous": false,
      "inputs": [
        {
          "indexed": false,
          "internalType": "address",
          "name": "account",
          "type": "address"
        }
      ],
      "name": "Paused",
      "type": "event"
    },
    {
      "anonymous": false,
      "inputs": [
        {
          "indexed": true,
          "internalType": "uint256",
          "name": "tradeId",
          "type": "uint256"
        },
        {
          "indexed": true,
          "internalType": "address",
          "name": "treasury",
          "type": "address"
        },
        {
          "indexed": false,
          "internalType": "uint256",
          "name": "platformFeesAmount",
          "type": "uint256"
        }
      ],
      "name": "PlatformFeesPaidStage1",
      "type": "event"
    },
    {
      "anonymous": false,
      "inputs": [
        {
          "indexed": true,
          "internalType": "address",
          "name": "relayer",
          "type": "address"
        },
        {
          "indexed": true,
          "internalType": "address",
          "name": "user",
          "type": "address"
        },
        {
          "indexed": true,
          "internalType": "bytes32",
          "name": "action",
          "type": "bytes32"
        },
        {
          "indexed": false,
          "internalType": "uint256",
          "name": "tradeId",
          "type": "uint256"
        }
      ],
      "name": "RelayedActionExecuted",
      "type": "event"
    },
    {
      "anonymous": false,
      "inputs": [
        {
          "indexed": true,
          "internalType": "address",
          "name": "relayer",
          "type": "address"
        },
        {
          "indexed": false,
          "internalType": "bool",
          "name": "allowed",
          "type": "bool"
        },
        {
          "indexed": true,
          "internalType": "address",
          "name": "updatedBy",
          "type": "address"
        }
      ],
      "name": "RelayerUpdated",
      "type": "event"
    },
    {
      "anonymous": false,
      "inputs": [
        {
          "indexed": true,
          "internalType": "uint256",
          "name": "tradeId",
          "type": "uint256"
        },
        {
          "indexed": true,
          "internalType": "address",
          "name": "supplier",
          "type": "address"
        },
        {
          "indexed": false,
          "internalType": "uint256",
          "name": "amount",
          "type": "uint256"
        },
        {
          "indexed": false,
          "internalType": "enum AgroasysEscrow.ClaimType",
          "name": "claimType",
          "type": "uint8"
        },
        {
          "indexed": true,
          "internalType": "address",
          "name": "triggeredBy",
          "type": "address"
        }
      ],
      "name": "SupplierPayoutTransferred",
      "type": "event"
    },
    {
      "anonymous": false,
      "inputs": [
        {
          "indexed": true,
          "internalType": "uint256",
          "name": "tradeId",
          "type": "uint256"
        },
        {
          "indexed": true,
          "internalType": "address",
          "name": "buyer",
          "type": "address"
        },
        {
          "indexed": false,
          "internalType": "uint256",
          "name": "refundedAmount",
          "type": "uint256"
        }
      ],
      "name": "TradeCancelledAfterLockTimeout",
      "type": "event"
    },
    {
      "anonymous": false,
      "inputs": [
        {
          "indexed": true,
          "internalType": "uint256",
          "name": "tradeId",
          "type": "uint256"
        },
        {
          "indexed": true,
          "internalType": "address",
          "name": "buyer",
          "type": "address"
        },
        {
          "indexed": true,
          "internalType": "address",
          "name": "supplier",
          "type": "address"
        },
        {
          "indexed": false,
          "internalType": "uint256",
          "name": "totalAmount",
          "type": "uint256"
        },
        {
          "indexed": false,
          "internalType": "uint256",
          "name": "logisticsAmount",
          "type": "uint256"
        },
        {
          "indexed": false,
          "internalType": "uint256",
          "name": "platformFeesAmount",
          "type": "uint256"
        },
        {
          "indexed": false,
          "internalType": "uint256",
          "name": "supplierFirstTranche",
          "type": "uint256"
        },
        {
          "indexed": false,
          "internalType": "uint256",
          "name": "supplierSecondTranche",
          "type": "uint256"
        },
        {
          "indexed": false,
          "internalType": "bytes32",
          "name": "ricardianHash",
          "type": "bytes32"
        }
      ],
      "name": "TradeLocked",
      "type": "event"
    },
    {
      "anonymous": false,
      "inputs": [
        {
          "indexed": true,
          "internalType": "address",
          "name": "treasuryIdentity",
          "type": "address"
        },
        {
          "indexed": true,
          "internalType": "address",
          "name": "payoutReceiver",
          "type": "address"
        },
        {
          "indexed": false,
          "internalType": "uint256",
          "name": "amount",
          "type": "uint256"
        },
        {
          "indexed": false,
          "internalType": "address",
          "name": "triggeredBy",
          "type": "address"
        }
      ],
      "name": "TreasuryClaimed",
      "type": "event"
    },
    {
      "anonymous": false,
      "inputs": [
        {
          "indexed": true,
          "internalType": "uint256",
          "name": "proposalId",
          "type": "uint256"
        },
        {
          "indexed": true,
          "internalType": "address",
          "name": "approver",
          "type": "address"
        },
        {
          "indexed": false,
          "internalType": "uint256",
          "name": "approvalCount",
          "type": "uint256"
        },
        {
          "indexed": false,
          "internalType": "uint256",
          "name": "requiredApprovals",
          "type": "uint256"
        }
      ],
      "name": "TreasuryPayoutAddressUpdateApproved",
      "type": "event"
    },
    {
      "anonymous": false,
      "inputs": [
        {
          "indexed": true,
          "internalType": "uint256",
          "name": "proposalId",
          "type": "uint256"
        },
        {
          "indexed": true,
          "internalType": "address",
          "name": "cancelledBy",
          "type": "address"
        }
      ],
      "name": "TreasuryPayoutAddressUpdateProposalExpiredCancelled",
      "type": "event"
    },
    {
      "anonymous": false,
      "inputs": [
        {
          "indexed": true,
          "internalType": "uint256",
          "name": "proposalId",
          "type": "uint256"
        },
        {
          "indexed": true,
          "internalType": "address",
          "name": "proposer",
          "type": "address"
        },
        {
          "indexed": true,
          "internalType": "address",
          "name": "newPayoutReceiver",
          "type": "address"
        },
        {
          "indexed": false,
          "internalType": "uint256",
          "name": "eta",
          "type": "uint256"
        }
      ],
      "name": "TreasuryPayoutAddressUpdateProposed",
      "type": "event"
    },
    {
      "anonymous": false,
      "inputs": [
        {
          "indexed": true,
          "internalType": "address",
          "name": "oldPayoutReceiver",
          "type": "address"
        },
        {
          "indexed": true,
          "internalType": "address",
          "name": "newPayoutReceiver",
          "type": "address"
        }
      ],
      "name": "TreasuryPayoutAddressUpdated",
      "type": "event"
    },
    {
      "anonymous": false,
      "inputs": [
        {
          "indexed": true,
          "internalType": "address",
          "name": "approver",
          "type": "address"
        },
        {
          "indexed": false,
          "internalType": "uint256",
          "name": "approvalCount",
          "type": "uint256"
        },
        {
          "indexed": false,
          "internalType": "uint256",
          "name": "requiredApprovals",
          "type": "uint256"
        }
      ],
      "name": "UnpauseApproved",
      "type": "event"
    },
    {
      "anonymous": false,
      "inputs": [
        {
          "indexed": true,
          "internalType": "address",
          "name": "cancelledBy",
          "type": "address"
        }
      ],
      "name": "UnpauseProposalCancelled",
      "type": "event"
    },
    {
      "anonymous": false,
      "inputs": [
        {
          "indexed": true,
          "internalType": "address",
          "name": "proposer",
          "type": "address"
        }
      ],
      "name": "UnpauseProposed",
      "type": "event"
    },
    {
      "anonymous": false,
      "inputs": [
        {
          "indexed": false,
          "internalType": "address",
          "name": "account",
          "type": "address"
        }
      ],
      "name": "Unpaused",
      "type": "event"
    },
    {
      "inputs": [],
      "name": "ACTION_CANCEL_LOCKED_TIMEOUT",
      "outputs": [
        {
          "internalType": "bytes32",
          "name": "",
          "type": "bytes32"
        }
      ],
      "stateMutability": "view",
      "type": "function"
    },
    {
      "inputs": [],
      "name": "ACTION_CREATE_TRADE",
      "outputs": [
        {
          "internalType": "bytes32",
          "name": "",
          "type": "bytes32"
        }
      ],
      "stateMutability": "view",
      "type": "function"
    },
    {
      "inputs": [],
      "name": "ACTION_FINALIZE_AFTER_DISPUTE_WINDOW",
      "outputs": [
        {
          "internalType": "bytes32",
          "name": "",
          "type": "bytes32"
        }
      ],
      "stateMutability": "view",
      "type": "function"
    },
    {
      "inputs": [],
      "name": "ACTION_OPEN_DISPUTE",
      "outputs": [
        {
          "internalType": "bytes32",
          "name": "",
          "type": "bytes32"
        }
      ],
      "stateMutability": "view",
      "type": "function"
    },
    {
      "inputs": [],
      "name": "ACTION_REFUND_IN_TRANSIT_TIMEOUT",
      "outputs": [
        {
          "internalType": "bytes32",
          "name": "",
          "type": "bytes32"
        }
      ],
      "stateMutability": "view",
      "type": "function"
    },
    {
      "inputs": [],
      "name": "DISPUTE_PROPOSAL_TTL",
      "outputs": [
        {
          "internalType": "uint256",
          "name": "",
          "type": "uint256"
        }
      ],
      "stateMutability": "view",
      "type": "function"
    },
    {
      "inputs": [],
      "name": "DISPUTE_WINDOW",
      "outputs": [
        {
          "internalType": "uint256",
          "name": "",
          "type": "uint256"
        }
      ],
      "stateMutability": "view",
      "type": "function"
    },
    {
      "inputs": [],
      "name": "GOVERNANCE_PROPOSAL_TTL",
      "outputs": [
        {
          "internalType": "uint256",
          "name": "",
          "type": "uint256"
        }
      ],
      "stateMutability": "view",
      "type": "function"
    },
    {
      "inputs": [],
      "name": "IN_TRANSIT_TIMEOUT",
      "outputs": [
        {
          "internalType": "uint256",
          "name": "",
          "type": "uint256"
        }
      ],
      "stateMutability": "view",
      "type": "function"
    },
    {
      "inputs": [],
      "name": "LOCK_TIMEOUT",
      "outputs": [
        {
          "internalType": "uint256",
          "name": "",
          "type": "uint256"
        }
      ],
      "stateMutability": "view",
      "type": "function"
    },
    {
      "inputs": [],
      "name": "adminAddCounter",
      "outputs": [
        {
          "internalType": "uint256",
          "name": "",
          "type": "uint256"
        }
      ],
      "stateMutability": "view",
      "type": "function"
    },
    {
      "inputs": [
        {
          "internalType": "uint256",
          "name": "",
          "type": "uint256"
        },
        {
          "internalType": "address",
          "name": "",
          "type": "address"
        }
      ],
      "name": "adminAddHasApproved",
      "outputs": [
        {
          "internalType": "bool",
          "name": "",
          "type": "bool"
        }
      ],
      "stateMutability": "view",
      "type": "function"
    },
    {
      "inputs": [
        {
          "internalType": "uint256",
          "name": "",
          "type": "uint256"
        }
      ],
      "name": "adminAddProposalCancelled",
      "outputs": [
        {
          "internalType": "bool",
          "name": "",
          "type": "bool"
        }
      ],
      "stateMutability": "view",
      "type": "function"
    },
    {
      "inputs": [
        {
          "internalType": "uint256",
          "name": "",
          "type": "uint256"
        }
      ],
      "name": "adminAddProposalExpiresAt",
      "outputs": [
        {
          "internalType": "uint256",
          "name": "",
          "type": "uint256"
        }
      ],
      "stateMutability": "view",
      "type": "function"
    },
    {
      "inputs": [
        {
          "internalType": "uint256",
          "name": "",
          "type": "uint256"
        }
      ],
      "name": "adminAddProposals",
      "outputs": [
        {
          "internalType": "address",
          "name": "newAdmin",
          "type": "address"
        },
        {
          "internalType": "uint256",
          "name": "approvalCount",
          "type": "uint256"
        },
        {
          "internalType": "bool",
          "name": "executed",
          "type": "bool"
        },
        {
          "internalType": "uint256",
          "name": "createdAt",
          "type": "uint256"
        },
        {
          "internalType": "uint256",
          "name": "eta",
          "type": "uint256"
        },
        {
          "internalType": "address",
          "name": "proposer",
          "type": "address"
        }
      ],
      "stateMutability": "view",
      "type": "function"
    },
    {
      "inputs": [
        {
          "internalType": "uint256",
          "name": "",
          "type": "uint256"
        }
      ],
      "name": "admins",
      "outputs": [
        {
          "internalType": "address",
          "name": "",
          "type": "address"
        }
      ],
      "stateMutability": "view",
      "type": "function"
    },
    {
      "inputs": [
        {
          "internalType": "uint256",
          "name": "_proposalId",
          "type": "uint256"
        }
      ],
      "name": "approveAddAdmin",
      "outputs": [],
      "stateMutability": "nonpayable",
      "type": "function"
    },
    {
      "inputs": [
        {
          "internalType": "uint256",
          "name": "_proposalId",
          "type": "uint256"
        }
      ],
      "name": "approveDisputeSolution",
      "outputs": [],
      "stateMutability": "nonpayable",
      "type": "function"
    },
    {
      "inputs": [
        {
          "internalType": "uint256",
          "name": "_proposalId",
          "type": "uint256"
        }
      ],
      "name": "approveOracleUpdate",
      "outputs": [],
      "stateMutability": "nonpayable",
      "type": "function"
    },
    {
      "inputs": [
        {
          "internalType": "uint256",
          "name": "_proposalId",
          "type": "uint256"
        }
      ],
      "name": "approveTreasuryPayoutAddressUpdate",
      "outputs": [],
      "stateMutability": "nonpayable",
      "type": "function"
    },
    {
      "inputs": [],
      "name": "approveUnpause",
      "outputs": [],
      "stateMutability": "nonpayable",
      "type": "function"
    },
    {
      "inputs": [
        {
          "internalType": "address",
          "name": "",
          "type": "address"
        }
      ],
      "name": "authorizationNonces",
      "outputs": [
        {
          "internalType": "uint256",
          "name": "",
          "type": "uint256"
        }
      ],
      "stateMutability": "view",
      "type": "function"
    },
    {
      "inputs": [
        {
          "internalType": "uint256",
          "name": "_tradeId",
          "type": "uint256"
        }
      ],
      "name": "buyerRefundableAmount",
      "outputs": [
        {
          "internalType": "uint256",
          "name": "",
          "type": "uint256"
        }
      ],
      "stateMutability": "view",
      "type": "function"
    },
    {
      "inputs": [
        {
          "internalType": "uint256",
          "name": "_proposalId",
          "type": "uint256"
        }
      ],
      "name": "cancelExpiredAddAdminProposal",
      "outputs": [],
      "stateMutability": "nonpayable",
      "type": "function"
    },
    {
      "inputs": [
        {
          "internalType": "uint256",
          "name": "_proposalId",
          "type": "uint256"
        }
      ],
      "name": "cancelExpiredDisputeProposal",
      "outputs": [],
      "stateMutability": "nonpayable",
      "type": "function"
    },
    {
      "inputs": [
        {
          "internalType": "uint256",
          "name": "_proposalId",
          "type": "uint256"
        }
      ],
      "name": "cancelExpiredOracleUpdateProposal",
      "outputs": [],
      "stateMutability": "nonpayable",
      "type": "function"
    },
    {
      "inputs": [
        {
          "internalType": "uint256",
          "name": "_proposalId",
          "type": "uint256"
        }
      ],
      "name": "cancelExpiredTreasuryPayoutAddressUpdateProposal",
      "outputs": [],
      "stateMutability": "nonpayable",
      "type": "function"
    },
    {
      "inputs": [
        {
          "internalType": "uint256",
          "name": "_tradeId",
          "type": "uint256"
        }
      ],
      "name": "cancelLockedTradeAfterTimeout",
      "outputs": [],
      "stateMutability": "nonpayable",
      "type": "function"
    },
    {
      "inputs": [
        {
          "internalType": "uint256",
          "name": "_tradeId",
          "type": "uint256"
        },
        {
          "internalType": "uint256",
          "name": "_authorizationNonce",
          "type": "uint256"
        },
        {
          "internalType": "uint256",
          "name": "_authorizationDeadline",
          "type": "uint256"
        },
        {
          "internalType": "bytes",
          "name": "_authorizationSignature",
          "type": "bytes"
        }
      ],
      "name": "cancelLockedTradeAfterTimeoutWithAuthorization",
      "outputs": [],
      "stateMutability": "nonpayable",
      "type": "function"
    },
    {
      "inputs": [],
      "name": "cancelUnpauseProposal",
      "outputs": [],
      "stateMutability": "nonpayable",
      "type": "function"
    },
    {
      "inputs": [],
      "name": "claim",
      "outputs": [],
      "stateMutability": "nonpayable",
      "type": "function"
    },
    {
      "inputs": [],
      "name": "claimTreasury",
      "outputs": [],
      "stateMutability": "nonpayable",
      "type": "function"
    },
    {
      "inputs": [
        {
          "internalType": "address",
          "name": "",
          "type": "address"
        }
      ],
      "name": "claimableUsdc",
      "outputs": [
        {
          "internalType": "uint256",
          "name": "",
          "type": "uint256"
        }
      ],
      "stateMutability": "view",
      "type": "function"
    },
    {
      "inputs": [],
      "name": "claimsPaused",
      "outputs": [
        {
          "internalType": "bool",
          "name": "",
          "type": "bool"
        }
      ],
      "stateMutability": "view",
      "type": "function"
    },
    {
      "inputs": [
        {
          "internalType": "uint256",
          "name": "_tradeId",
          "type": "uint256"
        }
      ],
      "name": "confirmArrival",
      "outputs": [],
      "stateMutability": "nonpayable",
      "type": "function"
    },
    {
      "inputs": [
        {
          "internalType": "address",
          "name": "_supplier",
          "type": "address"
        },
        {
          "internalType": "uint256",
          "name": "_totalAmount",
          "type": "uint256"
        },
        {
          "internalType": "uint256",
          "name": "_logisticsAmount",
          "type": "uint256"
        },
        {
          "internalType": "uint256",
          "name": "_platformFeesAmount",
          "type": "uint256"
        },
        {
          "internalType": "uint256",
          "name": "_supplierFirstTranche",
          "type": "uint256"
        },
        {
          "internalType": "uint256",
          "name": "_supplierSecondTranche",
          "type": "uint256"
        },
        {
          "internalType": "bytes32",
          "name": "_ricardianHash",
          "type": "bytes32"
        },
        {
          "internalType": "uint256",
          "name": "_buyerNonce",
          "type": "uint256"
        },
        {
          "internalType": "uint256",
          "name": "_deadline",
          "type": "uint256"
        },
        {
          "internalType": "bytes",
          "name": "_signature",
          "type": "bytes"
        }
      ],
      "name": "createTrade",
      "outputs": [
        {
          "internalType": "uint256",
          "name": "",
          "type": "uint256"
        }
      ],
      "stateMutability": "nonpayable",
      "type": "function"
    },
    {
      "inputs": [
        {
          "internalType": "address",
          "name": "_buyer",
          "type": "address"
        },
        {
          "internalType": "address",
          "name": "_supplier",
          "type": "address"
        },
        {
          "internalType": "uint256",
          "name": "_totalAmount",
          "type": "uint256"
        },
        {
          "internalType": "uint256",
          "name": "_logisticsAmount",
          "type": "uint256"
        },
        {
          "internalType": "uint256",
          "name": "_platformFeesAmount",
          "type": "uint256"
        },
        {
          "internalType": "uint256",
          "name": "_supplierFirstTranche",
          "type": "uint256"
        },
        {
          "internalType": "uint256",
          "name": "_supplierSecondTranche",
          "type": "uint256"
        },
        {
          "internalType": "bytes32",
          "name": "_ricardianHash",
          "type": "bytes32"
        },
        {
          "internalType": "uint256",
          "name": "_authorizationNonce",
          "type": "uint256"
        },
        {
          "internalType": "uint256",
          "name": "_authorizationDeadline",
          "type": "uint256"
        },
        {
          "internalType": "bytes",
          "name": "_authorizationSignature",
          "type": "bytes"
        },
        {
          "components": [
            {
              "internalType": "uint256",
              "name": "validAfter",
              "type": "uint256"
            },
            {
              "internalType": "uint256",
              "name": "validBefore",
              "type": "uint256"
            },
            {
              "internalType": "bytes32",
              "name": "nonce",
              "type": "bytes32"
            },
            {
              "internalType": "uint8",
              "name": "v",
              "type": "uint8"
            },
            {
              "internalType": "bytes32",
              "name": "r",
              "type": "bytes32"
            },
            {
              "internalType": "bytes32",
              "name": "s",
              "type": "bytes32"
            }
          ],
          "internalType": "struct AgroasysEscrow.UsdcAuthorization",
          "name": "_usdcAuthorization",
          "type": "tuple"
        }
      ],
      "name": "createTradeWithAuthorization",
      "outputs": [
        {
          "internalType": "uint256",
          "name": "",
          "type": "uint256"
        }
      ],
      "stateMutability": "nonpayable",
      "type": "function"
    },
    {
      "inputs": [],
      "name": "disableOracleEmergency",
      "outputs": [],
      "stateMutability": "nonpayable",
      "type": "function"
    },
    {
      "inputs": [],
      "name": "disputeCounter",
      "outputs": [
        {
          "internalType": "uint256",
          "name": "",
          "type": "uint256"
        }
      ],
      "stateMutability": "view",
      "type": "function"
    },
    {
      "inputs": [
        {
          "internalType": "uint256",
          "name": "",
          "type": "uint256"
        },
        {
          "internalType": "address",
          "name": "",
          "type": "address"
        }
      ],
      "name": "disputeHasApproved",
      "outputs": [
        {
          "internalType": "bool",
          "name": "",
          "type": "bool"
        }
      ],
      "stateMutability": "view",
      "type": "function"
    },
    {
      "inputs": [
        {
          "internalType": "uint256",
          "name": "",
          "type": "uint256"
        }
      ],
      "name": "disputeProposalCancelled",
      "outputs": [
        {
          "internalType": "bool",
          "name": "",
          "type": "bool"
        }
      ],
      "stateMutability": "view",
      "type": "function"
    },
    {
      "inputs": [
        {
          "internalType": "uint256",
          "name": "",
          "type": "uint256"
        }
      ],
      "name": "disputeProposalExpiresAt",
      "outputs": [
        {
          "internalType": "uint256",
          "name": "",
          "type": "uint256"
        }
      ],
      "stateMutability": "view",
      "type": "function"
    },
    {
      "inputs": [
        {
          "internalType": "uint256",
          "name": "",
          "type": "uint256"
        }
      ],
      "name": "disputeProposals",
      "outputs": [
        {
          "internalType": "uint256",
          "name": "tradeId",
          "type": "uint256"
        },
        {
          "internalType": "enum AgroasysEscrow.DisputeStatus",
          "name": "disputeStatus",
          "type": "uint8"
        },
        {
          "internalType": "uint256",
          "name": "approvalCount",
          "type": "uint256"
        },
        {
          "internalType": "bool",
          "name": "executed",
          "type": "bool"
        },
        {
          "internalType": "uint256",
          "name": "createdAt",
          "type": "uint256"
        },
        {
          "internalType": "address",
          "name": "proposer",
          "type": "address"
        }
      ],
      "stateMutability": "view",
      "type": "function"
    },
    {
      "inputs": [
        {
          "internalType": "uint256",
          "name": "_proposalId",
          "type": "uint256"
        }
      ],
      "name": "executeAddAdmin",
      "outputs": [],
      "stateMutability": "nonpayable",
      "type": "function"
    },
    {
      "inputs": [
        {
          "internalType": "uint256",
          "name": "_proposalId",
          "type": "uint256"
        }
      ],
      "name": "executeOracleUpdate",
      "outputs": [],
      "stateMutability": "nonpayable",
      "type": "function"
    },
    {
      "inputs": [
        {
          "internalType": "uint256",
          "name": "_proposalId",
          "type": "uint256"
        }
      ],
      "name": "executeTreasuryPayoutAddressUpdate",
      "outputs": [],
      "stateMutability": "nonpayable",
      "type": "function"
    },
    {
      "inputs": [
        {
          "internalType": "uint256",
          "name": "_tradeId",
          "type": "uint256"
        }
      ],
      "name": "finalizeAfterDisputeWindow",
      "outputs": [],
      "stateMutability": "nonpayable",
      "type": "function"
    },
    {
      "inputs": [
        {
          "internalType": "uint256",
          "name": "_tradeId",
          "type": "uint256"
        },
        {
          "internalType": "uint256",
          "name": "_authorizationNonce",
          "type": "uint256"
        },
        {
          "internalType": "uint256",
          "name": "_authorizationDeadline",
          "type": "uint256"
        },
        {
          "internalType": "bytes",
          "name": "_authorizationSignature",
          "type": "bytes"
        }
      ],
      "name": "finalizeAfterDisputeWindowWithAuthorization",
      "outputs": [],
      "stateMutability": "nonpayable",
      "type": "function"
    },
    {
      "inputs": [
        {
          "internalType": "address",
          "name": "user",
          "type": "address"
        }
      ],
      "name": "getAuthorizationNonce",
      "outputs": [
        {
          "internalType": "uint256",
          "name": "",
          "type": "uint256"
        }
      ],
      "stateMutability": "view",
      "type": "function"
    },
    {
      "inputs": [
        {
          "internalType": "address",
          "name": "buyer",
          "type": "address"
        }
      ],
      "name": "getBuyerNonce",
      "outputs": [
        {
          "internalType": "uint256",
          "name": "",
          "type": "uint256"
        }
      ],
      "stateMutability": "view",
      "type": "function"
    },
    {
      "inputs": [],
      "name": "getNextTradeId",
      "outputs": [
        {
          "internalType": "uint256",
          "name": "",
          "type": "uint256"
        }
      ],
      "stateMutability": "view",
      "type": "function"
    },
    {
      "inputs": [],
      "name": "governanceApprovals",
      "outputs": [
        {
          "internalType": "uint256",
          "name": "",
          "type": "uint256"
        }
      ],
      "stateMutability": "view",
      "type": "function"
    },
    {
      "inputs": [],
      "name": "governanceTimelock",
      "outputs": [
        {
          "internalType": "uint256",
          "name": "",
          "type": "uint256"
        }
      ],
      "stateMutability": "view",
      "type": "function"
    },
    {
      "inputs": [],
      "name": "hasActiveUnpauseProposal",
      "outputs": [
        {
          "internalType": "bool",
          "name": "",
          "type": "bool"
        }
      ],
      "stateMutability": "view",
      "type": "function"
    },
    {
      "inputs": [],
      "name": "hasPendingTreasuryPayoutAddressUpdateProposal",
      "outputs": [
        {
          "internalType": "bool",
          "name": "",
          "type": "bool"
        }
      ],
      "stateMutability": "view",
      "type": "function"
    },
    {
      "inputs": [
        {
          "internalType": "uint256",
          "name": "",
          "type": "uint256"
        }
      ],
      "name": "inTransitSince",
      "outputs": [
        {
          "internalType": "uint256",
          "name": "",
          "type": "uint256"
        }
      ],
      "stateMutability": "view",
      "type": "function"
    },
    {
      "inputs": [
        {
          "internalType": "address",
          "name": "",
          "type": "address"
        }
      ],
      "name": "isAdmin",
      "outputs": [
        {
          "internalType": "bool",
          "name": "",
          "type": "bool"
        }
      ],
      "stateMutability": "view",
      "type": "function"
    },
    {
      "inputs": [
        {
          "internalType": "address",
          "name": "",
          "type": "address"
        }
      ],
      "name": "isRelayer",
      "outputs": [
        {
          "internalType": "bool",
          "name": "",
          "type": "bool"
        }
      ],
      "stateMutability": "view",
      "type": "function"
    },
    {
      "inputs": [
        {
          "internalType": "uint256",
          "name": "_tradeId",
          "type": "uint256"
        }
      ],
      "name": "nonRefundableFeeAmount",
      "outputs": [
        {
          "internalType": "uint256",
          "name": "",
          "type": "uint256"
        }
      ],
      "stateMutability": "view",
      "type": "function"
    },
    {
      "inputs": [
        {
          "internalType": "address",
          "name": "",
          "type": "address"
        }
      ],
      "name": "nonces",
      "outputs": [
        {
          "internalType": "uint256",
          "name": "",
          "type": "uint256"
        }
      ],
      "stateMutability": "view",
      "type": "function"
    },
    {
      "inputs": [
        {
          "internalType": "uint256",
          "name": "_tradeId",
          "type": "uint256"
        }
      ],
      "name": "openDispute",
      "outputs": [],
      "stateMutability": "nonpayable",
      "type": "function"
    },
    {
      "inputs": [
        {
          "internalType": "uint256",
          "name": "_tradeId",
          "type": "uint256"
        },
        {
          "internalType": "uint256",
          "name": "_authorizationNonce",
          "type": "uint256"
        },
        {
          "internalType": "uint256",
          "name": "_authorizationDeadline",
          "type": "uint256"
        },
        {
          "internalType": "bytes",
          "name": "_authorizationSignature",
          "type": "bytes"
        }
      ],
      "name": "openDisputeWithAuthorization",
      "outputs": [],
      "stateMutability": "nonpayable",
      "type": "function"
    },
    {
      "inputs": [],
      "name": "oracleActive",
      "outputs": [
        {
          "internalType": "bool",
          "name": "",
          "type": "bool"
        }
      ],
      "stateMutability": "view",
      "type": "function"
    },
    {
      "inputs": [],
      "name": "oracleAddress",
      "outputs": [
        {
          "internalType": "address",
          "name": "",
          "type": "address"
        }
      ],
      "stateMutability": "view",
      "type": "function"
    },
    {
      "inputs": [],
      "name": "oracleUpdateCounter",
      "outputs": [
        {
          "internalType": "uint256",
          "name": "",
          "type": "uint256"
        }
      ],
      "stateMutability": "view",
      "type": "function"
    },
    {
      "inputs": [
        {
          "internalType": "uint256",
          "name": "",
          "type": "uint256"
        },
        {
          "internalType": "address",
          "name": "",
          "type": "address"
        }
      ],
      "name": "oracleUpdateHasApproved",
      "outputs": [
        {
          "internalType": "bool",
          "name": "",
          "type": "bool"
        }
      ],
      "stateMutability": "view",
      "type": "function"
    },
    {
      "inputs": [
        {
          "internalType": "uint256",
          "name": "",
          "type": "uint256"
        }
      ],
      "name": "oracleUpdateProposalCancelled",
      "outputs": [
        {
          "internalType": "bool",
          "name": "",
          "type": "bool"
        }
      ],
      "stateMutability": "view",
      "type": "function"
    },
    {
      "inputs": [
        {
          "internalType": "uint256",
          "name": "",
          "type": "uint256"
        }
      ],
      "name": "oracleUpdateProposalExpiresAt",
      "outputs": [
        {
          "internalType": "uint256",
          "name": "",
          "type": "uint256"
        }
      ],
      "stateMutability": "view",
      "type": "function"
    },
    {
      "inputs": [
        {
          "internalType": "uint256",
          "name": "",
          "type": "uint256"
        }
      ],
      "name": "oracleUpdateProposals",
      "outputs": [
        {
          "internalType": "address",
          "name": "newOracle",
          "type": "address"
        },
        {
          "internalType": "uint256",
          "name": "approvalCount",
          "type": "uint256"
        },
        {
          "internalType": "bool",
          "name": "executed",
          "type": "bool"
        },
        {
          "internalType": "uint256",
          "name": "createdAt",
          "type": "uint256"
        },
        {
          "internalType": "uint256",
          "name": "eta",
          "type": "uint256"
        },
        {
          "internalType": "address",
          "name": "proposer",
          "type": "address"
        },
        {
          "internalType": "bool",
          "name": "emergencyFastTrack",
          "type": "bool"
        }
      ],
      "stateMutability": "view",
      "type": "function"
    },
    {
      "inputs": [],
      "name": "pause",
      "outputs": [],
      "stateMutability": "nonpayable",
      "type": "function"
    },
    {
      "inputs": [],
      "name": "pauseClaims",
      "outputs": [],
      "stateMutability": "nonpayable",
      "type": "function"
    },
    {
      "inputs": [],
      "name": "paused",
      "outputs": [
        {
          "internalType": "bool",
          "name": "",
          "type": "bool"
        }
      ],
      "stateMutability": "view",
      "type": "function"
    },
    {
      "inputs": [
        {
          "internalType": "address",
          "name": "_newAdmin",
          "type": "address"
        }
      ],
      "name": "proposeAddAdmin",
      "outputs": [
        {
          "internalType": "uint256",
          "name": "",
          "type": "uint256"
        }
      ],
      "stateMutability": "nonpayable",
      "type": "function"
    },
    {
      "inputs": [
        {
          "internalType": "uint256",
          "name": "_tradeId",
          "type": "uint256"
        },
        {
          "internalType": "enum AgroasysEscrow.DisputeStatus",
          "name": "_disputeStatus",
          "type": "uint8"
        }
      ],
      "name": "proposeDisputeSolution",
      "outputs": [
        {
          "internalType": "uint256",
          "name": "",
          "type": "uint256"
        }
      ],
      "stateMutability": "nonpayable",
      "type": "function"
    },
    {
      "inputs": [
        {
          "internalType": "address",
          "name": "_newOracle",
          "type": "address"
        }
      ],
      "name": "proposeOracleUpdate",
      "outputs": [
        {
          "internalType": "uint256",
          "name": "",
          "type": "uint256"
        }
      ],
      "stateMutability": "nonpayable",
      "type": "function"
    },
    {
      "inputs": [
        {
          "internalType": "address",
          "name": "_newPayoutReceiver",
          "type": "address"
        }
      ],
      "name": "proposeTreasuryPayoutAddressUpdate",
      "outputs": [
        {
          "internalType": "uint256",
          "name": "",
          "type": "uint256"
        }
      ],
      "stateMutability": "nonpayable",
      "type": "function"
    },
    {
      "inputs": [],
      "name": "proposeUnpause",
      "outputs": [
        {
          "internalType": "bool",
          "name": "",
          "type": "bool"
        }
      ],
      "stateMutability": "nonpayable",
      "type": "function"
    },
    {
      "inputs": [
        {
          "internalType": "uint256",
          "name": "_tradeId",
          "type": "uint256"
        }
      ],
      "name": "refundInTransitAfterTimeout",
      "outputs": [],
      "stateMutability": "nonpayable",
      "type": "function"
    },
    {
      "inputs": [
        {
          "internalType": "uint256",
          "name": "_tradeId",
          "type": "uint256"
        },
        {
          "internalType": "uint256",
          "name": "_authorizationNonce",
          "type": "uint256"
        },
        {
          "internalType": "uint256",
          "name": "_authorizationDeadline",
          "type": "uint256"
        },
        {
          "internalType": "bytes",
          "name": "_authorizationSignature",
          "type": "bytes"
        }
      ],
      "name": "refundInTransitAfterTimeoutWithAuthorization",
      "outputs": [],
      "stateMutability": "nonpayable",
      "type": "function"
    },
    {
      "inputs": [
        {
          "internalType": "uint256",
          "name": "_tradeId",
          "type": "uint256"
        }
      ],
      "name": "releaseFundsStage1",
      "outputs": [],
      "stateMutability": "nonpayable",
      "type": "function"
    },
    {
      "inputs": [],
      "name": "requiredApprovals",
      "outputs": [
        {
          "internalType": "uint256",
          "name": "",
          "type": "uint256"
        }
      ],
      "stateMutability": "view",
      "type": "function"
    },
    {
      "inputs": [
        {
          "internalType": "address",
          "name": "relayer",
          "type": "address"
        },
        {
          "internalType": "bool",
          "name": "allowed",
          "type": "bool"
        }
      ],
      "name": "setRelayer",
      "outputs": [],
      "stateMutability": "nonpayable",
      "type": "function"
    },
    {
      "inputs": [],
      "name": "totalClaimableUsdc",
      "outputs": [
        {
          "internalType": "uint256",
          "name": "",
          "type": "uint256"
        }
      ],
      "stateMutability": "view",
      "type": "function"
    },
    {
      "inputs": [
        {
          "internalType": "uint256",
          "name": "",
          "type": "uint256"
        }
      ],
      "name": "tradeActiveDisputeProposalId",
      "outputs": [
        {
          "internalType": "uint256",
          "name": "",
          "type": "uint256"
        }
      ],
      "stateMutability": "view",
      "type": "function"
    },
    {
      "inputs": [],
      "name": "tradeCounter",
      "outputs": [
        {
          "internalType": "uint256",
          "name": "",
          "type": "uint256"
        }
      ],
      "stateMutability": "view",
      "type": "function"
    },
    {
      "inputs": [
        {
          "internalType": "uint256",
          "name": "",
          "type": "uint256"
        }
      ],
      "name": "tradeHasActiveDisputeProposal",
      "outputs": [
        {
          "internalType": "bool",
          "name": "",
          "type": "bool"
        }
      ],
      "stateMutability": "view",
      "type": "function"
    },
    {
      "inputs": [
        {
          "internalType": "uint256",
          "name": "",
          "type": "uint256"
        }
      ],
      "name": "trades",
      "outputs": [
        {
          "internalType": "uint256",
          "name": "tradeId",
          "type": "uint256"
        },
        {
          "internalType": "bytes32",
          "name": "ricardianHash",
          "type": "bytes32"
        },
        {
          "internalType": "enum AgroasysEscrow.TradeStatus",
          "name": "status",
          "type": "uint8"
        },
        {
          "internalType": "address",
          "name": "buyerAddress",
          "type": "address"
        },
        {
          "internalType": "address",
          "name": "supplierAddress",
          "type": "address"
        },
        {
          "internalType": "uint256",
          "name": "totalAmountLocked",
          "type": "uint256"
        },
        {
          "internalType": "uint256",
          "name": "logisticsAmount",
          "type": "uint256"
        },
        {
          "internalType": "uint256",
          "name": "platformFeesAmount",
          "type": "uint256"
        },
        {
          "internalType": "uint256",
          "name": "supplierFirstTranche",
          "type": "uint256"
        },
        {
          "internalType": "uint256",
          "name": "supplierSecondTranche",
          "type": "uint256"
        },
        {
          "internalType": "uint256",
          "name": "createdAt",
          "type": "uint256"
        },
        {
          "internalType": "uint256",
          "name": "arrivalTimestamp",
          "type": "uint256"
        }
      ],
      "stateMutability": "view",
      "type": "function"
    },
    {
      "inputs": [],
      "name": "treasuryAddress",
      "outputs": [
        {
          "internalType": "address",
          "name": "",
          "type": "address"
        }
      ],
      "stateMutability": "view",
      "type": "function"
    },
    {
      "inputs": [],
      "name": "treasuryPayoutAddress",
      "outputs": [
        {
          "internalType": "address",
          "name": "",
          "type": "address"
        }
      ],
      "stateMutability": "view",
      "type": "function"
    },
    {
      "inputs": [],
      "name": "treasuryPayoutAddressUpdateCounter",
      "outputs": [
        {
          "internalType": "uint256",
          "name": "",
          "type": "uint256"
        }
      ],
      "stateMutability": "view",
      "type": "function"
    },
    {
      "inputs": [
        {
          "internalType": "uint256",
          "name": "",
          "type": "uint256"
        },
        {
          "internalType": "address",
          "name": "",
          "type": "address"
        }
      ],
      "name": "treasuryPayoutAddressUpdateHasApproved",
      "outputs": [
        {
          "internalType": "bool",
          "name": "",
          "type": "bool"
        }
      ],
      "stateMutability": "view",
      "type": "function"
    },
    {
      "inputs": [
        {
          "internalType": "uint256",
          "name": "",
          "type": "uint256"
        }
      ],
      "name": "treasuryPayoutAddressUpdateProposalCancelled",
      "outputs": [
        {
          "internalType": "bool",
          "name": "",
          "type": "bool"
        }
      ],
      "stateMutability": "view",
      "type": "function"
    },
    {
      "inputs": [
        {
          "internalType": "uint256",
          "name": "",
          "type": "uint256"
        }
      ],
      "name": "treasuryPayoutAddressUpdateProposalExpiresAt",
      "outputs": [
        {
          "internalType": "uint256",
          "name": "",
          "type": "uint256"
        }
      ],
      "stateMutability": "view",
      "type": "function"
    },
    {
      "inputs": [
        {
          "internalType": "uint256",
          "name": "",
          "type": "uint256"
        }
      ],
      "name": "treasuryPayoutAddressUpdateProposals",
      "outputs": [
        {
          "internalType": "address",
          "name": "newPayoutReceiver",
          "type": "address"
        },
        {
          "internalType": "uint256",
          "name": "approvalCount",
          "type": "uint256"
        },
        {
          "internalType": "bool",
          "name": "executed",
          "type": "bool"
        },
        {
          "internalType": "uint256",
          "name": "createdAt",
          "type": "uint256"
        },
        {
          "internalType": "uint256",
          "name": "eta",
          "type": "uint256"
        },
        {
          "internalType": "address",
          "name": "proposer",
          "type": "address"
        }
      ],
      "stateMutability": "view",
      "type": "function"
    },
    {
      "inputs": [],
      "name": "unpauseClaims",
      "outputs": [],
      "stateMutability": "nonpayable",
      "type": "function"
    },
    {
      "inputs": [
        {
          "internalType": "address",
          "name": "",
          "type": "address"
        }
      ],
      "name": "unpauseHasApproved",
      "outputs": [
        {
          "internalType": "bool",
          "name": "",
          "type": "bool"
        }
      ],
      "stateMutability": "view",
      "type": "function"
    },
    {
      "inputs": [],
      "name": "unpauseProposal",
      "outputs": [
        {
          "internalType": "uint256",
          "name": "approvalCount",
          "type": "uint256"
        },
        {
          "internalType": "bool",
          "name": "executed",
          "type": "bool"
        },
        {
          "internalType": "uint256",
          "name": "createdAt",
          "type": "uint256"
        },
        {
          "internalType": "address",
          "name": "proposer",
          "type": "address"
        }
      ],
      "stateMutability": "view",
      "type": "function"
    },
    {
      "inputs": [],
      "name": "usdcToken",
      "outputs": [
        {
          "internalType": "contract IERC20",
          "name": "",
          "type": "address"
        }
      ],
      "stateMutability": "view",
      "type": "function"
    }
  ],
  "bytecode": "0x60a080604052346104d7576164b8803803809161001c82856104f2565b833981019060a0818303126104d75761003481610515565b9061004160208201610515565b9061004e60408201610515565b60608201519091906001600160401b0381116104d75781019480601f870112156104d7578551956001600160401b0387116104dc578660051b9060405197610099602084018a6104f2565b88526020808901928201019283116104d757602001905b8282106104bf575050506080015160017f9b779b17422d0df92223018b32b4d1fa46e071723d6817e2486d003becc55f0055926001600160a01b031691821561048a576001600160a01b0316908115610454576001600160a01b031691821561041c57600284106103d7578385511061039e57601080546001600160a01b0319908116929092179055600d8054821692909217909155600e8054821683179055600f805490911690911790556014556000905b80518210156102a757600582901b810160200151600092906001600160a01b0316801561027657808452601260205260ff60408520541661023f576011546801000000000000000081101561022b576001810180601155811015610217577f31ecc21a745e3968a04e9570e4425bc18fa8019c68028196b546d1669c200c680180546001600160a01b03191682179055835260126020526040909220805460ff191660019081179091559190910190610163565b634e487b7160e01b85526032600452602485fd5b634e487b7160e01b85526041600452602485fd5b60405162461bcd60e51b815260206004820152600f60248201526e323ab83634b1b0ba329030b236b4b760891b6044820152606490fd5b60405162461bcd60e51b81526020600482015260096024820152683130b21030b236b4b760b91b6044820152606490fd5b62015180601d55600f805460ff60a81b1916600160a81b17905560408051906102d090826104f2565b600e81526d4167726f61737973457363726f7760901b602090910152604080517f60b5ba687a3fb28c60c02b55848ec4ac87ec13f39917c0f415531752131bff419161031c90826104f2565b600181526020810190603160f81b82525190206040519060208201927f8b73c3c69bb8fe3d512ecc4cf759cc79239f7b179b0ffacaa9a75d522b39400f8452604083015260608201524660808201523060a082015260a0815261038060c0826104f2565b519020608052604051615f8e908161052a823960805181615bae0152f35b60405162461bcd60e51b81526020600482015260116024820152706e6f7420656e6f7567682061646d696e7360781b6044820152606490fd5b60405162461bcd60e51b815260206004820152601f60248201527f726571756972656420617070726f76616c73206d757374206265203e3d2032006044820152606490fd5b60405162461bcd60e51b815260206004820152601060248201526f696e76616c696420747265617375727960801b6044820152606490fd5b60405162461bcd60e51b815260206004820152600e60248201526d696e76616c6964206f7261636c6560901b6044820152606490fd5b60405162461bcd60e51b815260206004820152600d60248201526c34b73b30b634b2103a37b5b2b760991b6044820152606490fd5b602080916104cc84610515565b8152019101906100b0565b600080fd5b634e487b7160e01b600052604160045260246000fd5b601f909101601f19168101906001600160401b038211908210176104dc57604052565b51906001600160a01b03821682036104d75756fe608080604052600436101561001357600080fd5b600090813560e01c9081623bdc74146145d7575080630d6043c6146141e05780630f3314e71461413457806311eac8551461410b57806314bfd6d0146140c757806318c27404146140435780631e6c598e14613f805780631fa7e781146125b357806320e32a5314613f5657806324d7806c14613f175780632507cde114613c2f57806326ff5e1c14613bf45780632715048c14613b2857806327d00fb014613a4c5780632a3ecca114613a035780632a4591ba146139c45780632b72349e146137b55780632fd7d5ef1461377f57806331c65775146137615780633d8f6806146136be5780634a2ae305146136985780634be93571146135115780634e71d92d146133cc5780634f84e8c8146133a2578063541d55481461336357806355d2ac861461332a5780635ab8621e146132fb5780635c04d8ca146132dd5780635c975abb146132bb578063620dc23a146131785780636247a37814612f7b5780636405a40514612f5d578063660d15b514610d785780636726b9db14612ddd57806368d69b6114611e815780636de2a4f014612cd9578063710bb97914612caf578063720417c514612c74578063749511b114612af05780637526b0ea14611e8157806376d622ce14612a2557806376ebb7e0146129fb57806377d8f09d146128bf5780637d36f4d3146128a15780637e8c2f10146128585780637ecebe00146112c657806380eda0fd1461263d57806381b2ce31146125ec57806381de274c146125b35780638354415d146124eb5780638456cb591461244357806386f23a351461241d5780638a3ead53146123e25780638d2304ee146123b857806396f84c091461238957806399c1aadc1461181e5780639a1fdd791461236b5780639b5e30611461223f5780639c23b1be14612204578063a0977604146121bb578063a10519d014611fd9578063a11bcc6514611ea9578063a143b00414611e86578063a375d80714611e81578063a48448fe14611e06578063a5f9dcf014611bcf578063a63187d114611b54578063a89ae4ba14611b2b578063a94c8f3d14611ab0578063a9f4bd6514611a67578063ae7784d714611989578063b9bcaf211461185a578063c0e8f6a71461183c578063c194bb4e1461181e578063c4c6ff6a146114cb578063c5f956af146114a2578063c5fa4a9814611456578063cc792e0d14611433578063cd8ce3be146112ff578063d371cf72146112c6578063d6d81fa31461100b578063d80d0e5614610f2c578063daa0785614610df8578063dc88100e14610db4578063e57a7e3514610d96578063ea4aa01614610d78578063ec9d151714610be8578063ecd8dc3a14610b0d578063ede25b9d146109e9578063ee5798ae146109ba578063f565776d146106b8578063f585dc571461069a578063f5ecef5714610671578063fae8a3d61461051a578063fcb0aa02146104f1578063fda769e7146104c2578063ff0c4ee5146104935763ff2eda091461045657600080fd5b3461049057806003193601126104905760206040517f642bc978b352e60185507106148c2e8af9b88eeaeec91883eebdc673e6add83f8152f35b80fd5b50346104905760203660031901126104905760ff60406020926004358152600784522054166040519015158152f35b50346104905760203660031901126104905760ff60406020926004358152602b84522054166040519015158152f35b503461049057602036600319011261049057604060209160043581528280522054604051908152f35b5034610490578060031936011261049057338152601260205261054360ff6040832054166149b1565b61055060ff825416614e64565b61056160ff600f5460a81c16614f59565b60ff601c5416610664575b6040516080810181811067ffffffffffffffff8211176106505760405260018152816020820152426040820152606033910152600160175560ff196018541660185542601955336001600160601b0360a01b601a541617601a55338152601b60205260408120600160ff19825416179055600160ff19601c541617601c55604051907f0c098089b7550dc564f1a038c8820df7c94ad41baa6be122a568c720c323ce3c339180a26014546001825260208201527ff250c8cac0e5a06311da43d7d136f294ff38fe995468d5352d5b795bec30020a60403392a2602060405160018152f35b634e487b7160e01b83526041600452602483fd5b61066c615a29565b61056c565b5034610490578060031936011261049057600f546040516001600160a01b039091168152602090f35b50346104905780600319360112610490576020604051620151808152f35b50346104905760403660031901126104905760043560243560028110156109b65733835260126020526106f160ff6040852054166149b1565b6106f9615305565b6107066002548310614c53565b818352600160205261072d600360ff600260408720015416610727816147a5565b14614b36565b818352600760205260ff6040842054166108d5575b600b549161074f83614bb4565b600b5560405161075e816147f6565b81815260208101838152604082016001815260608301878152608084019142835260a0850193338552888a52600560205260408a209551865560018601905160028110156108c157916005959493916107db9360ff80198354169116179055516002870155511515600386019060ff801983541691151516179055565b51600484015560018060a01b0390511691019060018060a01b03166001600160601b0360a01b82541617905582845260066020526040842060018060a01b0333166000526020526040600020600160ff19825416179055808452600760205260408420600160ff19825416179055808452600860205282604085205562093a8042018042116108ad57604085856020975260098752205561087f60405180936148fa565b827f169133ad218243916e40f5d940b11e6662965ad0b9436428ec3ec92af6593fbb853394a4604051908152f35b634e487b7160e01b85526011600452602485fd5b634e487b7160e01b8b52602160045260248bfd5b818352600860205260408320548084526009602052604084205442118061099f575b1561096157808452600a60205260408420600160ff1982541617905582845260076020526040842060ff19815416905582845260086020528360408120558233917f7d0d8277552faa3f645755b68537c6cdbbd2b3415f4fc4ec554d62d4824311d18680a4610742565b60405162461bcd60e51b81526020600482015260166024820152756163746976652070726f706f73616c2065786973747360501b6044820152606490fd5b50808452600a60205260ff604085205416156108f7565b8280fd5b50346104905760203660031901126104905760ff60406020926004358152602184522054166040519015158152f35b5034610490576020366003190112610490576004353382526012602052610a1660ff6040842054166149b1565b610a2360225482106149ea565b808252601e6020526040822090610a3f60038301541515614a2b565b60016002830191825490610a5660ff831615614a77565b8086526021602052610a6f60ff60408820541615614ab6565b855260208052610a856040862054421115614af7565b610a968285015460145411156151b6565b610aa660048501544210156151f9565b60ff1916179055600d805482546001600160a01b031982166001600160a01b0391821617909255600f805460ff60a81b1916600160a81b1790559154811691167f078c3b417dadf69374a59793b829c52001247130433427049317bde56607b1b78380a380f35b503461049057604036600319011261049057610b276147c5565b60243580151591828203610be4573384526012602052610b4d60ff6040862054166149b1565b6001600160a01b0316908115610bad57610b7e908285526013602052604085209060ff801983541691151516179055565b6040519182527f6da1699b033f54d95156eaa43377f43bf3c32288bbf7355f3de946b8ced3203260203393a380f35b60405162461bcd60e51b815260206004820152600f60248201526e34b73b30b634b2103932b630bcb2b960891b6044820152606490fd5b8380fd5b5034610490576020366003190112610490576004353382526012602052610c1560ff6040842054166149b1565b610c2260275482106149ea565b80825260236020526040822090610c3e60038301541515614a2b565b60028201805491610c5260ff841615614a77565b8085526026602052610c6b60ff60408720541615614ab6565b84526025602052610c826040852054421115614af7565b610c94600184015460145411156151b6565b610ca460048401544210156151f9565b82546001600160a01b031691600190610cbe841515614f97565b8386526012602052610cd760ff60408820541615614fd3565b60ff191617905560115468010000000000000000811015610d6457806001610d029201601155614774565b815460039190911b92831b6001600160a01b039384901b19909116179055815481168352601260205260408320805460ff191660011790559054167f44d6d25963f097ad14f29f06854a01f575648a1ef82f30e562ccd3889717e3398280a280f35b634e487b7160e01b84526041600452602484fd5b50346104905780600319360112610490576020600254604051908152f35b50346104905780600319360112610490576020602254604051908152f35b5034610490578060031936011261049057608060175460ff6018541660195460018060a01b03601a5416916040519384521515602084015260408301526060820152f35b5034610490576020366003190112610490576004353382526012602052610e2560ff6040842054166149b1565b610e3260275482106149ea565b8082526023602052600160408320610e4f60038201541515614a2b565b610e6060ff60028301541615614a77565b8284526026602052610e7960ff60408620541615614ab6565b8284526025602052610e916040852054421115614af7565b828452602460205260408420828060a01b033316600052602052610ebd60ff6040600020541615614b75565b828452602460205260408420828060a01b03331660005260205260406000208260ff198254161790550190610ef28254614bb4565b80925560145460405192835260208301527fb8cacf822d821b4e79cb750d1368c77e7e7ec2aee16f886327cd7c756f47c22360403393a380f35b5034610490576020366003190112610490576004353382526012602052610f5960ff6040842054166149b1565b610f66602c5482106149ea565b8082526028602052610f9160ff600260408520610f8860038201541515614a2b565b01541615614a77565b808252602b602052610faa60ff60408420541615614bd0565b808252602a602052610fc160408320544211614c10565b808252602b60205260408220600160ff1982541617905560ff19602d5416602d5533907f3aa666fca861a2efe08793b4b6df7e2f3b72b5137df4acdf56dacd603242d65e8380a380f35b5034610490576020366003190112610490576110256147c5565b338252601260205261103d60ff6040842054166149b1565b6001600160a01b0316801561129057600d546001600160a01b0316811461125d5761106e601154601454111561500f565b6022549061107b82614bb4565b602255600f5460a81c60ff1615801561124b5742905b60405160e0810181811067ffffffffffffffff82111761123757600587928792604052868152602081016001815260408201858152611136606084019142835260808501938a8552604060a0870199338b5260c08801998c8b528152601e602052209560018060a01b039060018060a01b03905116166001600160601b0360a01b875416178655516001860155511515600285019060ff801983541691151516179055565b51600383015551600482015592519201805491516001600160a81b03199092166001600160a01b03939093169290921790151560a01b60ff60a01b16179055838552601f6020908152604080872033600090815292529020805460ff191660011790554262093a808101908110611223576040868660209852878052205560405191825284820152827faff168a4e1fa91858b5fc1c223cee9cc0eaeaddb0b29c18df1630e08305bd80260403393a4601454604051906001825283820152817ff39407f640014cb0220c4f7b0a6cc6acee38a440a8add233fa88e8c98b95b25c60403393a3604051908152f35b634e487b7160e01b86526011600452602486fd5b634e487b7160e01b87526041600452602487fd5b611257601d5442614bc3565b90611091565b60405162461bcd60e51b815260206004820152600b60248201526a73616d65206f7261636c6560a81b6044820152606490fd5b60405162461bcd60e51b815260206004820152600e60248201526d696e76616c6964206f7261636c6560901b6044820152606490fd5b5034610490576020366003190112610490576020906040906001600160a01b036112ee6147c5565b168152600383522054604051908152f35b503461049057602036600319011261049057600435338252601260205261132c60ff6040842054166149b1565b611339602c5482106149ea565b8082526028602052604082209061135560038301541515614a2b565b6001600283019182549061136c60ff831615614a77565b808652602b60205261138560ff60408820541615614ab6565b8552602a60205261139c6040862054421115614af7565b6113ad8285015460145411156151b6565b6113bd60048501544210156151f9565b6113d0828060a01b038554161515614943565b60ff1990811691909117909155602d80549091169055600f805482546001600160a01b031982166001600160a01b03918216179092559154811691167f4dc5527be93f8b21f9376931190711db811d1e6d980ca325ee2520d65069df748380a380f35b5034610490578060031936011261049057602060ff601c54166040519015158152f35b50346104905760403660031901126104905760406114726147e0565b9160043581526024602052209060018060a01b0316600052602052602060ff604060002054166040519015158152f35b5034610490578060031936011261049057600e546040516001600160a01b039091168152602090f35b503461049057610220366003190112610490576114e66147c5565b906114ef6147e0565b6044359060643560843560a43560c4359160e43593610104359561012435966101443567ffffffffffffffff811161181a5761152f90369060040161484a565b9760c03661016319011261181a57338b52601260205260ff60408c2054168015611804575b61155d90614d90565b611565615305565b8b81838c8b8b8b8b8b61157661523c565b611580958c61533f565b61158992615ab7565b60405160208101997fab191139f84e7620737836d9002d499dbe8293085697773dfa2574e82decb7fc8b528d600160a01b60019003169a828c604081950152600160a01b60019003871660608201528d60808201528760a08201528860c08201528960e08201528a6101008201528b6101208201528561014082015284610160820152610160815261161d61018082614828565b51902061162990615b9c565b9061163391615c50565b61163c91615c8c565b611652916001600160a01b039190911614615677565b600182018083116117f057918b9c916116818d8d9e958d9e97969d6116b99e5260046020526040822055615cfe565b9060405192835260208301528b7f6ac709e2093c74d3ce56616ef76760c53ae0bf401457fb868a84e66636d3678360403394a46154d0565b60105490926101a4359185906101c43560ff8116916001600160a01b0316908290036109b657803b156109b657610124839260405194859384926377aadf6360e11b84528a60048501523060248501528860448501526101643560648501526101843560848501528960a485015260c48401526101e43560e4840152610204356101048401525af180156117e5577fa7c444d067108b7e8aee4afd13309e15a3e74a87a3d07d172c5c50945c37baaa602086959481997f642bc978b352e60185507106148c2e8af9b88eeaeec91883eebdc673e6add83f98958a956117d5575b5050604051908152a4604051838152600080516020615ef9833981519152853392a46001600080516020615f1983398151915255604051908152f35b816117df91614828565b38611799565b6040513d88823e3d90fd5b634e487b7160e01b8c52601160045260248cfd5b50338b52601360205260408b205460ff16611554565b8a80fd5b50346104905780600319360112610490576020601454604051908152f35b50346104905780600319360112610490576020604051621275008152f35b503461049057602036600319011261049057600435338252601260205261188760ff6040842054166149b1565b61189460225482106149ea565b808252601e6020526001604083206118b160038201541515614a2b565b6118c260ff60028301541615614a77565b82845260216020526118db60ff60408620541615614ab6565b828452602080526118f26040852054421115614af7565b828452601f60205260408420828060a01b033316855260205261191c60ff60408620541615614b75565b828452601f60205260408420828060a01b0333168552602052604084208260ff19825416179055019061194f8254614bb4565b80925560145460405192835260208301527ff39407f640014cb0220c4f7b0a6cc6acee38a440a8add233fa88e8c98b95b25c60403393a380f35b5034610490576020366003190112610490576004356119b360018060a01b03600d54163314614f1f565b6119c460ff600f5460a81c16614f59565b6119cc615305565b6119d461523c565b6119e16002548210614c53565b80825260016020527f86b04a9027748794b50d55160e5a9fe6b0375cd3221e0d4776f9e053f7ef6d046020600a604085206002810160028154611a32600160ff8316611a2c816147a5565b146150d2565b60ff191617905501428155838552600c825284604081205554604051908152a26001600080516020615f198339815191525580f35b50346104905760403660031901126104905760ff6040602092611a886147e0565b6004358252602985528282206001600160a01b03909116825284522054604051911615158152f35b503461049057602036600319011261049057604060c091600435815260056020522080549060ff60018201541690600281015460ff60038301541690611b13600484015493600560018060a01b03910154169460405196875260208701906148fa565b604085015215156060840152608083015260a0820152f35b5034610490578060031936011261049057600d546040516001600160a01b039091168152602090f35b5034610490576020366003190112610490576004803582526028602090815260409283902080546001820154600283015460038401549584015460059094015487516001600160a01b0394851681529586019290925260ff1615159584019590955260608301939093526080820152911660a082015260c090f35b503461049057611bde366148a1565b90338552601260205260ff6040862054168015611df0575b611bff90614d90565b611c07615305565b611c0f61523c565b611c1c6002548510614c53565b83855260016020526040852092600284019260018060a01b03845460081c1690611c47848484615ab7565b81611cc8611ccd959493611cb9611cb0600395611cab8d6040516020810191600080516020615ed983398151915283528760408301528a606083015260808201528a60a08201528b60c082015260c08152611ca360e082614828565b519020615b9c565b615c50565b90929192615c8c565b6001600160a01b031614615677565b615bec565b8054611ce1600160ff8316611a2c816147a5565b838552600c6020526040852054611cf981151561511e565b62127500810180911161122357937f1c642f6ec09eeef2a0619a2a298b98d5b38861f8a024837627f161d669c3c1068193600460209694611d5c7f57f680ee8ca7390570646e9ba27d0a0f0e281e2565cbb092822584197106619699421161516a565b60ff1916178155828852600c8652604088208890558054600894850180549095611d9192901c6001600160a01b031685615868565b54925460405190815260089390931c6001600160a01b0316948593a3604051908152600080516020615ef983398151915260203392a46001600080516020615f198339815191525580f35b634e487b7160e01b88526021600452602488fd5b503385526013602052604085205460ff16611bf6565b5034610490576020366003190112610490576004803582526023602090815260409283902080546001820154600283015460038401549584015460059094015487516001600160a01b0394851681529586019290925260ff1615159584019590955260608301939093526080820152911660a082015260c090f35b6148dc565b5034610490578060031936011261049057602060ff602d54166040519015158152f35b5034610490576020366003190112610490576004353382526012602052611ed660ff6040842054166149b1565b611ee3602c5482106149ea565b8082526028602052600160408320611f0060038201541515614a2b565b611f1160ff60028301541615614a77565b828452602b602052611f2a60ff60408620541615614ab6565b828452602a602052611f426040852054421115614af7565b828452602960205260408420828060a01b0333168552602052611f6c60ff60408620541615614b75565b828452602960205260408420828060a01b0333168552602052604084208260ff198254161790550190611f9f8254614bb4565b80925560145460405192835260208301527f33f3d93b68d89de9a6b65493f004ff57d76aadd2fb47a98cbf886447309cdec760403393a380f35b503461049057611fe8366148a1565b9093929193338452601260205260ff60408520541680156121a5575b61200d90614d90565b612015615305565b61201d61523c565b61202a6002548410614c53565b82845260016020526040842094600286019260018060a01b03845460081c1690612055848484615ab7565b81611cc86120be9594936120b1611cb0600195611cab8c6040516020810191600080516020615ed983398151915283528760408301528a606083015260808201528a60a08201528b60c082015260c08152611ca360e082614828565b848060a01b031614615677565b600a8154946120db600260ff88166120d5816147a5565b14614cca565b01546120e8811515614d16565b620151808101809111612191577f9d6f89df1fd95e20d56ed05e08fe9519ff6a2496090b77bfb70c8f64c21c23899394612126600392421115614d54565b60ff19161780915560405191807fb145240944e8bfe8998e31f11365578b766764ed1255b8e2efcb56e741b7be188680a2825260081c6001600160a01b0316903390600080516020615ef983398151915290602090a46001600080516020615f198339815191525580f35b634e487b7160e01b84526011600452602484fd5b503384526013602052604084205460ff16612004565b50346104905760403660031901126104905760ff60406020926121dc6147e0565b6004358252600685528282206001600160a01b03909116825284522054604051911615158152f35b503461049057806003193601126104905760206040517f57f680ee8ca7390570646e9ba27d0a0f0e281e2565cbb09282258419710661968152f35b50346104905760203660031901126104905760043561225c615305565b61226461523c565b6122716002548210614c53565b80825260016020526040822060028101805491929161229e600882901c6001600160a01b03163314614c91565b6122b0600160ff8316611a2c816147a5565b828552600c60205260408520546122c881151561511e565b621275008101809111611223579160046020926123077f1c642f6ec09eeef2a0619a2a298b98d5b38861f8a024837627f161d669c3c10695421161516a565b60ff1916178155838652600c825260408620869055805460089586018054909661233c92901c6001600160a01b031686615868565b54935460405190815260089490941c6001600160a01b031693a36001600080516020615f198339815191525580f35b50346104905780600319360112610490576020601d54604051908152f35b50346104905760203660031901126104905760ff60406020926004358152600a84522054166040519015158152f35b50346104905760203660031901126104905760406020916004358152600983522054604051908152f35b503461049057806003193601126104905760206040517fa6115baa0e39b3877020da94fe30135520d27e0cb11c198edac119231d452a578152f35b5034610490578060031936011261049057602060ff600f5460a81c166040519015158152f35b5034610490578060031936011261049057338152601260205261246c60ff6040832054166149b1565b805460ff81166124b557600190612481615305565b60ff19161781557f62e78cea01bee320cd4e420270b5ea74000d11b0c9f74754ebdbfc544b05a2586020604051338152a180f35b60405162461bcd60e51b815260206004820152600e60248201526d185b1c9958591e481c185d5cd95960921b6044820152606490fd5b5034610490578060031936011261049057338152601260205261251460ff6040832054166149b1565b600f5461252660ff8260a81c16614f59565b60ff60a81b1916600f55805460ff811615612571575b50600d546001600160a01b0316337f943e0551255d58897464f9809b2b06574fdc708ade497e30276ae48effc0a7948380a380f35b60019061257c615305565b60ff19161781557f62e78cea01bee320cd4e420270b5ea74000d11b0c9f74754ebdbfc544b05a2586020604051338152a13861253c565b5034610490576020366003190112610490576020906040906001600160a01b036125db6147c5565b168152600483522054604051908152f35b5034610490578060031936011261049057338152601260205261261560ff6040832054166149b1565b61262360ff601c5416614e9d565b61263260ff6018541615614a77565b61263a615a29565b80f35b5034610490576020366003190112610490576126576147c5565b338252601260205261266f60ff6040842054166149b1565b6001600160a01b0316612683811515614943565b600f546001600160a01b03168114612813576126a5601154601454111561500f565b60ff602d54166127ce57602c54906126bc82614bb4565b602c5561270d6126ce601d5442614bc3565b604051906126db826147f6565b8382526001602083015285604083015242606083015260808201523360a0820152838552602860205260408520615051565b8183526029602090815260408085203386529091528320805460ff191660011790554262093a808101908110612191576040848460209652602a86522055600160ff19602d541617602d55612764601d5442614bc3565b604051908152827f7d8684ed4e806e48e1379ec407e099c58ae93067f5a839e7cdf7299438e33316853393a4601454604051906001825283820152817f33f3d93b68d89de9a6b65493f004ff57d76aadd2fb47a98cbf886447309cdec760403393a3604051908152f35b60405162461bcd60e51b815260206004820152601860248201527f70726f706f73616c20616c72656164792070656e64696e6700000000000000006044820152606490fd5b60405162461bcd60e51b815260206004820152601d60248201527f73616d65207472656173757279207061796f75742072656365697665720000006044820152606490fd5b50346104905760203660031901126104905761289960406020926004356128826002548210614c53565b815260018452206006600582015491015490614bc3565b604051908152f35b50346104905780600319360112610490576020600b54604051908152f35b50346104905760203660031901126104905760043533825260126020526128ec60ff6040842054166149b1565b6128f4615305565b612901600b5482106149ea565b8082526005602052604082209061291d60048301541515614a2b565b61292e60ff60038401541615614a77565b808352600a60205261294760ff60408520541615614bd0565b808352600960205261295e60408420544211614c10565b808352600a60205260408320600160ff198254161790558154808452600760205260ff604085205416806129e6575b6129be575b50339154907f7d0d8277552faa3f645755b68537c6cdbbd2b3415f4fc4ec554d62d4824311d18480a480f35b835260076020526040832060ff19815416905581548352600860205282604081205538612992565b5080845260086020528160408520541461298d565b50346104905760203660031901126104905760406020916004358152600c83522054604051908152f35b5034610490576020366003190112610490576004353382526012602052612a5260ff6040842054166149b1565b612a5f60225482106149ea565b808252601e602052612a8160ff600260408520610f8860038201541515614a2b565b8082526021602052612a9a60ff60408420541615614bd0565b80825260208052612ab060408320544211614c10565b808252602160205260408220805460ff1916600117905533907fd2d878f87125c1948b966a8962e09576b78186471e1a7cc90c2bd2b6f05acc9f8380a380f35b503461049057602036600319011261049057612b0a6147c5565b3382526012602052612b2260ff6040842054166149b1565b6001600160a01b0316612b36811515614f97565b8082526012602052612b4f60ff60408420541615614fd3565b612b5f601154601454111561500f565b60275490612b6c82614bb4565b602755612bbd612b7e601d5442614bc3565b60405190612b8b826147f6565b8382526001602083015285604083015242606083015260808201523360a0820152838552602360205260408520615051565b8183526024602090815260408085203386529091528320805460ff191660011790554262093a808101908110612191576040846004928560209752602587528282205584815260238652200154604051908152827f959284814070c6c3a0c8b0ce10f8406a2a5cfe5cc3a7d157ad2ba850026aee64853393a4601454604051906001825283820152817fb8cacf822d821b4e79cb750d1368c77e7e7ec2aee16f886327cd7c756f47c22360403393a3604051908152f35b503461049057806003193601126104905760206040517f9d6f89df1fd95e20d56ed05e08fe9519ff6a2496090b77bfb70c8f64c21c23898152f35b50346104905760203660031901126104905760406020916004358152602583522054604051908152f35b503461049057602036600319011261049057600435612cf6615305565b612cfe61523c565b612d0b6002548210614c53565b80825260016020526040822090600282018054612d30600260ff83166120d5816147a5565b600a840154612d40811515614d16565b6201518081018091116112235790612d5b6004924211614ede565b60ff1916179055808352600c6020528260408120557f525d8c9a3bdfd74e1b0f3f79ccf0ef47d77d261e27396b35539f75e5d4086106602060038401612db2600860018060a01b038354169601958654908661596f565b5493546040519081526001600160a01b0390941693a36001600080516020615f198339815191525580f35b503461049057602036600319011261049057600435612e0760018060a01b03600d54163314614f1f565b612e1860ff600f5460a81c16614f59565b612e20615305565b612e2861523c565b612e356002548210614c53565b808252600160205260408220906002820160018154612e6060ff8216612e5a816147a5565b15614dd4565b60ff1916179055808352600c6020524260408420557f7fe4efc5647c551e3daa927b506b95903589ed6b18a37dbff54db80e7395239b6020600384019360018060a01b0385541694612eb96007830196875490876159cc565b600e54600583018054909291612ed991906001600160a01b0316886157f3565b612ef5600660018060a01b03600e54169401938454908861582d565b549554600e54915460408051928352858301919091526001600160a01b03928316978893169187917faf26bf705c48ad6f6bf63104d1d8b9f94dac03ba9c3ae49b34cd094cc8c3f6f691a454604051908152a36001600080516020615f198339815191525580f35b50346104905780600319360112610490576020601654604051908152f35b503461049057612f8a366148a1565b9093929193338452601260205260ff6040852054168015613162575b612faf90614d90565b612fb7615305565b612fbf61523c565b612fcc6002548410614c53565b82845260016020526040842094600286019260018060a01b03845460081c1690612ff7848484615ab7565b81611cc8613053959493611cb9611cb0600495611cab8c6040516020810191600080516020615ed983398151915283528760408301528a606083015260808201528a60a08201528b60c082015260c08152611ca360e082614828565b805493613068600260ff87166120d5816147a5565b600a810154613078811515614d16565b6201518081018091116108ad577fa6115baa0e39b3877020da94fe30135520d27e0cb11c198edac119231d452a5794956130b56004924211614ede565b60ff1916178255828552600c602052846040812055827f525d8c9a3bdfd74e1b0f3f79ccf0ef47d77d261e27396b35539f75e5d408610660206003840161310d600860018060a01b038354169601958654908661596f565b5493546040519081526001600160a01b0390941693a35460405191825260081c6001600160a01b0316903390600080516020615ef983398151915290602090a46001600080516020615f198339815191525580f35b503384526013602052604084205460ff16612fa6565b503461049057602036600319011261049057600435613195615305565b61319d61523c565b6131aa6002548210614c53565b8082526001602052604082206002810180549091906131d7600882901c6001600160a01b03163314614c91565b6131e760ff8216612e5a816147a5565b600982015462093a80810180911161122357926132917fe54e6e873934788882b1744fc124e31c635896db16279bfdfd45fd2953619cff9361325c602094613233600499984211614e18565b61323c836156b7565b60ff19909116909817808555889060081c6001600160a01b0316886157b8565b600e546005820154613277916001600160a01b0316886157f3565b600e5460069190910154906001600160a01b03168661582d565b5460405194855260081c6001600160a01b031693a36001600080516020615f198339815191525580f35b503461049057806003193601126104905760ff60209154166040519015158152f35b50346104905780600319360112610490576020602754604051908152f35b50346104905760203660031901126104905760ff60406020926004358152602684522054166040519015158152f35b5034610490576020366003190112610490576020906040906001600160a01b036133526147c5565b168152601583522054604051908152f35b50346104905760203660031901126104905760209060ff906040906001600160a01b0361338e6147c5565b168152601384522054166040519015158152f35b50346104905760203660031901126104905760406020916004358152602a83522054604051908152f35b50346104905780600319360112610490576133ef60ff600f5460a01c1615614907565b6133f761523c565b600e546001600160a01b031633146134cc573381526015602052604081205480156134935733825260156020528160408120556134368160165461498e565b60165560105461345290829033906001600160a01b0316615278565b6040519081527fd8138f8a3f377c5259ca548e70e4c2de94f129f5a11036a15b69513cba2b426a60203392a26001600080516020615f198339815191525580f35b60405162461bcd60e51b81526020600482015260116024820152706e6f7468696e6720636c61696d61626c6560781b6044820152606490fd5b60405162461bcd60e51b815260206004820152601f60248201527f7472656173757279206d7573742075736520636c61696d5472656173757279006044820152606490fd5b5034610490578060031936011261049057338152601260205261353a60ff6040832054166149b1565b61354760ff825416614e64565b61355560ff601c5416614e9d565b61356460ff6018541615614a77565b338152601b60205261357d60ff60408320541615614b75565b338152601b60205260408120600160ff1982541617905561359f601754614bb4565b80601755601454906040518181528260208201527ff250c8cac0e5a06311da43d7d136f294ff38fe995468d5352d5b795bec30020a60403392a21015806135e4575080f35b600190613600601854916135fb60ff841615614a77565b6151b6565b60ff19161760185560ff19601c5416601c55805461362060ff8216614e64565b60ff191681557f5db9ee0a495bf2e6ff9c91a7834c1ba4fdd244a5e8aa4e537bd38aeae4b073aa6020604051338152a16136586158a3565b815b8151811015613693576001906001600160a01b0361367882856158f9565b51168452601b60205260408420805460ff191690550161365a565b505080f35b5034610490578060031936011261049057602060ff600f5460a01c166040519015158152f35b503461049057806003193601126104905733815260126020526136e760ff6040832054166149b1565b600f5460ff8160a01c16156137285760ff60a01b1916600f55337f58faeb75cd58dcc300b630223b434fdafecf55c21cd1aa07ce174a125ea52e8b8280a280f35b60405162461bcd60e51b815260206004820152601160248201527018db185a5b5cc81b9bdd081c185d5cd959607a1b6044820152606490fd5b50346104905780600319360112610490576020602c54604051908152f35b50346104905760203660031901126104905761289960406020926004356137a96002548210614c53565b815260018452206156b7565b5034610490576137c4366148a1565b9190338552601260205260ff60408620541680156139ae575b6137e690614d90565b6137ee615305565b6137f661523c565b6138036002548510614c53565b83855260016020526040852091600283019360018060a01b03855460081c169061382e848484615ab7565b81611cc861388a959493611cb9611cb0600295611cab8d6040516020810191600080516020615ed983398151915283528760408301528a606083015260808201528a60a08201528b60c082015260c08152611ca360e082614828565b815461389c60ff8216612e5a816147a5565b600982015462093a80810180911161122357937fe54e6e873934788882b1744fc124e31c635896db16279bfdfd45fd2953619cff602094613968839561393360049661390a7f0e2cac5abaf6079f335df5966f41306619912fc862e3a81138fc8f0af5faca369b4211614e18565b613913836156b7565b60ff19909116909717808555879060081c6001600160a01b0316876157b8565b600e54600582015461394e916001600160a01b0316876157f3565b600e5460069190910154906001600160a01b03168561582d565b5460405193845260081c6001600160a01b0316948593a3604051908152600080516020615ef983398151915260203392a46001600080516020615f198339815191525580f35b503385526013602052604085205460ff166137dd565b50346104905760203660031901126104905760209060ff906040906001600160a01b036139ef6147c5565b168152601b84522054166040519015158152f35b50346104905760403660031901126104905760ff6040602092613a246147e0565b6004358252601f85528282206001600160a01b03909116825284522054604051911615158152f35b503461049057602036600319011261049057600435613a69615305565b613a7161523c565b613a7e6002548210614c53565b8082526001602052604082206002810180549091600a90613aad600884901c6001600160a01b03163314614c91565b613abf600260ff85166120d5816147a5565b0154613acc811515614d16565b6201518081018091116108ad5790613ae8600392421115614d54565b60ff19161790557fb145240944e8bfe8998e31f11365578b766764ed1255b8e2efcb56e741b7be188280a26001600080516020615f198339815191525580f35b5034610490576020366003190112610490576004353382526012602052613b5560ff6040842054166149b1565b613b6260275482106149ea565b8082526023602052613b8460ff600260408520610f8860038201541515614a2b565b8082526026602052613b9d60ff60408420541615614bd0565b8082526025602052613bb460408320544211614c10565b808252602660205260408220805460ff1916600117905533907f6e5c3c82c1e75af7548eba9cd2cb4b639f5b6762fec00ca5e0d902fbad351ebc8380a380f35b503461049057806003193601126104905760206040517f0e2cac5abaf6079f335df5966f41306619912fc862e3a81138fc8f0af5faca368152f35b50346104905761014036600319011261049057613c4a6147c5565b9060243560c43560a43560843560643560443560e435610104356101243567ffffffffffffffff8111613f135790613ca7888888888f968e613c918b92369060040161484a565b98613c9a615305565b613ca261523c565b61533f565b338a52600360205260408a20548303613ee257804211613ea957613d90918b611cb09260018060a01b03600e54169060405191602083019346855230604085015233606085015260018060a01b0316608084015260a08301528c60c08301528760e083015288610100830152896101208301528a6101408301528b610160830152866101808301526101a08201526101a08152613d466101c082614828565b51902060405160208101917f19457468657265756d205369676e6564204d6573736167653a0a3332000000008352603c820152603c8152613d88605c82614828565b519020615c50565b336001600160a01b0390911603613e745760018101809111613e605795809798613dc797338b52600360205260408b2055336154d0565b6010546040516323b872dd60e01b855233600452306024526044939093526001600160a01b03169260208160648180885af16001825114811615613e41575b836040528160605215613e2d57602083836001600080516020615f19833981519152558152f35b635274afe760e01b81526004849052602490fd5b6001811516613e5757843b15153d151616613e06565b833d83823e3d90fd5b634e487b7160e01b88526011600452602488fd5b60405162461bcd60e51b815260206004820152600d60248201526c626164207369676e617475726560981b6044820152606490fd5b60405162461bcd60e51b81526020600482015260116024820152701cda59db985d1d5c9948195e1c1a5c9959607a1b6044820152606490fd5b60405162461bcd60e51b8152602060048201526009602482015268626164206e6f6e636560b81b6044820152606490fd5b8980fd5b50346104905760203660031901126104905760209060ff906040906001600160a01b03613f426147c5565b168152601284522054166040519015158152f35b50346104905760203660031901126104905760406020916004358152600883522054604051908152f35b5034610490576020366003190112610490576040610180916004358152600160205220805490600181015490600281015460ff81169060018060a01b036003840154166004840154600585015490600686015492600787015494600888015496600a60098a0154990154996040519b8c5260208c0152613fff816147a5565b60408b015260081c6001600160a01b031660608a0152608089015260a088015260c087015260e0860152610100850152610120840152610140830152610160820152f35b503461049057602036600319011261049057604060e0916004358152601e6020522060ff60018060a01b03825416916001810154908260028201541660038201549060056004840154930154936040519687526020870152151560408601526060850152608084015260018060a01b03811660a084015260a01c16151560c0820152f35b503461049057602036600319011261049057600435906011548210156104905760206140f283614774565b905460405160039290921b1c6001600160a01b03168152f35b50346104905780600319360112610490576010546040516001600160a01b039091168152602090f35b5034610490578060031936011261049057338152601260205261415d60ff6040832054166149b1565b600f5460ff8160a01c166141a35760ff60a01b1916600160a01b17600f55337fb62d15b068fb54a6f9b91bc09d642314c90fe5262a9f0c4b646803af896af7928280a280f35b60405162461bcd60e51b815260206004820152601560248201527418db185a5b5cc8185b1c9958591e481c185d5cd959605a1b6044820152606490fd5b503461049057602036600319011261049057600435338252601260205261420d60ff6040842054166149b1565b614215615305565b61421d61523c565b61422a600b5482106149ea565b808252600560205260026040832061424760048201541515614a2b565b61425860ff60038301541615614a77565b828452600a60205261427160ff60408620541615614ab6565b82845260096020526142896040852054421115614af7565b8054845260016020526142aa600360ff8460408820015416610727816147a5565b8284526006602090815260408086203387529091528420546142cf9060ff1615614b75565b8284526006602090815260408086203387529091528420805460ff1916600117905501805490919061430090614bb4565b8092556014548092604051818152826020820152837f14e1b3091f09f49236e90d7a9826aa647e37c8b8600adc8a5935ee0c179e2de160403393a31015614358575b826001600080516020615f198339815191525580f35b808352600560205260408320600381016143b881549461437b60ff871615614a77565b848752600a60205261439460ff60408920541615614ab6565b84875260096020526143ac6040882054421115614af7565b600284015410156151b6565b81548552600160205260408520906002820194600360ff8754166143db816147a5565b0361459b5760019060ff1916179055600460ff198554161784558154855260076020526040852060ff19815416905581548552600860205284604081205581548552600c602052846040812055600881015493600183019160ff8354166002811015611ddc57806144e75750509160ff94846020937fafdf3220f58fe501f1c7cff54df532523ba92e302d4b17d7bb8c30b9e4e906b360407f367ef6da4bd64313a89876ecb2e42b4be35f68f378625be0d78dcd15eba27dd09760018060a01b03905460081c16956144af86888354615753565b54998a9354169581519586526144c7888701886148fa565b6001600160a01b031694a46144df60405180926148fa565ba33880614342565b9093915060010361455d5760ff94846020937fafdf3220f58fe501f1c7cff54df532523ba92e302d4b17d7bb8c30b9e4e906b360407f367ef6da4bd64313a89876ecb2e42b4be35f68f378625be0d78dcd15eba27dd097600360018060a01b0391015416956145588688835461590d565b6144af565b60405162461bcd60e51b8152602060048201526016602482015275696e76616c696420646973707574652073746174757360501b6044820152606490fd5b60405162461bcd60e51b81526020600482015260146024820152733a3930b2329036bab9ba10313290232927ad22a760611b6044820152606490fd5b905034614770578160031936011261477057600e546001600160a01b03163314801561475a575b1561471f575061461660ff600f5460a01c1615614907565b61461e61523c565b600e546001600160a01b03168082526015602052604082205480156146da57600f546001600160a01b031691614655831515614943565b8352601560205282604081205561466e8160165461498e565b60165560105461468a90829084906001600160a01b0316615278565b7fe67c643fa26ff85bbee9ac87fc706274fc81cf4ab3711712c8822eedba5a2306604060018060a01b03600e5416928151908152336020820152a36001600080516020615f198339815191525580f35b60405162461bcd60e51b815260206004820152601a60248201527f6e6f7468696e6720747265617375727920636c61696d61626c650000000000006044820152606490fd5b62461bcd60e51b815260206004820152601660248201527537b7363c903a3932b0b9bab93c9037b91030b236b4b760511b6044820152606490fd5b50338252601260205260ff6040832054166145fe565b5080fd5b60115481101561478f57601160005260206000200190600090565b634e487b7160e01b600052603260045260246000fd5b600511156147af57565b634e487b7160e01b600052602160045260246000fd5b600435906001600160a01b03821682036147db57565b600080fd5b602435906001600160a01b03821682036147db57565b60c0810190811067ffffffffffffffff82111761481257604052565b634e487b7160e01b600052604160045260246000fd5b90601f8019910116810190811067ffffffffffffffff82111761481257604052565b81601f820112156147db5780359067ffffffffffffffff8211614812576040519261487f601f8401601f191660200185614828565b828452602083830101116147db57816000926020809301838601378301015290565b9060806003198301126147db576004359160243591604435916064359067ffffffffffffffff82116147db576148d99160040161484a565b90565b346147db5760003660031901126147db57602060405162093a808152f35b9060028210156147af5752565b1561490e57565b60405162461bcd60e51b815260206004820152600d60248201526c18db185a5b5cc81c185d5cd959609a1b6044820152606490fd5b1561494a57565b606460405162461bcd60e51b815260206004820152602060248201527f696e76616c6964207472656173757279207061796f75742072656365697665726044820152fd5b9190820391821161499b57565b634e487b7160e01b600052601160045260246000fd5b156149b857565b60405162461bcd60e51b815260206004820152600a60248201526937b7363c9030b236b4b760b11b6044820152606490fd5b156149f157565b60405162461bcd60e51b81526020600482015260126024820152711c1c9bdc1bdcd85b081b9bdd08199bdd5b9960721b6044820152606490fd5b15614a3257565b60405162461bcd60e51b815260206004820152601860248201527f70726f706f73616c206e6f7420696e697469616c697a656400000000000000006044820152606490fd5b15614a7e57565b60405162461bcd60e51b815260206004820152601060248201526f185b1c9958591e48195e1958dd5d195960821b6044820152606490fd5b15614abd57565b60405162461bcd60e51b81526020600482015260126024820152711c1c9bdc1bdcd85b0818d85b98d95b1b195960721b6044820152606490fd5b15614afe57565b60405162461bcd60e51b815260206004820152601060248201526f1c1c9bdc1bdcd85b08195e1c1a5c995960821b6044820152606490fd5b15614b3d57565b60405162461bcd60e51b815260206004820152601060248201526f3a3930b232903737ba10333937bd32b760811b6044820152606490fd5b15614b7c57565b60405162461bcd60e51b815260206004820152601060248201526f185b1c9958591e48185c1c1c9bdd995960821b6044820152606490fd5b600019811461499b5760010190565b9190820180921161499b57565b15614bd757565b60405162461bcd60e51b8152602060048201526011602482015270185b1c9958591e4818d85b98d95b1b1959607a1b6044820152606490fd5b15614c1757565b60405162461bcd60e51b81526020600482015260146024820152731c1c9bdc1bdcd85b081b9bdd08195e1c1a5c995960621b6044820152606490fd5b15614c5a57565b60405162461bcd60e51b815260206004820152600f60248201526e1d1c985919481b9bdd08199bdd5b99608a1b6044820152606490fd5b15614c9857565b60405162461bcd60e51b815260206004820152600a60248201526937b7363c90313abcb2b960b11b6044820152606490fd5b15614cd157565b60405162461bcd60e51b815260206004820152601960248201527f6d757374206265204152524956414c5f434f4e4649524d4544000000000000006044820152606490fd5b15614d1d57565b60405162461bcd60e51b815260206004820152600f60248201526e185c9c9a5d985b081b9bdd081cd95d608a1b6044820152606490fd5b15614d5b57565b60405162461bcd60e51b815260206004820152600d60248201526c1dda5b991bddc818db1bdcd959609a1b6044820152606490fd5b15614d9757565b60405162461bcd60e51b815260206004820152601560248201527437b7363c903932b630bcb2b91037b91030b236b4b760591b6044820152606490fd5b15614ddb57565b60405162461bcd60e51b81526020600482015260156024820152741cdd185d1d5cc81b5d5cdd081899481313d0d2d151605a1b6044820152606490fd5b15614e1f57565b60405162461bcd60e51b815260206004820152601860248201527f6c6f636b2074696d656f7574206e6f7420656c617073656400000000000000006044820152606490fd5b15614e6b57565b60405162461bcd60e51b815260206004820152600a6024820152691b9bdd081c185d5cd95960b21b6044820152606490fd5b15614ea457565b60405162461bcd60e51b81526020600482015260126024820152711b9bc81858dd1a5d99481c1c9bdc1bdcd85b60721b6044820152606490fd5b15614ee557565b60405162461bcd60e51b81526020600482015260126024820152711dda5b991bddc81b9bdd08195b185c1cd95960721b6044820152606490fd5b15614f2657565b60405162461bcd60e51b815260206004820152600b60248201526a6f6e6c79206f7261636c6560a81b6044820152606490fd5b15614f6057565b60405162461bcd60e51b815260206004820152600f60248201526e1bdc9858db1948191a5cd8589b1959608a1b6044820152606490fd5b15614f9e57565b60405162461bcd60e51b815260206004820152600d60248201526c34b73b30b634b21030b236b4b760991b6044820152606490fd5b15614fda57565b60405162461bcd60e51b815260206004820152600d60248201526c30b63932b0b23c9030b236b4b760991b6044820152606490fd5b1561501657565b60405162461bcd60e51b8152602060048201526013602482015272696e73756666696369656e742061646d696e7360681b6044820152606490fd5b815181546001600160a01b039091166001600160a01b031990911617815560208201516001820155604082015160028201805460ff191691151560ff1691909117905590600590606081015160038401556080810151600484015560a00151910180546001600160a01b0319166001600160a01b0392909216919091179055565b156150d957565b60405162461bcd60e51b815260206004820152601960248201527f737461747573206d75737420626520494e5f5452414e534954000000000000006044820152606490fd5b1561512557565b60405162461bcd60e51b815260206004820152601c60248201527f696e2d7472616e7369742074696d657374616d70206e6f7420736574000000006044820152606490fd5b1561517157565b60405162461bcd60e51b815260206004820152601e60248201527f696e2d7472616e7369742074696d656f7574206e6f7420656c617073656400006044820152606490fd5b156151bd57565b60405162461bcd60e51b81526020600482015260146024820152736e6f7420656e6f75676820617070726f76616c7360601b6044820152606490fd5b1561520057565b60405162461bcd60e51b81526020600482015260146024820152731d1a5b595b1bd8dac81b9bdd08195b185c1cd95960621b6044820152606490fd5b6002600080516020615f198339815191525414615267576002600080516020615f1983398151915255565b633ee5aeb560e01b60005260046000fd5b60405163a9059cbb60e01b60009081526001600160a01b03909316600452602493909352919060209060448180865af1906001600051148216156152e3575b604052156152c25750565b635274afe760e01b60009081526001600160a01b0391909116600452602490fd5b9060018115166152fb57823b15153d151616906152b7565b503d6000823e3d90fd5b60ff6000541661531157565b60405162461bcd60e51b81526020600482015260066024820152651c185d5cd95960d21b6044820152606490fd5b909394959291921561548b576001600160a01b0316801561545257301461540d5761537284615372879361537795614bc3565b614bc3565b036153d357151590816153c9575b501561538d57565b60405162461bcd60e51b815260206004820152601460248201527307472616e63686573206d757374206265203e20360641b6044820152606490fd5b9050151538615385565b60405162461bcd60e51b81526020600482015260126024820152710c4e4cac2d6c8deeedc40dad2e6dac2e8c6d60731b6044820152606490fd5b60405162461bcd60e51b815260206004820152601960248201527f737570706c6965722063616e6e6f7420626520657363726f77000000000000006044820152606490fd5b60405162461bcd60e51b81526020600482015260116024820152701cdd5c1c1b1a595c881c995c5d5a5c9959607a1b6044820152606490fd5b60405162461bcd60e51b815260206004820152601760248201527f72696361726469616e20686173682072657175697265640000000000000000006044820152606490fd5b949691929396959095600254976154e689614bb4565b6002556040519561018087019680881067ffffffffffffffff891117614812578a97604052878152876020820187815286604084019b60008d526060850190600160a01b60019003169c8d8252608086019e600160a01b60019003169e8f815260a087018d815260c088019189835260e08901938b85526101008a01958d87526101208b019788526101408b0198428a526101608c019a60008c52600052600160205260406000209b518c555160018c015560028b0191516155a7816147a5565b6155b0816147a5565b825491516001600160a81b031990921660ff9190911617600891821b610100600160a81b031617909155905160038a0180546001600160a01b0319166001600160a01b03929092169190911790559051600489015590516005880155905160068701559051600786015590519084015551600983015551600a909101556040805196875260208701919091528501526060840152608083015260a08201527f9896188f7299b6607b47eaa190d500bf89abbfa1bb2ce6d410f88b043e371b679060c090a490565b1561567e57565b60405162461bcd60e51b81526020600482015260116024820152703130b21030baba3437b934bd30ba34b7b760791b6044820152606490fd5b60ff6002820154166156c8816147a5565b8015615725576156d7816147a5565b60018114908115615710575b81156156fc575b506156f55750600090565b6008015490565b60039150615709816147a5565b14386156ea565b905061571b816147a5565b60028114906156e3565b5080600860076148d993015491015490614bc3565b9081526040810192919060088210156147af5760200152565b9082156157b3576006600080516020615f398339815191529160018060a01b031693846000526015602052604060002061578e828254614bc3565b905561579c81601654614bc3565b6016556157ae6040519283928361573a565b0390a3565b505050565b9082156157b3576004600080516020615f398339815191529160018060a01b031693846000526015602052604060002061578e828254614bc3565b9082156157b3576001600080516020615f3983398151915291818060a01b031693846000526015602052604060002061578e828254614bc3565b9082156157b3576002600080516020615f398339815191529160018060a01b031693846000526015602052604060002061578e828254614bc3565b9082156157b3576005600080516020615f398339815191529160018060a01b031693846000526015602052604060002061578e828254614bc3565b604051906011548083528260208101601160005260206000209260005b8181106158d75750506158d592500383614828565b565b84546001600160a01b03168352600194850194879450602090930192016158c0565b805182101561478f5760209160051b010190565b91909181156157b35760105461592f90839085906001600160a01b0316615278565b7feda30a0d8ec5ade5ca4d49054f410ef255c797498d31d9cc9dd928c12c87e79b6040518061596a6007339760018060a01b0316968361573a565b0390a4565b91909181156157b35760105461599190839085906001600160a01b0316615278565b7feda30a0d8ec5ade5ca4d49054f410ef255c797498d31d9cc9dd928c12c87e79b6040518061596a6003339760018060a01b0316968361573a565b91909181156157b3576010546159ee90839085906001600160a01b0316615278565b7feda30a0d8ec5ade5ca4d49054f410ef255c797498d31d9cc9dd928c12c87e79b6040518061596a6000339760018060a01b0316968361573a565b615a316158a3565b60005b8151811015615a6f576001906001600160a01b03615a5282856158f9565b5116600052601b602052604060002060ff19815416905501615a34565b505060ff19601c5416601c556000601755600060185560006019556000601a55337fc79764e56dcfddc1a2135f80cf347dd741f7c7f914a134142b5d336e156d3bd0600080a2565b90916001600160a01b03909116908115615b68574211615b2b57600052600460205260406000205403615ae657565b60405162461bcd60e51b815260206004820152601760248201527f62616420617574686f72697a6174696f6e206e6f6e63650000000000000000006044820152606490fd5b60405162461bcd60e51b8152602060048201526015602482015274185d5d1a1bdc9a5e985d1a5bdb88195e1c1a5c9959605a1b6044820152606490fd5b60405162461bcd60e51b815260206004820152600c60248201526b34b73b30b634b2103ab9b2b960a11b6044820152606490fd5b604051602081019161190160f01b83527f00000000000000000000000000000000000000000000000000000000000000006022830152604282015260428152615be6606282614828565b51902090565b929192600184019182851161499b57615c1c9160018060a01b031692836000526004602052604060002055615cfe565b9160405193845260208401527f6ac709e2093c74d3ce56616ef76760c53ae0bf401457fb868a84e66636d3678360403394a4565b8151919060418303615c8157615c7a92506020820151906060604084015193015160001a90615e43565b9192909190565b505060009160029190565b91909160048110156147af5780615ca257509050565b600060018203615cbd5763f645eedf60e01b60005260046000fd5b5060028103615cdb578263fce698f760e01b60005260045260246000fd5b9091600360009214615ceb575050565b6335e2f38360e21b825260045260249150fd5b615d07816147a5565b8015615e1e57615d16816147a5565b60018114615df957615d27816147a5565b60028114615dd457615d38816147a5565b60038114615daf57600490615d4c816147a5565b14615d8b5760405162461bcd60e51b81526020600482015260126024820152713ab739bab83837b93a32b21030b1ba34b7b760711b6044820152606490fd5b7fa6115baa0e39b3877020da94fe30135520d27e0cb11c198edac119231d452a5790565b507f57f680ee8ca7390570646e9ba27d0a0f0e281e2565cbb092822584197106619690565b507f0e2cac5abaf6079f335df5966f41306619912fc862e3a81138fc8f0af5faca3690565b507f9d6f89df1fd95e20d56ed05e08fe9519ff6a2496090b77bfb70c8f64c21c238990565b507f642bc978b352e60185507106148c2e8af9b88eeaeec91883eebdc673e6add83f90565b91907f7fffffffffffffffffffffffffffffff5d576e7357a4501ddfe92f46681b20a08411615ecc579160209360809260ff60009560405194855216868401526040830152606082015282805260015afa15615ec0576000516001600160a01b03811615615eb45790600090600090565b50600090600190600090565b6040513d6000823e3d90fd5b5050506000916003919056fe1aeed6c1f2a5ee88498ce328b743baceb98beee0e74dc04aa13d1b44e5d341cfeff4a09a9216c5817ca15a500171a637ee0c8122db87aee65985697823e1beb29b779b17422d0df92223018b32b4d1fa46e071723d6817e2486d003becc55f00b6abcb523a11175bda4306d957cda75287b3d848b084a70d85fe099f51bc7f89a264697066735822122068f852f5a04378febfc9d5f26ea7908766e61b8d265968051c12be2666fda77664736f6c63430008220033",
  "linkReferences": {},
  "deployedLinkReferences": {}
}