{
  "_format": "hh-sol-artifact-1",
  "contractName": "AgroasysEscrow",
  "sourceName": "src/AgroasysEscrow.sol",
  "abi": [
    {
      "inputs": [
        {
          "internalType": "address",
          "name": "_usdcToken",
          "type": "address"
        },
        {
          "internalType": "address",
          "name": "_oracleAddress",
          "type": "address"
        },
        {
          "internalType": "address",
          "name": "_treasuryAddress",
          "type": "address"
        },
        {
          "internalType": "address",
          "name": "_relayerAddress",
          "type": "address"
        },
        {
          "internalType": "address[]",
          "name": "_admins",
          "type": "address[]"
        },
        {
          "internalType": "uint256",
          "name": "_requiredApprovals",
          "type": "uint256"
        }
      ],
      "stateMutability": "nonpayable",
      "type": "constructor"
    },
    {
      "inputs": [],
      "name": "ECDSAInvalidSignature",
      "type": "error"
    },
    {
      "inputs": [
        {
          "internalType": "uint256",
          "name": "length",
          "type": "uint256"
        }
      ],
      "name": "ECDSAInvalidSignatureLength",
      "type": "error"
    },
    {
      "inputs": [
        {
          "internalType": "bytes32",
          "name": "s",
          "type": "bytes32"
        }
      ],
      "name": "ECDSAInvalidSignatureS",
      "type": "error"
    },
    {
      "inputs": [],
      "name": "EnforcedPause",
      "type": "error"
    },
    {
      "inputs": [],
      "name": "ExpectedPause",
      "type": "error"
    },
    {
      "inputs": [],
      "name": "ReentrancyGuardReentrantCall",
      "type": "error"
    },
    {
      "inputs": [
        {
          "internalType": "address",
          "name": "token",
          "type": "address"
        }
      ],
      "name": "SafeERC20FailedOperation",
      "type": "error"
    },
    {
      "anonymous": false,
      "inputs": [
        {
          "indexed": true,
          "internalType": "uint256",
          "name": "proposalId",
          "type": "uint256"
        },
        {
          "indexed": true,
          "internalType": "address",
          "name": "approver",
          "type": "address"
        },
        {
          "indexed": false,
          "internalType": "uint256",
          "name": "approvalCount",
          "type": "uint256"
        },
        {
          "indexed": false,
          "internalType": "uint256",
          "name": "requiredApprovals",
          "type": "uint256"
        }
      ],
      "name": "AdminAddApproved",
      "type": "event"
    },
    {
      "anonymous": false,
      "inputs": [
        {
          "indexed": true,
          "internalType": "uint256",
          "name": "proposalId",
          "type": "uint256"
        },
        {
          "indexed": true,
          "internalType": "address",
          "name": "cancelledBy",
          "type": "address"
        }
      ],
      "name": "AdminAddProposalExpiredCancelled",
      "type": "event"
    },
    {
      "anonymous": false,
      "inputs": [
        {
          "indexed": true,
          "internalType": "uint256",
          "name": "proposalId",
          "type": "uint256"
        },
        {
          "indexed": true,
          "internalType": "address",
          "name": "proposer",
          "type": "address"
        },
        {
          "indexed": true,
          "internalType": "address",
          "name": "newAdmin",
          "type": "address"
        },
        {
          "indexed": false,
          "internalType": "uint256",
          "name": "eta",
          "type": "uint256"
        }
      ],
      "name": "AdminAddProposed",
      "type": "event"
    },
    {
      "anonymous": false,
      "inputs": [
        {
          "indexed": true,
          "internalType": "address",
          "name": "newAdmin",
          "type": "address"
        }
      ],
      "name": "AdminAdded",
      "type": "event"
    },
    {
      "anonymous": false,
      "inputs": [
        {
          "indexed": true,
          "internalType": "address",
          "name": "user",
          "type": "address"
        },
        {
          "indexed": true,
          "internalType": "bytes32",
          "name": "action",
          "type": "bytes32"
        },
        {
          "indexed": false,
          "internalType": "uint256",
          "name": "nonce",
          "type": "uint256"
        },
        {
          "indexed": true,
          "internalType": "address",
          "name": "relayer",
          "type": "address"
        },
        {
          "indexed": false,
          "internalType": "uint256",
          "name": "deadline",
          "type": "uint256"
        }
      ],
      "name": "AuthorizationConsumed",
      "type": "event"
    },
    {
      "anonymous": false,
      "inputs": [
        {
          "indexed": true,
          "internalType": "uint256",
          "name": "tradeId",
          "type": "uint256"
        },
        {
          "indexed": true,
          "internalType": "address",
          "name": "buyer",
          "type": "address"
        },
        {
          "indexed": false,
          "internalType": "uint256",
          "name": "amount",
          "type": "uint256"
        },
        {
          "indexed": false,
          "internalType": "enum AgroasysEscrow.ClaimType",
          "name": "claimType",
          "type": "uint8"
        },
        {
          "indexed": true,
          "internalType": "address",
          "name": "triggeredBy",
          "type": "address"
        }
      ],
      "name": "BuyerRefundTransferred",
      "type": "event"
    },
    {
      "anonymous": false,
      "inputs": [
        {
          "indexed": true,
          "internalType": "uint256",
          "name": "tradeId",
          "type": "uint256"
        },
        {
          "indexed": true,
          "internalType": "address",
          "name": "recipient",
          "type": "address"
        },
        {
          "indexed": false,
          "internalType": "uint256",
          "name": "amount",
          "type": "uint256"
        },
        {
          "indexed": false,
          "internalType": "enum AgroasysEscrow.ClaimType",
          "name": "claimType",
          "type": "uint8"
        }
      ],
      "name": "ClaimableAccrued",
      "type": "event"
    },
    {
      "anonymous": false,
      "inputs": [
        {
          "indexed": true,
          "internalType": "address",
          "name": "triggeredBy",
          "type": "address"
        }
      ],
      "name": "ClaimsPaused",
      "type": "event"
    },
    {
      "anonymous": false,
      "inputs": [
        {
          "indexed": true,
          "internalType": "address",
          "name": "triggeredBy",
          "type": "address"
        }
      ],
      "name": "ClaimsUnpaused",
      "type": "event"
    },
    {
      "anonymous": false,
      "inputs": [
        {
          "indexed": true,
          "internalType": "uint256",
          "name": "proposalId",
          "type": "uint256"
        },
        {
          "indexed": true,
          "internalType": "address",
          "name": "approver",
          "type": "address"
        },
        {
          "indexed": false,
          "internalType": "uint256",
          "name": "approvalCount",
          "type": "uint256"
        },
        {
          "indexed": false,
          "internalType": "uint256",
          "name": "requiredApprovals",
          "type": "uint256"
        }
      ],
      "name": "DisputeApproved",
      "type": "event"
    },
    {
      "anonymous": false,
      "inputs": [
        {
          "indexed": true,
          "internalType": "uint256",
          "name": "proposalId",
          "type": "uint256"
        },
        {
          "indexed": true,
          "internalType": "uint256",
          "name": "tradeId",
          "type": "uint256"
        },
        {
          "indexed": false,
          "internalType": "enum AgroasysEscrow.DisputeStatus",
          "name": "disputeStatus",
          "type": "uint8"
        }
      ],
      "name": "DisputeFinalized",
      "type": "event"
    },
    {
      "anonymous": false,
      "inputs": [
        {
          "indexed": true,
          "internalType": "uint256",
          "name": "tradeId",
          "type": "uint256"
        }
      ],
      "name": "DisputeOpenedByBuyer",
      "type": "event"
    },
    {
      "anonymous": false,
      "inputs": [
        {
          "indexed": true,
          "internalType": "uint256",
          "name": "tradeId",
          "type": "uint256"
        },
        {
          "indexed": true,
          "internalType": "uint256",
          "name": "proposalId",
          "type": "uint256"
        },
        {
          "indexed": true,
          "internalType": "address",
          "name": "recipient",
          "type": "address"
        },
        {
          "indexed": false,
          "internalType": "uint256",
          "name": "amount",
          "type": "uint256"
        },
        {
          "indexed": false,
          "internalType": "enum AgroasysEscrow.DisputeStatus",
          "name": "payoutType",
          "type": "uint8"
        }
      ],
      "name": "DisputePayout",
      "type": "event"
    },
    {
      "anonymous": false,
      "inputs": [
        {
          "indexed": true,
          "internalType": "uint256",
          "name": "proposalId",
          "type": "uint256"
        },
        {
          "indexed": true,
          "internalType": "uint256",
          "name": "tradeId",
          "type": "uint256"
        },
        {
          "indexed": true,
          "internalType": "address",
          "name": "cancelledBy",
          "type": "address"
        }
      ],
      "name": "DisputeProposalExpiredCancelled",
      "type": "event"
    },
    {
      "anonymous": false,
      "inputs": [
        {
          "indexed": true,
          "internalType": "uint256",
          "name": "proposalId",
          "type": "uint256"
        },
        {
          "indexed": true,
          "internalType": "uint256",
          "name": "tradeId",
          "type": "uint256"
        },
        {
          "indexed": false,
          "internalType": "enum AgroasysEscrow.DisputeStatus",
          "name": "disputeStatus",
          "type": "uint8"
        },
        {
          "indexed": true,
          "internalType": "address",
          "name": "proposer",
          "type": "address"
        }
      ],
      "name": "DisputeSolutionProposed",
      "type": "event"
    },
    {
      "anonymous": false,
      "inputs": [
        {
          "indexed": true,
          "internalType": "uint256",
          "name": "tradeId",
          "type": "uint256"
        },
        {
          "indexed": true,
          "internalType": "address",
          "name": "supplier",
          "type": "address"
        },
        {
          "indexed": false,
          "internalType": "uint256",
          "name": "supplierSecondTranche",
          "type": "uint256"
        }
      ],
      "name": "FinalTrancheReleased",
      "type": "event"
    },
    {
      "anonymous": false,
      "inputs": [
        {
          "indexed": true,
          "internalType": "uint256",
          "name": "tradeId",
          "type": "uint256"
        },
        {
          "indexed": true,
          "internalType": "address",
          "name": "supplier",
          "type": "address"
        },
        {
          "indexed": false,
          "internalType": "uint256",
          "name": "supplierFirstTranche",
          "type": "uint256"
        },
        {
          "indexed": true,
          "internalType": "address",
          "name": "treasury",
          "type": "address"
        },
        {
          "indexed": false,
          "internalType": "uint256",
          "name": "logisticsAmount",
          "type": "uint256"
        }
      ],
      "name": "FundsReleasedStage1",
      "type": "event"
    },
    {
      "anonymous": false,
      "inputs": [
        {
          "indexed": true,
          "internalType": "uint256",
          "name": "tradeId",
          "type": "uint256"
        },
        {
          "indexed": true,
          "internalType": "address",
          "name": "buyer",
          "type": "address"
        },
        {
          "indexed": true,
          "internalType": "bytes32",
          "name": "usdcAuthorizationNonce",
          "type": "bytes32"
        },
        {
          "indexed": false,
          "internalType": "uint256",
          "name": "amount",
          "type": "uint256"
        }
      ],
      "name": "GaslessTradeFunded",
      "type": "event"
    },
    {
      "anonymous": false,
      "inputs": [
        {
          "indexed": true,
          "internalType": "uint256",
          "name": "tradeId",
          "type": "uint256"
        },
        {
          "indexed": true,
          "internalType": "address",
          "name": "buyer",
          "type": "address"
        },
        {
          "indexed": false,
          "internalType": "uint256",
          "name": "refundedAmount",
          "type": "uint256"
        }
      ],
      "name": "InTransitTimeoutRefunded",
      "type": "event"
    },
    {
      "anonymous": false,
      "inputs": [
        {
          "indexed": true,
          "internalType": "uint256",
          "name": "tradeId",
          "type": "uint256"
        },
        {
          "indexed": false,
          "internalType": "uint256",
          "name": "acceptedAt",
          "type": "uint256"
        }
      ],
      "name": "InspectionAcceptedForFinalRelease",
      "type": "event"
    },
    {
      "anonymous": false,
      "inputs": [
        {
          "indexed": true,
          "internalType": "uint256",
          "name": "tradeId",
          "type": "uint256"
        },
        {
          "indexed": false,
          "internalType": "uint256",
          "name": "inspectionAvailableAt",
          "type": "uint256"
        },
        {
          "indexed": false,
          "internalType": "uint256",
          "name": "inspectionWindowSeconds",
          "type": "uint256"
        },
        {
          "indexed": false,
          "internalType": "uint256",
          "name": "noticeDeadline",
          "type": "uint256"
        }
      ],
      "name": "InspectionAvailable",
      "type": "event"
    },
    {
      "anonymous": false,
      "inputs": [
        {
          "indexed": true,
          "internalType": "address",
          "name": "by",
          "type": "address"
        },
        {
          "indexed": true,
          "internalType": "address",
          "name": "previousOracle",
          "type": "address"
        }
      ],
      "name": "OracleDisabledEmergency",
      "type": "event"
    },
    {
      "anonymous": false,
      "inputs": [
        {
          "indexed": true,
          "internalType": "uint256",
          "name": "proposalId",
          "type": "uint256"
        },
        {
          "indexed": true,
          "internalType": "address",
          "name": "approver",
          "type": "address"
        },
        {
          "indexed": false,
          "internalType": "uint256",
          "name": "approvalCount",
          "type": "uint256"
        },
        {
          "indexed": false,
          "internalType": "uint256",
          "name": "requiredApprovals",
          "type": "uint256"
        }
      ],
      "name": "OracleUpdateApproved",
      "type": "event"
    },
    {
      "anonymous": false,
      "inputs": [
        {
          "indexed": true,
          "internalType": "uint256",
          "name": "proposalId",
          "type": "uint256"
        },
        {
          "indexed": true,
          "internalType": "address",
          "name": "cancelledBy",
          "type": "address"
        }
      ],
      "name": "OracleUpdateProposalExpiredCancelled",
      "type": "event"
    },
    {
      "anonymous": false,
      "inputs": [
        {
          "indexed": true,
          "internalType": "uint256",
          "name": "proposalId",
          "type": "uint256"
        },
        {
          "indexed": true,
          "internalType": "address",
          "name": "proposer",
          "type": "address"
        },
        {
          "indexed": true,
          "internalType": "address",
          "name": "newOracle",
          "type": "address"
        },
        {
          "indexed": false,
          "internalType": "uint256",
          "name": "eta",
          "type": "uint256"
        },
        {
          "indexed": false,
          "internalType": "bool",
          "name": "emergencyFastTrack",
          "type": "bool"
        }
      ],
      "name": "OracleUpdateProposed",
      "type": "event"
    },
    {
      "anonymous": false,
      "inputs": [
        {
          "indexed": true,
          "internalType": "address",
          "name": "oldOracle",
          "type": "address"
        },
        {
          "indexed": true,
          "internalType": "address",
          "name": "newOracle",
          "type": "address"
        }
      ],
      "name": "OracleUpdated",
      "type": "event"
    },
    {
      "anonymous": false,
      "inputs": [
        {
          "indexed": false,
          "internalType": "address",
          "name": "account",
          "type": "address"
        }
      ],
      "name": "Paused",
      "type": "event"
    },
    {
      "anonymous": false,
      "inputs": [
        {
          "indexed": true,
          "internalType": "uint256",
          "name": "tradeId",
          "type": "uint256"
        },
        {
          "indexed": true,
          "internalType": "address",
          "name": "treasury",
          "type": "address"
        },
        {
          "indexed": false,
          "internalType": "uint256",
          "name": "platformFeesAmount",
          "type": "uint256"
        },
        {
          "indexed": false,
          "internalType": "uint256",
          "name": "platformFeeNetAmount",
          "type": "uint256"
        },
        {
          "indexed": false,
          "internalType": "uint256",
          "name": "settlementSupportFeeAmount",
          "type": "uint256"
        }
      ],
      "name": "PlatformFeesPaidStage1",
      "type": "event"
    },
    {
      "anonymous": false,
      "inputs": [
        {
          "indexed": true,
          "internalType": "address",
          "name": "relayer",
          "type": "address"
        },
        {
          "indexed": true,
          "internalType": "address",
          "name": "user",
          "type": "address"
        },
        {
          "indexed": true,
          "internalType": "bytes32",
          "name": "action",
          "type": "bytes32"
        },
        {
          "indexed": false,
          "internalType": "uint256",
          "name": "tradeId",
          "type": "uint256"
        }
      ],
      "name": "RelayedActionExecuted",
      "type": "event"
    },
    {
      "anonymous": false,
      "inputs": [
        {
          "indexed": true,
          "internalType": "address",
          "name": "relayer",
          "type": "address"
        },
        {
          "indexed": false,
          "internalType": "bool",
          "name": "allowed",
          "type": "bool"
        },
        {
          "indexed": true,
          "internalType": "address",
          "name": "updatedBy",
          "type": "address"
        }
      ],
      "name": "RelayerUpdated",
      "type": "event"
    },
    {
      "anonymous": false,
      "inputs": [
        {
          "indexed": true,
          "internalType": "uint256",
          "name": "tradeId",
          "type": "uint256"
        },
        {
          "indexed": true,
          "internalType": "address",
          "name": "supplier",
          "type": "address"
        },
        {
          "indexed": false,
          "internalType": "uint256",
          "name": "amount",
          "type": "uint256"
        },
        {
          "indexed": false,
          "internalType": "enum AgroasysEscrow.ClaimType",
          "name": "claimType",
          "type": "uint8"
        },
        {
          "indexed": true,
          "internalType": "address",
          "name": "triggeredBy",
          "type": "address"
        }
      ],
      "name": "SupplierPayoutTransferred",
      "type": "event"
    },
    {
      "anonymous": false,
      "inputs": [
        {
          "indexed": true,
          "internalType": "uint256",
          "name": "tradeId",
          "type": "uint256"
        },
        {
          "indexed": true,
          "internalType": "address",
          "name": "buyer",
          "type": "address"
        },
        {
          "indexed": false,
          "internalType": "uint256",
          "name": "refundedAmount",
          "type": "uint256"
        }
      ],
      "name": "TradeCancelledAfterLockTimeout",
      "type": "event"
    },
    {
      "anonymous": false,
      "inputs": [
        {
          "indexed": true,
          "internalType": "uint256",
          "name": "tradeId",
          "type": "uint256"
        },
        {
          "indexed": true,
          "internalType": "address",
          "name": "buyer",
          "type": "address"
        },
        {
          "indexed": true,
          "internalType": "address",
          "name": "supplier",
          "type": "address"
        },
        {
          "indexed": false,
          "internalType": "uint256",
          "name": "totalAmount",
          "type": "uint256"
        },
        {
          "indexed": false,
          "internalType": "uint256",
          "name": "logisticsAmount",
          "type": "uint256"
        },
        {
          "indexed": false,
          "internalType": "uint256",
          "name": "platformFeesAmount",
          "type": "uint256"
        },
        {
          "indexed": false,
          "internalType": "uint256",
          "name": "supplierFirstTranche",
          "type": "uint256"
        },
        {
          "indexed": false,
          "internalType": "uint256",
          "name": "supplierSecondTranche",
          "type": "uint256"
        },
        {
          "indexed": false,
          "internalType": "bytes32",
          "name": "ricardianHash",
          "type": "bytes32"
        }
      ],
      "name": "TradeLocked",
      "type": "event"
    },
    {
      "anonymous": false,
      "inputs": [
        {
          "indexed": true,
          "internalType": "uint256",
          "name": "tradeId",
          "type": "uint256"
        },
        {
          "indexed": true,
          "internalType": "address",
          "name": "triggeredBy",
          "type": "address"
        }
      ],
      "name": "TradePaused",
      "type": "event"
    },
    {
      "anonymous": false,
      "inputs": [
        {
          "indexed": true,
          "internalType": "uint256",
          "name": "tradeId",
          "type": "uint256"
        },
        {
          "indexed": true,
          "internalType": "address",
          "name": "triggeredBy",
          "type": "address"
        }
      ],
      "name": "TradeUnpaused",
      "type": "event"
    },
    {
      "anonymous": false,
      "inputs": [
        {
          "indexed": true,
          "internalType": "address",
          "name": "treasuryIdentity",
          "type": "address"
        },
        {
          "indexed": true,
          "internalType": "address",
          "name": "payoutReceiver",
          "type": "address"
        },
        {
          "indexed": false,
          "internalType": "uint256",
          "name": "amount",
          "type": "uint256"
        },
        {
          "indexed": false,
          "internalType": "address",
          "name": "triggeredBy",
          "type": "address"
        }
      ],
      "name": "TreasuryClaimed",
      "type": "event"
    },
    {
      "anonymous": false,
      "inputs": [
        {
          "indexed": true,
          "internalType": "uint256",
          "name": "proposalId",
          "type": "uint256"
        },
        {
          "indexed": true,
          "internalType": "address",
          "name": "approver",
          "type": "address"
        },
        {
          "indexed": false,
          "internalType": "uint256",
          "name": "approvalCount",
          "type": "uint256"
        },
        {
          "indexed": false,
          "internalType": "uint256",
          "name": "requiredApprovals",
          "type": "uint256"
        }
      ],
      "name": "TreasuryPayoutAddressUpdateApproved",
      "type": "event"
    },
    {
      "anonymous": false,
      "inputs": [
        {
          "indexed": true,
          "internalType": "uint256",
          "name": "proposalId",
          "type": "uint256"
        },
        {
          "indexed": true,
          "internalType": "address",
          "name": "cancelledBy",
          "type": "address"
        }
      ],
      "name": "TreasuryPayoutAddressUpdateProposalExpiredCancelled",
      "type": "event"
    },
    {
      "anonymous": false,
      "inputs": [
        {
          "indexed": true,
          "internalType": "uint256",
          "name": "proposalId",
          "type": "uint256"
        },
        {
          "indexed": true,
          "internalType": "address",
          "name": "proposer",
          "type": "address"
        },
        {
          "indexed": true,
          "internalType": "address",
          "name": "newPayoutReceiver",
          "type": "address"
        },
        {
          "indexed": false,
          "internalType": "uint256",
          "name": "eta",
          "type": "uint256"
        }
      ],
      "name": "TreasuryPayoutAddressUpdateProposed",
      "type": "event"
    },
    {
      "anonymous": false,
      "inputs": [
        {
          "indexed": true,
          "internalType": "address",
          "name": "oldPayoutReceiver",
          "type": "address"
        },
        {
          "indexed": true,
          "internalType": "address",
          "name": "newPayoutReceiver",
          "type": "address"
        }
      ],
      "name": "TreasuryPayoutAddressUpdated",
      "type": "event"
    },
    {
      "anonymous": false,
      "inputs": [
        {
          "indexed": true,
          "internalType": "address",
          "name": "approver",
          "type": "address"
        },
        {
          "indexed": false,
          "internalType": "uint256",
          "name": "approvalCount",
          "type": "uint256"
        },
        {
          "indexed": false,
          "internalType": "uint256",
          "name": "requiredApprovals",
          "type": "uint256"
        }
      ],
      "name": "UnpauseApproved",
      "type": "event"
    },
    {
      "anonymous": false,
      "inputs": [
        {
          "indexed": true,
          "internalType": "address",
          "name": "cancelledBy",
          "type": "address"
        }
      ],
      "name": "UnpauseProposalCancelled",
      "type": "event"
    },
    {
      "anonymous": false,
      "inputs": [
        {
          "indexed": true,
          "internalType": "address",
          "name": "proposer",
          "type": "address"
        }
      ],
      "name": "UnpauseProposed",
      "type": "event"
    },
    {
      "anonymous": false,
      "inputs": [
        {
          "indexed": false,
          "internalType": "address",
          "name": "account",
          "type": "address"
        }
      ],
      "name": "Unpaused",
      "type": "event"
    },
    {
      "inputs": [],
      "name": "ACTION_CANCEL_LOCKED_TIMEOUT",
      "outputs": [
        {
          "internalType": "bytes32",
          "name": "",
          "type": "bytes32"
        }
      ],
      "stateMutability": "view",
      "type": "function"
    },
    {
      "inputs": [],
      "name": "ACTION_CREATE_TRADE",
      "outputs": [
        {
          "internalType": "bytes32",
          "name": "",
          "type": "bytes32"
        }
      ],
      "stateMutability": "view",
      "type": "function"
    },
    {
      "inputs": [],
      "name": "ACTION_FINALIZE_AFTER_DISPUTE_WINDOW",
      "outputs": [
        {
          "internalType": "bytes32",
          "name": "",
          "type": "bytes32"
        }
      ],
      "stateMutability": "view",
      "type": "function"
    },
    {
      "inputs": [],
      "name": "ACTION_OPEN_DISPUTE",
      "outputs": [
        {
          "internalType": "bytes32",
          "name": "",
          "type": "bytes32"
        }
      ],
      "stateMutability": "view",
      "type": "function"
    },
    {
      "inputs": [],
      "name": "ACTION_REFUND_IN_TRANSIT_TIMEOUT",
      "outputs": [
        {
          "internalType": "bytes32",
          "name": "",
          "type": "bytes32"
        }
      ],
      "stateMutability": "view",
      "type": "function"
    },
    {
      "inputs": [],
      "name": "DISPUTE_PROPOSAL_TTL",
      "outputs": [
        {
          "internalType": "uint256",
          "name": "",
          "type": "uint256"
        }
      ],
      "stateMutability": "view",
      "type": "function"
    },
    {
      "inputs": [],
      "name": "GOVERNANCE_PROPOSAL_TTL",
      "outputs": [
        {
          "internalType": "uint256",
          "name": "",
          "type": "uint256"
        }
      ],
      "stateMutability": "view",
      "type": "function"
    },
    {
      "inputs": [],
      "name": "IN_TRANSIT_TIMEOUT",
      "outputs": [
        {
          "internalType": "uint256",
          "name": "",
          "type": "uint256"
        }
      ],
      "stateMutability": "view",
      "type": "function"
    },
    {
      "inputs": [],
      "name": "LOCK_TIMEOUT",
      "outputs": [
        {
          "internalType": "uint256",
          "name": "",
          "type": "uint256"
        }
      ],
      "stateMutability": "view",
      "type": "function"
    },
    {
      "inputs": [],
      "name": "PACKAGED_LOCAL_INSPECTION_WINDOW",
      "outputs": [
        {
          "internalType": "uint256",
          "name": "",
          "type": "uint256"
        }
      ],
      "stateMutability": "view",
      "type": "function"
    },
    {
      "inputs": [],
      "name": "STANDARD_INSPECTION_WINDOW",
      "outputs": [
        {
          "internalType": "uint256",
          "name": "",
          "type": "uint256"
        }
      ],
      "stateMutability": "view",
      "type": "function"
    },
    {
      "inputs": [],
      "name": "adminAddCounter",
      "outputs": [
        {
          "internalType": "uint256",
          "name": "",
          "type": "uint256"
        }
      ],
      "stateMutability": "view",
      "type": "function"
    },
    {
      "inputs": [
        {
          "internalType": "uint256",
          "name": "",
          "type": "uint256"
        },
        {
          "internalType": "address",
          "name": "",
          "type": "address"
        }
      ],
      "name": "adminAddHasApproved",
      "outputs": [
        {
          "internalType": "bool",
          "name": "",
          "type": "bool"
        }
      ],
      "stateMutability": "view",
      "type": "function"
    },
    {
      "inputs": [
        {
          "internalType": "uint256",
          "name": "",
          "type": "uint256"
        }
      ],
      "name": "adminAddProposalCancelled",
      "outputs": [
        {
          "internalType": "bool",
          "name": "",
          "type": "bool"
        }
      ],
      "stateMutability": "view",
      "type": "function"
    },
    {
      "inputs": [
        {
          "internalType": "uint256",
          "name": "",
          "type": "uint256"
        }
      ],
      "name": "adminAddProposalExpiresAt",
      "outputs": [
        {
          "internalType": "uint256",
          "name": "",
          "type": "uint256"
        }
      ],
      "stateMutability": "view",
      "type": "function"
    },
    {
      "inputs": [
        {
          "internalType": "uint256",
          "name": "",
          "type": "uint256"
        }
      ],
      "name": "adminAddProposals",
      "outputs": [
        {
          "internalType": "address",
          "name": "newAdmin",
          "type": "address"
        },
        {
          "internalType": "uint256",
          "name": "approvalCount",
          "type": "uint256"
        },
        {
          "internalType": "bool",
          "name": "executed",
          "type": "bool"
        },
        {
          "internalType": "uint256",
          "name": "createdAt",
          "type": "uint256"
        },
        {
          "internalType": "uint256",
          "name": "eta",
          "type": "uint256"
        },
        {
          "internalType": "address",
          "name": "proposer",
          "type": "address"
        }
      ],
      "stateMutability": "view",
      "type": "function"
    },
    {
      "inputs": [
        {
          "internalType": "uint256",
          "name": "",
          "type": "uint256"
        }
      ],
      "name": "admins",
      "outputs": [
        {
          "internalType": "address",
          "name": "",
          "type": "address"
        }
      ],
      "stateMutability": "view",
      "type": "function"
    },
    {
      "inputs": [
        {
          "internalType": "uint256",
          "name": "_proposalId",
          "type": "uint256"
        }
      ],
      "name": "approveAddAdmin",
      "outputs": [],
      "stateMutability": "nonpayable",
      "type": "function"
    },
    {
      "inputs": [
        {
          "internalType": "uint256",
          "name": "_proposalId",
          "type": "uint256"
        }
      ],
      "name": "approveDisputeSolution",
      "outputs": [],
      "stateMutability": "nonpayable",
      "type": "function"
    },
    {
      "inputs": [
        {
          "internalType": "uint256",
          "name": "_proposalId",
          "type": "uint256"
        }
      ],
      "name": "approveOracleUpdate",
      "outputs": [],
      "stateMutability": "nonpayable",
      "type": "function"
    },
    {
      "inputs": [
        {
          "internalType": "uint256",
          "name": "_proposalId",
          "type": "uint256"
        }
      ],
      "name": "approveTreasuryPayoutAddressUpdate",
      "outputs": [],
      "stateMutability": "nonpayable",
      "type": "function"
    },
    {
      "inputs": [],
      "name": "approveUnpause",
      "outputs": [],
      "stateMutability": "nonpayable",
      "type": "function"
    },
    {
      "inputs": [
        {
          "internalType": "address",
          "name": "",
          "type": "address"
        }
      ],
      "name": "authorizationNonces",
      "outputs": [
        {
          "internalType": "uint256",
          "name": "",
          "type": "uint256"
        }
      ],
      "stateMutability": "view",
      "type": "function"
    },
    {
      "inputs": [
        {
          "internalType": "uint256",
          "name": "_tradeId",
          "type": "uint256"
        }
      ],
      "name": "buyerRefundableAmount",
      "outputs": [
        {
          "internalType": "uint256",
          "name": "",
          "type": "uint256"
        }
      ],
      "stateMutability": "view",
      "type": "function"
    },
    {
      "inputs": [
        {
          "internalType": "uint256",
          "name": "_proposalId",
          "type": "uint256"
        }
      ],
      "name": "cancelExpiredAddAdminProposal",
      "outputs": [],
      "stateMutability": "nonpayable",
      "type": "function"
    },
    {
      "inputs": [
        {
          "internalType": "uint256",
          "name": "_proposalId",
          "type": "uint256"
        }
      ],
      "name": "cancelExpiredDisputeProposal",
      "outputs": [],
      "stateMutability": "nonpayable",
      "type": "function"
    },
    {
      "inputs": [
        {
          "internalType": "uint256",
          "name": "_proposalId",
          "type": "uint256"
        }
      ],
      "name": "cancelExpiredOracleUpdateProposal",
      "outputs": [],
      "stateMutability": "nonpayable",
      "type": "function"
    },
    {
      "inputs": [
        {
          "internalType": "uint256",
          "name": "_proposalId",
          "type": "uint256"
        }
      ],
      "name": "cancelExpiredTreasuryPayoutAddressUpdateProposal",
      "outputs": [],
      "stateMutability": "nonpayable",
      "type": "function"
    },
    {
      "inputs": [
        {
          "internalType": "uint256",
          "name": "_tradeId",
          "type": "uint256"
        },
        {
          "internalType": "uint256",
          "name": "_authorizationNonce",
          "type": "uint256"
        },
        {
          "internalType": "uint256",
          "name": "_authorizationDeadline",
          "type": "uint256"
        },
        {
          "internalType": "bytes",
          "name": "_authorizationSignature",
          "type": "bytes"
        }
      ],
      "name": "cancelLockedTradeAfterTimeoutWithAuthorization",
      "outputs": [],
      "stateMutability": "nonpayable",
      "type": "function"
    },
    {
      "inputs": [],
      "name": "cancelUnpauseProposal",
      "outputs": [],
      "stateMutability": "nonpayable",
      "type": "function"
    },
    {
      "inputs": [],
      "name": "claimTreasury",
      "outputs": [],
      "stateMutability": "nonpayable",
      "type": "function"
    },
    {
      "inputs": [
        {
          "internalType": "address",
          "name": "",
          "type": "address"
        }
      ],
      "name": "claimableUsdc",
      "outputs": [
        {
          "internalType": "uint256",
          "name": "",
          "type": "uint256"
        }
      ],
      "stateMutability": "view",
      "type": "function"
    },
    {
      "inputs": [],
      "name": "claimsPaused",
      "outputs": [
        {
          "internalType": "bool",
          "name": "",
          "type": "bool"
        }
      ],
      "stateMutability": "view",
      "type": "function"
    },
    {
      "inputs": [
        {
          "internalType": "uint256",
          "name": "_tradeId",
          "type": "uint256"
        },
        {
          "internalType": "uint256",
          "name": "_windowSeconds",
          "type": "uint256"
        }
      ],
      "name": "confirmInspectionAvailable",
      "outputs": [],
      "stateMutability": "nonpayable",
      "type": "function"
    },
    {
      "inputs": [
        {
          "internalType": "address",
          "name": "_buyer",
          "type": "address"
        },
        {
          "internalType": "address",
          "name": "_supplier",
          "type": "address"
        },
        {
          "internalType": "uint256",
          "name": "_totalAmount",
          "type": "uint256"
        },
        {
          "internalType": "uint256",
          "name": "_logisticsAmount",
          "type": "uint256"
        },
        {
          "internalType": "uint256",
          "name": "_platformFeesAmount",
          "type": "uint256"
        },
        {
          "internalType": "uint256",
          "name": "_supplierFirstTranche",
          "type": "uint256"
        },
        {
          "internalType": "uint256",
          "name": "_supplierSecondTranche",
          "type": "uint256"
        },
        {
          "internalType": "bytes32",
          "name": "_ricardianHash",
          "type": "bytes32"
        },
        {
          "internalType": "uint256",
          "name": "_authorizationNonce",
          "type": "uint256"
        },
        {
          "internalType": "uint256",
          "name": "_authorizationDeadline",
          "type": "uint256"
        },
        {
          "internalType": "bytes",
          "name": "_authorizationSignature",
          "type": "bytes"
        },
        {
          "components": [
            {
              "internalType": "uint256",
              "name": "validAfter",
              "type": "uint256"
            },
            {
              "internalType": "uint256",
              "name": "validBefore",
              "type": "uint256"
            },
            {
              "internalType": "bytes32",
              "name": "nonce",
              "type": "bytes32"
            },
            {
              "internalType": "uint8",
              "name": "v",
              "type": "uint8"
            },
            {
              "internalType": "bytes32",
              "name": "r",
              "type": "bytes32"
            },
            {
              "internalType": "bytes32",
              "name": "s",
              "type": "bytes32"
            }
          ],
          "internalType": "struct AgroasysEscrow.UsdcAuthorization",
          "name": "_usdcAuthorization",
          "type": "tuple"
        }
      ],
      "name": "createTradeWithAuthorization",
      "outputs": [
        {
          "internalType": "uint256",
          "name": "",
          "type": "uint256"
        }
      ],
      "stateMutability": "nonpayable",
      "type": "function"
    },
    {
      "inputs": [],
      "name": "disableOracleEmergency",
      "outputs": [],
      "stateMutability": "nonpayable",
      "type": "function"
    },
    {
      "inputs": [],
      "name": "disputeCounter",
      "outputs": [
        {
          "internalType": "uint256",
          "name": "",
          "type": "uint256"
        }
      ],
      "stateMutability": "view",
      "type": "function"
    },
    {
      "inputs": [
        {
          "internalType": "uint256",
          "name": "",
          "type": "uint256"
        },
        {
          "internalType": "address",
          "name": "",
          "type": "address"
        }
      ],
      "name": "disputeHasApproved",
      "outputs": [
        {
          "internalType": "bool",
          "name": "",
          "type": "bool"
        }
      ],
      "stateMutability": "view",
      "type": "function"
    },
    {
      "inputs": [
        {
          "internalType": "uint256",
          "name": "",
          "type": "uint256"
        }
      ],
      "name": "disputeProposalCancelled",
      "outputs": [
        {
          "internalType": "bool",
          "name": "",
          "type": "bool"
        }
      ],
      "stateMutability": "view",
      "type": "function"
    },
    {
      "inputs": [
        {
          "internalType": "uint256",
          "name": "",
          "type": "uint256"
        }
      ],
      "name": "disputeProposalExpiresAt",
      "outputs": [
        {
          "internalType": "uint256",
          "name": "",
          "type": "uint256"
        }
      ],
      "stateMutability": "view",
      "type": "function"
    },
    {
      "inputs": [
        {
          "internalType": "uint256",
          "name": "",
          "type": "uint256"
        }
      ],
      "name": "disputeProposals",
      "outputs": [
        {
          "internalType": "uint256",
          "name": "tradeId",
          "type": "uint256"
        },
        {
          "internalType": "enum AgroasysEscrow.DisputeStatus",
          "name": "disputeStatus",
          "type": "uint8"
        },
        {
          "internalType": "uint256",
          "name": "approvalCount",
          "type": "uint256"
        },
        {
          "internalType": "bool",
          "name": "executed",
          "type": "bool"
        },
        {
          "internalType": "uint256",
          "name": "createdAt",
          "type": "uint256"
        },
        {
          "internalType": "address",
          "name": "proposer",
          "type": "address"
        }
      ],
      "stateMutability": "view",
      "type": "function"
    },
    {
      "inputs": [
        {
          "internalType": "uint256",
          "name": "_proposalId",
          "type": "uint256"
        }
      ],
      "name": "executeAddAdmin",
      "outputs": [],
      "stateMutability": "nonpayable",
      "type": "function"
    },
    {
      "inputs": [
        {
          "internalType": "uint256",
          "name": "_proposalId",
          "type": "uint256"
        }
      ],
      "name": "executeOracleUpdate",
      "outputs": [],
      "stateMutability": "nonpayable",
      "type": "function"
    },
    {
      "inputs": [
        {
          "internalType": "uint256",
          "name": "_proposalId",
          "type": "uint256"
        }
      ],
      "name": "executeTreasuryPayoutAddressUpdate",
      "outputs": [],
      "stateMutability": "nonpayable",
      "type": "function"
    },
    {
      "inputs": [
        {
          "internalType": "uint256",
          "name": "_tradeId",
          "type": "uint256"
        }
      ],
      "name": "finalizeAfterDisputeWindow",
      "outputs": [],
      "stateMutability": "nonpayable",
      "type": "function"
    },
    {
      "inputs": [
        {
          "internalType": "uint256",
          "name": "_tradeId",
          "type": "uint256"
        },
        {
          "internalType": "uint256",
          "name": "_authorizationNonce",
          "type": "uint256"
        },
        {
          "internalType": "uint256",
          "name": "_authorizationDeadline",
          "type": "uint256"
        },
        {
          "internalType": "bytes",
          "name": "_authorizationSignature",
          "type": "bytes"
        }
      ],
      "name": "finalizeAfterDisputeWindowWithAuthorization",
      "outputs": [],
      "stateMutability": "nonpayable",
      "type": "function"
    },
    {
      "inputs": [
        {
          "internalType": "uint256",
          "name": "_tradeId",
          "type": "uint256"
        }
      ],
      "name": "finalizeAfterInspectionAcceptance",
      "outputs": [],
      "stateMutability": "nonpayable",
      "type": "function"
    },
    {
      "inputs": [
        {
          "internalType": "address",
          "name": "user",
          "type": "address"
        }
      ],
      "name": "getAuthorizationNonce",
      "outputs": [
        {
          "internalType": "uint256",
          "name": "",
          "type": "uint256"
        }
      ],
      "stateMutability": "view",
      "type": "function"
    },
    {
      "inputs": [],
      "name": "getNextTradeId",
      "outputs": [
        {
          "internalType": "uint256",
          "name": "",
          "type": "uint256"
        }
      ],
      "stateMutability": "view",
      "type": "function"
    },
    {
      "inputs": [],
      "name": "governanceApprovals",
      "outputs": [
        {
          "internalType": "uint256",
          "name": "",
          "type": "uint256"
        }
      ],
      "stateMutability": "view",
      "type": "function"
    },
    {
      "inputs": [],
      "name": "governanceTimelock",
      "outputs": [
        {
          "internalType": "uint256",
          "name": "",
          "type": "uint256"
        }
      ],
      "stateMutability": "view",
      "type": "function"
    },
    {
      "inputs": [],
      "name": "hasActiveUnpauseProposal",
      "outputs": [
        {
          "internalType": "bool",
          "name": "",
          "type": "bool"
        }
      ],
      "stateMutability": "view",
      "type": "function"
    },
    {
      "inputs": [],
      "name": "hasPendingTreasuryPayoutAddressUpdateProposal",
      "outputs": [
        {
          "internalType": "bool",
          "name": "",
          "type": "bool"
        }
      ],
      "stateMutability": "view",
      "type": "function"
    },
    {
      "inputs": [
        {
          "internalType": "uint256",
          "name": "",
          "type": "uint256"
        }
      ],
      "name": "inTransitSince",
      "outputs": [
        {
          "internalType": "uint256",
          "name": "",
          "type": "uint256"
        }
      ],
      "stateMutability": "view",
      "type": "function"
    },
    {
      "inputs": [
        {
          "internalType": "uint256",
          "name": "_tradeId",
          "type": "uint256"
        }
      ],
      "name": "inspectionDeadline",
      "outputs": [
        {
          "internalType": "uint256",
          "name": "",
          "type": "uint256"
        }
      ],
      "stateMutability": "view",
      "type": "function"
    },
    {
      "inputs": [
        {
          "internalType": "uint256",
          "name": "",
          "type": "uint256"
        }
      ],
      "name": "inspectionWindowSeconds",
      "outputs": [
        {
          "internalType": "uint256",
          "name": "",
          "type": "uint256"
        }
      ],
      "stateMutability": "view",
      "type": "function"
    },
    {
      "inputs": [
        {
          "internalType": "address",
          "name": "",
          "type": "address"
        }
      ],
      "name": "isAdmin",
      "outputs": [
        {
          "internalType": "bool",
          "name": "",
          "type": "bool"
        }
      ],
      "stateMutability": "view",
      "type": "function"
    },
    {
      "inputs": [
        {
          "internalType": "address",
          "name": "",
          "type": "address"
        }
      ],
      "name": "isRelayer",
      "outputs": [
        {
          "internalType": "bool",
          "name": "",
          "type": "bool"
        }
      ],
      "stateMutability": "view",
      "type": "function"
    },
    {
      "inputs": [
        {
          "internalType": "uint256",
          "name": "_tradeId",
          "type": "uint256"
        }
      ],
      "name": "nonRefundableFeeAmount",
      "outputs": [
        {
          "internalType": "uint256",
          "name": "",
          "type": "uint256"
        }
      ],
      "stateMutability": "view",
      "type": "function"
    },
    {
      "inputs": [
        {
          "internalType": "uint256",
          "name": "_tradeId",
          "type": "uint256"
        },
        {
          "internalType": "uint256",
          "name": "_authorizationNonce",
          "type": "uint256"
        },
        {
          "internalType": "uint256",
          "name": "_authorizationDeadline",
          "type": "uint256"
        },
        {
          "internalType": "bytes",
          "name": "_authorizationSignature",
          "type": "bytes"
        }
      ],
      "name": "openDisputeWithAuthorization",
      "outputs": [],
      "stateMutability": "nonpayable",
      "type": "function"
    },
    {
      "inputs": [],
      "name": "oracleActive",
      "outputs": [
        {
          "internalType": "bool",
          "name": "",
          "type": "bool"
        }
      ],
      "stateMutability": "view",
      "type": "function"
    },
    {
      "inputs": [],
      "name": "oracleAddress",
      "outputs": [
        {
          "internalType": "address",
          "name": "",
          "type": "address"
        }
      ],
      "stateMutability": "view",
      "type": "function"
    },
    {
      "inputs": [],
      "name": "oracleUpdateCounter",
      "outputs": [
        {
          "internalType": "uint256",
          "name": "",
          "type": "uint256"
        }
      ],
      "stateMutability": "view",
      "type": "function"
    },
    {
      "inputs": [
        {
          "internalType": "uint256",
          "name": "",
          "type": "uint256"
        },
        {
          "internalType": "address",
          "name": "",
          "type": "address"
        }
      ],
      "name": "oracleUpdateHasApproved",
      "outputs": [
        {
          "internalType": "bool",
          "name": "",
          "type": "bool"
        }
      ],
      "stateMutability": "view",
      "type": "function"
    },
    {
      "inputs": [
        {
          "internalType": "uint256",
          "name": "",
          "type": "uint256"
        }
      ],
      "name": "oracleUpdateProposalCancelled",
      "outputs": [
        {
          "internalType": "bool",
          "name": "",
          "type": "bool"
        }
      ],
      "stateMutability": "view",
      "type": "function"
    },
    {
      "inputs": [
        {
          "internalType": "uint256",
          "name": "",
          "type": "uint256"
        }
      ],
      "name": "oracleUpdateProposalExpiresAt",
      "outputs": [
        {
          "internalType": "uint256",
          "name": "",
          "type": "uint256"
        }
      ],
      "stateMutability": "view",
      "type": "function"
    },
    {
      "inputs": [
        {
          "internalType": "uint256",
          "name": "",
          "type": "uint256"
        }
      ],
      "name": "oracleUpdateProposals",
      "outputs": [
        {
          "internalType": "address",
          "name": "newOracle",
          "type": "address"
        },
        {
          "internalType": "uint256",
          "name": "approvalCount",
          "type": "uint256"
        },
        {
          "internalType": "bool",
          "name": "executed",
          "type": "bool"
        },
        {
          "internalType": "uint256",
          "name": "createdAt",
          "type": "uint256"
        },
        {
          "internalType": "uint256",
          "name": "eta",
          "type": "uint256"
        },
        {
          "internalType": "address",
          "name": "proposer",
          "type": "address"
        },
        {
          "internalType": "bool",
          "name": "emergencyFastTrack",
          "type": "bool"
        }
      ],
      "stateMutability": "view",
      "type": "function"
    },
    {
      "inputs": [],
      "name": "pause",
      "outputs": [],
      "stateMutability": "nonpayable",
      "type": "function"
    },
    {
      "inputs": [],
      "name": "pauseClaims",
      "outputs": [],
      "stateMutability": "nonpayable",
      "type": "function"
    },
    {
      "inputs": [
        {
          "internalType": "uint256",
          "name": "_tradeId",
          "type": "uint256"
        }
      ],
      "name": "pauseTrade",
      "outputs": [],
      "stateMutability": "nonpayable",
      "type": "function"
    },
    {
      "inputs": [],
      "name": "paused",
      "outputs": [
        {
          "internalType": "bool",
          "name": "",
          "type": "bool"
        }
      ],
      "stateMutability": "view",
      "type": "function"
    },
    {
      "inputs": [
        {
          "internalType": "address",
          "name": "_newAdmin",
          "type": "address"
        }
      ],
      "name": "proposeAddAdmin",
      "outputs": [
        {
          "internalType": "uint256",
          "name": "",
          "type": "uint256"
        }
      ],
      "stateMutability": "nonpayable",
      "type": "function"
    },
    {
      "inputs": [
        {
          "internalType": "uint256",
          "name": "_tradeId",
          "type": "uint256"
        },
        {
          "internalType": "enum AgroasysEscrow.DisputeStatus",
          "name": "_disputeStatus",
          "type": "uint8"
        }
      ],
      "name": "proposeDisputeSolution",
      "outputs": [
        {
          "internalType": "uint256",
          "name": "",
          "type": "uint256"
        }
      ],
      "stateMutability": "nonpayable",
      "type": "function"
    },
    {
      "inputs": [
        {
          "internalType": "address",
          "name": "_newOracle",
          "type": "address"
        }
      ],
      "name": "proposeOracleUpdate",
      "outputs": [
        {
          "internalType": "uint256",
          "name": "",
          "type": "uint256"
        }
      ],
      "stateMutability": "nonpayable",
      "type": "function"
    },
    {
      "inputs": [
        {
          "internalType": "address",
          "name": "_newPayoutReceiver",
          "type": "address"
        }
      ],
      "name": "proposeTreasuryPayoutAddressUpdate",
      "outputs": [
        {
          "internalType": "uint256",
          "name": "",
          "type": "uint256"
        }
      ],
      "stateMutability": "nonpayable",
      "type": "function"
    },
    {
      "inputs": [],
      "name": "proposeUnpause",
      "outputs": [
        {
          "internalType": "bool",
          "name": "",
          "type": "bool"
        }
      ],
      "stateMutability": "nonpayable",
      "type": "function"
    },
    {
      "inputs": [
        {
          "internalType": "uint256",
          "name": "_tradeId",
          "type": "uint256"
        },
        {
          "internalType": "uint256",
          "name": "_authorizationNonce",
          "type": "uint256"
        },
        {
          "internalType": "uint256",
          "name": "_authorizationDeadline",
          "type": "uint256"
        },
        {
          "internalType": "bytes",
          "name": "_authorizationSignature",
          "type": "bytes"
        }
      ],
      "name": "refundInTransitAfterTimeoutWithAuthorization",
      "outputs": [],
      "stateMutability": "nonpayable",
      "type": "function"
    },
    {
      "inputs": [
        {
          "internalType": "uint256",
          "name": "_tradeId",
          "type": "uint256"
        }
      ],
      "name": "releaseFundsStage1",
      "outputs": [],
      "stateMutability": "nonpayable",
      "type": "function"
    },
    {
      "inputs": [],
      "name": "requiredApprovals",
      "outputs": [
        {
          "internalType": "uint256",
          "name": "",
          "type": "uint256"
        }
      ],
      "stateMutability": "view",
      "type": "function"
    },
    {
      "inputs": [
        {
          "internalType": "address",
          "name": "relayer",
          "type": "address"
        },
        {
          "internalType": "bool",
          "name": "allowed",
          "type": "bool"
        }
      ],
      "name": "setRelayer",
      "outputs": [],
      "stateMutability": "nonpayable",
      "type": "function"
    },
    {
      "inputs": [],
      "name": "totalClaimableUsdc",
      "outputs": [
        {
          "internalType": "uint256",
          "name": "",
          "type": "uint256"
        }
      ],
      "stateMutability": "view",
      "type": "function"
    },
    {
      "inputs": [
        {
          "internalType": "uint256",
          "name": "",
          "type": "uint256"
        }
      ],
      "name": "tradeActiveDisputeProposalId",
      "outputs": [
        {
          "internalType": "uint256",
          "name": "",
          "type": "uint256"
        }
      ],
      "stateMutability": "view",
      "type": "function"
    },
    {
      "inputs": [],
      "name": "tradeCounter",
      "outputs": [
        {
          "internalType": "uint256",
          "name": "",
          "type": "uint256"
        }
      ],
      "stateMutability": "view",
      "type": "function"
    },
    {
      "inputs": [
        {
          "internalType": "uint256",
          "name": "",
          "type": "uint256"
        }
      ],
      "name": "tradeHasActiveDisputeProposal",
      "outputs": [
        {
          "internalType": "bool",
          "name": "",
          "type": "bool"
        }
      ],
      "stateMutability": "view",
      "type": "function"
    },
    {
      "inputs": [
        {
          "internalType": "uint256",
          "name": "",
          "type": "uint256"
        }
      ],
      "name": "tradePaused",
      "outputs": [
        {
          "internalType": "bool",
          "name": "",
          "type": "bool"
        }
      ],
      "stateMutability": "view",
      "type": "function"
    },
    {
      "inputs": [
        {
          "internalType": "uint256",
          "name": "",
          "type": "uint256"
        }
      ],
      "name": "trades",
      "outputs": [
        {
          "internalType": "uint256",
          "name": "tradeId",
          "type": "uint256"
        },
        {
          "internalType": "bytes32",
          "name": "ricardianHash",
          "type": "bytes32"
        },
        {
          "internalType": "enum AgroasysEscrow.TradeStatus",
          "name": "status",
          "type": "uint8"
        },
        {
          "internalType": "address",
          "name": "buyerAddress",
          "type": "address"
        },
        {
          "internalType": "address",
          "name": "supplierAddress",
          "type": "address"
        },
        {
          "internalType": "uint256",
          "name": "totalAmountLocked",
          "type": "uint256"
        },
        {
          "internalType": "uint256",
          "name": "logisticsAmount",
          "type": "uint256"
        },
        {
          "internalType": "uint256",
          "name": "platformFeesAmount",
          "type": "uint256"
        },
        {
          "internalType": "uint256",
          "name": "supplierFirstTranche",
          "type": "uint256"
        },
        {
          "internalType": "uint256",
          "name": "supplierSecondTranche",
          "type": "uint256"
        },
        {
          "internalType": "uint256",
          "name": "createdAt",
          "type": "uint256"
        },
        {
          "internalType": "uint256",
          "name": "arrivalTimestamp",
          "type": "uint256"
        }
      ],
      "stateMutability": "view",
      "type": "function"
    },
    {
      "inputs": [],
      "name": "treasuryAddress",
      "outputs": [
        {
          "internalType": "address",
          "name": "",
          "type": "address"
        }
      ],
      "stateMutability": "view",
      "type": "function"
    },
    {
      "inputs": [],
      "name": "treasuryPayoutAddress",
      "outputs": [
        {
          "internalType": "address",
          "name": "",
          "type": "address"
        }
      ],
      "stateMutability": "view",
      "type": "function"
    },
    {
      "inputs": [],
      "name": "treasuryPayoutAddressUpdateCounter",
      "outputs": [
        {
          "internalType": "uint256",
          "name": "",
          "type": "uint256"
        }
      ],
      "stateMutability": "view",
      "type": "function"
    },
    {
      "inputs": [
        {
          "internalType": "uint256",
          "name": "",
          "type": "uint256"
        },
        {
          "internalType": "address",
          "name": "",
          "type": "address"
        }
      ],
      "name": "treasuryPayoutAddressUpdateHasApproved",
      "outputs": [
        {
          "internalType": "bool",
          "name": "",
          "type": "bool"
        }
      ],
      "stateMutability": "view",
      "type": "function"
    },
    {
      "inputs": [
        {
          "internalType": "uint256",
          "name": "",
          "type": "uint256"
        }
      ],
      "name": "treasuryPayoutAddressUpdateProposalCancelled",
      "outputs": [
        {
          "internalType": "bool",
          "name": "",
          "type": "bool"
        }
      ],
      "stateMutability": "view",
      "type": "function"
    },
    {
      "inputs": [
        {
          "internalType": "uint256",
          "name": "",
          "type": "uint256"
        }
      ],
      "name": "treasuryPayoutAddressUpdateProposalExpiresAt",
      "outputs": [
        {
          "internalType": "uint256",
          "name": "",
          "type": "uint256"
        }
      ],
      "stateMutability": "view",
      "type": "function"
    },
    {
      "inputs": [
        {
          "internalType": "uint256",
          "name": "",
          "type": "uint256"
        }
      ],
      "name": "treasuryPayoutAddressUpdateProposals",
      "outputs": [
        {
          "internalType": "address",
          "name": "newPayoutReceiver",
          "type": "address"
        },
        {
          "internalType": "uint256",
          "name": "approvalCount",
          "type": "uint256"
        },
        {
          "internalType": "bool",
          "name": "executed",
          "type": "bool"
        },
        {
          "internalType": "uint256",
          "name": "createdAt",
          "type": "uint256"
        },
        {
          "internalType": "uint256",
          "name": "eta",
          "type": "uint256"
        },
        {
          "internalType": "address",
          "name": "proposer",
          "type": "address"
        }
      ],
      "stateMutability": "view",
      "type": "function"
    },
    {
      "inputs": [],
      "name": "unpauseClaims",
      "outputs": [],
      "stateMutability": "nonpayable",
      "type": "function"
    },
    {
      "inputs": [
        {
          "internalType": "address",
          "name": "",
          "type": "address"
        }
      ],
      "name": "unpauseHasApproved",
      "outputs": [
        {
          "internalType": "bool",
          "name": "",
          "type": "bool"
        }
      ],
      "stateMutability": "view",
      "type": "function"
    },
    {
      "inputs": [],
      "name": "unpauseProposal",
      "outputs": [
        {
          "internalType": "uint256",
          "name": "approvalCount",
          "type": "uint256"
        },
        {
          "internalType": "bool",
          "name": "executed",
          "type": "bool"
        },
        {
          "internalType": "uint256",
          "name": "createdAt",
          "type": "uint256"
        },
        {
          "internalType": "address",
          "name": "proposer",
          "type": "address"
        }
      ],
      "stateMutability": "view",
      "type": "function"
    },
    {
      "inputs": [
        {
          "internalType": "uint256",
          "name": "_tradeId",
          "type": "uint256"
        }
      ],
      "name": "unpauseTrade",
      "outputs": [],
      "stateMutability": "nonpayable",
      "type": "function"
    },
    {
      "inputs": [],
      "name": "usdcToken",
      "outputs": [
        {
          "internalType": "contract IERC20",
          "name": "",
          "type": "address"
        }
      ],
      "stateMutability": "view",
      "type": "function"
    }
  ],
  "bytecode": "0x60a0806040523461056c57616520803803809161001c8285610587565b833981019060c08183031261056c57610034816105aa565b610040602083016105aa565b9161004d604082016105aa565b610059606083016105aa565b60808301519092906001600160401b03811161056c5781019580601f8801121561056c578651966001600160401b038811610571578760051b90604051986100a4602084018b610587565b89526020808a019282010192831161056c57602001905b8282106105545750505060a0015160017f9b779b17422d0df92223018b32b4d1fa46e071723d6817e2486d003becc55f00556001600160a01b0390931693841561051f576001600160a01b03169081156104e9576001600160a01b03169182156104b1576001600160a01b031693841561047a576002841061043557838651106103fc57601180546001600160a01b0319908116929092179055600e8054821692909217909155600f80548216831790556010805490911690911790556000828152601460205260408120805460ff191660011790556015919091555b82518110156102d657600581901b8301602001516000906001600160a01b031680156102a557808252601360205260ff60408320541661026e576012546801000000000000000081101561025a576001810180601255811015610246577fbb8a6a4669ba250d26cd7a459eca9d215f8307e33aebe50379bc5a3617ec34440180546001600160a01b031916821790558152601360205260409020805460ff1916600190811790915501610198565b634e487b7160e01b83526032600452602483fd5b634e487b7160e01b83526041600452602483fd5b60405162461bcd60e51b815260206004820152600f60248201526e323ab83634b1b0ba329030b236b4b760891b6044820152606490fd5b60405162461bcd60e51b81526020600482015260096024820152683130b21030b236b4b760b91b6044820152606490fd5b5062015180601e556010805460ff60a81b1916600160a81b17905560408051906103009082610587565b600e81526d4167726f61737973457363726f7760901b602090910152604080517f60b5ba687a3fb28c60c02b55848ec4ac87ec13f39917c0f415531752131bff419161034c9082610587565b600181526020810190603160f81b82525190206040519060208201927f8b73c3c69bb8fe3d512ecc4cf759cc79239f7b179b0ffacaa9a75d522b39400f8452604083015260608201524660808201523060a082015260a081526103b060c082610587565b51902060805260405190600182527f6da1699b033f54d95156eaa43377f43bf3c32288bbf7355f3de946b8ced3203260203393a3604051615f6190816105bf82396080518161594c0152f35b60405162461bcd60e51b81526020600482015260116024820152706e6f7420656e6f7567682061646d696e7360781b6044820152606490fd5b60405162461bcd60e51b815260206004820152601f60248201527f726571756972656420617070726f76616c73206d757374206265203e3d2032006044820152606490fd5b60405162461bcd60e51b815260206004820152600f60248201526e34b73b30b634b2103932b630bcb2b960891b6044820152606490fd5b60405162461bcd60e51b815260206004820152601060248201526f696e76616c696420747265617375727960801b6044820152606490fd5b60405162461bcd60e51b815260206004820152600e60248201526d696e76616c6964206f7261636c6560901b6044820152606490fd5b60405162461bcd60e51b815260206004820152600d60248201526c34b73b30b634b2103a37b5b2b760991b6044820152606490fd5b60208091610561846105aa565b8152019101906100bb565b600080fd5b634e487b7160e01b600052604160045260246000fd5b601f909101601f19168101906001600160401b0382119082101761057157604052565b51906001600160a01b038216820361056c5756fe608080604052600436101561001357600080fd5b600090813560e01c9081623bdc74146145ba575080630d6043c6146141b95780630f3314e71461410d57806310055ec11461404357806311eac8551461401a57806314bfd6d014613fd657806318c2740414613f525780631c44d41114613e885780631e6c598e14613dc55780631fa7e78114612a4a57806320e32a5314613d9b57806323db9a1714613d7d57806324d7806c14613d3e57806326ff5e1c14613d035780632715048c14613c375780632a3ecca114613bef5780632a4591ba14613bb05780632b72349e146139975780632fd7d5ef1461396157806331c65775146139435780633d8f6806146138a05780634a2ae3051461387a5780634be93571146136f35780634f84e8c8146136c9578063524f8456146136aa578063541d55481461366b57806355d2ac86146136325780635ab8621e146136035780635c04d8ca146135e55780635c975abb146135c35780636247a3781461346b5780636405a4051461344d578063660d15b514610d655780636726b9db1461328757806368d69b61146121e45780636de2a4f0146131b3578063710bb97914613189578063720417c51461314e578063749511b114612fca57806374eb831114612f9b5780637526b0ea146121e457806376d622ce14612ecf57806376ebb7e014612ea557806377d8f09d14612d5f5780637d36f4d314612d415780637e8c2f1014612d0357806380eda0fd14612ad457806381b2ce3114612a8357806381de274c14612a4a5780638354415d146129825780638456cb59146128da57806386f23a35146128b45780638a3ead53146128795780638d18535b146126fa5780638d2304ee146126d057806396f84c09146126a157806399c1aadc14611bb65780639a1fdd79146126835780639acaecab146125bf5780639c23b1be14612584578063a09776041461253b578063a10519d01461233c578063a11bcc651461220c578063a143b004146121e9578063a375d807146121e4578063a48448fe14612169578063a5f9dcf014611ea6578063a63187d114611e2b578063a89ae4ba14611e02578063a94c8f3d14611d87578063a9f4bd6514611d3e578063b2b1073214611d20578063b9bcaf2114611bf2578063c0e8f6a714611bd4578063c194bb4e14611bb6578063c4c6ff6a146114a8578063c5f956af1461147f578063c5fa4a9814611433578063cc792e0d14611410578063cd8ce3be146112dc578063d6d81fa314611022578063d80d0e5614610f43578063daa0785614610e0f578063dc88100e14610dcb578063e51f7aee14610da1578063e57a7e3514610d83578063ea4aa01614610d65578063ec9d151714610bd5578063ecd8dc3a14610afa578063ede25b9d146109d5578063ee5798ae146109a6578063f565776d1461069b578063f5ecef5714610672578063fae8a3d61461051b578063fcb0aa02146104f1578063fda769e7146104c2578063ff0c4ee5146104935763ff2eda091461045657600080fd5b3461049057806003193601126104905760206040517f642bc978b352e60185507106148c2e8af9b88eeaeec91883eebdc673e6add83f8152f35b80fd5b50346104905760203660031901126104905760ff60406020926004358152600784522054166040519015158152f35b50346104905760203660031901126104905760ff60406020926004358152602c84522054166040519015158152f35b50346104905760203660031901126104905760406020916004358152602183522054604051908152f35b5034610490578060031936011261049057338152601360205261054460ff604083205416614988565b61055160ff825416614db4565b61056260ff60105460a81c16614c12565b60ff601d5416610665575b6040516080810181811067ffffffffffffffff8211176106515760405260018152816020820152426040820152606033910152600160185560ff196019541660195542601a55336001600160601b0360a01b601b541617601b55338152601c60205260408120600160ff19825416179055600160ff19601d541617601d55604051907f0c098089b7550dc564f1a038c8820df7c94ad41baa6be122a568c720c323ce3c339180a26015546001825260208201527ff250c8cac0e5a06311da43d7d136f294ff38fe995468d5352d5b795bec30020a60403392a2602060405160018152f35b634e487b7160e01b83526041600452602483fd5b61066d6157c7565b61056d565b50346104905780600319360112610490576010546040516001600160a01b039091168152602090f35b50346104905760403660031901126104905760043560243560028110156109a25733835260136020526106d460ff604085205416614988565b6106dc6151d8565b6106e582615212565b6106f26002548310614b9a565b8183526001602052610719600360ff600260408720015416610713816147b8565b14614b0d565b818352600760205260ff6040842054166108c1575b600b549161073b83614b8b565b600b5560405161074a81614809565b81815260208101838152604082016001815260608301878152608084019142835260a0850193338552888a52600560205260408a209551865560018601905160028110156108ad57916005959493916107c79360ff80198354169116179055516002870155511515600386019060ff801983541691151516179055565b51600484015560018060a01b0390511691019060018060a01b03166001600160601b0360a01b82541617905582845260066020526040842060018060a01b0333166000526020526040600020600160ff19825416179055808452600760205260408420600160ff19825416179055808452600860205282604085205562093a80420180421161089957604085856020975260098752205561086b604051809361490d565b827f169133ad218243916e40f5d940b11e6662965ad0b9436428ec3ec92af6593fbb853394a4604051908152f35b634e487b7160e01b85526011600452602485fd5b634e487b7160e01b8b52602160045260248bfd5b818352600860205260408320548084526009602052604084205442118061098b575b1561094d57808452600a60205260408420600160ff1982541617905582845260076020526040842060ff19815416905582845260086020528360408120558233917f7d0d8277552faa3f645755b68537c6cdbbd2b3415f4fc4ec554d62d4824311d18680a461072e565b60405162461bcd60e51b81526020600482015260166024820152756163746976652070726f706f73616c2065786973747360501b6044820152606490fd5b50808452600a60205260ff604085205416156108e3565b8280fd5b50346104905760203660031901126104905760ff60406020926004358152602284522054166040519015158152f35b5034610490576020366003190112610490576004353382526013602052610a0260ff604084205416614988565b610a0f60235482106149c1565b808252601f6020526040822090610a2b60038301541515614a02565b60016002830191825490610a4260ff831615614a4e565b8086526022602052610a5b60ff60408820541615614a8d565b85526021602052610a726040862054421115614ace565b610a83828501546015541115615089565b610a9360048501544210156150cc565b60ff1916179055600e805482546001600160a01b031982166001600160a01b03918216179092556010805460ff60a81b1916600160a81b1790559154811691167f078c3b417dadf69374a59793b829c52001247130433427049317bde56607b1b78380a380f35b503461049057604036600319011261049057610b146147d8565b60243580151591828203610bd1573384526013602052610b3a60ff604086205416614988565b6001600160a01b0316908115610b9a57610b6b908285526014602052604085209060ff801983541691151516179055565b6040519182527f6da1699b033f54d95156eaa43377f43bf3c32288bbf7355f3de946b8ced3203260203393a380f35b60405162461bcd60e51b815260206004820152600f60248201526e34b73b30b634b2103932b630bcb2b960891b6044820152606490fd5b8380fd5b5034610490576020366003190112610490576004353382526013602052610c0260ff604084205416614988565b610c0f60285482106149c1565b80825260246020526040822090610c2b60038301541515614a02565b60028201805491610c3f60ff841615614a4e565b8085526027602052610c5860ff60408720541615614a8d565b84526026602052610c6f6040852054421115614ace565b610c8160018401546015541115615089565b610c9160048401544210156150cc565b82546001600160a01b031691600190610cab841515614ec4565b8386526013602052610cc460ff60408820541615614f00565b60ff191617905560125468010000000000000000811015610d5157806001610cef9201601255614787565b815460039190911b92831b6001600160a01b039384901b19909116179055815481168352601360205260408320805460ff191660011790559054167f44d6d25963f097ad14f29f06854a01f575648a1ef82f30e562ccd3889717e3398280a280f35b634e487b7160e01b84526041600452602484fd5b50346104905780600319360112610490576020600254604051908152f35b50346104905780600319360112610490576020602354604051908152f35b50346104905760203660031901126104905760406020916004358152600d83522054604051908152f35b5034610490578060031936011261049057608060185460ff60195416601a5460018060a01b03601b5416916040519384521515602084015260408301526060820152f35b5034610490576020366003190112610490576004353382526013602052610e3c60ff604084205416614988565b610e4960285482106149c1565b8082526024602052600160408320610e6660038201541515614a02565b610e7760ff60028301541615614a4e565b8284526027602052610e9060ff60408620541615614a8d565b8284526026602052610ea86040852054421115614ace565b828452602560205260408420828060a01b033316600052602052610ed460ff6040600020541615614b4c565b828452602560205260408420828060a01b03331660005260205260406000208260ff198254161790550190610f098254614b8b565b80925560155460405192835260208301527fb8cacf822d821b4e79cb750d1368c77e7e7ec2aee16f886327cd7c756f47c22360403393a380f35b5034610490576020366003190112610490576004353382526013602052610f7060ff604084205416614988565b610f7d602d5482106149c1565b8082526029602052610fa860ff600260408520610f9f60038201541515614a02565b01541615614a4e565b808252602c602052610fc160ff60408420541615614c9c565b808252602b602052610fd860408320544211614cdc565b808252602c60205260408220600160ff1982541617905560ff19602e5416602e5533907f3aa666fca861a2efe08793b4b6df7e2f3b72b5137df4acdf56dacd603242d65e8380a380f35b50346104905760203660031901126104905761103c6147d8565b338252601360205261105460ff604084205416614988565b6001600160a01b031680156112a657600e546001600160a01b03168114611273576110856012546015541115614f3c565b6023549061109282614b8b565b60235560105460a81c60ff161580156112615742905b60405160e0810181811067ffffffffffffffff82111761124d5760058792879260405286815260208101600181526040820185815261114d606084019142835260808501938a8552604060a0870199338b5260c08801998c8b528152601f602052209560018060a01b039060018060a01b03905116166001600160601b0360a01b875416178655516001860155511515600285019060ff801983541691151516179055565b51600383015551600482015592519201805491516001600160a81b03199092166001600160a01b03939093169290921790151560a01b60ff60a01b161790558385526020808052604080872033600090815292529020805460ff191660011790554262093a80810190811061123957604086866020985260218852205560405191825284820152827faff168a4e1fa91858b5fc1c223cee9cc0eaeaddb0b29c18df1630e08305bd80260403393a4601554604051906001825283820152817ff39407f640014cb0220c4f7b0a6cc6acee38a440a8add233fa88e8c98b95b25c60403393a3604051908152f35b634e487b7160e01b86526011600452602486fd5b634e487b7160e01b87526041600452602487fd5b61126d601e5442614da7565b906110a8565b60405162461bcd60e51b815260206004820152600b60248201526a73616d65206f7261636c6560a81b6044820152606490fd5b60405162461bcd60e51b815260206004820152600e60248201526d696e76616c6964206f7261636c6560901b6044820152606490fd5b503461049057602036600319011261049057600435338252601360205261130960ff604084205416614988565b611316602d5482106149c1565b8082526029602052604082209061133260038301541515614a02565b6001600283019182549061134960ff831615614a4e565b808652602c60205261136260ff60408820541615614a8d565b8552602b6020526113796040862054421115614ace565b61138a828501546015541115615089565b61139a60048501544210156150cc565b6113ad828060a01b03855416151561491a565b60ff1990811691909117909155602e805490911690556010805482546001600160a01b031982166001600160a01b03918216179092559154811691167f4dc5527be93f8b21f9376931190711db811d1e6d980ca325ee2520d65069df748380a380f35b5034610490578060031936011261049057602060ff601d54166040519015158152f35b503461049057604036600319011261049057604061144f6147f3565b9160043581526025602052209060018060a01b0316600052602052602060ff604060002054166040519015158152f35b5034610490578060031936011261049057600f546040516001600160a01b039091168152602090f35b503461049057610220366003190112610490576114c36147d8565b6114cb6147f3565b60843591906044359060643560e43560c43560a43561010435610124356101443567ffffffffffffffff8111611bb25761150990369060040161485d565b968b60c0366101631901126104905760ff60406115399233815260136020522054168d8115611b9a575b50614d1f565b6115416151d8565b61154961510f565b8515611b55576001600160a01b0316968715611b1c57308814611ad75761157d85611578866115788f8c614da7565b614da7565b8903611a9d5783151580611a94575b15611a58578a6115b086866115a96115a48383614da7565b615be1565b9384615da7565b90811580611a4f575b611a1c575b50156119cc576115cf82848c615855565b60405190602082019a7fab191139f84e7620737836d9002d499dbe8293085697773dfa2574e82decb7fc8c52600160a01b60019003169a828c6040819501528a60608201528b60808201528960a08201528d60c08201528660e08201528761010082015288610120820152856101408201528461016082015261016081526116596101808261483b565b5190206116659061593a565b9061166f916159ee565b61167891615a2a565b61168e916001600160a01b0391909116146152d6565b600182018083116119b857898c52600460205260408c20556116af8b615a9c565b906040519283526020830152887f6ac709e2093c74d3ce56616ef76760c53ae0bf401457fb868a84e66636d3678360403394a4600254976116ef89614b8b565b600255604051610180810181811067ffffffffffffffff8211176119a45793838383600a8f8f9a968f9c988f9a8f918f8f9d7f9896188f7299b6607b47eaa190d500bf89abbfa1bb2ce6d410f88b043e371b679f9460c09f8f938f8f988b8b94604092835280865260208601938452610160610140848801978489526060810197885260808101998a5260a081019a8b5260c081019b8c5260e081019c8d5261010081019d8e5261012081019e8f52019d8e429052019d8e5281526001602052209c518d555160018d015560028c0191516117c9816147b8565b6117d2816147b8565b825491516001600160a81b031990921660ff9190911617600891821b610100600160a81b031617909155905160038b0180546001600160a01b0319166001600160a01b0392909216919091179055905160048a015590516005890155905160068801559051600787015590519085015551600984015551910155604080518c815260208101969096528501526060840152608083015260a0820152a46011546101a435919085906101c43560ff8116916001600160a01b0316908290036109a257803b156109a257610124839260405194859384926377aadf6360e11b84528a60048501523060248501528860448501526101643560648501526101843560848501528960a485015260c48401526101e43560e4840152610204356101048401525af18015611999577fa7c444d067108b7e8aee4afd13309e15a3e74a87a3d07d172c5c50945c37baaa602086959481997f642bc978b352e60185507106148c2e8af9b88eeaeec91883eebdc673e6add83f98958a95611989575b5050604051908152a4604051838152600080516020615eec833981519152853392a46001600080516020615f0c83398151915255604051908152f35b816119939161483b565b3861194d565b6040513d88823e3d90fd5b634e487b7160e01b8c52604160045260248cfd5b634e487b7160e01b8c52601160045260248cfd5b60405162461bcd60e51b815260206004820152602260248201527f696e76616c6964206c61756e636820736574746c656d656e74207363686564756044820152616c6560f01b6064820152608490fd5b600019810191508111611a3b5785858d611a3593615da7565b386115be565b634e487b7160e01b8d52601160045260248dfd5b508015156115b9565b60405162461bcd60e51b815260206004820152601460248201527307472616e63686573206d757374206265203e20360641b6044820152606490fd5b5084151561158c565b60405162461bcd60e51b81526020600482015260126024820152710c4e4cac2d6c8deeedc40dad2e6dac2e8c6d60731b6044820152606490fd5b60405162461bcd60e51b815260206004820152601960248201527f737570706c6965722063616e6e6f7420626520657363726f77000000000000006044820152606490fd5b60405162461bcd60e51b81526020600482015260116024820152701cdd5c1c1b1a595c881c995c5d5a5c9959607a1b6044820152606490fd5b60405162461bcd60e51b815260206004820152601760248201527f72696361726469616e20686173682072657175697265640000000000000000006044820152606490fd5b60ff915060409033815260146020522054168d611533565b8b80fd5b50346104905780600319360112610490576020601554604051908152f35b50346104905780600319360112610490576020604051621275008152f35b5034610490576020366003190112610490576004353382526013602052611c1f60ff604084205416614988565b611c2c60235482106149c1565b808252601f602052600160408320611c4960038201541515614a02565b611c5a60ff60028301541615614a4e565b8284526022602052611c7360ff60408620541615614a8d565b8284526021602052611c8b6040852054421115614ace565b8284526020805260408420828060a01b0333168552602052611cb460ff60408620541615614b4c565b8284526020805260408420828060a01b0333168552602052604084208260ff198254161790550190611ce68254614b8b565b80925560155460405192835260208301527ff39407f640014cb0220c4f7b0a6cc6acee38a440a8add233fa88e8c98b95b25c60403393a380f35b503461049057806003193601126104905760206040516202a3008152f35b50346104905760403660031901126104905760ff6040602092611d5f6147f3565b6004358252602a85528282206001600160a01b03909116825284522054604051911615158152f35b503461049057602036600319011261049057604060c091600435815260056020522080549060ff60018201541690600281015460ff60038301541690611dea600484015493600560018060a01b039101541694604051968752602087019061490d565b604085015215156060840152608083015260a0820152f35b5034610490578060031936011261049057600e546040516001600160a01b039091168152602090f35b5034610490576020366003190112610490576004803582526029602090815260409283902080546001820154600283015460038401549584015460059094015487516001600160a01b0394851681529586019290925260ff1615159584019590955260608301939093526080820152911660a082015260c090f35b503461049057611eb5366148b4565b9290338552601360205260ff6040862054168015612153575b611ed790614d1f565b611edf6151d8565b611ee882615212565b611ef061510f565b611efd6002548310614b9a565b81855260016020526040852092600284019460018060a01b03865460081c1690611f28848484615855565b81611fa9611fae959493611f9a611f91600395611f8c6040516020810190600080516020615ecc83398151915282528660408201528960608201528d60808201528a60a08201528b60c082015260c08152611f8460e08261483b565b51902061593a565b6159ee565b90929192615a2a565b6001600160a01b0316146152d6565b61598a565b825491611fc9600160ff8516611fc3816147b8565b1461503d565b818552600c602052604085205480156120fa57621275008101809111611239574211156120b557817f1c642f6ec09eeef2a0619a2a298b98d5b38861f8a024837627f161d669c3c1067f57f680ee8ca7390570646e9ba27d0a0f0e281e2565cbb092822584197106619695600460209660ff1916178155828852600c865287604081205561206a600860018060a01b038354821c16950194855490856153f3565b54925460405190815260089390931c6001600160a01b0316948593a3604051908152600080516020615eec83398151915260203392a46001600080516020615f0c8339815191525580f35b60405162461bcd60e51b815260206004820152601e60248201527f696e2d7472616e7369742074696d656f7574206e6f7420656c617073656400006044820152606490fd5b60405162461bcd60e51b815260206004820152601c60248201527f696e2d7472616e7369742074696d657374616d70206e6f7420736574000000006044820152606490fd5b634e487b7160e01b88526021600452602488fd5b503385526014602052604085205460ff16611ece565b5034610490576020366003190112610490576004803582526024602090815260409283902080546001820154600283015460038401549584015460059094015487516001600160a01b0394851681529586019290925260ff1615159584019590955260608301939093526080820152911660a082015260c090f35b6148ef565b5034610490578060031936011261049057602060ff602e54166040519015158152f35b503461049057602036600319011261049057600435338252601360205261223960ff604084205416614988565b612246602d5482106149c1565b808252602960205260016040832061226360038201541515614a02565b61227460ff60028301541615614a4e565b828452602c60205261228d60ff60408620541615614a8d565b828452602b6020526122a56040852054421115614ace565b828452602a60205260408420828060a01b03331685526020526122cf60ff60408620541615614b4c565b828452602a60205260408420828060a01b0333168552602052604084208260ff1982541617905501906123028254614b8b565b80925560155460405192835260208301527f33f3d93b68d89de9a6b65493f004ff57d76aadd2fb47a98cbf886447309cdec760403393a380f35b50346104905761234b366148b4565b90929192338552601360205260ff6040862054168015612525575b61236f90614d1f565b6123776151d8565b61238083615212565b61238861510f565b6123956002548410614b9a565b82855260016020526040852093600285019260018060a01b03845460081c16906123c0848484615855565b81611fa961242995949361241c611f91600195611f8c8c6040516020810191600080516020615ecc83398151915283528760408301528a606083015260808201528a60a08201528b60c082015260c08152611f8460e08261483b565b848060a01b0316146152d6565b612452600a825494612449600260ff8816612443816147b8565b14614c50565b01541515614fff565b61245b82614e2e565b42116124f05760037f9d6f89df1fd95e20d56ed05e08fe9519ff6a2496090b77bfb70c8f64c21c23899360ff19161780915560405191807fb145240944e8bfe8998e31f11365578b766764ed1255b8e2efcb56e741b7be188680a2825260081c6001600160a01b0316903390600080516020615eec83398151915290602090a46001600080516020615f0c8339815191525580f35b60405162461bcd60e51b815260206004820152600d60248201526c1dda5b991bddc818db1bdcd959609a1b6044820152606490fd5b503385526014602052604085205460ff16612366565b50346104905760403660031901126104905760ff604060209261255c6147f3565b6004358252600685528282206001600160a01b03909116825284522054604051911615158152f35b503461049057806003193601126104905760206040517f57f680ee8ca7390570646e9ba27d0a0f0e281e2565cbb09282258419710661968152f35b50346104905760203660031901126104905760043533825260136020526125ec60ff604084205416614988565b6125f96002548210614b9a565b808252600360205260ff6040832054161561264b57808252600360205260408220805460ff1916905533907f34341c0c45e796124ee5336adcc231ee0d5ca5e08a5d3a32ed3097da78d0a1468380a380f35b60405162461bcd60e51b815260206004820152601060248201526f1d1c985919481b9bdd081c185d5cd95960821b6044820152606490fd5b50346104905780600319360112610490576020601e54604051908152f35b50346104905760203660031901126104905760ff60406020926004358152600a84522054166040519015158152f35b50346104905760203660031901126104905760406020916004358152600983522054604051908152f35b50346104905760403660031901126104905760043560243561272760018060a01b03600e54163314614bd8565b61273860ff60105460a81c16614c12565b6127406151d8565b61274982615212565b61275161510f565b61275e6002548310614b9a565b818352600160205260408320906002820191825490612785600160ff8416611fc3816147b8565b6203f4808314801561286d575b15612828577fbff435bbe6e222466677a2ff1ac3d0f31efe4a6973c87a7b4c2e8648c07f0722936002600a9360ff191617905501428155838552600d602052816040862055838552600c602052846040812055546128106127f38383614da7565b604051938493846040919493926060820195825260208201520152565b0390a26001600080516020615f0c8339815191525580f35b60405162461bcd60e51b815260206004820152601d60248201527f756e737570706f7274656420696e7370656374696f6e2077696e646f770000006044820152606490fd5b506202a3008314612792565b503461049057806003193601126104905760206040517fa6115baa0e39b3877020da94fe30135520d27e0cb11c198edac119231d452a578152f35b5034610490578060031936011261049057602060ff60105460a81c166040519015158152f35b5034610490578060031936011261049057338152601360205261290360ff604083205416614988565b805460ff811661294c576001906129186151d8565b60ff19161781557f62e78cea01bee320cd4e420270b5ea74000d11b0c9f74754ebdbfc544b05a2586020604051338152a180f35b60405162461bcd60e51b815260206004820152600e60248201526d185b1c9958591e481c185d5cd95960921b6044820152606490fd5b503461049057806003193601126104905733815260136020526129ab60ff604083205416614988565b6010546129bd60ff8260a81c16614c12565b60ff60a81b1916601055805460ff811615612a08575b50600e546001600160a01b0316337f943e0551255d58897464f9809b2b06574fdc708ade497e30276ae48effc0a7948380a380f35b600190612a136151d8565b60ff19161781557f62e78cea01bee320cd4e420270b5ea74000d11b0c9f74754ebdbfc544b05a2586020604051338152a1386129d3565b5034610490576020366003190112610490576020906040906001600160a01b03612a726147d8565b168152600483522054604051908152f35b50346104905780600319360112610490573381526013602052612aac60ff604083205416614988565b612aba60ff601d5416614ded565b612ac960ff6019541615614a4e565b612ad16157c7565b80f35b503461049057602036600319011261049057612aee6147d8565b3382526013602052612b0660ff604084205416614988565b6001600160a01b0316612b1a81151561491a565b6010546001600160a01b03168114612cbe57612b3c6012546015541115614f3c565b60ff602e5416612c7957602d5490612b5382614b8b565b602d55612ba4612b65601e5442614da7565b60405190612b7282614809565b8382526001602083015285604083015242606083015260808201523360a0820152838552602960205260408520614f7e565b818352602a602090815260408085203386529091528320805460ff191660011790554262093a808101908110612c65576040848460209652602b86522055600160ff19602e541617602e55612bfb601e5442614da7565b604051908152827f7d8684ed4e806e48e1379ec407e099c58ae93067f5a839e7cdf7299438e33316853393a4601554604051906001825283820152817f33f3d93b68d89de9a6b65493f004ff57d76aadd2fb47a98cbf886447309cdec760403393a3604051908152f35b634e487b7160e01b84526011600452602484fd5b60405162461bcd60e51b815260206004820152601860248201527f70726f706f73616c20616c72656164792070656e64696e6700000000000000006044820152606490fd5b60405162461bcd60e51b815260206004820152601d60248201527f73616d65207472656173757279207061796f75742072656365697665720000006044820152606490fd5b503461049057602036600319011261049057612d396040602092600435612d2d6002548210614b9a565b81526001845220615797565b604051908152f35b50346104905780600319360112610490576020600b54604051908152f35b5034610490576020366003190112610490576004353382526013602052612d8c60ff604084205416614988565b612d946151d8565b612da1600b5482106149c1565b80825260056020526040822090612dbd60048301541515614a02565b612dce60ff60038401541615614a4e565b808352600a602052612de760ff60408520541615614c9c565b8083526009602052612dfe60408420544211614cdc565b612e088254615212565b808352600a60205260408320600160ff198254161790558154808452600760205260ff60408520541680612e90575b612e68575b50339154907f7d0d8277552faa3f645755b68537c6cdbbd2b3415f4fc4ec554d62d4824311d18480a480f35b835260076020526040832060ff19815416905581548352600860205282604081205538612e3c565b50808452600860205281604085205414612e37565b50346104905760203660031901126104905760406020916004358152600c83522054604051908152f35b5034610490576020366003190112610490576004353382526013602052612efc60ff604084205416614988565b612f0960235482106149c1565b808252601f602052612f2b60ff600260408520610f9f60038201541515614a02565b8082526022602052612f4460ff60408420541615614c9c565b8082526021602052612f5b60408320544211614cdc565b808252602260205260408220805460ff1916600117905533907fd2d878f87125c1948b966a8962e09576b78186471e1a7cc90c2bd2b6f05acc9f8380a380f35b50346104905760203660031901126104905760ff60406020926004358152600384522054166040519015158152f35b503461049057602036600319011261049057612fe46147d8565b3382526013602052612ffc60ff604084205416614988565b6001600160a01b0316613010811515614ec4565b808252601360205261302960ff60408420541615614f00565b6130396012546015541115614f3c565b6028549061304682614b8b565b602855613097613058601e5442614da7565b6040519061306582614809565b8382526001602083015285604083015242606083015260808201523360a0820152838552602460205260408520614f7e565b8183526025602090815260408085203386529091528320805460ff191660011790554262093a808101908110612c65576040846004928560209752602687528282205584815260248652200154604051908152827f959284814070c6c3a0c8b0ce10f8406a2a5cfe5cc3a7d157ad2ba850026aee64853393a4601554604051906001825283820152817fb8cacf822d821b4e79cb750d1368c77e7e7ec2aee16f886327cd7c756f47c22360403393a3604051908152f35b503461049057806003193601126104905760206040517f9d6f89df1fd95e20d56ed05e08fe9519ff6a2496090b77bfb70c8f64c21c23898152f35b50346104905760203660031901126104905760406020916004358152602683522054604051908152f35b503461049057602036600319011261049057600e546001600160a01b03163314600435818015613271575b156132355761320a9161321f575b6131f46151d8565b6131fd81615212565b61320561510f565b615530565b6001600080516020615f0c8339815191525580f35b61323060ff60105460a81c16614c12565b6131ec565b60405162461bcd60e51b815260206004820152601460248201527337b7363c9037b930b1b6329037b91030b236b4b760611b6044820152606490fd5b50338352601360205260ff6040842054166131de565b5034610490576020366003190112610490576004356132b160018060a01b03600e54163314614bd8565b6132c260ff60105460a81c16614c12565b6132ca6151d8565b6132d381615212565b6132db61510f565b6132e86002548210614b9a565b80825260016020526040822090600282016001815461331360ff821661330d816147b8565b15614d63565b60ff1916179055808352600c6020524260408420557fc16c7bb7ef90cd4375b18716f3bad44ab2327cbc75bdd1d2fa611ec95167a681600383019260018060a01b038454169361336a60078301958654908661561f565b600f5460058301805490929161338a91906001600160a01b0316876156d9565b6133a6600660018060a01b03600f54169401938454908761574a565b549454600f5491546040805192835260208301919091526001600160a01b03928316968793169186917faf26bf705c48ad6f6bf63104d1d8b9f94dac03ba9c3ae49b34cd094cc8c3f6f691a454623d090081101561344357805b61342b61340d8383614965565b92604051938493846040919493926060820195825260208201520152565b0390a36001600080516020615f0c8339815191525580f35b623d090090613400565b50346104905780600319360112610490576020601754604051908152f35b50346104905761347a366148b4565b90939291338452601360205260ff60408520541680156135ad575b61349e90614d1f565b6134a66151d8565b6134af83615212565b6134b761510f565b6134c46002548410614b9a565b8284526001602052600360408520019160018060a01b03835416906134ea878484615855565b91600482611fa97fa6115baa0e39b3877020da94fe30135520d27e0cb11c198edac119231d452a57989994611f9a611f9161356898611f8c8c6040516020810191600080516020615ecc83398151915283528760408301528a606083015260808201528a60a08201528b60c082015260c08152611f8460e08261483b565b61357182615530565b546040519182526001600160a01b0316903390600080516020615eec83398151915290602090a46001600080516020615f0c8339815191525580f35b503384526014602052604084205460ff16613495565b503461049057806003193601126104905760ff60209154166040519015158152f35b50346104905780600319360112610490576020602854604051908152f35b50346104905760203660031901126104905760ff60406020926004358152602784522054166040519015158152f35b5034610490576020366003190112610490576020906040906001600160a01b0361365a6147d8565b168152601683522054604051908152f35b50346104905760203660031901126104905760209060ff906040906001600160a01b036136966147d8565b168152601484522054166040519015158152f35b5034610490576020366003190112610490576020612d39600435614e2e565b50346104905760203660031901126104905760406020916004358152602b83522054604051908152f35b5034610490578060031936011261049057338152601360205261371c60ff604083205416614988565b61372960ff825416614db4565b61373760ff601d5416614ded565b61374660ff6019541615614a4e565b338152601c60205261375f60ff60408320541615614b4c565b338152601c60205260408120600160ff19825416179055613781601854614b8b565b80601855601554906040518181528260208201527ff250c8cac0e5a06311da43d7d136f294ff38fe995468d5352d5b795bec30020a60403392a21015806137c6575080f35b6001906137e2601954916137dd60ff841615614a4e565b615089565b60ff19161760195560ff19601d5416601d55805461380260ff8216614db4565b60ff191681557f5db9ee0a495bf2e6ff9c91a7834c1ba4fdd244a5e8aa4e537bd38aeae4b073aa6020604051338152a161383a6154c6565b815b8151811015613875576001906001600160a01b0361385a828561551c565b51168452601c60205260408420805460ff191690550161383c565b505080f35b5034610490578060031936011261049057602060ff60105460a01c166040519015158152f35b503461049057806003193601126104905733815260136020526138c960ff604083205416614988565b60105460ff8160a01c161561390a5760ff60a01b1916601055337f58faeb75cd58dcc300b630223b434fdafecf55c21cd1aa07ce174a125ea52e8b8280a280f35b60405162461bcd60e51b815260206004820152601160248201527018db185a5b5cc81b9bdd081c185d5cd959607a1b6044820152606490fd5b50346104905780600319360112610490576020602d54604051908152f35b503461049057602036600319011261049057612d39604060209260043561398b6002548210614b9a565b81526001845220615450565b5034610490576139a6366148b4565b919290338552601360205260ff6040862054168015613b9a575b6139c990614d1f565b6139d16151d8565b6139da82615212565b6139e261510f565b6139ef6002548310614b9a565b81855260016020526040852093600285019360018060a01b03855460081c1690613a1a848484615855565b81611fa9613a76959493611f9a611f91600295611f8c6040516020810190600080516020615ecc83398151915282528660408201528960608201528d60808201528a60a08201528b60c082015260c08152611f8460e08261483b565b815491613a8960ff841661330d816147b8565b600984015462093a80810180911161123957421115613b5557817fe54e6e873934788882b1744fc124e31c635896db16279bfdfd45fd2953619cff600492613b0f602096857f0e2cac5abaf6079f335df5966f41306619912fc862e3a81138fc8f0af5faca3699015495869160ff19161780845560018060a01b039060081c1685615396565b5460405193845260081c6001600160a01b0316948593a3604051908152600080516020615eec83398151915260203392a46001600080516020615f0c8339815191525580f35b60405162461bcd60e51b815260206004820152601860248201527f6c6f636b2074696d656f7574206e6f7420656c617073656400000000000000006044820152606490fd5b503385526014602052604085205460ff166139c0565b50346104905760203660031901126104905760209060ff906040906001600160a01b03613bdb6147d8565b168152601c84522054166040519015158152f35b50346104905760403660031901126104905760ff6040602092613c106147f3565b60043582528480528282206001600160a01b03909116825284522054604051911615158152f35b5034610490576020366003190112610490576004353382526013602052613c6460ff604084205416614988565b613c7160285482106149c1565b8082526024602052613c9360ff600260408520610f9f60038201541515614a02565b8082526027602052613cac60ff60408420541615614c9c565b8082526026602052613cc360408320544211614cdc565b808252602760205260408220805460ff1916600117905533907f6e5c3c82c1e75af7548eba9cd2cb4b639f5b6762fec00ca5e0d902fbad351ebc8380a380f35b503461049057806003193601126104905760206040517f0e2cac5abaf6079f335df5966f41306619912fc862e3a81138fc8f0af5faca368152f35b50346104905760203660031901126104905760209060ff906040906001600160a01b03613d696147d8565b168152601384522054166040519015158152f35b503461049057806003193601126104905760206040516203f4808152f35b50346104905760203660031901126104905760406020916004358152600883522054604051908152f35b5034610490576020366003190112610490576040610180916004358152600160205220805490600181015490600281015460ff81169060018060a01b036003840154166004840154600585015490600686015492600787015494600888015496600a60098a0154990154996040519b8c5260208c0152613e44816147b8565b60408b015260081c6001600160a01b031660608a0152608089015260a088015260c087015260e0860152610100850152610120840152610140830152610160820152f35b503461049057602036600319011261049057600435613eb260018060a01b03600e54163314614bd8565b613ec360ff60105460a81c16614c12565b613ecb6151d8565b613ed481615212565b613edc61510f565b613ee96002548210614b9a565b8082526001602052613f1360408320613f0d600260ff8184015416612443816147b8565b8261525d565b7fd167c6447b5a0c8a6363468302e8f0e3af527e57ef18c48c15fa8a5971b0f4336020604051428152a26001600080516020615f0c8339815191525580f35b503461049057602036600319011261049057604060e0916004358152601f6020522060ff60018060a01b03825416916001810154908260028201541660038201549060056004840154930154936040519687526020870152151560408601526060850152608084015260018060a01b03811660a084015260a01c16151560c0820152f35b5034610490576020366003190112610490576004359060125482101561049057602061400183614787565b905460405160039290921b1c6001600160a01b03168152f35b50346104905780600319360112610490576011546040516001600160a01b039091168152602090f35b503461049057602036600319011261049057600435338252601360205261407060ff604084205416614988565b61407d6002548210614b9a565b808252600360205260ff6040832054166140d157808252600360205260408220805460ff1916600117905533907fb2ac383a7ff04bc439d14d72cf4869bc41ae353f474288c5ce3d0f74374268808380a380f35b60405162461bcd60e51b81526020600482015260146024820152731d1c98591948185b1c9958591e481c185d5cd95960621b6044820152606490fd5b5034610490578060031936011261049057338152601360205261413660ff604083205416614988565b60105460ff8160a01c1661417c5760ff60a01b1916600160a01b17601055337fb62d15b068fb54a6f9b91bc09d642314c90fe5262a9f0c4b646803af896af7928280a280f35b60405162461bcd60e51b815260206004820152601560248201527418db185a5b5cc8185b1c9958591e481c185d5cd959605a1b6044820152606490fd5b50346104905760203660031901126104905760043533825260136020526141e660ff604084205416614988565b6141ee6151d8565b6141f661510f565b614203600b5482106149c1565b808252600560205260026040832061422060048201541515614a02565b61423160ff60038301541615614a4e565b828452600a60205261424a60ff60408620541615614a8d565b82845260096020526142626040852054421115614ace565b61428d600360ff848454808952600160205261428160408a2091615212565b015416610713816147b8565b8284526006602090815260408086203387529091528420546142b29060ff1615614b4c565b8284526006602090815260408086203387529091528420805460ff191660011790550180549091906142e390614b8b565b8092556015548092604051818152826020820152837f14e1b3091f09f49236e90d7a9826aa647e37c8b8600adc8a5935ee0c179e2de160403393a3101561433b575b826001600080516020615f0c8339815191525580f35b8083526005602052604083206003810161439b81549461435e60ff871615614a4e565b848752600a60205261437760ff60408920541615614a8d565b848752600960205261438f6040882054421115614ace565b60028401541015615089565b81548552600160205260408520906002820194600360ff8754166143be816147b8565b0361457e5760019060ff1916179055600460ff198554161784558154855260076020526040852060ff19815416905581548552600860205284604081205581548552600c602052846040812055600881015493600183019160ff835416600281101561213f57806144ca5750509160ff94846020937fafdf3220f58fe501f1c7cff54df532523ba92e302d4b17d7bb8c30b9e4e906b360407f367ef6da4bd64313a89876ecb2e42b4be35f68f378625be0d78dcd15eba27dd09760018060a01b03905460081c16956144928688835461532f565b54998a9354169581519586526144aa8887018861490d565b6001600160a01b031694a46144c2604051809261490d565ba33880614325565b909391506001036145405760ff94846020937fafdf3220f58fe501f1c7cff54df532523ba92e302d4b17d7bb8c30b9e4e906b360407f367ef6da4bd64313a89876ecb2e42b4be35f68f378625be0d78dcd15eba27dd097600360018060a01b03910154169561453b868883546155c2565b614492565b60405162461bcd60e51b8152602060048201526016602482015275696e76616c696420646973707574652073746174757360501b6044820152606490fd5b60405162461bcd60e51b81526020600482015260146024820152733a3930b2329036bab9ba10313290232927ad22a760611b6044820152606490fd5b905034614783578160031936011261478357600f546001600160a01b03163314801561476d575b15614732575060ff60105460a01c166146fd576145fc61510f565b600f546001600160a01b03168082526016602052604082205480156146b8576010546001600160a01b03169161463383151561491a565b8352601660205282604081205561464c81601754614965565b60175560115461466890829084906001600160a01b031661514b565b7fe67c643fa26ff85bbee9ac87fc706274fc81cf4ab3711712c8822eedba5a2306604060018060a01b03600f5416928151908152336020820152a36001600080516020615f0c8339815191525580f35b60405162461bcd60e51b815260206004820152601a60248201527f6e6f7468696e6720747265617375727920636c61696d61626c650000000000006044820152606490fd5b60405162461bcd60e51b815260206004820152600d60248201526c18db185a5b5cc81c185d5cd959609a1b6044820152606490fd5b62461bcd60e51b815260206004820152601660248201527537b7363c903a3932b0b9bab93c9037b91030b236b4b760511b6044820152606490fd5b50338252601360205260ff6040832054166145e1565b5080fd5b6012548110156147a257601260005260206000200190600090565b634e487b7160e01b600052603260045260246000fd5b600511156147c257565b634e487b7160e01b600052602160045260246000fd5b600435906001600160a01b03821682036147ee57565b600080fd5b602435906001600160a01b03821682036147ee57565b60c0810190811067ffffffffffffffff82111761482557604052565b634e487b7160e01b600052604160045260246000fd5b90601f8019910116810190811067ffffffffffffffff82111761482557604052565b81601f820112156147ee5780359067ffffffffffffffff82116148255760405192614892601f8401601f19166020018561483b565b828452602083830101116147ee57816000926020809301838601378301015290565b9060806003198301126147ee576004359160243591604435916064359067ffffffffffffffff82116147ee576148ec9160040161485d565b90565b346147ee5760003660031901126147ee57602060405162093a808152f35b9060028210156147c25752565b1561492157565b606460405162461bcd60e51b815260206004820152602060248201527f696e76616c6964207472656173757279207061796f75742072656365697665726044820152fd5b9190820391821161497257565b634e487b7160e01b600052601160045260246000fd5b1561498f57565b60405162461bcd60e51b815260206004820152600a60248201526937b7363c9030b236b4b760b11b6044820152606490fd5b156149c857565b60405162461bcd60e51b81526020600482015260126024820152711c1c9bdc1bdcd85b081b9bdd08199bdd5b9960721b6044820152606490fd5b15614a0957565b60405162461bcd60e51b815260206004820152601860248201527f70726f706f73616c206e6f7420696e697469616c697a656400000000000000006044820152606490fd5b15614a5557565b60405162461bcd60e51b815260206004820152601060248201526f185b1c9958591e48195e1958dd5d195960821b6044820152606490fd5b15614a9457565b60405162461bcd60e51b81526020600482015260126024820152711c1c9bdc1bdcd85b0818d85b98d95b1b195960721b6044820152606490fd5b15614ad557565b60405162461bcd60e51b815260206004820152601060248201526f1c1c9bdc1bdcd85b08195e1c1a5c995960821b6044820152606490fd5b15614b1457565b60405162461bcd60e51b815260206004820152601060248201526f3a3930b232903737ba10333937bd32b760811b6044820152606490fd5b15614b5357565b60405162461bcd60e51b815260206004820152601060248201526f185b1c9958591e48185c1c1c9bdd995960821b6044820152606490fd5b60001981146149725760010190565b15614ba157565b60405162461bcd60e51b815260206004820152600f60248201526e1d1c985919481b9bdd08199bdd5b99608a1b6044820152606490fd5b15614bdf57565b60405162461bcd60e51b815260206004820152600b60248201526a6f6e6c79206f7261636c6560a81b6044820152606490fd5b15614c1957565b60405162461bcd60e51b815260206004820152600f60248201526e1bdc9858db1948191a5cd8589b1959608a1b6044820152606490fd5b15614c5757565b60405162461bcd60e51b815260206004820152601960248201527f6d757374206265204152524956414c5f434f4e4649524d4544000000000000006044820152606490fd5b15614ca357565b60405162461bcd60e51b8152602060048201526011602482015270185b1c9958591e4818d85b98d95b1b1959607a1b6044820152606490fd5b15614ce357565b60405162461bcd60e51b81526020600482015260146024820152731c1c9bdc1bdcd85b081b9bdd08195e1c1a5c995960621b6044820152606490fd5b15614d2657565b60405162461bcd60e51b815260206004820152601560248201527437b7363c903932b630bcb2b91037b91030b236b4b760591b6044820152606490fd5b15614d6a57565b60405162461bcd60e51b81526020600482015260156024820152741cdd185d1d5cc81b5d5cdd081899481313d0d2d151605a1b6044820152606490fd5b9190820180921161497257565b15614dbb57565b60405162461bcd60e51b815260206004820152600a6024820152691b9bdd081c185d5cd95960b21b6044820152606490fd5b15614df457565b60405162461bcd60e51b81526020600482015260126024820152711b9bc81858dd1a5d99481c1c9bdc1bdcd85b60721b6044820152606490fd5b614e3b6002548210614b9a565b806000526001602052600a604060002001548015614e7f576148ec91600052600d6020526040600020548015600014614e7957506203f48090614da7565b90614da7565b60405162461bcd60e51b815260206004820152601860248201527f696e7370656374696f6e206e6f7420617661696c61626c6500000000000000006044820152606490fd5b15614ecb57565b60405162461bcd60e51b815260206004820152600d60248201526c34b73b30b634b21030b236b4b760991b6044820152606490fd5b15614f0757565b60405162461bcd60e51b815260206004820152600d60248201526c30b63932b0b23c9030b236b4b760991b6044820152606490fd5b15614f4357565b60405162461bcd60e51b8152602060048201526013602482015272696e73756666696369656e742061646d696e7360681b6044820152606490fd5b815181546001600160a01b039091166001600160a01b031990911617815560208201516001820155604082015160028201805460ff191691151560ff1691909117905590600590606081015160038401556080810151600484015560a00151910180546001600160a01b0319166001600160a01b0392909216919091179055565b1561500657565b60405162461bcd60e51b815260206004820152600f60248201526e185c9c9a5d985b081b9bdd081cd95d608a1b6044820152606490fd5b1561504457565b60405162461bcd60e51b815260206004820152601960248201527f737461747573206d75737420626520494e5f5452414e534954000000000000006044820152606490fd5b1561509057565b60405162461bcd60e51b81526020600482015260146024820152736e6f7420656e6f75676820617070726f76616c7360601b6044820152606490fd5b156150d357565b60405162461bcd60e51b81526020600482015260146024820152731d1a5b595b1bd8dac81b9bdd08195b185c1cd95960621b6044820152606490fd5b6002600080516020615f0c833981519152541461513a576002600080516020615f0c83398151915255565b633ee5aeb560e01b60005260046000fd5b60405163a9059cbb60e01b60009081526001600160a01b03909316600452602493909352919060209060448180865af1906001600051148216156151b6575b604052156151955750565b635274afe760e01b60009081526001600160a01b0391909116600452602490fd5b9060018115166151ce57823b15153d1516169061518a565b503d6000823e3d90fd5b60ff600054166151e457565b60405162461bcd60e51b81526020600482015260066024820152651c185d5cd95960d21b6044820152606490fd5b600052600360205260ff6040600020541661522957565b60405162461bcd60e51b815260206004820152600c60248201526b1d1c985919481c185d5cd95960a21b6044820152606490fd5b60028201600460ff1982541617905580600052600c602052600060408120557f525d8c9a3bdfd74e1b0f3f79ccf0ef47d77d261e27396b35539f75e5d40861066020600384016152be600860018060a01b038354169601958654908661567c565b5493546040519081526001600160a01b0390941693a3565b156152dd57565b60405162461bcd60e51b81526020600482015260116024820152703130b21030baba3437b934bd30ba34b7b760791b6044820152606490fd5b9081526040810192919060088210156147c25760200152565b91909181156153915760115461535190839085906001600160a01b031661514b565b7ffb71e31697d4a6aaae1d166334aa8c7428a349389bcc95579d54fb95535edf766040518061538c6006339760018060a01b03169683615316565b0390a4565b505050565b9190918115615391576011546153b890839085906001600160a01b031661514b565b7ffb71e31697d4a6aaae1d166334aa8c7428a349389bcc95579d54fb95535edf766040518061538c6004339760018060a01b03169683615316565b91909181156153915760115461541590839085906001600160a01b031661514b565b7ffb71e31697d4a6aaae1d166334aa8c7428a349389bcc95579d54fb95535edf766040518061538c6005339760018060a01b03169683615316565b60ff600282015416615461816147b8565b80156154be57615470816147b8565b600181149081156154a9575b8115615495575b5061548e5750600090565b6008015490565b600391506154a2816147b8565b1438615483565b90506154b4816147b8565b600281149061547c565b506004015490565b604051906012548083528260208101601260005260206000209260005b8181106154fa5750506154f89250038361483b565b565b84546001600160a01b03168352600194850194879450602090930192016154e3565b80518210156147a25760209160051b010190565b61553d6002548210614b9a565b8060005260016020526040600020615560600260ff8184015416612443816147b8565b61556f600a8201541515614fff565b61557882614e2e565b421115615588576154f89161525d565b60405162461bcd60e51b81526020600482015260126024820152711dda5b991bddc81b9bdd08195b185c1cd95960721b6044820152606490fd5b9190918115615391576011546155e490839085906001600160a01b031661514b565b7feda30a0d8ec5ade5ca4d49054f410ef255c797498d31d9cc9dd928c12c87e79b6040518061538c6007339760018060a01b03169683615316565b91909181156153915760115461564190839085906001600160a01b031661514b565b7feda30a0d8ec5ade5ca4d49054f410ef255c797498d31d9cc9dd928c12c87e79b6040518061538c6000339760018060a01b03169683615316565b91909181156153915760115461569e90839085906001600160a01b031661514b565b7feda30a0d8ec5ade5ca4d49054f410ef255c797498d31d9cc9dd928c12c87e79b6040518061538c6003339760018060a01b03169683615316565b9082156153915760017fb6abcb523a11175bda4306d957cda75287b3d848b084a70d85fe099f51bc7f8991818060a01b0316938460005260166020526040600020615725828254614da7565b905561573381601754614da7565b60175561574560405192839283615316565b0390a3565b9082156153915760027fb6abcb523a11175bda4306d957cda75287b3d848b084a70d85fe099f51bc7f899160018060a01b0316938460005260166020526040600020615725828254614da7565b60ff6002820154166157a8816147b8565b156157c15780600660056148ec93015491015490614da7565b50600090565b6157cf6154c6565b60005b815181101561580d576001906001600160a01b036157f0828561551c565b5116600052601c602052604060002060ff198154169055016157d2565b505060ff19601d5416601d55600060185560006019556000601a556000601b55337fc79764e56dcfddc1a2135f80cf347dd741f7c7f914a134142b5d336e156d3bd0600080a2565b90916001600160a01b039091169081156159065742116158c95760005260046020526040600020540361588457565b60405162461bcd60e51b815260206004820152601760248201527f62616420617574686f72697a6174696f6e206e6f6e63650000000000000000006044820152606490fd5b60405162461bcd60e51b8152602060048201526015602482015274185d5d1a1bdc9a5e985d1a5bdb88195e1c1a5c9959605a1b6044820152606490fd5b60405162461bcd60e51b815260206004820152600c60248201526b34b73b30b634b2103ab9b2b960a11b6044820152606490fd5b604051602081019161190160f01b83527f0000000000000000000000000000000000000000000000000000000000000000602283015260428201526042815261598460628261483b565b51902090565b9291926001840191828511614972576159ba9160018060a01b031692836000526004602052604060002055615a9c565b9160405193845260208401527f6ac709e2093c74d3ce56616ef76760c53ae0bf401457fb868a84e66636d3678360403394a4565b8151919060418303615a1f57615a1892506020820151906060604084015193015160001a90615e36565b9192909190565b505060009160029190565b91909160048110156147c25780615a4057509050565b600060018203615a5b5763f645eedf60e01b60005260046000fd5b5060028103615a79578263fce698f760e01b60005260045260246000fd5b9091600360009214615a89575050565b6335e2f38360e21b825260045260249150fd5b615aa5816147b8565b8015615bbc57615ab4816147b8565b60018114615b9757615ac5816147b8565b60028114615b7257615ad6816147b8565b60038114615b4d57600490615aea816147b8565b14615b295760405162461bcd60e51b81526020600482015260126024820152713ab739bab83837b93a32b21030b1ba34b7b760711b6044820152606490fd5b7fa6115baa0e39b3877020da94fe30135520d27e0cb11c198edac119231d452a5790565b507f57f680ee8ca7390570646e9ba27d0a0f0e281e2565cbb092822584197106619690565b507f0e2cac5abaf6079f335df5966f41306619912fc862e3a81138fc8f0af5faca3690565b507f9d6f89df1fd95e20d56ed05e08fe9519ff6a2496090b77bfb70c8f64c21c238990565b507f642bc978b352e60185507106148c2e8af9b88eeaeec91883eebdc673e6add83f90565b9060006000196127108409612710840291828083109203918083039214615c5c57816126de1115615c4a57506126de6127107fd370201bfe25c507aac96760b030935fa8ba7b30518222aea5623b61b7a6ab8f94950990828211900360ff1b910360011c170290565b634e487b71905260116020526024601cfd5b50506126de90049150565b906000600019606484096064840291828083109203918083039214615ccd57816127101115615c4a575061271060647fbc01a36e2eb1c432ca57a786c226809d495182a9930be0ded288ce703afb7e9194950990828211900360fc1b910360041c170290565b505061271090049150565b906000600019603284096032840291828083109203918083039214615ccd57816127101115615c4a575061271060327fbc01a36e2eb1c432ca57a786c226809d495182a9930be0ded288ce703afb7e9194950990828211900360fc1b910360041c170290565b9060006000196117708409611770840291828083109203918083039214615ccd57816127101115615c4a57506127106117707fbc01a36e2eb1c432ca57a786c226809d495182a9930be0ded288ce703afb7e9194950990828211900360fc1b910360041c170290565b909192615db382615c67565b90615dbd83615cd8565b92615dc781615d3e565b90848210159687615e21575b5086615e0b575b50505083615de9575b50505090565b615df4929350614da7565b90623d090082018092116149725714388080615de3565b615e1792939650614965565b1492388080615dda565b909650615e2e8583614965565b149538615dd3565b91907f7fffffffffffffffffffffffffffffff5d576e7357a4501ddfe92f46681b20a08411615ebf579160209360809260ff60009560405194855216868401526040830152606082015282805260015afa15615eb3576000516001600160a01b03811615615ea75790600090600090565b50600090600190600090565b6040513d6000823e3d90fd5b5050506000916003919056fe1aeed6c1f2a5ee88498ce328b743baceb98beee0e74dc04aa13d1b44e5d341cfeff4a09a9216c5817ca15a500171a637ee0c8122db87aee65985697823e1beb29b779b17422d0df92223018b32b4d1fa46e071723d6817e2486d003becc55f00a2646970667358221220ec4e2dcc81efcf132aeb1a8f1d3f1d0b65904be89a8a2cf2533dece0b2ea970e64736f6c63430008220033",
  "linkReferences": {},
  "deployedLinkReferences": {}
}