{
  "_format": "hh-sol-artifact-1",
  "contractName": "AgroasysEscrow",
  "sourceName": "src/AgroasysEscrow.sol",
  "abi": [
    {
      "inputs": [
        {
          "internalType": "address",
          "name": "_usdcToken",
          "type": "address"
        },
        {
          "internalType": "address",
          "name": "_oracleAddress",
          "type": "address"
        },
        {
          "internalType": "address",
          "name": "_treasuryAddress",
          "type": "address"
        },
        {
          "internalType": "address[]",
          "name": "_admins",
          "type": "address[]"
        },
        {
          "internalType": "uint256",
          "name": "_requiredApprovals",
          "type": "uint256"
        }
      ],
      "stateMutability": "nonpayable",
      "type": "constructor"
    },
    {
      "inputs": [],
      "name": "ECDSAInvalidSignature",
      "type": "error"
    },
    {
      "inputs": [
        {
          "internalType": "uint256",
          "name": "length",
          "type": "uint256"
        }
      ],
      "name": "ECDSAInvalidSignatureLength",
      "type": "error"
    },
    {
      "inputs": [
        {
          "internalType": "bytes32",
          "name": "s",
          "type": "bytes32"
        }
      ],
      "name": "ECDSAInvalidSignatureS",
      "type": "error"
    },
    {
      "inputs": [],
      "name": "EnforcedPause",
      "type": "error"
    },
    {
      "inputs": [],
      "name": "ExpectedPause",
      "type": "error"
    },
    {
      "inputs": [],
      "name": "ReentrancyGuardReentrantCall",
      "type": "error"
    },
    {
      "inputs": [
        {
          "internalType": "address",
          "name": "token",
          "type": "address"
        }
      ],
      "name": "SafeERC20FailedOperation",
      "type": "error"
    },
    {
      "anonymous": false,
      "inputs": [
        {
          "indexed": true,
          "internalType": "uint256",
          "name": "proposalId",
          "type": "uint256"
        },
        {
          "indexed": true,
          "internalType": "address",
          "name": "approver",
          "type": "address"
        },
        {
          "indexed": false,
          "internalType": "uint256",
          "name": "approvalCount",
          "type": "uint256"
        },
        {
          "indexed": false,
          "internalType": "uint256",
          "name": "requiredApprovals",
          "type": "uint256"
        }
      ],
      "name": "AdminAddApproved",
      "type": "event"
    },
    {
      "anonymous": false,
      "inputs": [
        {
          "indexed": true,
          "internalType": "uint256",
          "name": "proposalId",
          "type": "uint256"
        },
        {
          "indexed": true,
          "internalType": "address",
          "name": "cancelledBy",
          "type": "address"
        }
      ],
      "name": "AdminAddProposalExpiredCancelled",
      "type": "event"
    },
    {
      "anonymous": false,
      "inputs": [
        {
          "indexed": true,
          "internalType": "uint256",
          "name": "proposalId",
          "type": "uint256"
        },
        {
          "indexed": true,
          "internalType": "address",
          "name": "proposer",
          "type": "address"
        },
        {
          "indexed": true,
          "internalType": "address",
          "name": "newAdmin",
          "type": "address"
        },
        {
          "indexed": false,
          "internalType": "uint256",
          "name": "eta",
          "type": "uint256"
        }
      ],
      "name": "AdminAddProposed",
      "type": "event"
    },
    {
      "anonymous": false,
      "inputs": [
        {
          "indexed": true,
          "internalType": "address",
          "name": "newAdmin",
          "type": "address"
        }
      ],
      "name": "AdminAdded",
      "type": "event"
    },
    {
      "anonymous": false,
      "inputs": [
        {
          "indexed": true,
          "internalType": "uint256",
          "name": "tradeId",
          "type": "uint256"
        },
        {
          "indexed": false,
          "internalType": "uint256",
          "name": "arrivalTimestamp",
          "type": "uint256"
        }
      ],
      "name": "ArrivalConfirmed",
      "type": "event"
    },
    {
      "anonymous": false,
      "inputs": [
        {
          "indexed": true,
          "internalType": "uint256",
          "name": "tradeId",
          "type": "uint256"
        },
        {
          "indexed": true,
          "internalType": "address",
          "name": "recipient",
          "type": "address"
        },
        {
          "indexed": false,
          "internalType": "uint256",
          "name": "amount",
          "type": "uint256"
        },
        {
          "indexed": false,
          "internalType": "enum AgroasysEscrow.ClaimType",
          "name": "claimType",
          "type": "uint8"
        }
      ],
      "name": "ClaimableAccrued",
      "type": "event"
    },
    {
      "anonymous": false,
      "inputs": [
        {
          "indexed": true,
          "internalType": "address",
          "name": "claimant",
          "type": "address"
        },
        {
          "indexed": false,
          "internalType": "uint256",
          "name": "amount",
          "type": "uint256"
        }
      ],
      "name": "Claimed",
      "type": "event"
    },
    {
      "anonymous": false,
      "inputs": [
        {
          "indexed": true,
          "internalType": "address",
          "name": "triggeredBy",
          "type": "address"
        }
      ],
      "name": "ClaimsPaused",
      "type": "event"
    },
    {
      "anonymous": false,
      "inputs": [
        {
          "indexed": true,
          "internalType": "address",
          "name": "triggeredBy",
          "type": "address"
        }
      ],
      "name": "ClaimsUnpaused",
      "type": "event"
    },
    {
      "anonymous": false,
      "inputs": [
        {
          "indexed": true,
          "internalType": "uint256",
          "name": "proposalId",
          "type": "uint256"
        },
        {
          "indexed": true,
          "internalType": "address",
          "name": "approver",
          "type": "address"
        },
        {
          "indexed": false,
          "internalType": "uint256",
          "name": "approvalCount",
          "type": "uint256"
        },
        {
          "indexed": false,
          "internalType": "uint256",
          "name": "requiredApprovals",
          "type": "uint256"
        }
      ],
      "name": "DisputeApproved",
      "type": "event"
    },
    {
      "anonymous": false,
      "inputs": [
        {
          "indexed": true,
          "internalType": "uint256",
          "name": "proposalId",
          "type": "uint256"
        },
        {
          "indexed": true,
          "internalType": "uint256",
          "name": "tradeId",
          "type": "uint256"
        },
        {
          "indexed": false,
          "internalType": "enum AgroasysEscrow.DisputeStatus",
          "name": "disputeStatus",
          "type": "uint8"
        }
      ],
      "name": "DisputeFinalized",
      "type": "event"
    },
    {
      "anonymous": false,
      "inputs": [
        {
          "indexed": true,
          "internalType": "uint256",
          "name": "tradeId",
          "type": "uint256"
        }
      ],
      "name": "DisputeOpenedByBuyer",
      "type": "event"
    },
    {
      "anonymous": false,
      "inputs": [
        {
          "indexed": true,
          "internalType": "uint256",
          "name": "tradeId",
          "type": "uint256"
        },
        {
          "indexed": true,
          "internalType": "uint256",
          "name": "proposalId",
          "type": "uint256"
        },
        {
          "indexed": true,
          "internalType": "address",
          "name": "recipient",
          "type": "address"
        },
        {
          "indexed": false,
          "internalType": "uint256",
          "name": "amount",
          "type": "uint256"
        },
        {
          "indexed": false,
          "internalType": "enum AgroasysEscrow.DisputeStatus",
          "name": "payoutType",
          "type": "uint8"
        }
      ],
      "name": "DisputePayout",
      "type": "event"
    },
    {
      "anonymous": false,
      "inputs": [
        {
          "indexed": true,
          "internalType": "uint256",
          "name": "proposalId",
          "type": "uint256"
        },
        {
          "indexed": true,
          "internalType": "uint256",
          "name": "tradeId",
          "type": "uint256"
        },
        {
          "indexed": true,
          "internalType": "address",
          "name": "cancelledBy",
          "type": "address"
        }
      ],
      "name": "DisputeProposalExpiredCancelled",
      "type": "event"
    },
    {
      "anonymous": false,
      "inputs": [
        {
          "indexed": true,
          "internalType": "uint256",
          "name": "proposalId",
          "type": "uint256"
        },
        {
          "indexed": true,
          "internalType": "uint256",
          "name": "tradeId",
          "type": "uint256"
        },
        {
          "indexed": false,
          "internalType": "enum AgroasysEscrow.DisputeStatus",
          "name": "disputeStatus",
          "type": "uint8"
        },
        {
          "indexed": true,
          "internalType": "address",
          "name": "proposer",
          "type": "address"
        }
      ],
      "name": "DisputeSolutionProposed",
      "type": "event"
    },
    {
      "anonymous": false,
      "inputs": [
        {
          "indexed": true,
          "internalType": "uint256",
          "name": "tradeId",
          "type": "uint256"
        },
        {
          "indexed": true,
          "internalType": "address",
          "name": "supplier",
          "type": "address"
        },
        {
          "indexed": false,
          "internalType": "uint256",
          "name": "supplierSecondTranche",
          "type": "uint256"
        }
      ],
      "name": "FinalTrancheReleased",
      "type": "event"
    },
    {
      "anonymous": false,
      "inputs": [
        {
          "indexed": true,
          "internalType": "uint256",
          "name": "tradeId",
          "type": "uint256"
        },
        {
          "indexed": true,
          "internalType": "address",
          "name": "supplier",
          "type": "address"
        },
        {
          "indexed": false,
          "internalType": "uint256",
          "name": "supplierFirstTranche",
          "type": "uint256"
        },
        {
          "indexed": true,
          "internalType": "address",
          "name": "treasury",
          "type": "address"
        },
        {
          "indexed": false,
          "internalType": "uint256",
          "name": "logisticsAmount",
          "type": "uint256"
        }
      ],
      "name": "FundsReleasedStage1",
      "type": "event"
    },
    {
      "anonymous": false,
      "inputs": [
        {
          "indexed": true,
          "internalType": "uint256",
          "name": "tradeId",
          "type": "uint256"
        },
        {
          "indexed": true,
          "internalType": "address",
          "name": "supplier",
          "type": "address"
        },
        {
          "indexed": false,
          "internalType": "uint256",
          "name": "supplierSecondTranche",
          "type": "uint256"
        },
        {
          "indexed": true,
          "internalType": "address",
          "name": "treasury",
          "type": "address"
        },
        {
          "indexed": false,
          "internalType": "uint256",
          "name": "platformFeesAmount",
          "type": "uint256"
        }
      ],
      "name": "FundsReleasedStage2",
      "type": "event"
    },
    {
      "anonymous": false,
      "inputs": [
        {
          "indexed": true,
          "internalType": "uint256",
          "name": "tradeId",
          "type": "uint256"
        },
        {
          "indexed": true,
          "internalType": "address",
          "name": "buyer",
          "type": "address"
        },
        {
          "indexed": false,
          "internalType": "uint256",
          "name": "refundedAmount",
          "type": "uint256"
        }
      ],
      "name": "InTransitTimeoutRefunded",
      "type": "event"
    },
    {
      "anonymous": false,
      "inputs": [
        {
          "indexed": true,
          "internalType": "address",
          "name": "by",
          "type": "address"
        },
        {
          "indexed": true,
          "internalType": "address",
          "name": "previousOracle",
          "type": "address"
        }
      ],
      "name": "OracleDisabledEmergency",
      "type": "event"
    },
    {
      "anonymous": false,
      "inputs": [
        {
          "indexed": true,
          "internalType": "uint256",
          "name": "proposalId",
          "type": "uint256"
        },
        {
          "indexed": true,
          "internalType": "address",
          "name": "approver",
          "type": "address"
        },
        {
          "indexed": false,
          "internalType": "uint256",
          "name": "approvalCount",
          "type": "uint256"
        },
        {
          "indexed": false,
          "internalType": "uint256",
          "name": "requiredApprovals",
          "type": "uint256"
        }
      ],
      "name": "OracleUpdateApproved",
      "type": "event"
    },
    {
      "anonymous": false,
      "inputs": [
        {
          "indexed": true,
          "internalType": "uint256",
          "name": "proposalId",
          "type": "uint256"
        },
        {
          "indexed": true,
          "internalType": "address",
          "name": "cancelledBy",
          "type": "address"
        }
      ],
      "name": "OracleUpdateProposalExpiredCancelled",
      "type": "event"
    },
    {
      "anonymous": false,
      "inputs": [
        {
          "indexed": true,
          "internalType": "uint256",
          "name": "proposalId",
          "type": "uint256"
        },
        {
          "indexed": true,
          "internalType": "address",
          "name": "proposer",
          "type": "address"
        },
        {
          "indexed": true,
          "internalType": "address",
          "name": "newOracle",
          "type": "address"
        },
        {
          "indexed": false,
          "internalType": "uint256",
          "name": "eta",
          "type": "uint256"
        },
        {
          "indexed": false,
          "internalType": "bool",
          "name": "emergencyFastTrack",
          "type": "bool"
        }
      ],
      "name": "OracleUpdateProposed",
      "type": "event"
    },
    {
      "anonymous": false,
      "inputs": [
        {
          "indexed": true,
          "internalType": "address",
          "name": "oldOracle",
          "type": "address"
        },
        {
          "indexed": true,
          "internalType": "address",
          "name": "newOracle",
          "type": "address"
        }
      ],
      "name": "OracleUpdated",
      "type": "event"
    },
    {
      "anonymous": false,
      "inputs": [
        {
          "indexed": false,
          "internalType": "address",
          "name": "account",
          "type": "address"
        }
      ],
      "name": "Paused",
      "type": "event"
    },
    {
      "anonymous": false,
      "inputs": [
        {
          "indexed": true,
          "internalType": "uint256",
          "name": "tradeId",
          "type": "uint256"
        },
        {
          "indexed": true,
          "internalType": "address",
          "name": "treasury",
          "type": "address"
        },
        {
          "indexed": false,
          "internalType": "uint256",
          "name": "platformFeesAmount",
          "type": "uint256"
        }
      ],
      "name": "PlatformFeesPaidStage1",
      "type": "event"
    },
    {
      "anonymous": false,
      "inputs": [
        {
          "indexed": true,
          "internalType": "uint256",
          "name": "tradeId",
          "type": "uint256"
        },
        {
          "indexed": true,
          "internalType": "address",
          "name": "buyer",
          "type": "address"
        },
        {
          "indexed": false,
          "internalType": "uint256",
          "name": "refundedAmount",
          "type": "uint256"
        }
      ],
      "name": "TradeCancelledAfterLockTimeout",
      "type": "event"
    },
    {
      "anonymous": false,
      "inputs": [
        {
          "indexed": true,
          "internalType": "uint256",
          "name": "tradeId",
          "type": "uint256"
        },
        {
          "indexed": true,
          "internalType": "address",
          "name": "buyer",
          "type": "address"
        },
        {
          "indexed": true,
          "internalType": "address",
          "name": "supplier",
          "type": "address"
        },
        {
          "indexed": false,
          "internalType": "uint256",
          "name": "totalAmount",
          "type": "uint256"
        },
        {
          "indexed": false,
          "internalType": "uint256",
          "name": "logisticsAmount",
          "type": "uint256"
        },
        {
          "indexed": false,
          "internalType": "uint256",
          "name": "platformFeesAmount",
          "type": "uint256"
        },
        {
          "indexed": false,
          "internalType": "uint256",
          "name": "supplierFirstTranche",
          "type": "uint256"
        },
        {
          "indexed": false,
          "internalType": "uint256",
          "name": "supplierSecondTranche",
          "type": "uint256"
        },
        {
          "indexed": false,
          "internalType": "bytes32",
          "name": "ricardianHash",
          "type": "bytes32"
        }
      ],
      "name": "TradeLocked",
      "type": "event"
    },
    {
      "anonymous": false,
      "inputs": [
        {
          "indexed": true,
          "internalType": "address",
          "name": "treasuryIdentity",
          "type": "address"
        },
        {
          "indexed": true,
          "internalType": "address",
          "name": "payoutReceiver",
          "type": "address"
        },
        {
          "indexed": false,
          "internalType": "uint256",
          "name": "amount",
          "type": "uint256"
        },
        {
          "indexed": false,
          "internalType": "address",
          "name": "triggeredBy",
          "type": "address"
        }
      ],
      "name": "TreasuryClaimed",
      "type": "event"
    },
    {
      "anonymous": false,
      "inputs": [
        {
          "indexed": true,
          "internalType": "uint256",
          "name": "proposalId",
          "type": "uint256"
        },
        {
          "indexed": true,
          "internalType": "address",
          "name": "approver",
          "type": "address"
        },
        {
          "indexed": false,
          "internalType": "uint256",
          "name": "approvalCount",
          "type": "uint256"
        },
        {
          "indexed": false,
          "internalType": "uint256",
          "name": "requiredApprovals",
          "type": "uint256"
        }
      ],
      "name": "TreasuryPayoutAddressUpdateApproved",
      "type": "event"
    },
    {
      "anonymous": false,
      "inputs": [
        {
          "indexed": true,
          "internalType": "uint256",
          "name": "proposalId",
          "type": "uint256"
        },
        {
          "indexed": true,
          "internalType": "address",
          "name": "cancelledBy",
          "type": "address"
        }
      ],
      "name": "TreasuryPayoutAddressUpdateProposalExpiredCancelled",
      "type": "event"
    },
    {
      "anonymous": false,
      "inputs": [
        {
          "indexed": true,
          "internalType": "uint256",
          "name": "proposalId",
          "type": "uint256"
        },
        {
          "indexed": true,
          "internalType": "address",
          "name": "proposer",
          "type": "address"
        },
        {
          "indexed": true,
          "internalType": "address",
          "name": "newPayoutReceiver",
          "type": "address"
        },
        {
          "indexed": false,
          "internalType": "uint256",
          "name": "eta",
          "type": "uint256"
        }
      ],
      "name": "TreasuryPayoutAddressUpdateProposed",
      "type": "event"
    },
    {
      "anonymous": false,
      "inputs": [
        {
          "indexed": true,
          "internalType": "address",
          "name": "oldPayoutReceiver",
          "type": "address"
        },
        {
          "indexed": true,
          "internalType": "address",
          "name": "newPayoutReceiver",
          "type": "address"
        }
      ],
      "name": "TreasuryPayoutAddressUpdated",
      "type": "event"
    },
    {
      "anonymous": false,
      "inputs": [
        {
          "indexed": true,
          "internalType": "address",
          "name": "approver",
          "type": "address"
        },
        {
          "indexed": false,
          "internalType": "uint256",
          "name": "approvalCount",
          "type": "uint256"
        },
        {
          "indexed": false,
          "internalType": "uint256",
          "name": "requiredApprovals",
          "type": "uint256"
        }
      ],
      "name": "UnpauseApproved",
      "type": "event"
    },
    {
      "anonymous": false,
      "inputs": [
        {
          "indexed": true,
          "internalType": "address",
          "name": "cancelledBy",
          "type": "address"
        }
      ],
      "name": "UnpauseProposalCancelled",
      "type": "event"
    },
    {
      "anonymous": false,
      "inputs": [
        {
          "indexed": true,
          "internalType": "address",
          "name": "proposer",
          "type": "address"
        }
      ],
      "name": "UnpauseProposed",
      "type": "event"
    },
    {
      "anonymous": false,
      "inputs": [
        {
          "indexed": false,
          "internalType": "address",
          "name": "account",
          "type": "address"
        }
      ],
      "name": "Unpaused",
      "type": "event"
    },
    {
      "inputs": [],
      "name": "DISPUTE_PROPOSAL_TTL",
      "outputs": [
        {
          "internalType": "uint256",
          "name": "",
          "type": "uint256"
        }
      ],
      "stateMutability": "view",
      "type": "function"
    },
    {
      "inputs": [],
      "name": "DISPUTE_WINDOW",
      "outputs": [
        {
          "internalType": "uint256",
          "name": "",
          "type": "uint256"
        }
      ],
      "stateMutability": "view",
      "type": "function"
    },
    {
      "inputs": [],
      "name": "GOVERNANCE_PROPOSAL_TTL",
      "outputs": [
        {
          "internalType": "uint256",
          "name": "",
          "type": "uint256"
        }
      ],
      "stateMutability": "view",
      "type": "function"
    },
    {
      "inputs": [],
      "name": "IN_TRANSIT_TIMEOUT",
      "outputs": [
        {
          "internalType": "uint256",
          "name": "",
          "type": "uint256"
        }
      ],
      "stateMutability": "view",
      "type": "function"
    },
    {
      "inputs": [],
      "name": "LOCK_TIMEOUT",
      "outputs": [
        {
          "internalType": "uint256",
          "name": "",
          "type": "uint256"
        }
      ],
      "stateMutability": "view",
      "type": "function"
    },
    {
      "inputs": [],
      "name": "adminAddCounter",
      "outputs": [
        {
          "internalType": "uint256",
          "name": "",
          "type": "uint256"
        }
      ],
      "stateMutability": "view",
      "type": "function"
    },
    {
      "inputs": [
        {
          "internalType": "uint256",
          "name": "",
          "type": "uint256"
        },
        {
          "internalType": "address",
          "name": "",
          "type": "address"
        }
      ],
      "name": "adminAddHasApproved",
      "outputs": [
        {
          "internalType": "bool",
          "name": "",
          "type": "bool"
        }
      ],
      "stateMutability": "view",
      "type": "function"
    },
    {
      "inputs": [
        {
          "internalType": "uint256",
          "name": "",
          "type": "uint256"
        }
      ],
      "name": "adminAddProposalCancelled",
      "outputs": [
        {
          "internalType": "bool",
          "name": "",
          "type": "bool"
        }
      ],
      "stateMutability": "view",
      "type": "function"
    },
    {
      "inputs": [
        {
          "internalType": "uint256",
          "name": "",
          "type": "uint256"
        }
      ],
      "name": "adminAddProposalExpiresAt",
      "outputs": [
        {
          "internalType": "uint256",
          "name": "",
          "type": "uint256"
        }
      ],
      "stateMutability": "view",
      "type": "function"
    },
    {
      "inputs": [
        {
          "internalType": "uint256",
          "name": "",
          "type": "uint256"
        }
      ],
      "name": "adminAddProposals",
      "outputs": [
        {
          "internalType": "address",
          "name": "newAdmin",
          "type": "address"
        },
        {
          "internalType": "uint256",
          "name": "approvalCount",
          "type": "uint256"
        },
        {
          "internalType": "bool",
          "name": "executed",
          "type": "bool"
        },
        {
          "internalType": "uint256",
          "name": "createdAt",
          "type": "uint256"
        },
        {
          "internalType": "uint256",
          "name": "eta",
          "type": "uint256"
        },
        {
          "internalType": "address",
          "name": "proposer",
          "type": "address"
        }
      ],
      "stateMutability": "view",
      "type": "function"
    },
    {
      "inputs": [
        {
          "internalType": "uint256",
          "name": "",
          "type": "uint256"
        }
      ],
      "name": "admins",
      "outputs": [
        {
          "internalType": "address",
          "name": "",
          "type": "address"
        }
      ],
      "stateMutability": "view",
      "type": "function"
    },
    {
      "inputs": [
        {
          "internalType": "uint256",
          "name": "_proposalId",
          "type": "uint256"
        }
      ],
      "name": "approveAddAdmin",
      "outputs": [],
      "stateMutability": "nonpayable",
      "type": "function"
    },
    {
      "inputs": [
        {
          "internalType": "uint256",
          "name": "_proposalId",
          "type": "uint256"
        }
      ],
      "name": "approveDisputeSolution",
      "outputs": [],
      "stateMutability": "nonpayable",
      "type": "function"
    },
    {
      "inputs": [
        {
          "internalType": "uint256",
          "name": "_proposalId",
          "type": "uint256"
        }
      ],
      "name": "approveOracleUpdate",
      "outputs": [],
      "stateMutability": "nonpayable",
      "type": "function"
    },
    {
      "inputs": [
        {
          "internalType": "uint256",
          "name": "_proposalId",
          "type": "uint256"
        }
      ],
      "name": "approveTreasuryPayoutAddressUpdate",
      "outputs": [],
      "stateMutability": "nonpayable",
      "type": "function"
    },
    {
      "inputs": [],
      "name": "approveUnpause",
      "outputs": [],
      "stateMutability": "nonpayable",
      "type": "function"
    },
    {
      "inputs": [
        {
          "internalType": "uint256",
          "name": "_proposalId",
          "type": "uint256"
        }
      ],
      "name": "cancelExpiredAddAdminProposal",
      "outputs": [],
      "stateMutability": "nonpayable",
      "type": "function"
    },
    {
      "inputs": [
        {
          "internalType": "uint256",
          "name": "_proposalId",
          "type": "uint256"
        }
      ],
      "name": "cancelExpiredDisputeProposal",
      "outputs": [],
      "stateMutability": "nonpayable",
      "type": "function"
    },
    {
      "inputs": [
        {
          "internalType": "uint256",
          "name": "_proposalId",
          "type": "uint256"
        }
      ],
      "name": "cancelExpiredOracleUpdateProposal",
      "outputs": [],
      "stateMutability": "nonpayable",
      "type": "function"
    },
    {
      "inputs": [
        {
          "internalType": "uint256",
          "name": "_proposalId",
          "type": "uint256"
        }
      ],
      "name": "cancelExpiredTreasuryPayoutAddressUpdateProposal",
      "outputs": [],
      "stateMutability": "nonpayable",
      "type": "function"
    },
    {
      "inputs": [
        {
          "internalType": "uint256",
          "name": "_tradeId",
          "type": "uint256"
        }
      ],
      "name": "cancelLockedTradeAfterTimeout",
      "outputs": [],
      "stateMutability": "nonpayable",
      "type": "function"
    },
    {
      "inputs": [],
      "name": "cancelUnpauseProposal",
      "outputs": [],
      "stateMutability": "nonpayable",
      "type": "function"
    },
    {
      "inputs": [],
      "name": "claim",
      "outputs": [],
      "stateMutability": "nonpayable",
      "type": "function"
    },
    {
      "inputs": [],
      "name": "claimTreasury",
      "outputs": [],
      "stateMutability": "nonpayable",
      "type": "function"
    },
    {
      "inputs": [
        {
          "internalType": "address",
          "name": "",
          "type": "address"
        }
      ],
      "name": "claimableUsdc",
      "outputs": [
        {
          "internalType": "uint256",
          "name": "",
          "type": "uint256"
        }
      ],
      "stateMutability": "view",
      "type": "function"
    },
    {
      "inputs": [],
      "name": "claimsPaused",
      "outputs": [
        {
          "internalType": "bool",
          "name": "",
          "type": "bool"
        }
      ],
      "stateMutability": "view",
      "type": "function"
    },
    {
      "inputs": [
        {
          "internalType": "uint256",
          "name": "_tradeId",
          "type": "uint256"
        }
      ],
      "name": "confirmArrival",
      "outputs": [],
      "stateMutability": "nonpayable",
      "type": "function"
    },
    {
      "inputs": [
        {
          "internalType": "address",
          "name": "_supplier",
          "type": "address"
        },
        {
          "internalType": "uint256",
          "name": "_totalAmount",
          "type": "uint256"
        },
        {
          "internalType": "uint256",
          "name": "_logisticsAmount",
          "type": "uint256"
        },
        {
          "internalType": "uint256",
          "name": "_platformFeesAmount",
          "type": "uint256"
        },
        {
          "internalType": "uint256",
          "name": "_supplierFirstTranche",
          "type": "uint256"
        },
        {
          "internalType": "uint256",
          "name": "_supplierSecondTranche",
          "type": "uint256"
        },
        {
          "internalType": "bytes32",
          "name": "_ricardianHash",
          "type": "bytes32"
        },
        {
          "internalType": "uint256",
          "name": "_buyerNonce",
          "type": "uint256"
        },
        {
          "internalType": "uint256",
          "name": "_deadline",
          "type": "uint256"
        },
        {
          "internalType": "bytes",
          "name": "_signature",
          "type": "bytes"
        }
      ],
      "name": "createTrade",
      "outputs": [
        {
          "internalType": "uint256",
          "name": "",
          "type": "uint256"
        }
      ],
      "stateMutability": "nonpayable",
      "type": "function"
    },
    {
      "inputs": [],
      "name": "disableOracleEmergency",
      "outputs": [],
      "stateMutability": "nonpayable",
      "type": "function"
    },
    {
      "inputs": [],
      "name": "disputeCounter",
      "outputs": [
        {
          "internalType": "uint256",
          "name": "",
          "type": "uint256"
        }
      ],
      "stateMutability": "view",
      "type": "function"
    },
    {
      "inputs": [
        {
          "internalType": "uint256",
          "name": "",
          "type": "uint256"
        },
        {
          "internalType": "address",
          "name": "",
          "type": "address"
        }
      ],
      "name": "disputeHasApproved",
      "outputs": [
        {
          "internalType": "bool",
          "name": "",
          "type": "bool"
        }
      ],
      "stateMutability": "view",
      "type": "function"
    },
    {
      "inputs": [
        {
          "internalType": "uint256",
          "name": "",
          "type": "uint256"
        }
      ],
      "name": "disputeProposalCancelled",
      "outputs": [
        {
          "internalType": "bool",
          "name": "",
          "type": "bool"
        }
      ],
      "stateMutability": "view",
      "type": "function"
    },
    {
      "inputs": [
        {
          "internalType": "uint256",
          "name": "",
          "type": "uint256"
        }
      ],
      "name": "disputeProposalExpiresAt",
      "outputs": [
        {
          "internalType": "uint256",
          "name": "",
          "type": "uint256"
        }
      ],
      "stateMutability": "view",
      "type": "function"
    },
    {
      "inputs": [
        {
          "internalType": "uint256",
          "name": "",
          "type": "uint256"
        }
      ],
      "name": "disputeProposals",
      "outputs": [
        {
          "internalType": "uint256",
          "name": "tradeId",
          "type": "uint256"
        },
        {
          "internalType": "enum AgroasysEscrow.DisputeStatus",
          "name": "disputeStatus",
          "type": "uint8"
        },
        {
          "internalType": "uint256",
          "name": "approvalCount",
          "type": "uint256"
        },
        {
          "internalType": "bool",
          "name": "executed",
          "type": "bool"
        },
        {
          "internalType": "uint256",
          "name": "createdAt",
          "type": "uint256"
        },
        {
          "internalType": "address",
          "name": "proposer",
          "type": "address"
        }
      ],
      "stateMutability": "view",
      "type": "function"
    },
    {
      "inputs": [
        {
          "internalType": "uint256",
          "name": "_proposalId",
          "type": "uint256"
        }
      ],
      "name": "executeAddAdmin",
      "outputs": [],
      "stateMutability": "nonpayable",
      "type": "function"
    },
    {
      "inputs": [
        {
          "internalType": "uint256",
          "name": "_proposalId",
          "type": "uint256"
        }
      ],
      "name": "executeOracleUpdate",
      "outputs": [],
      "stateMutability": "nonpayable",
      "type": "function"
    },
    {
      "inputs": [
        {
          "internalType": "uint256",
          "name": "_proposalId",
          "type": "uint256"
        }
      ],
      "name": "executeTreasuryPayoutAddressUpdate",
      "outputs": [],
      "stateMutability": "nonpayable",
      "type": "function"
    },
    {
      "inputs": [
        {
          "internalType": "uint256",
          "name": "_tradeId",
          "type": "uint256"
        }
      ],
      "name": "finalizeAfterDisputeWindow",
      "outputs": [],
      "stateMutability": "nonpayable",
      "type": "function"
    },
    {
      "inputs": [
        {
          "internalType": "address",
          "name": "buyer",
          "type": "address"
        }
      ],
      "name": "getBuyerNonce",
      "outputs": [
        {
          "internalType": "uint256",
          "name": "",
          "type": "uint256"
        }
      ],
      "stateMutability": "view",
      "type": "function"
    },
    {
      "inputs": [],
      "name": "getNextTradeId",
      "outputs": [
        {
          "internalType": "uint256",
          "name": "",
          "type": "uint256"
        }
      ],
      "stateMutability": "view",
      "type": "function"
    },
    {
      "inputs": [],
      "name": "governanceApprovals",
      "outputs": [
        {
          "internalType": "uint256",
          "name": "",
          "type": "uint256"
        }
      ],
      "stateMutability": "view",
      "type": "function"
    },
    {
      "inputs": [],
      "name": "governanceTimelock",
      "outputs": [
        {
          "internalType": "uint256",
          "name": "",
          "type": "uint256"
        }
      ],
      "stateMutability": "view",
      "type": "function"
    },
    {
      "inputs": [],
      "name": "hasActiveUnpauseProposal",
      "outputs": [
        {
          "internalType": "bool",
          "name": "",
          "type": "bool"
        }
      ],
      "stateMutability": "view",
      "type": "function"
    },
    {
      "inputs": [],
      "name": "hasPendingTreasuryPayoutAddressUpdateProposal",
      "outputs": [
        {
          "internalType": "bool",
          "name": "",
          "type": "bool"
        }
      ],
      "stateMutability": "view",
      "type": "function"
    },
    {
      "inputs": [
        {
          "internalType": "uint256",
          "name": "",
          "type": "uint256"
        }
      ],
      "name": "inTransitSince",
      "outputs": [
        {
          "internalType": "uint256",
          "name": "",
          "type": "uint256"
        }
      ],
      "stateMutability": "view",
      "type": "function"
    },
    {
      "inputs": [
        {
          "internalType": "address",
          "name": "",
          "type": "address"
        }
      ],
      "name": "isAdmin",
      "outputs": [
        {
          "internalType": "bool",
          "name": "",
          "type": "bool"
        }
      ],
      "stateMutability": "view",
      "type": "function"
    },
    {
      "inputs": [
        {
          "internalType": "address",
          "name": "",
          "type": "address"
        }
      ],
      "name": "nonces",
      "outputs": [
        {
          "internalType": "uint256",
          "name": "",
          "type": "uint256"
        }
      ],
      "stateMutability": "view",
      "type": "function"
    },
    {
      "inputs": [
        {
          "internalType": "uint256",
          "name": "_tradeId",
          "type": "uint256"
        }
      ],
      "name": "openDispute",
      "outputs": [],
      "stateMutability": "nonpayable",
      "type": "function"
    },
    {
      "inputs": [],
      "name": "oracleActive",
      "outputs": [
        {
          "internalType": "bool",
          "name": "",
          "type": "bool"
        }
      ],
      "stateMutability": "view",
      "type": "function"
    },
    {
      "inputs": [],
      "name": "oracleAddress",
      "outputs": [
        {
          "internalType": "address",
          "name": "",
          "type": "address"
        }
      ],
      "stateMutability": "view",
      "type": "function"
    },
    {
      "inputs": [],
      "name": "oracleUpdateCounter",
      "outputs": [
        {
          "internalType": "uint256",
          "name": "",
          "type": "uint256"
        }
      ],
      "stateMutability": "view",
      "type": "function"
    },
    {
      "inputs": [
        {
          "internalType": "uint256",
          "name": "",
          "type": "uint256"
        },
        {
          "internalType": "address",
          "name": "",
          "type": "address"
        }
      ],
      "name": "oracleUpdateHasApproved",
      "outputs": [
        {
          "internalType": "bool",
          "name": "",
          "type": "bool"
        }
      ],
      "stateMutability": "view",
      "type": "function"
    },
    {
      "inputs": [
        {
          "internalType": "uint256",
          "name": "",
          "type": "uint256"
        }
      ],
      "name": "oracleUpdateProposalCancelled",
      "outputs": [
        {
          "internalType": "bool",
          "name": "",
          "type": "bool"
        }
      ],
      "stateMutability": "view",
      "type": "function"
    },
    {
      "inputs": [
        {
          "internalType": "uint256",
          "name": "",
          "type": "uint256"
        }
      ],
      "name": "oracleUpdateProposalExpiresAt",
      "outputs": [
        {
          "internalType": "uint256",
          "name": "",
          "type": "uint256"
        }
      ],
      "stateMutability": "view",
      "type": "function"
    },
    {
      "inputs": [
        {
          "internalType": "uint256",
          "name": "",
          "type": "uint256"
        }
      ],
      "name": "oracleUpdateProposals",
      "outputs": [
        {
          "internalType": "address",
          "name": "newOracle",
          "type": "address"
        },
        {
          "internalType": "uint256",
          "name": "approvalCount",
          "type": "uint256"
        },
        {
          "internalType": "bool",
          "name": "executed",
          "type": "bool"
        },
        {
          "internalType": "uint256",
          "name": "createdAt",
          "type": "uint256"
        },
        {
          "internalType": "uint256",
          "name": "eta",
          "type": "uint256"
        },
        {
          "internalType": "address",
          "name": "proposer",
          "type": "address"
        },
        {
          "internalType": "bool",
          "name": "emergencyFastTrack",
          "type": "bool"
        }
      ],
      "stateMutability": "view",
      "type": "function"
    },
    {
      "inputs": [],
      "name": "pause",
      "outputs": [],
      "stateMutability": "nonpayable",
      "type": "function"
    },
    {
      "inputs": [],
      "name": "pauseClaims",
      "outputs": [],
      "stateMutability": "nonpayable",
      "type": "function"
    },
    {
      "inputs": [],
      "name": "paused",
      "outputs": [
        {
          "internalType": "bool",
          "name": "",
          "type": "bool"
        }
      ],
      "stateMutability": "view",
      "type": "function"
    },
    {
      "inputs": [
        {
          "internalType": "address",
          "name": "_newAdmin",
          "type": "address"
        }
      ],
      "name": "proposeAddAdmin",
      "outputs": [
        {
          "internalType": "uint256",
          "name": "",
          "type": "uint256"
        }
      ],
      "stateMutability": "nonpayable",
      "type": "function"
    },
    {
      "inputs": [
        {
          "internalType": "uint256",
          "name": "_tradeId",
          "type": "uint256"
        },
        {
          "internalType": "enum AgroasysEscrow.DisputeStatus",
          "name": "_disputeStatus",
          "type": "uint8"
        }
      ],
      "name": "proposeDisputeSolution",
      "outputs": [
        {
          "internalType": "uint256",
          "name": "",
          "type": "uint256"
        }
      ],
      "stateMutability": "nonpayable",
      "type": "function"
    },
    {
      "inputs": [
        {
          "internalType": "address",
          "name": "_newOracle",
          "type": "address"
        }
      ],
      "name": "proposeOracleUpdate",
      "outputs": [
        {
          "internalType": "uint256",
          "name": "",
          "type": "uint256"
        }
      ],
      "stateMutability": "nonpayable",
      "type": "function"
    },
    {
      "inputs": [
        {
          "internalType": "address",
          "name": "_newPayoutReceiver",
          "type": "address"
        }
      ],
      "name": "proposeTreasuryPayoutAddressUpdate",
      "outputs": [
        {
          "internalType": "uint256",
          "name": "",
          "type": "uint256"
        }
      ],
      "stateMutability": "nonpayable",
      "type": "function"
    },
    {
      "inputs": [],
      "name": "proposeUnpause",
      "outputs": [
        {
          "internalType": "bool",
          "name": "",
          "type": "bool"
        }
      ],
      "stateMutability": "nonpayable",
      "type": "function"
    },
    {
      "inputs": [
        {
          "internalType": "uint256",
          "name": "_tradeId",
          "type": "uint256"
        }
      ],
      "name": "refundInTransitAfterTimeout",
      "outputs": [],
      "stateMutability": "nonpayable",
      "type": "function"
    },
    {
      "inputs": [
        {
          "internalType": "uint256",
          "name": "_tradeId",
          "type": "uint256"
        }
      ],
      "name": "releaseFundsStage1",
      "outputs": [],
      "stateMutability": "nonpayable",
      "type": "function"
    },
    {
      "inputs": [],
      "name": "requiredApprovals",
      "outputs": [
        {
          "internalType": "uint256",
          "name": "",
          "type": "uint256"
        }
      ],
      "stateMutability": "view",
      "type": "function"
    },
    {
      "inputs": [],
      "name": "totalClaimableUsdc",
      "outputs": [
        {
          "internalType": "uint256",
          "name": "",
          "type": "uint256"
        }
      ],
      "stateMutability": "view",
      "type": "function"
    },
    {
      "inputs": [
        {
          "internalType": "uint256",
          "name": "",
          "type": "uint256"
        }
      ],
      "name": "tradeActiveDisputeProposalId",
      "outputs": [
        {
          "internalType": "uint256",
          "name": "",
          "type": "uint256"
        }
      ],
      "stateMutability": "view",
      "type": "function"
    },
    {
      "inputs": [],
      "name": "tradeCounter",
      "outputs": [
        {
          "internalType": "uint256",
          "name": "",
          "type": "uint256"
        }
      ],
      "stateMutability": "view",
      "type": "function"
    },
    {
      "inputs": [
        {
          "internalType": "uint256",
          "name": "",
          "type": "uint256"
        }
      ],
      "name": "tradeHasActiveDisputeProposal",
      "outputs": [
        {
          "internalType": "bool",
          "name": "",
          "type": "bool"
        }
      ],
      "stateMutability": "view",
      "type": "function"
    },
    {
      "inputs": [
        {
          "internalType": "uint256",
          "name": "",
          "type": "uint256"
        }
      ],
      "name": "trades",
      "outputs": [
        {
          "internalType": "uint256",
          "name": "tradeId",
          "type": "uint256"
        },
        {
          "internalType": "bytes32",
          "name": "ricardianHash",
          "type": "bytes32"
        },
        {
          "internalType": "enum AgroasysEscrow.TradeStatus",
          "name": "status",
          "type": "uint8"
        },
        {
          "internalType": "address",
          "name": "buyerAddress",
          "type": "address"
        },
        {
          "internalType": "address",
          "name": "supplierAddress",
          "type": "address"
        },
        {
          "internalType": "uint256",
          "name": "totalAmountLocked",
          "type": "uint256"
        },
        {
          "internalType": "uint256",
          "name": "logisticsAmount",
          "type": "uint256"
        },
        {
          "internalType": "uint256",
          "name": "platformFeesAmount",
          "type": "uint256"
        },
        {
          "internalType": "uint256",
          "name": "supplierFirstTranche",
          "type": "uint256"
        },
        {
          "internalType": "uint256",
          "name": "supplierSecondTranche",
          "type": "uint256"
        },
        {
          "internalType": "uint256",
          "name": "createdAt",
          "type": "uint256"
        },
        {
          "internalType": "uint256",
          "name": "arrivalTimestamp",
          "type": "uint256"
        }
      ],
      "stateMutability": "view",
      "type": "function"
    },
    {
      "inputs": [],
      "name": "treasuryAddress",
      "outputs": [
        {
          "internalType": "address",
          "name": "",
          "type": "address"
        }
      ],
      "stateMutability": "view",
      "type": "function"
    },
    {
      "inputs": [],
      "name": "treasuryPayoutAddress",
      "outputs": [
        {
          "internalType": "address",
          "name": "",
          "type": "address"
        }
      ],
      "stateMutability": "view",
      "type": "function"
    },
    {
      "inputs": [],
      "name": "treasuryPayoutAddressUpdateCounter",
      "outputs": [
        {
          "internalType": "uint256",
          "name": "",
          "type": "uint256"
        }
      ],
      "stateMutability": "view",
      "type": "function"
    },
    {
      "inputs": [
        {
          "internalType": "uint256",
          "name": "",
          "type": "uint256"
        },
        {
          "internalType": "address",
          "name": "",
          "type": "address"
        }
      ],
      "name": "treasuryPayoutAddressUpdateHasApproved",
      "outputs": [
        {
          "internalType": "bool",
          "name": "",
          "type": "bool"
        }
      ],
      "stateMutability": "view",
      "type": "function"
    },
    {
      "inputs": [
        {
          "internalType": "uint256",
          "name": "",
          "type": "uint256"
        }
      ],
      "name": "treasuryPayoutAddressUpdateProposalCancelled",
      "outputs": [
        {
          "internalType": "bool",
          "name": "",
          "type": "bool"
        }
      ],
      "stateMutability": "view",
      "type": "function"
    },
    {
      "inputs": [
        {
          "internalType": "uint256",
          "name": "",
          "type": "uint256"
        }
      ],
      "name": "treasuryPayoutAddressUpdateProposalExpiresAt",
      "outputs": [
        {
          "internalType": "uint256",
          "name": "",
          "type": "uint256"
        }
      ],
      "stateMutability": "view",
      "type": "function"
    },
    {
      "inputs": [
        {
          "internalType": "uint256",
          "name": "",
          "type": "uint256"
        }
      ],
      "name": "treasuryPayoutAddressUpdateProposals",
      "outputs": [
        {
          "internalType": "address",
          "name": "newPayoutReceiver",
          "type": "address"
        },
        {
          "internalType": "uint256",
          "name": "approvalCount",
          "type": "uint256"
        },
        {
          "internalType": "bool",
          "name": "executed",
          "type": "bool"
        },
        {
          "internalType": "uint256",
          "name": "createdAt",
          "type": "uint256"
        },
        {
          "internalType": "uint256",
          "name": "eta",
          "type": "uint256"
        },
        {
          "internalType": "address",
          "name": "proposer",
          "type": "address"
        }
      ],
      "stateMutability": "view",
      "type": "function"
    },
    {
      "inputs": [],
      "name": "unpauseClaims",
      "outputs": [],
      "stateMutability": "nonpayable",
      "type": "function"
    },
    {
      "inputs": [
        {
          "internalType": "address",
          "name": "",
          "type": "address"
        }
      ],
      "name": "unpauseHasApproved",
      "outputs": [
        {
          "internalType": "bool",
          "name": "",
          "type": "bool"
        }
      ],
      "stateMutability": "view",
      "type": "function"
    },
    {
      "inputs": [],
      "name": "unpauseProposal",
      "outputs": [
        {
          "internalType": "uint256",
          "name": "approvalCount",
          "type": "uint256"
        },
        {
          "internalType": "bool",
          "name": "executed",
          "type": "bool"
        },
        {
          "internalType": "uint256",
          "name": "createdAt",
          "type": "uint256"
        },
        {
          "internalType": "address",
          "name": "proposer",
          "type": "address"
        }
      ],
      "stateMutability": "view",
      "type": "function"
    },
    {
      "inputs": [],
      "name": "usdcToken",
      "outputs": [
        {
          "internalType": "contract IERC20",
          "name": "",
          "type": "address"
        }
      ],
      "stateMutability": "view",
      "type": "function"
    }
  ],
  "bytecode": "0x60806040523461044e5761515b8038038061001981610469565b92833981019060a08183031261044e576100328161048e565b9061003f6020820161048e565b9061004c6040820161048e565b60608201519091906001600160401b03811161044e5781019480601f8701121561044e578551956001600160401b038711610453578660051b90602080610094818501610469565b809a8152019282010192831161044e57602001905b828210610436575050506080015160017f9b779b17422d0df92223018b32b4d1fa46e071723d6817e2486d003becc55f0055926001600160a01b0316918215610401576001600160a01b03169081156103cb576001600160a01b031691821561039357831561034e57600285511061030957838551106102d057600f80546001600160a01b0319908116929092179055600c8054821692909217909155600d8054821683179055600e805490911690911790556012556000905b80518210156102a757600582901b810160200151600092906001600160a01b0316801561027657808452601160205260ff60408520541661023f576010546801000000000000000081101561022b576001810180601055811015610217577f1b6847dc741a1b0cd08d278845f9d819d87b734759afb55fe2de5cb82a9ae6720180546001600160a01b03191682179055835260116020526040909220805460ff191660019081179091559190910190610163565b634e487b7160e01b85526032600452602485fd5b634e487b7160e01b85526041600452602485fd5b60405162461bcd60e51b815260206004820152600f60248201526e323ab83634b1b0ba329030b236b4b760891b6044820152606490fd5b60405162461bcd60e51b81526020600482015260096024820152683130b21030b236b4b760b91b6044820152606490fd5b62015180601b55600e805460ff60a81b1916600160a81b179055604051614cb890816104a38239f35b60405162461bcd60e51b81526020600482015260116024820152706e6f7420656e6f7567682061646d696e7360781b6044820152606490fd5b60405162461bcd60e51b815260206004820152601a60248201527f6174206c6561737420322061646d696e732072657175697265640000000000006044820152606490fd5b60405162461bcd60e51b815260206004820152601e60248201527f726571756972656420617070726f76616c73206d757374206265203e203000006044820152606490fd5b60405162461bcd60e51b815260206004820152601060248201526f696e76616c696420747265617375727960801b6044820152606490fd5b60405162461bcd60e51b815260206004820152600e60248201526d696e76616c6964206f7261636c6560901b6044820152606490fd5b60405162461bcd60e51b815260206004820152600d60248201526c34b73b30b634b2103a37b5b2b760991b6044820152606490fd5b602080916104438461048e565b8152019101906100a9565b600080fd5b634e487b7160e01b600052604160045260246000fd5b6040519190601f01601f191682016001600160401b0381118382101761045357604052565b51906001600160a01b038216820361044e5756fe608080604052600436101561001357600080fd5b60003560e01c9081623bdc74146139bc575080630d6043c6146138255780630f3314e71461377757806311eac8551461374e57806314bfd6d01461370c57806318c27404146136875780631e6c598e146135c457806320e32a531461359857806324d7806c146135595780632507cde114612f6b5780632715048c14612e9657806327d00fb014612d865780632a3ecca114612d395780632a4591ba14612cfa57806331c6577514612cdc5780633d8f680614612c375780634a2ae30514612c115780634be9357114612a2b5780634e71d92d146128e35780634f84e8c8146128b757806355d2ac861461287d5780635ab8621e1461284c5780635c04d8ca1461282e5780635c975abb1461280b578063620dc23a146126ee5780636405a405146126d0578063660d15b514610c085780636726b9db1461254c57806368d69b61146117c75780636de2a4f014612409578063710bb979146123dd578063749511b1146122495780637526b0ea146117c757806376d622ce1461217457806376ebb7e01461214857806377d8f09d14611ffb5780637d36f4d314611fdd5780637ecebe001461116f57806380eda0fd14611db657806381b2ce3114611d645780638354415d14611c995780638456cb5914611bee57806386f23a3514611bc85780638d2304ee14611b9c57806396f84c0914611b6b57806399c1aadc14611b4d5780639a1fdd7914611b2f5780639b5e30611461197f578063a097760414611932578063a11bcc65146117ef578063a143b004146117cc578063a375d807146117c7578063a48448fe1461174a578063a63187d1146116cd578063a89ae4ba146116a4578063a94c8f3d14611628578063a9f4bd65146115db578063ae7784d7146114f7578063b9bcaf21146113b4578063c0e8f6a714611396578063c194bb4e1461137b578063c5f956af14611352578063c5fa4a9814611305578063cc792e0d146112e2578063cd8ce3be146111a9578063d371cf721461116f578063d6d81fa314610eb2578063d80d0e5614610dca578063daa0785614610c87578063dc88100e14610c43578063e57a7e3514610c26578063ea4aa01614610c08578063ec9d151714610a82578063ede25b9d14610951578063ee5798ae14610920578063f565776d146105e7578063f585dc57146105c9578063f5ecef57146105a0578063fae8a3d614610437578063fcb0aa021461040b578063fda769e7146103da5763ff0c4ee5146103a457600080fd5b346103d55760203660031901126103d5576004356000526006602052602060ff604060002054166040519015158152f35b600080fd5b346103d55760203660031901126103d5576004356000526029602052602060ff604060002054166040519015158152f35b346103d55760203660031901126103d557600435600052601e6020526020604060002054604051908152f35b346103d55760003660031901126103d55733600052601160205261046260ff60406000205416613cb2565b61047060ff60005416614055565b61048160ff600e5460a81c1661414d565b60ff601a5416610593575b6040516080810181811067ffffffffffffffff82111761057d576040526001815260006020820152426040820152606033910152600160155560ff196016541660165542601755336bffffffffffffffffffffffff60a01b60185416176018553360005260196020526040600020600160ff19825416179055600160ff19601a541617601a55604051337f0c098089b7550dc564f1a038c8820df7c94ad41baa6be122a568c720c323ce3c600080a2610543614312565b6001825260208201527ff250c8cac0e5a06311da43d7d136f294ff38fe995468d5352d5b795bec30020a60403392a2602060405160018152f35b634e487b7160e01b600052604160045260246000fd5b61059b614a26565b61048c565b346103d55760003660031901126103d557600e546040516001600160a01b039091168152602090f35b346103d55760003660031901126103d5576020604051620151808152f35b346103d55760403660031901126103d55760043560243560028110156103d55733600052601160205261062160ff60406000205416613cb2565b610629614476565b6106366002548310613f54565b81600052600160205260ff60026040600020015416600581101561090a5760036106609114613e37565b81600052600660205260ff6040600020541661081c575b600a549061068482613eb5565b600a556040519261069484613bb5565b8084526020840193600094838152604082016001815260608301878152608084019142835260a0850193338552888a52600460205260408a2095518655600186019051600281101561080857916005959493916107159360ff80198354169116179055516002870155511515600386019060ff801983541691151516179055565b51600484015551910180546001600160a01b0319166001600160a01b03929092169190911790558284526005602090815260408086203387528252808620805460ff1990811660019081179092558488526006845282882080549091169091179055828652600790915284208390554262093a8081019081106107f45760408585602097526008875220556107ad6040518093613c11565b827f169133ad218243916e40f5d940b11e6662965ad0b9436428ec3ec92af6593fbb853394a46001601254146107e6575b604051908152f35b6107ef816144b0565b6107de565b634e487b7160e01b85526011600452602485fd5b634e487b7160e01b8b52602160045260248bfd5b8160005260076020526040600020548060005260086020526040600020544211806108f1575b156108b3578060005260096020526040600020600160ff19825416179055826000526006602052604060002060ff198154169055826000526007602052600060408120558233917f7d0d8277552faa3f645755b68537c6cdbbd2b3415f4fc4ec554d62d4824311d1600080a4610677565b60405162461bcd60e51b81526020600482015260166024820152756163746976652070726f706f73616c2065786973747360501b6044820152606490fd5b5080600052600960205260ff6040600020541615610842565b634e487b7160e01b600052602160045260246000fd5b346103d55760203660031901126103d557600435600052601f602052602060ff604060002054166040519015158152f35b346103d55760203660031901126103d55760043533600052601160205261097f60ff60406000205416613cb2565b61098c6020548210613ceb565b80600052601c6020526040600020906109aa60038301541515613d2c565b600160028301918254906109c160ff831615613d78565b80600052601f6020526109dc60ff6040600020541615613db7565b600052601e6020526109f5604060002054421115613df8565b610a0b82850154610a04614312565b1115614327565b610a1b600485015442101561436a565b60ff1916179055600c805482546001600160a01b031982166001600160a01b0391821617909255600e805460ff60a81b1916600160a81b1790559154811691167f078c3b417dadf69374a59793b829c52001247130433427049317bde56607b1b7600080a3005b346103d55760203660031901126103d557600435336000526011602052610ab060ff60406000205416613cb2565b610abd6025548210613ceb565b806000526021602052604060002090610adb60038301541515613d2c565b60028201805491610aef60ff841615613d78565b806000526024602052610b0a60ff6040600020541615613db7565b6000526023602052610b23604060002054421115613df8565b610b336001840154610a04614312565b610b43600484015442101561436a565b82546001600160a01b031691600190610b5d84151561418b565b836000526011602052610b7860ff60406000205416156141c7565b60ff19161790556010546801000000000000000081101561057d57806001610ba39201601055613b58565b815460039190911b92831b6001600160a01b039384901b19909116179055815481166000908152601160205260408120805460ff19166001179055915416907f44d6d25963f097ad14f29f06854a01f575648a1ef82f30e562ccd3889717e3399080a2005b346103d55760003660031901126103d5576020600254604051908152f35b346103d55760003660031901126103d55760208054604051908152f35b346103d55760003660031901126103d557608060155460ff6016541660175460018060a01b0360185416916040519384521515602084015260408301526060820152f35b346103d55760203660031901126103d557600435336000526011602052610cb560ff60406000205416613cb2565b610cc26025548210613ceb565b80600052602160205260016040600020610ce160038201541515613d2c565b610cf260ff60028301541615613d78565b826000526024602052610d0d60ff6040600020541615613db7565b826000526023602052610d27604060002054421115613df8565b8260005260226020526040600020828060a01b033316600052602052610d5560ff6040600020541615613e76565b8260005260226020526040600020828060a01b03331660005260205260406000208260ff198254161790550190610d8c8254613eb5565b809255610d97614312565b60405192835260208301527fb8cacf822d821b4e79cb750d1368c77e7e7ec2aee16f886327cd7c756f47c22360403393a3005b346103d55760203660031901126103d557600435336000526011602052610df860ff60406000205416613cb2565b610e05602a548210613ceb565b806000526026602052610e3260ff60026040600020610e2960038201541515613d2c565b01541615613d78565b806000526029602052610e4d60ff6040600020541615613ed1565b806000526028602052610e666040600020544211613f11565b8060005260296020526040600020600160ff1982541617905560ff19602b5416602b5533907f3aa666fca861a2efe08793b4b6df7e2f3b72b5137df4acdf56dacd603242d65e600080a3005b346103d55760203660031901126103d557610ecb613b89565b336000526011602052610ee560ff60406000205416613cb2565b6001600160a01b0316801561113957600c546001600160a01b0316811461110657610f1b601054610f14614312565b1115614203565b602054610f2781613eb5565b602055600e5460a81c60ff16159182156110f557425b60405160e0810181811067ffffffffffffffff82111761057d5760405282815260208101600181526005604083019260008452606081014281526080820190868252610fe860a084019633885260c08501968c88528b600052601c60205260406000209560018060a01b039060018060a01b03905116166bffffffffffffffffffffffff60a01b875416178655516001860155511515600285019060ff801983541691151516179055565b51600383015551600482015592519201805491516001600160a81b03199092166001600160a01b03939093169290921790151560a01b60ff60a01b161790556000838152601d602090815260408083203384529091529020805460ff191660011790554262093a808101949085106110df5760209484600052601e865260406000205560405191825284820152827faff168a4e1fa91858b5fc1c223cee9cc0eaeaddb0b29c18df1630e08305bd80260403393a46110a4614312565b604051906001825283820152817ff39407f640014cb0220c4f7b0a6cc6acee38a440a8add233fa88e8c98b95b25c60403393a3604051908152f35b634e487b7160e01b600052601160045260246000fd5b611101601b5442613ec4565b610f3d565b60405162461bcd60e51b815260206004820152600b60248201526a73616d65206f7261636c6560a81b6044820152606490fd5b60405162461bcd60e51b815260206004820152600e60248201526d696e76616c6964206f7261636c6560901b6044820152606490fd5b346103d55760203660031901126103d5576001600160a01b03611190613b89565b1660005260036020526020604060002054604051908152f35b346103d55760203660031901126103d5576004353360005260116020526111d760ff60406000205416613cb2565b6111e4602a548210613ceb565b80600052602660205260406000209061120260038301541515613d2c565b6001600283019182549061121960ff831615613d78565b80600052602960205261123460ff6040600020541615613db7565b600052602860205261124d604060002054421115613df8565b61125c82850154610a04614312565b61126c600485015442101561436a565b61127f828060a01b038554161515613c5a565b60ff1990811691909117909155602b80549091169055600e805482546001600160a01b031982166001600160a01b03918216179092559154811691167f4dc5527be93f8b21f9376931190711db811d1e6d980ca325ee2520d65069df74600080a3005b346103d55760003660031901126103d557602060ff601a54166040519015158152f35b346103d55760403660031901126103d55761131e613b9f565b600435600052602260205260406000209060018060a01b0316600052602052602060ff604060002054166040519015158152f35b346103d55760003660031901126103d557600d546040516001600160a01b039091168152602090f35b346103d55760003660031901126103d55760206107de614312565b346103d55760003660031901126103d5576020604051621275008152f35b346103d55760203660031901126103d5576004353360005260116020526113e260ff60406000205416613cb2565b6113ef6020548210613ceb565b80600052601c6020526001604060002061140e60038201541515613d2c565b61141f60ff60028301541615613d78565b82600052601f60205261143a60ff6040600020541615613db7565b82600052601e602052611454604060002054421115613df8565b82600052601d6020526040600020828060a01b03331660005260205261148260ff6040600020541615613e76565b82600052601d6020526040600020828060a01b03331660005260205260406000208260ff1982541617905501906114b98254613eb5565b8092556114c4614312565b60405192835260208301527ff39407f640014cb0220c4f7b0a6cc6acee38a440a8add233fa88e8c98b95b25c60403393a3005b346103d55760203660031901126103d55760043561152060018060a01b03600c54163314614113565b61153160ff600e5460a81c1661414d565b611539614476565b6115416143ad565b61154e6002548210613f54565b80600052600160205260406000206002810160ff815416600581101561090a577f86b04a9027748794b50d55160e5a9fe6b0375cd3221e0d4776f9e053f7ef6d04926020926115a16001600a94146142c6565b600260ff198254161790550142815583600052600b82526000604081205554604051908152a26001600080516020614c4383398151915255005b346103d55760403660031901126103d5576115f4613b9f565b600435600052602760205260406000209060018060a01b0316600052602052602060ff604060002054166040519015158152f35b346103d55760203660031901126103d557600435600052600460205260c0604060002080549060ff60018201541690600281015460ff6003830154169061168c600484015493600560018060a01b0391015416946040519687526020870190613c11565b604085015215156060840152608083015260a0820152f35b346103d55760003660031901126103d557600c546040516001600160a01b039091168152602090f35b346103d55760203660031901126103d5576004803560009081526026602090815260409182902080546001820154600283015460038401549684015460059094015486516001600160a01b0394851681529586019290925260ff1615159484019490945260608301949094526080820152911660a082015260c090f35b346103d55760203660031901126103d5576004803560009081526021602090815260409182902080546001820154600283015460038401549684015460059094015486516001600160a01b0394851681529586019290925260ff1615159484019490945260608301949094526080820152911660a082015260c090f35b613bf3565b346103d55760003660031901126103d557602060ff602b54166040519015158152f35b346103d55760203660031901126103d55760043533600052601160205261181d60ff60406000205416613cb2565b61182a602a548210613ceb565b8060005260266020526001604060002061184960038201541515613d2c565b61185a60ff60028301541615613d78565b82600052602960205261187560ff6040600020541615613db7565b82600052602860205261188f604060002054421115613df8565b8260005260276020526040600020828060a01b0333166000526020526118bd60ff6040600020541615613e76565b8260005260276020526040600020828060a01b03331660005260205260406000208260ff1982541617905501906118f48254613eb5565b8092556118ff614312565b60405192835260208301527f33f3d93b68d89de9a6b65493f004ff57d76aadd2fb47a98cbf886447309cdec760403393a3005b346103d55760403660031901126103d55761194b613b9f565b600435600052600560205260406000209060018060a01b0316600052602052602060ff604060002054166040519015158152f35b346103d55760203660031901126103d55760043561199b614476565b6119a36143ad565b6119b06002548210613f54565b8060005260016020526040600020906002820160ff81546119dd3360018060a01b038360081c1614613f92565b16600581101561090a5760016119f391146142c6565b81600052600b6020526040600020548015611aea576212750081018091116110df57421115611aa55760207f1c642f6ec09eeef2a0619a2a298b98d5b38861f8a024837627f161d669c3c10691600460ff1982541617815583600052600b825260006040812055611a77600860018060a01b038354821c1696019586549086614918565b54935460405190815260089490941c6001600160a01b031693a36001600080516020614c4383398151915255005b60405162461bcd60e51b815260206004820152601e60248201527f696e2d7472616e7369742074696d656f7574206e6f7420656c617073656400006044820152606490fd5b60405162461bcd60e51b815260206004820152601c60248201527f696e2d7472616e7369742074696d657374616d70206e6f7420736574000000006044820152606490fd5b346103d55760003660031901126103d5576020601b54604051908152f35b346103d55760003660031901126103d5576020601254604051908152f35b346103d55760203660031901126103d5576004356000526009602052602060ff604060002054166040519015158152f35b346103d55760203660031901126103d55760043560005260086020526020604060002054604051908152f35b346103d55760003660031901126103d557602060ff600e5460a81c166040519015158152f35b346103d55760003660031901126103d557336000526011602052611c1960ff60406000205416613cb2565b60005460ff8116611c6357600190611c2f614476565b60ff1916176000557f62e78cea01bee320cd4e420270b5ea74000d11b0c9f74754ebdbfc544b05a2586020604051338152a1005b60405162461bcd60e51b815260206004820152600e60248201526d185b1c9958591e481c185d5cd95960921b6044820152606490fd5b346103d55760003660031901126103d557336000526011602052611cc460ff60406000205416613cb2565b600e54611cd660ff8260a81c1661414d565b60ff60a81b1916600e5560005460ff811615611d21575b600c546001600160a01b0316337f943e0551255d58897464f9809b2b06574fdc708ade497e30276ae48effc0a794600080a3005b600190611d2c614476565b60ff1916176000557f62e78cea01bee320cd4e420270b5ea74000d11b0c9f74754ebdbfc544b05a2586020604051338152a180611ced565b346103d55760003660031901126103d557336000526011602052611d8f60ff60406000205416613cb2565b611d9d60ff601a541661408e565b611dac60ff6016541615613d78565b611db4614a26565b005b346103d55760203660031901126103d557611dcf613b89565b336000526011602052611de960ff60406000205416613cb2565b6001600160a01b0316611dfd811515613c5a565b600e546001600160a01b03168114611f9857611e1d601054610f14614312565b60ff602b5416611f5357602a54611e3381613eb5565b602a55611e87611e45601b5442613ec4565b60405190611e5282613bb5565b848252600160208301526000604083015242606083015260808201523360a08201528260005260266020526040600020614245565b60008181526027602090815260408083203384529091529020805460ff191660011790554262093a808101929083106110df576020928260005260288452604060002055600160ff19602b541617602b55611ee4601b5442613ec4565b604051908152827f7d8684ed4e806e48e1379ec407e099c58ae93067f5a839e7cdf7299438e33316853393a4611f18614312565b604051906001825283820152817f33f3d93b68d89de9a6b65493f004ff57d76aadd2fb47a98cbf886447309cdec760403393a3604051908152f35b60405162461bcd60e51b815260206004820152601860248201527f70726f706f73616c20616c72656164792070656e64696e6700000000000000006044820152606490fd5b60405162461bcd60e51b815260206004820152601d60248201527f73616d65207472656173757279207061796f75742072656365697665720000006044820152606490fd5b346103d55760003660031901126103d5576020600a54604051908152f35b346103d55760203660031901126103d55760043533600052601160205261202960ff60406000205416613cb2565b612031614476565b61203e600a548210613ceb565b80600052600460205260406000209061205c60048301541515613d2c565b61206d60ff60038401541615613d78565b80600052600960205261208860ff6040600020541615613ed1565b8060005260086020526120a16040600020544211613f11565b8060005260096020526040600020600160ff19825416179055815480600052600660205260ff6040600020541680612131575b612105575b50339154907f7d0d8277552faa3f645755b68537c6cdbbd2b3415f4fc4ec554d62d4824311d1600080a4005b6000526006602052604060002060ff1981541690558154600052600760205260006040812055826120d9565b5080600052600760205281604060002054146120d4565b346103d55760203660031901126103d557600435600052600b6020526020604060002054604051908152f35b346103d55760203660031901126103d5576004353360005260116020526121a260ff60406000205416613cb2565b6121af6020548210613ceb565b80600052601c6020526121d360ff60026040600020610e2960038201541515613d2c565b80600052601f6020526121ee60ff6040600020541615613ed1565b80600052601e6020526122076040600020544211613f11565b80600052601f6020526040600020600160ff1982541617905533907fd2d878f87125c1948b966a8962e09576b78186471e1a7cc90c2bd2b6f05acc9f600080a3005b346103d55760203660031901126103d557612262613b89565b33600052601160205261227c60ff60406000205416613cb2565b6001600160a01b031661229081151561418b565b8060005260116020526122ab60ff60406000205416156141c7565b6122b9601054610f14614312565b6025546122c581613eb5565b6025556123196122d7601b5442613ec4565b604051906122e482613bb5565b848252600160208301526000604083015242606083015260808201523360a08201528260005260216020526040600020614245565b60008181526022602090815260408083203384529091529020805460ff191660011790554262093a808101929083106110df5760209282600052602384526040600020558160005260218352600460406000200154604051908152827f959284814070c6c3a0c8b0ce10f8406a2a5cfe5cc3a7d157ad2ba850026aee64853393a46123a2614312565b604051906001825283820152817fb8cacf822d821b4e79cb750d1368c77e7e7ec2aee16f886327cd7c756f47c22360403393a3604051908152f35b346103d55760203660031901126103d55760043560005260236020526020604060002054604051908152f35b346103d55760203660031901126103d557600435612425614476565b61242d6143ad565b61243a6002548210613f54565b8060005260016020526040600020906002820160ff815416600581101561090a5760026124679114613fcb565b600a830154612477811515614017565b6201518081018091116110df5742111561251257600460ff1982541617905580600052600b602052600060408120557f525d8c9a3bdfd74e1b0f3f79ccf0ef47d77d261e27396b35539f75e5d40861066020600384016124e8600860018060a01b03835416960195865490866148be565b5493546040519081526001600160a01b0390941693a36001600080516020614c4383398151915255005b60405162461bcd60e51b81526020600482015260126024820152711dda5b991bddc81b9bdd08195b185c1cd95960721b6044820152606490fd5b346103d55760203660031901126103d55760043561257560018060a01b03600c54163314614113565b61258660ff600e5460a81c1661414d565b61258e614476565b6125966143ad565b6125a36002548210613f54565b8060005260016020526040600020906002820160ff815416600581101561090a576125ce90156140cf565b600160ff1982541617905580600052600b602052426040600020557f7fe4efc5647c551e3daa927b506b95903589ed6b18a37dbff54db80e7395239b6020600384019360018060a01b038554169461262d6007830196875490876147b0565b600d5460058301805490929161264d91906001600160a01b03168861480a565b612669600660018060a01b03600d541694019384549088614864565b549554600d54915460408051928352858301919091526001600160a01b03928316978893169187917faf26bf705c48ad6f6bf63104d1d8b9f94dac03ba9c3ae49b34cd094cc8c3f6f691a454604051908152a36001600080516020614c4383398151915255005b346103d55760003660031901126103d5576020601454604051908152f35b346103d55760203660031901126103d55760043561270a614476565b6127126143ad565b61271f6002548210613f54565b8060005260016020526040600020906002820160ff815461274c3360018060a01b038360081c1614613f92565b16600581101561090a5761276090156140cf565b600983015462093a8081018091116110df574211156127c65760207fe54e6e873934788882b1744fc124e31c635896db16279bfdfd45fd2953619cff91600460ff19825416178155611a77600460018060a01b03835460081c1696019586549086614751565b60405162461bcd60e51b815260206004820152601860248201527f6c6f636b2074696d656f7574206e6f7420656c617073656400000000000000006044820152606490fd5b346103d55760003660031901126103d557602060ff600054166040519015158152f35b346103d55760003660031901126103d5576020602554604051908152f35b346103d55760203660031901126103d5576004356000526024602052602060ff604060002054166040519015158152f35b346103d55760203660031901126103d5576001600160a01b0361289e613b89565b1660005260136020526020604060002054604051908152f35b346103d55760203660031901126103d55760043560005260286020526020604060002054604051908152f35b346103d55760003660031901126103d55761290660ff600e5460a01c1615613c1e565b61290e6143ad565b600d546001600160a01b031633146129e65733600052601360205260406000205480156129ad573360005260136020526000604081205561295181601454613ca5565b601455600f5461296d90829033906001600160a01b03166143e9565b6040519081527fd8138f8a3f377c5259ca548e70e4c2de94f129f5a11036a15b69513cba2b426a60203392a26001600080516020614c4383398151915255005b60405162461bcd60e51b81526020600482015260116024820152706e6f7468696e6720636c61696d61626c6560781b6044820152606490fd5b60405162461bcd60e51b815260206004820152601f60248201527f7472656173757279206d7573742075736520636c61696d5472656173757279006044820152606490fd5b346103d55760003660031901126103d557336000526011602052612a5660ff60406000205416613cb2565b612a6460ff60005416614055565b612a7260ff601a541661408e565b612a8160ff6016541615613d78565b336000526019602052612a9c60ff6040600020541615613e76565b3360005260196020526040600020600160ff19825416179055612ac0601554613eb5565b80601555612acc614312565b6040519082825260208201527ff250c8cac0e5a06311da43d7d136f294ff38fe995468d5352d5b795bec30020a60403392a2612b06614312565b811015612b0f57005b600190612b2e60165491612b2660ff841615613d78565b610a04614312565b60ff19161760165560ff19601a5416601a55600054612b4f60ff8216614055565b60ff19166000557f5db9ee0a495bf2e6ff9c91a7834c1ba4fdd244a5e8aa4e537bd38aeae4b073aa6020604051338152a16040516010548082528160208101601060005260206000209260005b818110612bef575050612bb192500382613bd1565b60005b8151811015611db4576001906001600160a01b03612bd2828561473d565b51166000526019602052604060002060ff19815416905501612bb4565b84546001600160a01b0316835260019485019486945060209093019201612b9c565b346103d55760003660031901126103d557602060ff600e5460a01c166040519015158152f35b346103d55760003660031901126103d557336000526011602052612c6260ff60406000205416613cb2565b600e5460ff8160a01c1615612ca35760ff60a01b1916600e55337f58faeb75cd58dcc300b630223b434fdafecf55c21cd1aa07ce174a125ea52e8b600080a2005b60405162461bcd60e51b815260206004820152601160248201527018db185a5b5cc81b9bdd081c185d5cd959607a1b6044820152606490fd5b346103d55760003660031901126103d5576020602a54604051908152f35b346103d55760203660031901126103d5576001600160a01b03612d1b613b89565b166000526019602052602060ff604060002054166040519015158152f35b346103d55760403660031901126103d557612d52613b9f565b600435600052601d60205260406000209060018060a01b0316600052602052602060ff604060002054166040519015158152f35b346103d55760203660031901126103d557600435612da2614476565b612daa6143ad565b612db76002548210613f54565b8060005260016020526040600020600281019060ff8254612de43360018060a01b038360081c1614613f92565b1690600582101561090a57612dfd6002600a9314613fcb565b0154612e0a811515614017565b6201518081018091116110df574211612e6157805460ff191660031790557fb145240944e8bfe8998e31f11365578b766764ed1255b8e2efcb56e741b7be18600080a26001600080516020614c4383398151915255005b60405162461bcd60e51b815260206004820152600d60248201526c1dda5b991bddc818db1bdcd959609a1b6044820152606490fd5b346103d55760203660031901126103d557600435336000526011602052612ec460ff60406000205416613cb2565b612ed16025548210613ceb565b806000526021602052612ef560ff60026040600020610e2960038201541515613d2c565b806000526024602052612f1060ff6040600020541615613ed1565b806000526023602052612f296040600020544211613f11565b8060005260246020526040600020600160ff1982541617905533907f6e5c3c82c1e75af7548eba9cd2cb4b639f5b6762fec00ca5e0d902fbad351ebc600080a3005b346103d5576101403660031901126103d557612f85613b89565b6024359060e4356101043591610124359067ffffffffffffffff82116103d557366023830112156103d557816004013567ffffffffffffffff811161057d5760405192612fdc601f8301601f191660200185613bd1565b81845236602483830101116103d557816000926024602093018387013784010152613005614476565b61300d6143ad565b60c43515613514576001600160a01b03169283156134db5761304460a43561303f60843561303f606435604435613ec4565b613ec4565b85036134a157608435151580613496575b1561345a573360005260036020526040600020548303613429578042116133f057613150916131479160018060a01b03600d54169060405190602082019246845230604084015233606084015288608084015260a08301528860c083015260443560e083015260643561010083015260843561012083015260a43561014083015260c435610160830152866101808301526101a08201526101a081526130fd6101c082613bd1565b51902060405160208101917f19457468657265756d205369676e6564204d6573736167653a0a3332000000008352603c820152603c815261313f605c82613bd1565b519020614aff565b90929192614b3b565b336001600160a01b03909116036133bb57600181018091116110df573360005260036020526040600020556002549061318882613eb5565b600255604051610180810181811067ffffffffffffffff82111761057d576040528281526020810160c435815260408201600081523360608401528360808401528560a084015260443560c084015260643560e084015260843561010084015260a435610120840152426101408401526000610160840152846000526001602052604060002091835183555160018301555191600583101561090a5760028201805460608301516001600160a81b031990911660ff90951694909417600894851b610100600160a81b031617905560808101516003830180546001600160a01b0319166001600160a01b0392831617905560a082015160048085019190915560c0830151600585015560e0830151600685015561010083015160078501556101208301519484019490945561014082015160098401556101609190910151600a9290920191909155600f546040516323b872dd60e01b6000908152339094523060245260448790529116949091602081606481808a5af1600182511481161561339c575b8360405281606052156133885750602094508152604435848201526064356040820152608435606082015260a435608082015260c43560a0820152827f9896188f7299b6607b47eaa190d500bf89abbfa1bb2ce6d410f88b043e371b6760c03393a46001600080516020614c4383398151915255604051908152f35b635274afe760e01b81526004869052602490fd5b60018115166133b257863b15153d15161661330c565b833d83823e3d90fd5b60405162461bcd60e51b815260206004820152600d60248201526c626164207369676e617475726560981b6044820152606490fd5b60405162461bcd60e51b81526020600482015260116024820152701cda59db985d1d5c9948195e1c1a5c9959607a1b6044820152606490fd5b60405162461bcd60e51b8152602060048201526009602482015268626164206e6f6e636560b81b6044820152606490fd5b60405162461bcd60e51b815260206004820152601460248201527307472616e63686573206d757374206265203e20360641b6044820152606490fd5b5060a4351515613055565b60405162461bcd60e51b81526020600482015260126024820152710c4e4cac2d6c8deeedc40dad2e6dac2e8c6d60731b6044820152606490fd5b60405162461bcd60e51b81526020600482015260116024820152701cdd5c1c1b1a595c881c995c5d5a5c9959607a1b6044820152606490fd5b60405162461bcd60e51b815260206004820152601760248201527f72696361726469616e20686173682072657175697265640000000000000000006044820152606490fd5b346103d55760203660031901126103d5576001600160a01b0361357a613b89565b166000526011602052602060ff604060002054166040519015158152f35b346103d55760203660031901126103d55760043560005260076020526020604060002054604051908152f35b346103d55760203660031901126103d557600435600052600160205260406000208054600182015460028301549260ff84169360018060a01b0360038301541660048301546005840154600685015491600786015493600887015495600a6009890154980154986040519a8b5260208b015260058b101561090a576101809a60408b015260018060a01b039060081c1660608a0152608089015260a088015260c087015260e0860152610100850152610120840152610140830152610160820152f35b346103d55760203660031901126103d557600435600052601c60205260e0604060002060ff60018060a01b03825416916001810154908260028201541660038201549060056004840154930154936040519687526020870152151560408601526060850152608084015260018060a01b03811660a084015260a01c16151560c0820152f35b346103d55760203660031901126103d5576004356010548110156103d557613735602091613b58565b905460405160039290921b1c6001600160a01b03168152f35b346103d55760003660031901126103d557600f546040516001600160a01b039091168152602090f35b346103d55760003660031901126103d5573360005260116020526137a260ff60406000205416613cb2565b600e5460ff8160a01c166137e85760ff60a01b1916600160a01b17600e55337fb62d15b068fb54a6f9b91bc09d642314c90fe5262a9f0c4b646803af896af792600080a2005b60405162461bcd60e51b815260206004820152601560248201527418db185a5b5cc8185b1c9958591e481c185d5cd959605a1b6044820152606490fd5b346103d55760203660031901126103d55760043533600052601160205261385360ff60406000205416613cb2565b61385b614476565b6138636143ad565b613870600a548210613ceb565b806000526004602052604060002061388d60048201541515613d2c565b61389e60ff60038301541615613d78565b8160005260096020526138b960ff6040600020541615613db7565b8160005260086020526138d3604060002054421115613df8565b8054600052600160205260ff6002604060002001541690600582101561090a57613901600360029314613e37565b60008381526005602090815260408083203384529091529020546139289060ff1615613e76565b60008381526005602090815260408083203384529091529020805460ff1916600117905501805461395890613eb5565b80915560125490604051818152826020820152837f14e1b3091f09f49236e90d7a9826aa647e37c8b8600adc8a5935ee0c179e2de160403393a310156139ad575b6001600080516020614c4383398151915255005b6139b6906144b0565b80613999565b346103d55760003660031901126103d557600d546001600160a01b031633148015613b40575b15613b05576139f960ff600e5460a01c1615613c1e565b613a016143ad565b600d546001600160a01b03166000818152601360205260409020548015613ac057600e546001600160a01b031691613a3a831515613c5a565b600052601360205260006040812055613a5581601454613ca5565b601455600f54613a7190829084906001600160a01b03166143e9565b7fe67c643fa26ff85bbee9ac87fc706274fc81cf4ab3711712c8822eedba5a2306604060018060a01b03600d5416928151908152336020820152a36001600080516020614c4383398151915255005b60405162461bcd60e51b815260206004820152601a60248201527f6e6f7468696e6720747265617375727920636c61696d61626c650000000000006044820152606490fd5b62461bcd60e51b815260206004820152601660248201527537b7363c903a3932b0b9bab93c9037b91030b236b4b760511b6044820152606490fd5b5033600052601160205260ff604060002054166139e2565b601054811015613b7357601060005260206000200190600090565b634e487b7160e01b600052603260045260246000fd5b600435906001600160a01b03821682036103d557565b602435906001600160a01b03821682036103d557565b60c0810190811067ffffffffffffffff82111761057d57604052565b90601f8019910116810190811067ffffffffffffffff82111761057d57604052565b346103d55760003660031901126103d557602060405162093a808152f35b90600282101561090a5752565b15613c2557565b60405162461bcd60e51b815260206004820152600d60248201526c18db185a5b5cc81c185d5cd959609a1b6044820152606490fd5b15613c6157565b606460405162461bcd60e51b815260206004820152602060248201527f696e76616c6964207472656173757279207061796f75742072656365697665726044820152fd5b919082039182116110df57565b15613cb957565b60405162461bcd60e51b815260206004820152600a60248201526937b7363c9030b236b4b760b11b6044820152606490fd5b15613cf257565b60405162461bcd60e51b81526020600482015260126024820152711c1c9bdc1bdcd85b081b9bdd08199bdd5b9960721b6044820152606490fd5b15613d3357565b60405162461bcd60e51b815260206004820152601860248201527f70726f706f73616c206e6f7420696e697469616c697a656400000000000000006044820152606490fd5b15613d7f57565b60405162461bcd60e51b815260206004820152601060248201526f185b1c9958591e48195e1958dd5d195960821b6044820152606490fd5b15613dbe57565b60405162461bcd60e51b81526020600482015260126024820152711c1c9bdc1bdcd85b0818d85b98d95b1b195960721b6044820152606490fd5b15613dff57565b60405162461bcd60e51b815260206004820152601060248201526f1c1c9bdc1bdcd85b08195e1c1a5c995960821b6044820152606490fd5b15613e3e57565b60405162461bcd60e51b815260206004820152601060248201526f3a3930b232903737ba10333937bd32b760811b6044820152606490fd5b15613e7d57565b60405162461bcd60e51b815260206004820152601060248201526f185b1c9958591e48185c1c1c9bdd995960821b6044820152606490fd5b60001981146110df5760010190565b919082018092116110df57565b15613ed857565b60405162461bcd60e51b8152602060048201526011602482015270185b1c9958591e4818d85b98d95b1b1959607a1b6044820152606490fd5b15613f1857565b60405162461bcd60e51b81526020600482015260146024820152731c1c9bdc1bdcd85b081b9bdd08195e1c1a5c995960621b6044820152606490fd5b15613f5b57565b60405162461bcd60e51b815260206004820152600f60248201526e1d1c985919481b9bdd08199bdd5b99608a1b6044820152606490fd5b15613f9957565b60405162461bcd60e51b815260206004820152600a60248201526937b7363c90313abcb2b960b11b6044820152606490fd5b15613fd257565b60405162461bcd60e51b815260206004820152601960248201527f6d757374206265204152524956414c5f434f4e4649524d4544000000000000006044820152606490fd5b1561401e57565b60405162461bcd60e51b815260206004820152600f60248201526e185c9c9a5d985b081b9bdd081cd95d608a1b6044820152606490fd5b1561405c57565b60405162461bcd60e51b815260206004820152600a6024820152691b9bdd081c185d5cd95960b21b6044820152606490fd5b1561409557565b60405162461bcd60e51b81526020600482015260126024820152711b9bc81858dd1a5d99481c1c9bdc1bdcd85b60721b6044820152606490fd5b156140d657565b60405162461bcd60e51b81526020600482015260156024820152741cdd185d1d5cc81b5d5cdd081899481313d0d2d151605a1b6044820152606490fd5b1561411a57565b60405162461bcd60e51b815260206004820152600b60248201526a6f6e6c79206f7261636c6560a81b6044820152606490fd5b1561415457565b60405162461bcd60e51b815260206004820152600f60248201526e1bdc9858db1948191a5cd8589b1959608a1b6044820152606490fd5b1561419257565b60405162461bcd60e51b815260206004820152600d60248201526c34b73b30b634b21030b236b4b760991b6044820152606490fd5b156141ce57565b60405162461bcd60e51b815260206004820152600d60248201526c30b63932b0b23c9030b236b4b760991b6044820152606490fd5b1561420a57565b60405162461bcd60e51b8152602060048201526013602482015272696e73756666696369656e742061646d696e7360681b6044820152606490fd5b815181546001600160a01b039091166001600160a01b031990911617815560208201516001820155604082015160028201805460ff191691151560ff1691909117905590600590606081015160038401556080810151600484015560a00151910180546001600160a01b0319166001600160a01b0392909216919091179055565b156142cd57565b60405162461bcd60e51b815260206004820152601960248201527f737461747573206d75737420626520494e5f5452414e534954000000000000006044820152606490fd5b60125460028110156143245750600290565b90565b1561432e57565b60405162461bcd60e51b81526020600482015260146024820152736e6f7420656e6f75676820617070726f76616c7360601b6044820152606490fd5b1561437157565b60405162461bcd60e51b81526020600482015260146024820152731d1a5b595b1bd8dac81b9bdd08195b185c1cd95960621b6044820152606490fd5b6002600080516020614c4383398151915254146143d8576002600080516020614c4383398151915255565b633ee5aeb560e01b60005260046000fd5b60405163a9059cbb60e01b60009081526001600160a01b03909316600452602493909352919060209060448180865af190600160005114821615614454575b604052156144335750565b635274afe760e01b60009081526001600160a01b0391909116600452602490fd5b90600181151661446c57823b15153d15161690614428565b503d6000823e3d90fd5b60ff6000541661448257565b60405162461bcd60e51b81526020600482015260066024820152651c185d5cd95960d21b6044820152606490fd5b80600052600460205260406000209060038201918254926144d460ff851615613d78565b8260005260096020526144ef60ff6040600020541615613db7565b826000526008602052614509604060002054421115613df8565b61451b60028301546012541115614327565b81546000526001602052604060002090600282019460ff865416600581101561090a576003036147015760019060ff1916179055600460ff1985541617845581546000526006602052604060002060ff19815416905581546000526007602052600060408120558154600052600b60205260006040812055600881015493600183019160ff835416600281101561090a578061464d5750509160ff94846020937fafdf3220f58fe501f1c7cff54df532523ba92e302d4b17d7bb8c30b9e4e906b360407f367ef6da4bd64313a89876ecb2e42b4be35f68f378625be0d78dcd15eba27dd09760018060a01b03905460081c169561461a868883546149cc565b54998a93541695815195865261463288870188613c11565b6001600160a01b031694a461464a6040518092613c11565ba3565b909391506001036146c35760ff94846020937fafdf3220f58fe501f1c7cff54df532523ba92e302d4b17d7bb8c30b9e4e906b360407f367ef6da4bd64313a89876ecb2e42b4be35f68f378625be0d78dcd15eba27dd097600360018060a01b0391015416956146be86888354614972565b61461a565b60405162461bcd60e51b8152602060048201526016602482015275696e76616c696420646973707574652073746174757360501b6044820152606490fd5b60405162461bcd60e51b81526020600482015260146024820152733a3930b2329036bab9ba10313290232927ad22a760611b6044820152606490fd5b8051821015613b735760209160051b010190565b9082156147ab576040600080516020614c638339815191529160018060a01b0316938460005260136020528160002061478b828254613ec4565b905561479981601454613ec4565b601455815190815260046020820152a3565b505050565b9082156147ab576040600080516020614c638339815191529160018060a01b031693846000526013602052816000206147ea828254613ec4565b90556147f881601454613ec4565b601455815190815260006020820152a3565b9082156147ab576040600080516020614c638339815191529160018060a01b03169384600052601360205281600020614844828254613ec4565b905561485281601454613ec4565b601455815190815260016020820152a3565b9082156147ab576040600080516020614c638339815191529160018060a01b0316938460005260136020528160002061489e828254613ec4565b90556148ac81601454613ec4565b601455815190815260026020820152a3565b9082156147ab576040600080516020614c638339815191529160018060a01b031693846000526013602052816000206148f8828254613ec4565b905561490681601454613ec4565b601455815190815260036020820152a3565b9082156147ab576040600080516020614c638339815191529160018060a01b03169384600052601360205281600020614952828254613ec4565b905561496081601454613ec4565b601455815190815260056020820152a3565b9082156147ab576040600080516020614c638339815191529160018060a01b031693846000526013602052816000206149ac828254613ec4565b90556149ba81601454613ec4565b601455815190815260076020820152a3565b9082156147ab576040600080516020614c638339815191529160018060a01b03169384600052601360205281600020614a06828254613ec4565b9055614a1481601454613ec4565b601455815190815260066020820152a3565b6040516010548082528160208101601060005260206000209260005b818110614add575050614a5792500382613bd1565b60005b8151811015614a95576001906001600160a01b03614a78828561473d565b51166000526019602052604060002060ff19815416905501614a5a565b505060ff19601a5416601a556000601555600060165560006017556000601855337fc79764e56dcfddc1a2135f80cf347dd741f7c7f914a134142b5d336e156d3bd0600080a2565b84546001600160a01b0316835260019485019486945060209093019201614a42565b8151919060418303614b3057614b2992506020820151906060604084015193015160001a90614bad565b9192909190565b505060009160029190565b919091600481101561090a5780614b5157509050565b600060018203614b6c5763f645eedf60e01b60005260046000fd5b5060028103614b8a578263fce698f760e01b60005260045260246000fd5b9091600360009214614b9a575050565b6335e2f38360e21b825260045260249150fd5b91907f7fffffffffffffffffffffffffffffff5d576e7357a4501ddfe92f46681b20a08411614c36579160209360809260ff60009560405194855216868401526040830152606082015282805260015afa15614c2a576000516001600160a01b03811615614c1e5790600090600090565b50600090600190600090565b6040513d6000823e3d90fd5b5050506000916003919056fe9b779b17422d0df92223018b32b4d1fa46e071723d6817e2486d003becc55f00b6abcb523a11175bda4306d957cda75287b3d848b084a70d85fe099f51bc7f89a2646970667358221220a0fad4a611ac9c94c55246b3498f93b10473c262ad6c9ba391736bde97a57d0464736f6c63430008220033",
  "linkReferences": {},
  "deployedLinkReferences": {}
}